{
  "contractName": "SpankBank",
  "abi": [
    {
      "constant": true,
      "inputs": [],
      "name": "currentPeriod",
      "outputs": [
        {
          "name": "",
          "type": "uint256"
        }
      ],
      "payable": false,
      "stateMutability": "view",
      "type": "function"
    },
    {
      "constant": true,
      "inputs": [],
      "name": "closingVotes",
      "outputs": [
        {
          "name": "",
          "type": "uint256"
        }
      ],
      "payable": false,
      "stateMutability": "view",
      "type": "function"
    },
    {
      "constant": true,
      "inputs": [],
      "name": "bootyToken",
      "outputs": [
        {
          "name": "",
          "type": "address"
        }
      ],
      "payable": false,
      "stateMutability": "view",
      "type": "function"
    },
    {
      "constant": true,
      "inputs": [],
      "name": "maxPeriods",
      "outputs": [
        {
          "name": "",
          "type": "uint256"
        }
      ],
      "payable": false,
      "stateMutability": "view",
      "type": "function"
    },
    {
      "constant": true,
      "inputs": [
        {
          "name": "",
          "type": "address"
        }
      ],
      "name": "stakerByDelegateKey",
      "outputs": [
        {
          "name": "",
          "type": "address"
        }
      ],
      "payable": false,
      "stateMutability": "view",
      "type": "function"
    },
    {
      "constant": true,
      "inputs": [
        {
          "name": "",
          "type": "address"
        }
      ],
      "name": "stakers",
      "outputs": [
        {
          "name": "spankStaked",
          "type": "uint256"
        },
        {
          "name": "startingPeriod",
          "type": "uint256"
        },
        {
          "name": "endingPeriod",
          "type": "uint256"
        },
        {
          "name": "delegateKey",
          "type": "address"
        },
        {
          "name": "bootyBase",
          "type": "address"
        }
      ],
      "payable": false,
      "stateMutability": "view",
      "type": "function"
    },
    {
      "constant": true,
      "inputs": [],
      "name": "spankToken",
      "outputs": [
        {
          "name": "",
          "type": "address"
        }
      ],
      "payable": false,
      "stateMutability": "view",
      "type": "function"
    },
    {
      "constant": true,
      "inputs": [],
      "name": "isClosed",
      "outputs": [
        {
          "name": "",
          "type": "bool"
        }
      ],
      "payable": false,
      "stateMutability": "view",
      "type": "function"
    },
    {
      "constant": true,
      "inputs": [],
      "name": "totalSpankStaked",
      "outputs": [
        {
          "name": "",
          "type": "uint256"
        }
      ],
      "payable": false,
      "stateMutability": "view",
      "type": "function"
    },
    {
      "constant": true,
      "inputs": [],
      "name": "periodLength",
      "outputs": [
        {
          "name": "",
          "type": "uint256"
        }
      ],
      "payable": false,
      "stateMutability": "view",
      "type": "function"
    },
    {
      "constant": true,
      "inputs": [],
      "name": "closingPeriod",
      "outputs": [
        {
          "name": "",
          "type": "uint256"
        }
      ],
      "payable": false,
      "stateMutability": "view",
      "type": "function"
    },
    {
      "constant": true,
      "inputs": [
        {
          "name": "",
          "type": "uint256"
        }
      ],
      "name": "periods",
      "outputs": [
        {
          "name": "bootyFees",
          "type": "uint256"
        },
        {
          "name": "totalSpankPoints",
          "type": "uint256"
        },
        {
          "name": "bootyMinted",
          "type": "uint256"
        },
        {
          "name": "mintingComplete",
          "type": "bool"
        },
        {
          "name": "startTime",
          "type": "uint256"
        },
        {
          "name": "endTime",
          "type": "uint256"
        },
        {
          "name": "closingVotes",
          "type": "uint256"
        },
        {
          "name": "totalStakedSpank",
          "type": "uint256"
        }
      ],
      "payable": false,
      "stateMutability": "view",
      "type": "function"
    },
    {
      "inputs": [
        {
          "name": "_periodLength",
          "type": "uint256"
        },
        {
          "name": "_maxPeriods",
          "type": "uint256"
        },
        {
          "name": "spankAddress",
          "type": "address"
        },
        {
          "name": "initialBootySupply",
          "type": "uint256"
        },
        {
          "name": "bootyTokenName",
          "type": "string"
        },
        {
          "name": "bootyDecimalUnits",
          "type": "uint8"
        },
        {
          "name": "bootySymbol",
          "type": "string"
        }
      ],
      "payable": false,
      "stateMutability": "nonpayable",
      "type": "constructor"
    },
    {
      "anonymous": false,
      "inputs": [
        {
          "indexed": false,
          "name": "periodLength",
          "type": "uint256"
        },
        {
          "indexed": false,
          "name": "maxPeriods",
          "type": "uint256"
        },
        {
          "indexed": false,
          "name": "spankAddress",
          "type": "address"
        },
        {
          "indexed": false,
          "name": "initialBootySupply",
          "type": "uint256"
        },
        {
          "indexed": false,
          "name": "bootyTokenName",
          "type": "string"
        },
        {
          "indexed": false,
          "name": "bootyDecimalUnits",
          "type": "uint8"
        },
        {
          "indexed": false,
          "name": "bootySymbol",
          "type": "string"
        }
      ],
      "name": "SpankBankCreated",
      "type": "event"
    },
    {
      "anonymous": false,
      "inputs": [
        {
          "indexed": true,
          "name": "staker",
          "type": "address"
        },
        {
          "indexed": false,
          "name": "period",
          "type": "uint256"
        },
        {
          "indexed": false,
          "name": "spankPoints",
          "type": "uint256"
        },
        {
          "indexed": false,
          "name": "spankAmount",
          "type": "uint256"
        },
        {
          "indexed": false,
          "name": "stakePeriods",
          "type": "uint256"
        }
      ],
      "name": "StakeEvent",
      "type": "event"
    },
    {
      "anonymous": false,
      "inputs": [
        {
          "indexed": false,
          "name": "period",
          "type": "uint256"
        },
        {
          "indexed": false,
          "name": "bootyFees",
          "type": "uint256"
        },
        {
          "indexed": false,
          "name": "totalSpankPoints",
          "type": "uint256"
        },
        {
          "indexed": false,
          "name": "bootyMinted",
          "type": "uint256"
        },
        {
          "indexed": false,
          "name": "closingVotes",
          "type": "uint256"
        },
        {
          "indexed": false,
          "name": "totalStakedSpank",
          "type": "uint256"
        }
      ],
      "name": "PeriodEvent",
      "type": "event"
    },
    {
      "anonymous": false,
      "inputs": [
        {
          "indexed": true,
          "name": "sender",
          "type": "address"
        },
        {
          "indexed": true,
          "name": "bootyAmount",
          "type": "uint256"
        }
      ],
      "name": "SendFeesEvent",
      "type": "event"
    },
    {
      "anonymous": false,
      "inputs": [
        {
          "indexed": true,
          "name": "targetBootySupply",
          "type": "uint256"
        },
        {
          "indexed": true,
          "name": "totalBootySupply",
          "type": "uint256"
        }
      ],
      "name": "MintBootyEvent",
      "type": "event"
    },
    {
      "anonymous": false,
      "inputs": [
        {
          "indexed": true,
          "name": "staker",
          "type": "address"
        },
        {
          "indexed": false,
          "name": "period",
          "type": "uint256"
        },
        {
          "indexed": false,
          "name": "spankPoints",
          "type": "uint256"
        },
        {
          "indexed": false,
          "name": "stakerEndingPeriod",
          "type": "uint256"
        }
      ],
      "name": "CheckInEvent",
      "type": "event"
    },
    {
      "anonymous": false,
      "inputs": [
        {
          "indexed": true,
          "name": "staker",
          "type": "address"
        },
        {
          "indexed": true,
          "name": "period",
          "type": "uint256"
        },
        {
          "indexed": true,
          "name": "bootyOwed",
          "type": "uint256"
        }
      ],
      "name": "ClaimBootyEvent",
      "type": "event"
    },
    {
      "anonymous": false,
      "inputs": [
        {
          "indexed": true,
          "name": "staker",
          "type": "address"
        },
        {
          "indexed": true,
          "name": "totalSpankToWithdraw",
          "type": "uint256"
        }
      ],
      "name": "WithdrawStakeEvent",
      "type": "event"
    },
    {
      "anonymous": false,
      "inputs": [
        {
          "indexed": true,
          "name": "staker",
          "type": "address"
        },
        {
          "indexed": true,
          "name": "newAddress",
          "type": "address"
        },
        {
          "indexed": false,
          "name": "spankAmount",
          "type": "uint256"
        }
      ],
      "name": "SplitStakeEvent",
      "type": "event"
    },
    {
      "anonymous": false,
      "inputs": [
        {
          "indexed": true,
          "name": "staker",
          "type": "address"
        },
        {
          "indexed": false,
          "name": "period",
          "type": "uint256"
        }
      ],
      "name": "VoteToCloseEvent",
      "type": "event"
    },
    {
      "anonymous": false,
      "inputs": [
        {
          "indexed": true,
          "name": "staker",
          "type": "address"
        }
      ],
      "name": "UpdateDelegateKeyEvent",
      "type": "event"
    },
    {
      "anonymous": false,
      "inputs": [
        {
          "indexed": true,
          "name": "staker",
          "type": "address"
        }
      ],
      "name": "UpdateBootyBaseEvent",
      "type": "event"
    },
    {
      "anonymous": false,
      "inputs": [
        {
          "indexed": false,
          "name": "from",
          "type": "address"
        },
        {
          "indexed": false,
          "name": "tokenContract",
          "type": "address"
        },
        {
          "indexed": false,
          "name": "extraData",
          "type": "bytes"
        }
      ],
      "name": "ReceiveApprovalEvent",
      "type": "event"
    },
    {
      "constant": false,
      "inputs": [
        {
          "name": "spankAmount",
          "type": "uint256"
        },
        {
          "name": "stakePeriods",
          "type": "uint256"
        },
        {
          "name": "delegateKey",
          "type": "address"
        },
        {
          "name": "bootyBase",
          "type": "address"
        }
      ],
      "name": "stake",
      "outputs": [],
      "payable": false,
      "stateMutability": "nonpayable",
      "type": "function"
    },
    {
      "constant": false,
      "inputs": [
        {
          "name": "from",
          "type": "address"
        },
        {
          "name": "amount",
          "type": "uint256"
        },
        {
          "name": "tokenContract",
          "type": "address"
        },
        {
          "name": "extraData",
          "type": "bytes"
        }
      ],
      "name": "receiveApproval",
      "outputs": [
        {
          "name": "success",
          "type": "bool"
        }
      ],
      "payable": false,
      "stateMutability": "nonpayable",
      "type": "function"
    },
    {
      "constant": false,
      "inputs": [
        {
          "name": "bootyAmount",
          "type": "uint256"
        }
      ],
      "name": "sendFees",
      "outputs": [],
      "payable": false,
      "stateMutability": "nonpayable",
      "type": "function"
    },
    {
      "constant": false,
      "inputs": [],
      "name": "mintBooty",
      "outputs": [],
      "payable": false,
      "stateMutability": "nonpayable",
      "type": "function"
    },
    {
      "constant": false,
      "inputs": [],
      "name": "updatePeriod",
      "outputs": [],
      "payable": false,
      "stateMutability": "nonpayable",
      "type": "function"
    },
    {
      "constant": false,
      "inputs": [
        {
          "name": "updatedEndingPeriod",
          "type": "uint256"
        }
      ],
      "name": "checkIn",
      "outputs": [],
      "payable": false,
      "stateMutability": "nonpayable",
      "type": "function"
    },
    {
      "constant": false,
      "inputs": [
        {
          "name": "_period",
          "type": "uint256"
        }
      ],
      "name": "claimBooty",
      "outputs": [],
      "payable": false,
      "stateMutability": "nonpayable",
      "type": "function"
    },
    {
      "constant": false,
      "inputs": [],
      "name": "withdrawStake",
      "outputs": [],
      "payable": false,
      "stateMutability": "nonpayable",
      "type": "function"
    },
    {
      "constant": false,
      "inputs": [
        {
          "name": "newAddress",
          "type": "address"
        },
        {
          "name": "newDelegateKey",
          "type": "address"
        },
        {
          "name": "newBootyBase",
          "type": "address"
        },
        {
          "name": "spankAmount",
          "type": "uint256"
        }
      ],
      "name": "splitStake",
      "outputs": [],
      "payable": false,
      "stateMutability": "nonpayable",
      "type": "function"
    },
    {
      "constant": false,
      "inputs": [],
      "name": "voteToClose",
      "outputs": [],
      "payable": false,
      "stateMutability": "nonpayable",
      "type": "function"
    },
    {
      "constant": false,
      "inputs": [
        {
          "name": "newDelegateKey",
          "type": "address"
        }
      ],
      "name": "updateDelegateKey",
      "outputs": [],
      "payable": false,
      "stateMutability": "nonpayable",
      "type": "function"
    },
    {
      "constant": false,
      "inputs": [
        {
          "name": "newBootyBase",
          "type": "address"
        }
      ],
      "name": "updateBootyBase",
      "outputs": [],
      "payable": false,
      "stateMutability": "nonpayable",
      "type": "function"
    },
    {
      "constant": true,
      "inputs": [
        {
          "name": "stakerAddress",
          "type": "address"
        },
        {
          "name": "period",
          "type": "uint256"
        }
      ],
      "name": "getSpankPoints",
      "outputs": [
        {
          "name": "",
          "type": "uint256"
        }
      ],
      "payable": false,
      "stateMutability": "view",
      "type": "function"
    },
    {
      "constant": true,
      "inputs": [
        {
          "name": "stakerAddress",
          "type": "address"
        },
        {
          "name": "period",
          "type": "uint256"
        }
      ],
      "name": "getDidClaimBooty",
      "outputs": [
        {
          "name": "",
          "type": "bool"
        }
      ],
      "payable": false,
      "stateMutability": "view",
      "type": "function"
    },
    {
      "constant": true,
      "inputs": [
        {
          "name": "stakerAddress",
          "type": "address"
        },
        {
          "name": "period",
          "type": "uint256"
        }
      ],
      "name": "getVote",
      "outputs": [
        {
          "name": "",
          "type": "bool"
        }
      ],
      "payable": false,
      "stateMutability": "view",
      "type": "function"
    },
    {
      "constant": true,
      "inputs": [
        {
          "name": "period",
          "type": "uint256"
        }
      ],
      "name": "getPeriod",
      "outputs": [
        {
          "name": "",
          "type": "uint256"
        },
        {
          "name": "",
          "type": "uint256"
        },
        {
          "name": "",
          "type": "uint256"
        },
        {
          "name": "",
          "type": "bool"
        },
        {
          "name": "",
          "type": "uint256"
        },
        {
          "name": "",
          "type": "uint256"
        },
        {
          "name": "",
          "type": "uint256"
        },
        {
          "name": "",
          "type": "uint256"
        }
      ],
      "payable": false,
      "stateMutability": "view",
      "type": "function"
    },
    {
      "constant": true,
      "inputs": [
        {
          "name": "stakerAddress",
          "type": "address"
        }
      ],
      "name": "getStaker",
      "outputs": [
        {
          "name": "",
          "type": "uint256"
        },
        {
          "name": "",
          "type": "uint256"
        },
        {
          "name": "",
          "type": "uint256"
        },
        {
          "name": "",
          "type": "address"
        },
        {
          "name": "",
          "type": "address"
        }
      ],
      "payable": false,
      "stateMutability": "view",
      "type": "function"
    },
    {
      "constant": true,
      "inputs": [
        {
          "name": "delegateAddress",
          "type": "address"
        }
      ],
      "name": "getStakerFromDelegateKey",
      "outputs": [
        {
          "name": "",
          "type": "address"
        }
      ],
      "payable": false,
      "stateMutability": "view",
      "type": "function"
    }
  ],
  "bytecode": "0x608060405260006009553480156200001657600080fd5b5060405162005cb338038062005cb3833981018060405281019080805190602001909291908051906020019092919080519060200190929190805190602001909291908051820192919060200180519060200190929190805182019291905050506000876000819055508660018190555085600660006101000a81548173ffffffffffffffffffffffffffffffffffffffff021916908373ffffffffffffffffffffffffffffffffffffffff160217905550838383620000d56200076e565b80806020018460ff1660ff16815260200180602001838103835286818151815260200191508051906020019080838360005b838110156200012457808201518184015260208101905062000107565b50505050905090810190601f168015620001525780820380516001836020036101000a031916815260200191505b50838103825284818151815260200191508051906020019080838360005b838110156200018d57808201518184015260208101905062000170565b50505050905090810190601f168015620001bb5780820380516001836020036101000a031916815260200191505b5095505050505050604051809103906000f080158015620001e0573d6000803e3d6000fd5b50600760006101000a81548173ffffffffffffffffffffffffffffffffffffffff021916908373ffffffffffffffffffffffffffffffffffffffff160217905550600760009054906101000a900473ffffffffffffffffffffffffffffffffffffffff1673ffffffffffffffffffffffffffffffffffffffff166340c10f1930876040518363ffffffff167c0100000000000000000000000000000000000000000000000000000000028152600401808373ffffffffffffffffffffffffffffffffffffffff1673ffffffffffffffffffffffffffffffffffffffff16815260200182815260200192505050602060405180830381600087803b158015620002e757600080fd5b505af1158015620002fc573d6000803e3d6000fd5b505050506040513d60208110156200031357600080fd5b81019080805190602001909291905050505042905080600b600060095481526020019081526020016000206004018190555062000367816000546200074f64010000000002620032d4176401000000009004565b600b6000600954815260200190815260200160002060050181905550600760009054906101000a900473ffffffffffffffffffffffffffffffffffffffff1673ffffffffffffffffffffffffffffffffffffffff1663a9059cbb33876040518363ffffffff167c0100000000000000000000000000000000000000000000000000000000028152600401808373ffffffffffffffffffffffffffffffffffffffff1673ffffffffffffffffffffffffffffffffffffffff16815260200182815260200192505050602060405180830381600087803b1580156200044957600080fd5b505af11580156200045e573d6000803e3d6000fd5b505050506040513d60208110156200047557600080fd5b81019080805190602001909291905050505060006008600080815260200190815260200160002081905550602d60086000600181526020019081526020016000208190555060326008600060028152602001908152602001600020819055506037600860006003815260200190815260200160002081905550603c60086000600481526020019081526020016000208190555060416008600060058152602001908152602001600020819055506046600860006006815260200190815260200160002081905550604b60086000600781526020019081526020016000208190555060506008600060088152602001908152602001600020819055506055600860006009815260200190815260200160002081905550605a60086000600a815260200190815260200160002081905550605f60086000600b815260200190815260200160002081905550606460086000600c8152602001908152602001600020819055507fba1ce6db8884d27cbb3d0fdd8350de432de2f29d88b06d43fded901a8689ecb588888888888888604051808881526020018781526020018673ffffffffffffffffffffffffffffffffffffffff1673ffffffffffffffffffffffffffffffffffffffff168152602001858152602001806020018460ff1660ff16815260200180602001838103835286818151815260200191508051906020019080838360005b838110156200069657808201518184015260208101905062000679565b50505050905090810190601f168015620006c45780820380516001836020036101000a031916815260200191505b50838103825284818151815260200191508051906020019080838360005b83811015620006ff578082015181840152602081019050620006e2565b50505050905090810190601f1680156200072d5780820380516001836020036101000a031916815260200191505b50995050505050505050505060405180910390a150505050505050506200077f565b60008082840190508381101515156200076457fe5b8091505092915050565b6040516116c080620045f383390190565b613e64806200078f6000396000f300608060405260043610610180576000357c0100000000000000000000000000000000000000000000000000000000900463ffffffff16806306040618146101855780632277466b146101b05780632582bf2a146101c75780633c84278a1461020a57806340809acd146102355780634b2c0706146102ac5780634cfef2201461032257806350a9b541146103835780635155bafa146103da57806353547d3f1461040557806364b61d0a1461041c5780636b0dd90f1461049f5780637e9e1561146105045780638f4ffcb1146105875780639168ae721461065257806392f4d2251461071d578063948cfd0c14610774578063a0ac5776146107b7578063a23c44b1146107e4578063a83627de146108af578063b8c0517a146108c6578063bed9d86114610953578063c2b6b58c1461096a578063cc741c9c14610999578063cd43ebf9146109fe578063d2ca211514610a29578063dd768c2814610a54578063e95a644f14610a7f578063ea4a110414610aac578063ecd4eb7414610b22575b600080fd5b34801561019157600080fd5b5061019a610b4f565b6040518082815260200191505060405180910390f35b3480156101bc57600080fd5b506101c5610b55565b005b3480156101d357600080fd5b50610208600480360381019080803573ffffffffffffffffffffffffffffffffffffffff169060200190929190505050610e08565b005b34801561021657600080fd5b5061021f61112b565b6040518082815260200191505060405180910390f35b34801561024157600080fd5b506102aa6004803603810190808035906020019092919080359060200190929190803573ffffffffffffffffffffffffffffffffffffffff169060200190929190803573ffffffffffffffffffffffffffffffffffffffff169060200190929190505050611131565b005b3480156102b857600080fd5b506102d760048036038101908080359060200190929190505050611166565b60405180898152602001888152602001878152602001861515151581526020018581526020018481526020018381526020018281526020019850505050505050505060405180910390f35b34801561032e57600080fd5b5061036d600480360381019080803573ffffffffffffffffffffffffffffffffffffffff16906020019092919080359060200190929190505050611241565b6040518082815260200191505060405180910390f35b34801561038f57600080fd5b5061039861129f565b604051808273ffffffffffffffffffffffffffffffffffffffff1673ffffffffffffffffffffffffffffffffffffffff16815260200191505060405180910390f35b3480156103e657600080fd5b506103ef6112c5565b6040518082815260200191505060405180910390f35b34801561041157600080fd5b5061041a6112cb565b005b34801561042857600080fd5b5061045d600480360381019080803573ffffffffffffffffffffffffffffffffffffffff1690602001909291905050506115ff565b604051808273ffffffffffffffffffffffffffffffffffffffff1673ffffffffffffffffffffffffffffffffffffffff16815260200191505060405180910390f35b3480156104ab57600080fd5b506104ea600480360381019080803573ffffffffffffffffffffffffffffffffffffffff16906020019092919080359060200190929190505050611632565b604051808215151515815260200191505060405180910390f35b34801561051057600080fd5b50610545600480360381019080803573ffffffffffffffffffffffffffffffffffffffff16906020019092919050505061169d565b604051808273ffffffffffffffffffffffffffffffffffffffff1673ffffffffffffffffffffffffffffffffffffffff16815260200191505060405180910390f35b34801561059357600080fd5b50610638600480360381019080803573ffffffffffffffffffffffffffffffffffffffff16906020019092919080359060200190929190803573ffffffffffffffffffffffffffffffffffffffff169060200190929190803590602001908201803590602001908080601f0160208091040260200160405190810160405280939291908181526020018383808284378201915050505050509192919290505050611706565b604051808215151515815260200191505060405180910390f35b34801561065e57600080fd5b50610693600480360381019080803573ffffffffffffffffffffffffffffffffffffffff169060200190929190505050611890565b604051808681526020018581526020018481526020018373ffffffffffffffffffffffffffffffffffffffff1673ffffffffffffffffffffffffffffffffffffffff1681526020018273ffffffffffffffffffffffffffffffffffffffff1673ffffffffffffffffffffffffffffffffffffffff1681526020019550505050505060405180910390f35b34801561072957600080fd5b50610732611906565b604051808273ffffffffffffffffffffffffffffffffffffffff1673ffffffffffffffffffffffffffffffffffffffff16815260200191505060405180910390f35b34801561078057600080fd5b506107b5600480360381019080803573ffffffffffffffffffffffffffffffffffffffff16906020019092919050505061192c565b005b3480156107c357600080fd5b506107e260048036038101908080359060200190929190505050611a0c565b005b3480156107f057600080fd5b50610825600480360381019080803573ffffffffffffffffffffffffffffffffffffffff169060200190929190505050611f38565b604051808681526020018581526020018481526020018373ffffffffffffffffffffffffffffffffffffffff1673ffffffffffffffffffffffffffffffffffffffff1681526020018273ffffffffffffffffffffffffffffffffffffffff1673ffffffffffffffffffffffffffffffffffffffff1681526020019550505050505060405180910390f35b3480156108bb57600080fd5b506108c461208c565b005b3480156108d257600080fd5b50610951600480360381019080803573ffffffffffffffffffffffffffffffffffffffff169060200190929190803573ffffffffffffffffffffffffffffffffffffffff169060200190929190803573ffffffffffffffffffffffffffffffffffffffff16906020019092919080359060200190929190505050612216565b005b34801561095f57600080fd5b50610968612782565b005b34801561097657600080fd5b5061097f612a36565b604051808215151515815260200191505060405180910390f35b3480156109a557600080fd5b506109e4600480360381019080803573ffffffffffffffffffffffffffffffffffffffff16906020019092919080359060200190929190505050612a49565b604051808215151515815260200191505060405180910390f35b348015610a0a57600080fd5b50610a13612ab4565b6040518082815260200191505060405180910390f35b348015610a3557600080fd5b50610a3e612aba565b6040518082815260200191505060405180910390f35b348015610a6057600080fd5b50610a69612ac0565b6040518082815260200191505060405180910390f35b348015610a8b57600080fd5b50610aaa60048036038101908080359060200190929190505050612ac6565b005b348015610ab857600080fd5b50610ad760048036038101908080359060200190929190505050612eb3565b60405180898152602001888152602001878152602001861515151581526020018581526020018481526020018381526020018281526020019850505050505050505060405180910390f35b348015610b2e57600080fd5b50610b4d60048036038101908080359060200190929190505050612f08565b005b60095481565b600080610b6061208c565b600a60003373ffffffffffffffffffffffffffffffffffffffff1673ffffffffffffffffffffffffffffffffffffffff168152602001908152602001600020915060008260000154111515610c1d576040517f08c379a000000000000000000000000000000000000000000000000000000000815260040180806020018281038252601f8152602001807f7374616b65206d7573742062652067726561746572207468616e207a65726f0081525060200191505060405180910390fd5b600954826002015410151515610cc1576040517f08c379a000000000000000000000000000000000000000000000000000000000815260040180806020018281038252603b8152602001807f656e64696e67506572696f64206d75737420626520677265617465722074686181526020017f6e206f7220657175616c20746f2063757272656e74506572696f64000000000081525060400191505060405180910390fd5b60001515826005016000600954815260200190815260200160002060009054906101000a900460ff161515141515610cf857600080fd5b60001515600360009054906101000a900460ff161515141515610d1a57600080fd5b600954600554141515610d395760095460058190555060006004819055505b610d4960045483600001546132d4565b6004819055506001826005016000600954815260200190815260200160002060006101000a81548160ff021916908315150217905550610d8c60025460026132f2565b9050806004541115610db4576001600360006101000a81548160ff0219169083151502179055505b3373ffffffffffffffffffffffffffffffffffffffff167f959f8a1dbf04c81ed0f0e69045e99d3fec4b61c08bb829b5a540450a580fcc966009546040518082815260200191505060405180910390a25050565b60008073ffffffffffffffffffffffffffffffffffffffff168273ffffffffffffffffffffffffffffffffffffffff1614151515610e4557600080fd5b600073ffffffffffffffffffffffffffffffffffffffff16600c60008473ffffffffffffffffffffffffffffffffffffffff1673ffffffffffffffffffffffffffffffffffffffff16815260200190815260200160002060009054906101000a900473ffffffffffffffffffffffffffffffffffffffff1673ffffffffffffffffffffffffffffffffffffffff16141515610edf57600080fd5b600a60003373ffffffffffffffffffffffffffffffffffffffff1673ffffffffffffffffffffffffffffffffffffffff1681526020019081526020016000209050600073ffffffffffffffffffffffffffffffffffffffff168160060160009054906101000a900473ffffffffffffffffffffffffffffffffffffffff1673ffffffffffffffffffffffffffffffffffffffff1614151515610f8057600080fd5b818160060160006101000a81548173ffffffffffffffffffffffffffffffffffffffff021916908373ffffffffffffffffffffffffffffffffffffffff1602179055506000600c60008360060160009054906101000a900473ffffffffffffffffffffffffffffffffffffffff1673ffffffffffffffffffffffffffffffffffffffff1673ffffffffffffffffffffffffffffffffffffffff16815260200190815260200160002060006101000a81548173ffffffffffffffffffffffffffffffffffffffff021916908373ffffffffffffffffffffffffffffffffffffffff16021790555033600c60008473ffffffffffffffffffffffffffffffffffffffff1673ffffffffffffffffffffffffffffffffffffffff16815260200190815260200160002060006101000a81548173ffffffffffffffffffffffffffffffffffffffff021916908373ffffffffffffffffffffffffffffffffffffffff1602179055503373ffffffffffffffffffffffffffffffffffffffff167f4f6212734c1b33297f2b7d38060ce89d5b9e283c9c9e86fc09b3210369d7675060405160405180910390a25050565b60045481565b60001515600360009054906101000a900460ff16151514151561115357600080fd5b611160338585858561330d565b50505050565b60008060008060008060008061117a613d94565b600b60008b815260200190815260200160002061010060405190810160405290816000820154815260200160018201548152602001600282015481526020016003820160009054906101000a900460ff161515151581526020016004820154815260200160058201548152602001600682015481526020016007820154815250509050806000015181602001518260400151836060015184608001518560a001518660c001518760e001519850985098509850985098509850985050919395975091939597565b6000600a60008473ffffffffffffffffffffffffffffffffffffffff1673ffffffffffffffffffffffffffffffffffffffff168152602001908152602001600020600301600083815260200190815260200160002054905092915050565b600760009054906101000a900473ffffffffffffffffffffffffffffffffffffffff1681565b60015481565b60008060008060001515600360009054906101000a900460ff1615151415156112f357600080fd5b6112fb61208c565b600b6000600160095403815260200190815260200160002093508360030160009054906101000a900460ff161515156113c2576040517f08c379a00000000000000000000000000000000000000000000000000000000081526004018080602001828103825260288152602001807f6d696e74426f6f74793a3a6d696e74696e67436f6d706c657465206d7573742081526020017f62652066616c736500000000000000000000000000000000000000000000000081525060400191505060405180910390fd5b60018460030160006101000a81548160ff0219169083151502179055506113ee84600001546014613b1c565b9250600760009054906101000a900473ffffffffffffffffffffffffffffffffffffffff1673ffffffffffffffffffffffffffffffffffffffff166318160ddd6040518163ffffffff167c0100000000000000000000000000000000000000000000000000000000028152600401602060405180830381600087803b15801561147657600080fd5b505af115801561148a573d6000803e3d6000fd5b505050506040513d60208110156114a057600080fd5b81019080805190602001909291905050509150818311156115f9578183039050600760009054906101000a900473ffffffffffffffffffffffffffffffffffffffff1673ffffffffffffffffffffffffffffffffffffffff166340c10f1930836040518363ffffffff167c0100000000000000000000000000000000000000000000000000000000028152600401808373ffffffffffffffffffffffffffffffffffffffff1673ffffffffffffffffffffffffffffffffffffffff16815260200182815260200192505050602060405180830381600087803b15801561158557600080fd5b505af1158015611599573d6000803e3d6000fd5b505050506040513d60208110156115af57600080fd5b81019080805190602001909291905050505080846002018190555081837fdd72482b0b62344dba1c62defa4d0b9a8c3b0c228fdc759fa19f50bb4768bf9a60405160405180910390a35b50505050565b600c6020528060005260406000206000915054906101000a900473ffffffffffffffffffffffffffffffffffffffff1681565b6000600a60008473ffffffffffffffffffffffffffffffffffffffff1673ffffffffffffffffffffffffffffffffffffffff168152602001908152602001600020600501600083815260200190815260200160002060009054906101000a900460ff16905092915050565b6000600c60008373ffffffffffffffffffffffffffffffffffffffff1673ffffffffffffffffffffffffffffffffffffffff16815260200190815260200160002060009054906101000a900473ffffffffffffffffffffffffffffffffffffffff169050919050565b60008060008060001515600360009054906101000a900460ff16151514151561172e57600080fd5b611742600c86613b4f90919063ffffffff16565b9250611758602c86613b4f90919063ffffffff16565b915061176e604086613b8790919063ffffffff16565b90507f499a9be87cbb15c2d4414157ccb0384f611dbc540136ea26b703672df635e1d4888787604051808473ffffffffffffffffffffffffffffffffffffffff1673ffffffffffffffffffffffffffffffffffffffff1681526020018373ffffffffffffffffffffffffffffffffffffffff1673ffffffffffffffffffffffffffffffffffffffff16815260200180602001828103825283818151815260200191508051906020019080838360005b8381101561183857808201518184015260208101905061181d565b50505050905090810190601f1680156118655780820380516001836020036101000a031916815260200191505b5094505050505060405180910390a1611881888883868661330d565b60019350505050949350505050565b600a6020528060005260406000206000915090508060000154908060010154908060020154908060060160009054906101000a900473ffffffffffffffffffffffffffffffffffffffff16908060070160009054906101000a900473ffffffffffffffffffffffffffffffffffffffff16905085565b600660009054906101000a900473ffffffffffffffffffffffffffffffffffffffff1681565b6000600a60003373ffffffffffffffffffffffffffffffffffffffff1673ffffffffffffffffffffffffffffffffffffffff16815260200190815260200160002090506000816000015411151561198257600080fd5b818160070160006101000a81548173ffffffffffffffffffffffffffffffffffffffff021916908373ffffffffffffffffffffffffffffffffffffffff1602179055503373ffffffffffffffffffffffffffffffffffffffff167f36b8b0be2f783dadecc9da5d8bcac1f541caf94ed53df0cf9a11c1e89bef2c5c60405160405180910390a25050565b600080611a17613d94565b600080600080611a2561208c565b60095488101515611ac4576040517f08c379a00000000000000000000000000000000000000000000000000000000081526004018080602001828103825260338152602001807f636c61696d426f6f74793a3a5f706572696f64206d757374206265206c65737381526020017f207468616e2063757272656e74506572696f640000000000000000000000000081525060400191505060405180910390fd5b600c60003373ffffffffffffffffffffffffffffffffffffffff1673ffffffffffffffffffffffffffffffffffffffff16815260200190815260200160002060009054906101000a900473ffffffffffffffffffffffffffffffffffffffff169650600a60008873ffffffffffffffffffffffffffffffffffffffff1673ffffffffffffffffffffffffffffffffffffffff168152602001908152602001600020955085600401600089815260200190815260200160002060009054906101000a900460ff16151515611c25576040517f08c379a00000000000000000000000000000000000000000000000000000000081526004018080602001828103825260328152602001807f636c61696d426f6f74793a3a646964436c61696d426f6f747920666f7220706581526020017f72696f64206d7573742062652066616c7365000000000000000000000000000081525060400191505060405180910390fd5b60018660040160008a815260200190815260200160002060006101000a81548160ff021916908315150217905550600b600089815260200190815260200160002061010060405190810160405290816000820154815260200160018201548152602001600282015481526020016003820160009054906101000a900460ff16151515158152602001600482015481526020016005820154815260200160068201548152602001600782015481525050945084606001511515611ce657600080fd5b84604001519350846020015192506000831115611f2e57856003016000898152602001908152602001600020549150611d28611d228386613b1c565b846132f2565b9050600760009054906101000a900473ffffffffffffffffffffffffffffffffffffffff1673ffffffffffffffffffffffffffffffffffffffff1663a9059cbb8760070160009054906101000a900473ffffffffffffffffffffffffffffffffffffffff16836040518363ffffffff167c0100000000000000000000000000000000000000000000000000000000028152600401808373ffffffffffffffffffffffffffffffffffffffff1673ffffffffffffffffffffffffffffffffffffffff16815260200182815260200192505050602060405180830381600087803b158015611e1357600080fd5b505af1158015611e27573d6000803e3d6000fd5b505050506040513d6020811015611e3d57600080fd5b81019080805190602001909291905050501515611ee8576040517f08c379a00000000000000000000000000000000000000000000000000000000081526004018080602001828103825260278152602001807f636c61696d426f6f74793a3a626f6f7479546f6b656e207472616e736665722081526020017f6661696c7572650000000000000000000000000000000000000000000000000081525060400191505060405180910390fd5b80888873ffffffffffffffffffffffffffffffffffffffff167f2fd6ff0d6667e656647d29c2382be0055e33f9d93855304f719c417aee48515060405160405180910390a45b5050505050505050565b6000806000806000611f48613ddc565b600a60008873ffffffffffffffffffffffffffffffffffffffff1673ffffffffffffffffffffffffffffffffffffffff16815260200190815260200160002060a060405190810160405290816000820154815260200160018201548152602001600282015481526020016006820160009054906101000a900473ffffffffffffffffffffffffffffffffffffffff1673ffffffffffffffffffffffffffffffffffffffff1673ffffffffffffffffffffffffffffffffffffffff1681526020016007820160009054906101000a900473ffffffffffffffffffffffffffffffffffffffff1673ffffffffffffffffffffffffffffffffffffffff1673ffffffffffffffffffffffffffffffffffffffff1681525050905080600001518160200151826040015183606001518460800151955095509550955095505091939590929450565b612094613d94565b5b600b60006009548152602001908152602001600020600501544210151561221357600b6000600954815260200190815260200160002061010060405190810160405290816000820154815260200160018201548152602001600282015481526020016003820160009054906101000a900460ff1615151515815260200160048201548152602001600582015481526020016006820154815260200160078201548152505090507f2be57d70714a7369e9f6395a88fa1391e6a3cc66c2575b9277404830012c54cf6009548260000151836020015184604001518560c001518660e0015160405180878152602001868152602001858152602001848152602001838152602001828152602001965050505050505060405180910390a160016009600082825401925050819055508060a00151600b60006009548152602001908152602001600020600401819055506121f28160a001516000546132d4565b600b6000600954815260200190815260200160002060050181905550612095565b50565b600061222061208c565b600073ffffffffffffffffffffffffffffffffffffffff168573ffffffffffffffffffffffffffffffffffffffff16141515156122eb576040517f08c379a00000000000000000000000000000000000000000000000000000000081526004018080602001828103825260318152602001807f73706c69745374616b653a3a6e657741646472657373206d757374206265206181526020017f206e6f6e2d7a65726f206164647265737300000000000000000000000000000081525060400191505060405180910390fd5b600082111515612389576040517f08c379a000000000000000000000000000000000000000000000000000000000815260040180806020018281038252602e8152602001807f73706c69745374616b653a3a7370616e6b416d6f756e74206d7573742062652081526020017f67726561746572207468616e203000000000000000000000000000000000000081525060400191505060405180910390fd5b600a60003373ffffffffffffffffffffffffffffffffffffffff1673ffffffffffffffffffffffffffffffffffffffff1681526020019081526020016000209050806002015460095410151561246d576040517f08c379a00000000000000000000000000000000000000000000000000000000081526004018080602001828103825260338152602001807f63757272656e74506572696f64206d757374206265206c657373207468616e2081526020017f7374616b657220656e64696e67506572696f640000000000000000000000000081525060400191505060405180910390fd5b8060000154821115151561250f576040517f08c379a00000000000000000000000000000000000000000000000000000000081526004018080602001828103825260368152602001807f7370616e6b416d6f756e74206d757374206265206c657373207468616e206f7281526020017f20657175616c20746f207374616b6572207374616b650000000000000000000081525060400191505060405180910390fd5b600081600301600060016009540181526020019081526020016000205414151561253857600080fd5b612546816000015483613bb0565b816000018190555060a06040519081016040528083815260200182600101548152602001826002015481526020018573ffffffffffffffffffffffffffffffffffffffff1681526020018473ffffffffffffffffffffffffffffffffffffffff16815250600a60008773ffffffffffffffffffffffffffffffffffffffff1673ffffffffffffffffffffffffffffffffffffffff16815260200190815260200160002060008201518160000155602082015181600101556040820151816002015560608201518160060160006101000a81548173ffffffffffffffffffffffffffffffffffffffff021916908373ffffffffffffffffffffffffffffffffffffffff16021790555060808201518160070160006101000a81548173ffffffffffffffffffffffffffffffffffffffff021916908373ffffffffffffffffffffffffffffffffffffffff16021790555090505084600c60008673ffffffffffffffffffffffffffffffffffffffff1673ffffffffffffffffffffffffffffffffffffffff16815260200190815260200160002060006101000a81548173ffffffffffffffffffffffffffffffffffffffff021916908373ffffffffffffffffffffffffffffffffffffffff1602179055508473ffffffffffffffffffffffffffffffffffffffff163373ffffffffffffffffffffffffffffffffffffffff167f99ed6d4d0f9fa14c5a920c0f291db56e76301d35623305625f06fca09717b31d846040518082815260200191505060405180910390a35050505050565b60008061278d61208c565b600a60003373ffffffffffffffffffffffffffffffffffffffff1673ffffffffffffffffffffffffffffffffffffffff1681526020019081526020016000209150600360009054906101000a900460ff16156127f9576127f06009546001613bb0565b82600201819055505b81600201546009541115156128c2576040517f08c379a00000000000000000000000000000000000000000000000000000000081526004018080602001828103825260458152602001807f77697468647261775374616b653a3a63757272656e74506572696f64206d757381526020017f742062652067726561746572207468616e207374616b65722e656e64696e675081526020017f6572696f6400000000000000000000000000000000000000000000000000000081525060600191505060405180910390fd5b600660009054906101000a900473ffffffffffffffffffffffffffffffffffffffff1673ffffffffffffffffffffffffffffffffffffffff1663a9059cbb3384600001546040518363ffffffff167c0100000000000000000000000000000000000000000000000000000000028152600401808373ffffffffffffffffffffffffffffffffffffffff1673ffffffffffffffffffffffffffffffffffffffff16815260200182815260200192505050602060405180830381600087803b15801561298b57600080fd5b505af115801561299f573d6000803e3d6000fd5b505050506040513d60208110156129b557600080fd5b810190808051906020019092919050505050816000015490506129de6002548360000154613bb0565b60028190555060008260000181905550803373ffffffffffffffffffffffffffffffffffffffff167f6aacd1e4534b984215f3230eb74caaf79156b03a979f3d6cb564fe17a2f8490f60405160405180910390a35050565b600360009054906101000a900460ff1681565b6000600a60008473ffffffffffffffffffffffffffffffffffffffff1673ffffffffffffffffffffffffffffffffffffffff168152602001908152602001600020600401600083815260200190815260200160002060009054906101000a900460ff16905092915050565b60025481565b60005481565b60055481565b6000806000801515600360009054906101000a900460ff161515141515612aec57600080fd5b612af461208c565b600c60003373ffffffffffffffffffffffffffffffffffffffff1673ffffffffffffffffffffffffffffffffffffffff16815260200190815260200160002060009054906101000a900473ffffffffffffffffffffffffffffffffffffffff169250600a60008473ffffffffffffffffffffffffffffffffffffffff1673ffffffffffffffffffffffffffffffffffffffff16815260200190815260200160002091508160020154600954101515612bab57600080fd5b6000841115612e175760095484111515612c53576040517f08c379a000000000000000000000000000000000000000000000000000000000815260040180806020018281038252603f8152602001807f636865636b496e3a3a75706461746564456e64696e67506572696f64206d757381526020017f742062652067726561746572207468616e2063757272656e74506572696f640081525060400191505060405180910390fd5b816002015484111515612d1a576040517f08c379a00000000000000000000000000000000000000000000000000000000081526004018080602001828103825260458152602001807f636865636b496e3a3a75706461746564456e64696e67506572696f64206d757381526020017f742062652067726561746572207468616e207374616b65722e656e64696e675081526020017f6572696f6400000000000000000000000000000000000000000000000000000081525060600191505060405180910390fd5b600154600954018411151515612de4576040517f08c379a000000000000000000000000000000000000000000000000000000000815260040180806020018281038252604c8152602001807f75706461746564456e64696e67506572696f64206d757374206265206c65737381526020017f207468616e206f7220657175616c20746f2063757272656e74506572696f642081526020017f2b206d6178506572696f6473000000000000000000000000000000000000000081525060600191505060405180910390fd5b6000826003016000600160095401815260200190815260200160002054141515612e0d57600080fd5b8382600201819055505b6009548260020154039050612e2c8382613bc9565b8273ffffffffffffffffffffffffffffffffffffffff167fede66e503b72a02fe9af902146849d461fea9c7f6a20951d793a6e8435fbab88600160095401846003016000600160095401815260200190815260200160002054856002015460405180848152602001838152602001828152602001935050505060405180910390a250505050565b600b6020528060005260406000206000915090508060000154908060010154908060020154908060030160009054906101000a900460ff16908060040154908060050154908060060154908060070154905088565b6000801515600360009054906101000a900460ff161515141515612f2b57600080fd5b612f3361208c565b600082111515612fd1576040517f08c379a00000000000000000000000000000000000000000000000000000000081526004018080602001828103825260258152602001807f73656e64466565733a3a66656573206d7573742062652067726561746572207481526020017f68616e203000000000000000000000000000000000000000000000000000000081525060400191505060405180910390fd5b600760009054906101000a900473ffffffffffffffffffffffffffffffffffffffff1673ffffffffffffffffffffffffffffffffffffffff166323b872dd3330856040518463ffffffff167c0100000000000000000000000000000000000000000000000000000000028152600401808473ffffffffffffffffffffffffffffffffffffffff1673ffffffffffffffffffffffffffffffffffffffff1681526020018373ffffffffffffffffffffffffffffffffffffffff1673ffffffffffffffffffffffffffffffffffffffff1681526020018281526020019350505050602060405180830381600087803b1580156130ca57600080fd5b505af11580156130de573d6000803e3d6000fd5b505050506040513d60208110156130f457600080fd5b8101908080519060200190929190505050151561319f576040517f08c379a00000000000000000000000000000000000000000000000000000000081526004018080602001828103825260248152602001807f73656e64466565733a3a626f6f7479546f6b656e207472616e7366657220666181526020017f696c65640000000000000000000000000000000000000000000000000000000081525060400191505060405180910390fd5b600760009054906101000a900473ffffffffffffffffffffffffffffffffffffffff1673ffffffffffffffffffffffffffffffffffffffff166342966c68836040518263ffffffff167c010000000000000000000000000000000000000000000000000000000002815260040180828152602001915050600060405180830381600087803b15801561323057600080fd5b505af1158015613244573d6000803e3d6000fd5b50505050600b6000600954815260200190815260200160002060000154905061326d82826132d4565b905080600b6000600954815260200190815260200160002060000181905550813373ffffffffffffffffffffffffffffffffffffffff167fb5383de6f0fbf1c75d39afec1fe1233f6e425ba9b742882b1da821e0706d84ec60405160405180910390a35050565b60008082840190508381101515156132e857fe5b8091505092915050565b600080828481151561330057fe5b0490508091505092915050565b61331561208c565b60008311801561332757506001548311155b15156133c1576040517f08c379a000000000000000000000000000000000000000000000000000000000815260040180806020018281038252602e8152602001807f7374616b653a3a207374616b65206d757374206265206265747765656e20302081526020017f616e64206d6178506572696f647300000000000000000000000000000000000081525060400191505060405180910390fd5b60008411151561345f576040517f08c379a00000000000000000000000000000000000000000000000000000000081526004018080602001828103825260298152602001807f7374616b653a3a7370616e6b416d6f756e74206d75737420626520677265617481526020017f6572207468616e2030000000000000000000000000000000000000000000000081525060400191505060405180910390fd5b6000600a60008773ffffffffffffffffffffffffffffffffffffffff1673ffffffffffffffffffffffffffffffffffffffff168152602001908152602001600020600101541480156134f357506000600a60008773ffffffffffffffffffffffffffffffffffffffff1673ffffffffffffffffffffffffffffffffffffffff16815260200190815260200160002060020154145b151561358d576040517f08c379a00000000000000000000000000000000000000000000000000000000081526004018080602001828103825260308152602001807f7374616b653a3a7374617274696e67506572696f6420616e6420656e64696e6781526020017f506572696f64206d75737420626520300000000000000000000000000000000081525060400191505060405180910390fd5b600660009054906101000a900473ffffffffffffffffffffffffffffffffffffffff1673ffffffffffffffffffffffffffffffffffffffff166323b872dd8630876040518463ffffffff167c0100000000000000000000000000000000000000000000000000000000028152600401808473ffffffffffffffffffffffffffffffffffffffff1673ffffffffffffffffffffffffffffffffffffffff1681526020018373ffffffffffffffffffffffffffffffffffffffff1673ffffffffffffffffffffffffffffffffffffffff1681526020018281526020019350505050602060405180830381600087803b15801561368657600080fd5b505af115801561369a573d6000803e3d6000fd5b505050506040513d60208110156136b057600080fd5b8101908080519060200190929190505050151561375b576040517f08c379a00000000000000000000000000000000000000000000000000000000081526004018080602001828103825260228152602001807f7374616b653a3a7370616e6b546f6b656e207472616e73666572206661696c7581526020017f726500000000000000000000000000000000000000000000000000000000000081525060400191505060405180910390fd5b60a0604051908101604052808581526020016001600954018152602001846009540181526020018373ffffffffffffffffffffffffffffffffffffffff1681526020018273ffffffffffffffffffffffffffffffffffffffff16815250600a60008773ffffffffffffffffffffffffffffffffffffffff1673ffffffffffffffffffffffffffffffffffffffff16815260200190815260200160002060008201518160000155602082015181600101556040820151816002015560608201518160060160006101000a81548173ffffffffffffffffffffffffffffffffffffffff021916908373ffffffffffffffffffffffffffffffffffffffff16021790555060808201518160070160006101000a81548173ffffffffffffffffffffffffffffffffffffffff021916908373ffffffffffffffffffffffffffffffffffffffff1602179055509050506138b08584613bc9565b6138bc600254856132d4565b600281905550600073ffffffffffffffffffffffffffffffffffffffff168273ffffffffffffffffffffffffffffffffffffffff16141515156138fe57600080fd5b600073ffffffffffffffffffffffffffffffffffffffff168173ffffffffffffffffffffffffffffffffffffffff161415151561393a57600080fd5b600073ffffffffffffffffffffffffffffffffffffffff16600c60008473ffffffffffffffffffffffffffffffffffffffff1673ffffffffffffffffffffffffffffffffffffffff16815260200190815260200160002060009054906101000a900473ffffffffffffffffffffffffffffffffffffffff1673ffffffffffffffffffffffffffffffffffffffff161415156139d457600080fd5b84600c60008473ffffffffffffffffffffffffffffffffffffffff1673ffffffffffffffffffffffffffffffffffffffff16815260200190815260200160002060006101000a81548173ffffffffffffffffffffffffffffffffffffffff021916908373ffffffffffffffffffffffffffffffffffffffff1602179055508473ffffffffffffffffffffffffffffffffffffffff167fc42c0833e241d95fe2df0c95444743e6f7d1805d1fcc7f35be6bae74592c0e37600160095401600a60008973ffffffffffffffffffffffffffffffffffffffff1673ffffffffffffffffffffffffffffffffffffffff168152602001908152602001600020600301600060016009540181526020019081526020016000205487876040518085815260200184815260200183815260200182815260200194505050505060405180910390a25050505050565b60008082840290506000841480613b3d5750828482811515613b3a57fe5b04145b1515613b4557fe5b8091505092915050565b60008060148301845110151515613b6557600080fd5b6c01000000000000000000000000836020860101510490508091505092915050565b60008060208301845110151515613b9d57600080fd5b8260208501015190508091505092915050565b6000828211151515613bbe57fe5b818303905092915050565b600080600080600a60008773ffffffffffffffffffffffffffffffffffffffff1673ffffffffffffffffffffffffffffffffffffffff16815260200190815260200160002093506000846003016000600160095401815260200190815260200160002054141515613cc8576040517f08c379a000000000000000000000000000000000000000000000000000000000815260040180806020018281038252603d8152602001807f7370616e6b20706f696e7473206861766520616c7265616479206265656e206381526020017f616c63756c6174656420666f7220746865206e65787420706572696f6400000081525060400191505060405180910390fd5b613cf3613cec85600001546008600089815260200190815260200160002054613b1c565b60646132f2565b925082846003016000600160095401815260200190815260200160002081905550600b60006001600954018152602001908152602001600020600101549150613d3c82846132d4565b600b6000600160095401815260200190815260200160002060010181905550600b600060095481526020019081526020016000209050613d84816007015485600001546132d4565b8160070181905550505050505050565b61010060405190810160405280600081526020016000815260200160008152602001600015158152602001600081526020016000815260200160008152602001600081525090565b60a060405190810160405280600081526020016000815260200160008152602001600073ffffffffffffffffffffffffffffffffffffffff168152602001600073ffffffffffffffffffffffffffffffffffffffff16815250905600a165627a7a7230582008e0496454c9091cd170bc102aaedc408fe73dc9027e46df2f0566742bd28e5b002960806040526000600360146101000a81548160ff0219169083151502179055506040805190810160405280600481526020017f48302e3100000000000000000000000000000000000000000000000000000000815250600790805190602001906200006c9291906200014a565b503480156200007a57600080fd5b50604051620016c0380380620016c083398101806040528101908080518201929190602001805190602001909291908051820192919050505033600360006101000a81548173ffffffffffffffffffffffffffffffffffffffff021916908373ffffffffffffffffffffffffffffffffffffffff16021790555082600490805190602001906200010c9291906200014a565b5081600560006101000a81548160ff021916908360ff1602179055508060069080519060200190620001409291906200014a565b50505050620001f9565b828054600181600116156101000203166002900490600052602060002090601f016020900481019282601f106200018d57805160ff1916838001178555620001be565b82800160010185558215620001be579182015b82811115620001bd578251825591602001919060010190620001a0565b5b509050620001cd9190620001d1565b5090565b620001f691905b80821115620001f2576000816000905550600101620001d8565b5090565b90565b6114b780620002096000396000f3006080604052600436106100e6576000357c0100000000000000000000000000000000000000000000000000000000900463ffffffff16806305d2035b146100eb57806306fdde031461011a578063095ea7b3146101aa57806318160ddd1461020f57806323b872dd1461023a578063313ce567146102bf57806340c10f19146102f057806342966c681461035557806354fd4d501461038257806370a08231146104125780637d64bcb4146104695780638da5cb5b1461049857806395d89b41146104ef578063a9059cbb1461057f578063dd62ed3e146105e4578063f2fde38b1461065b575b600080fd5b3480156100f757600080fd5b5061010061069e565b604051808215151515815260200191505060405180910390f35b34801561012657600080fd5b5061012f6106b1565b6040518080602001828103825283818151815260200191508051906020019080838360005b8381101561016f578082015181840152602081019050610154565b50505050905090810190601f16801561019c5780820380516001836020036101000a031916815260200191505b509250505060405180910390f35b3480156101b657600080fd5b506101f5600480360381019080803573ffffffffffffffffffffffffffffffffffffffff1690602001909291908035906020019092919050505061074f565b604051808215151515815260200191505060405180910390f35b34801561021b57600080fd5b50610224610841565b6040518082815260200191505060405180910390f35b34801561024657600080fd5b506102a5600480360381019080803573ffffffffffffffffffffffffffffffffffffffff169060200190929190803573ffffffffffffffffffffffffffffffffffffffff16906020019092919080359060200190929190505050610847565b604051808215151515815260200191505060405180910390f35b3480156102cb57600080fd5b506102d4610ab3565b604051808260ff1660ff16815260200191505060405180910390f35b3480156102fc57600080fd5b5061033b600480360381019080803573ffffffffffffffffffffffffffffffffffffffff16906020019092919080359060200190929190505050610ac6565b604051808215151515815260200191505060405180910390f35b34801561036157600080fd5b5061038060048036038101908080359060200190929190505050610c9c565b005b34801561038e57600080fd5b50610397610d05565b6040518080602001828103825283818151815260200191508051906020019080838360005b838110156103d75780820151818401526020810190506103bc565b50505050905090810190601f1680156104045780820380516001836020036101000a031916815260200191505b509250505060405180910390f35b34801561041e57600080fd5b50610453600480360381019080803573ffffffffffffffffffffffffffffffffffffffff169060200190929190505050610da3565b6040518082815260200191505060405180910390f35b34801561047557600080fd5b5061047e610dec565b604051808215151515815260200191505060405180910390f35b3480156104a457600080fd5b506104ad610eb4565b604051808273ffffffffffffffffffffffffffffffffffffffff1673ffffffffffffffffffffffffffffffffffffffff16815260200191505060405180910390f35b3480156104fb57600080fd5b50610504610eda565b6040518080602001828103825283818151815260200191508051906020019080838360005b83811015610544578082015181840152602081019050610529565b50505050905090810190601f1680156105715780820380516001836020036101000a031916815260200191505b509250505060405180910390f35b34801561058b57600080fd5b506105ca600480360381019080803573ffffffffffffffffffffffffffffffffffffffff16906020019092919080359060200190929190505050610f78565b604051808215151515815260200191505060405180910390f35b3480156105f057600080fd5b50610645600480360381019080803573ffffffffffffffffffffffffffffffffffffffff169060200190929190803573ffffffffffffffffffffffffffffffffffffffff1690602001909291905050506110d1565b6040518082815260200191505060405180910390f35b34801561066757600080fd5b5061069c600480360381019080803573ffffffffffffffffffffffffffffffffffffffff169060200190929190505050611158565b005b600360149054906101000a900460ff1681565b60048054600181600116156101000203166002900480601f0160208091040260200160405190810160405280929190818152602001828054600181600116156101000203166002900480156107475780601f1061071c57610100808354040283529160200191610747565b820191906000526020600020905b81548152906001019060200180831161072a57829003601f168201915b505050505081565b600081600260003373ffffffffffffffffffffffffffffffffffffffff1673ffffffffffffffffffffffffffffffffffffffff16815260200190815260200160002060008573ffffffffffffffffffffffffffffffffffffffff1673ffffffffffffffffffffffffffffffffffffffff168152602001908152602001600020819055508273ffffffffffffffffffffffffffffffffffffffff163373ffffffffffffffffffffffffffffffffffffffff167f8c5be1e5ebec7d5bd14f71427d1e84f3dd0314c0f7b2291e5b200ac8c7c3b925846040518082815260200191505060405180910390a36001905092915050565b60005481565b600081600160008673ffffffffffffffffffffffffffffffffffffffff1673ffffffffffffffffffffffffffffffffffffffff1681526020019081526020016000205410158015610914575081600260008673ffffffffffffffffffffffffffffffffffffffff1673ffffffffffffffffffffffffffffffffffffffff16815260200190815260200160002060003373ffffffffffffffffffffffffffffffffffffffff1673ffffffffffffffffffffffffffffffffffffffff1681526020019081526020016000205410155b151561091f57600080fd5b81600160008573ffffffffffffffffffffffffffffffffffffffff1673ffffffffffffffffffffffffffffffffffffffff1681526020019081526020016000206000828254019250508190555081600160008673ffffffffffffffffffffffffffffffffffffffff1673ffffffffffffffffffffffffffffffffffffffff1681526020019081526020016000206000828254039250508190555081600260008673ffffffffffffffffffffffffffffffffffffffff1673ffffffffffffffffffffffffffffffffffffffff16815260200190815260200160002060003373ffffffffffffffffffffffffffffffffffffffff1673ffffffffffffffffffffffffffffffffffffffff168152602001908152602001600020600082825403925050819055508273ffffffffffffffffffffffffffffffffffffffff168473ffffffffffffffffffffffffffffffffffffffff167fddf252ad1be2c89b69c2b068fc378daa952ba7f163c4a11628f55a4df523b3ef846040518082815260200191505060405180910390a3600190509392505050565b600560009054906101000a900460ff1681565b6000600360009054906101000a900473ffffffffffffffffffffffffffffffffffffffff1673ffffffffffffffffffffffffffffffffffffffff163373ffffffffffffffffffffffffffffffffffffffff16141515610b2457600080fd5b600360149054906101000a900460ff16151515610b4057600080fd5b610b4c826000546112b0565b600081905550610b9b82600160008673ffffffffffffffffffffffffffffffffffffffff1673ffffffffffffffffffffffffffffffffffffffff168152602001908152602001600020546112b0565b600160008573ffffffffffffffffffffffffffffffffffffffff1673ffffffffffffffffffffffffffffffffffffffff168152602001908152602001600020819055508273ffffffffffffffffffffffffffffffffffffffff167f0f6798a560793a54c3bcfe86a93cde1e73087d944c0ea20544137d4121396885836040518082815260200191505060405180910390a28273ffffffffffffffffffffffffffffffffffffffff16600073ffffffffffffffffffffffffffffffffffffffff167fddf252ad1be2c89b69c2b068fc378daa952ba7f163c4a11628f55a4df523b3ef846040518082815260200191505060405180910390a36001905092915050565b600360009054906101000a900473ffffffffffffffffffffffffffffffffffffffff1673ffffffffffffffffffffffffffffffffffffffff163373ffffffffffffffffffffffffffffffffffffffff16141515610cf857600080fd5b610d0233826112ce565b50565b60078054600181600116156101000203166002900480601f016020809104026020016040519081016040528092919081815260200182805460018160011615610100020316600290048015610d9b5780601f10610d7057610100808354040283529160200191610d9b565b820191906000526020600020905b815481529060010190602001808311610d7e57829003601f168201915b505050505081565b6000600160008373ffffffffffffffffffffffffffffffffffffffff1673ffffffffffffffffffffffffffffffffffffffff168152602001908152602001600020549050919050565b6000600360009054906101000a900473ffffffffffffffffffffffffffffffffffffffff1673ffffffffffffffffffffffffffffffffffffffff163373ffffffffffffffffffffffffffffffffffffffff16141515610e4a57600080fd5b600360149054906101000a900460ff16151515610e6657600080fd5b6001600360146101000a81548160ff0219169083151502179055507fae5184fba832cb2b1f702aca6117b8d265eaf03ad33eb133f19dde0f5920fa0860405160405180910390a16001905090565b600360009054906101000a900473ffffffffffffffffffffffffffffffffffffffff1681565b60068054600181600116156101000203166002900480601f016020809104026020016040519081016040528092919081815260200182805460018160011615610100020316600290048015610f705780601f10610f4557610100808354040283529160200191610f70565b820191906000526020600020905b815481529060010190602001808311610f5357829003601f168201915b505050505081565b600081600160003373ffffffffffffffffffffffffffffffffffffffff1673ffffffffffffffffffffffffffffffffffffffff1681526020019081526020016000205410151515610fc857600080fd5b81600160003373ffffffffffffffffffffffffffffffffffffffff1673ffffffffffffffffffffffffffffffffffffffff1681526020019081526020016000206000828254039250508190555081600160008573ffffffffffffffffffffffffffffffffffffffff1673ffffffffffffffffffffffffffffffffffffffff168152602001908152602001600020600082825401925050819055508273ffffffffffffffffffffffffffffffffffffffff163373ffffffffffffffffffffffffffffffffffffffff167fddf252ad1be2c89b69c2b068fc378daa952ba7f163c4a11628f55a4df523b3ef846040518082815260200191505060405180910390a36001905092915050565b6000600260008473ffffffffffffffffffffffffffffffffffffffff1673ffffffffffffffffffffffffffffffffffffffff16815260200190815260200160002060008373ffffffffffffffffffffffffffffffffffffffff1673ffffffffffffffffffffffffffffffffffffffff16815260200190815260200160002054905092915050565b600360009054906101000a900473ffffffffffffffffffffffffffffffffffffffff1673ffffffffffffffffffffffffffffffffffffffff163373ffffffffffffffffffffffffffffffffffffffff161415156111b457600080fd5b600073ffffffffffffffffffffffffffffffffffffffff168173ffffffffffffffffffffffffffffffffffffffff16141515156111f057600080fd5b8073ffffffffffffffffffffffffffffffffffffffff16600360009054906101000a900473ffffffffffffffffffffffffffffffffffffffff1673ffffffffffffffffffffffffffffffffffffffff167f8be0079c531659141344cd1fd0a4f28419497f9722a3daafe3b4186f6b6457e060405160405180910390a380600360006101000a81548173ffffffffffffffffffffffffffffffffffffffff021916908373ffffffffffffffffffffffffffffffffffffffff16021790555050565b60008082840190508381101515156112c457fe5b8091505092915050565b600160008373ffffffffffffffffffffffffffffffffffffffff1673ffffffffffffffffffffffffffffffffffffffff16815260200190815260200160002054811115151561131c57600080fd5b611365600160008473ffffffffffffffffffffffffffffffffffffffff1673ffffffffffffffffffffffffffffffffffffffff1681526020019081526020016000205482611472565b600160008473ffffffffffffffffffffffffffffffffffffffff1673ffffffffffffffffffffffffffffffffffffffff168152602001908152602001600020819055506113b460005482611472565b6000819055508173ffffffffffffffffffffffffffffffffffffffff167fcc16f5dbb4873280815c1ee09dbd06736cffcc184412cf7a71a0fdb75d397ca5826040518082815260200191505060405180910390a2600073ffffffffffffffffffffffffffffffffffffffff168273ffffffffffffffffffffffffffffffffffffffff167fddf252ad1be2c89b69c2b068fc378daa952ba7f163c4a11628f55a4df523b3ef836040518082815260200191505060405180910390a35050565b600082821115151561148057fe5b8183039050929150505600a165627a7a72305820366bc1eddf44f6669f792ace6df0a78020f54842887e12e74e49e453ec0f083d0029",
  "source": "pragma solidity 0.4.24;\nimport {SafeMath} from \"./SafeMath.sol\";\nimport {HumanStandardToken} from \"./HumanStandardToken.sol\";\nimport {MintAndBurnToken} from \"./MintAndBurnToken.sol\";\nimport \"./BytesLib.sol\";\n\ncontract SpankBank {\n    using BytesLib for bytes;\n    using SafeMath for uint256;\n\n    event SpankBankCreated(\n        uint256 periodLength,\n        uint256 maxPeriods,\n        address spankAddress,\n        uint256 initialBootySupply,\n        string bootyTokenName,\n        uint8 bootyDecimalUnits,\n        string bootySymbol\n    );\n\n    event StakeEvent(\n        address indexed staker,\n        uint256 period,\n        uint256 spankPoints,\n        uint256 spankAmount,\n        uint256 stakePeriods\n    );\n        // TODO: Do we want delegateKey and bootyBase in here? Probably?\n\n    event PeriodEvent(\n        uint256 period,\n        uint256 bootyFees,\n        uint256 totalSpankPoints,\n        uint256 bootyMinted,\n        uint256 closingVotes,\n        uint256 totalStakedSpank\n    );\n\n    event SendFeesEvent (\n        address indexed sender,\n        uint256 indexed bootyAmount\n    );\n\n    event MintBootyEvent (\n        uint256 indexed targetBootySupply,\n        uint256 indexed totalBootySupply\n    );\n\n    event CheckInEvent (\n        address indexed staker,\n        uint256 period,\n        uint256 spankPoints,\n        uint256 stakerEndingPeriod\n    );\n\n    event ClaimBootyEvent (\n        address indexed staker,\n        uint256 indexed period,\n        uint256 indexed bootyOwed\n    );\n        // TODO: Do these need to be indexed? Where would that be used?  (in\n        // fact, with chainsaw, nothing needs to be indexed, since we do\n        // that... unless, ex, the browser's web3 is going to be making\n        // queries)\n\n    event WithdrawStakeEvent (\n        address indexed staker,\n        uint256 indexed totalSpankToWithdraw\n    );\n\n    event SplitStakeEvent (\n        address indexed staker,\n        address indexed newAddress,\n        uint256 spankAmount\n    );\n        // TODO: Do we want delegateKey and bootyBase in here? Probably?\n\n    event VoteToCloseEvent (\n        address indexed staker,\n        uint256 period\n    );\n\n    event UpdateDelegateKeyEvent (\n        address indexed staker\n    );\n\n    event UpdateBootyBaseEvent (\n        address indexed staker\n    );\n\n    event ReceiveApprovalEvent (\n        address from, \n        address tokenContract, \n        bytes extraData\n    );\n\n    /***********************************\n    VARIABLES SET AT CONTRACT DEPLOYMENT\n    ************************************/\n    // GLOBAL CONSTANT VARIABLES\n    uint256 public periodLength; // time length of each period in seconds\n    uint256 public maxPeriods;\n    uint256 public totalSpankStaked;\n    bool public isClosed;\n    uint256 public closingVotes;\n    uint256 public closingPeriod;\n\n    // ERC-20 BASED TOKEN WITH SOME ADDED PROPERTIES FOR HUMAN READABILITY\n    // https://github.com/ConsenSys/Tokens/blob/master/contracts/HumanStandardToken.sol\n    HumanStandardToken public spankToken;\n    MintAndBurnToken public bootyToken;\n\n    // LOOKUP TABLE FOR SPANKPOINTS BY PERIOD\n    // 1 -> 45%\n    // 2 -> 50%\n    // ...\n    // 12 -> 100%\n    mapping(uint256 => uint256) pointsTable;\n\n    /*************************************\n    INTERAL ACCOUNTING\n    **************************************/\n    uint256 public currentPeriod = 0;\n\n    struct Staker {\n        uint256 spankStaked; // the amount of spank staked\n        uint256 startingPeriod; // the period this staker started staking\n        uint256 endingPeriod; // the period after which this stake expires\n        mapping(uint256 => uint256) spankPoints; // the spankPoints per period\n        mapping(uint256 => bool) didClaimBooty; // true if staker claimed BOOTY for that period\n        mapping(uint256 => bool) votedToClose; // true if voter voted \n        address delegateKey;\n        address bootyBase;\n    }\n\n    mapping(address => Staker) public stakers;\n\n    struct Period {\n        uint256 bootyFees; // the amount of BOOTY collected in fees\n        uint256 totalSpankPoints; // the total spankPoints of all stakers\n        uint256 bootyMinted; // the amount of BOOTY minted\n        bool mintingComplete; // true if BOOTY has already been minted for this period\n        uint256 startTime; // the starting unix timestamp in seconds\n        uint256 endTime; // the ending unix timestamp in seconds\n        uint256 closingVotes; // the total votes to close this period\n        uint256 totalStakedSpank; // the total SPANK staked\n    }\n\n    mapping(uint256 => Period) public periods;\n\n    mapping(address => address) public stakerByDelegateKey;\n\n    modifier SpankBankIsOpen() {\n        require(isClosed == false);\n        _;\n    }\n\n    constructor (\n        uint256 _periodLength,\n        uint256 _maxPeriods,\n        address spankAddress,\n        uint256 initialBootySupply,\n        string bootyTokenName,\n        uint8 bootyDecimalUnits,\n        string bootySymbol\n    )   public {\n        periodLength = _periodLength;\n        maxPeriods = _maxPeriods;\n        spankToken = HumanStandardToken(spankAddress);\n        bootyToken = new MintAndBurnToken(bootyTokenName, bootyDecimalUnits, bootySymbol);\n        bootyToken.mint(this, initialBootySupply);\n\n        uint256 startTime = now;\n\n        periods[currentPeriod].startTime = startTime;\n        periods[currentPeriod].endTime = SafeMath.add(startTime, periodLength);\n\n        bootyToken.transfer(msg.sender, initialBootySupply);\n\n        // initialize points table\n        pointsTable[0] = 0;\n        pointsTable[1] = 45;\n        pointsTable[2] = 50;\n        pointsTable[3] = 55;\n        pointsTable[4] = 60;\n        pointsTable[5] = 65;\n        pointsTable[6] = 70;\n        pointsTable[7] = 75;\n        pointsTable[8] = 80;\n        pointsTable[9] = 85;\n        pointsTable[10] = 90;\n        pointsTable[11] = 95;\n        pointsTable[12] = 100;\n\n        emit SpankBankCreated(_periodLength, _maxPeriods, spankAddress, initialBootySupply, bootyTokenName, bootyDecimalUnits, bootySymbol);\n    }\n\n    // Used to create a new staking position - verifies that the caller is not staking\n    function stake(uint256 spankAmount, uint256 stakePeriods, address delegateKey, address bootyBase) SpankBankIsOpen public {\n        doStake(msg.sender, spankAmount, stakePeriods, delegateKey, bootyBase);\n    }\n\n    function doStake(address stakerAddress, uint256 spankAmount, uint256 stakePeriods, address delegateKey, address bootyBase) internal {\n        updatePeriod();\n        require(stakePeriods > 0 && stakePeriods <= maxPeriods, \"stake:: stake must be between 0 and maxPeriods\"); // stake 1-12 (max) periods\n        require(spankAmount > 0, \"stake::spankAmount must be greater than 0\"); // stake must be greater than 0\n\n        // the msg.sender must not have an active staking position\n        // TODO checking that endingPeriod == 0 should cover all periods\n        require(stakers[stakerAddress].startingPeriod == 0 && stakers[stakerAddress].endingPeriod == 0, \"stake::startingPeriod and endingPeriod must be 0\");\n\n        // transfer SPANK to this contract - assumes sender has already \"allowed\" the spankAmount\n        require(spankToken.transferFrom(stakerAddress, this, spankAmount),\"stake::spankToken transfer failure\");\n\n        stakers[stakerAddress] = Staker(spankAmount, currentPeriod + 1, currentPeriod + stakePeriods, delegateKey, bootyBase);\n\n        _calculateNextPeriodPoints(stakerAddress, stakePeriods);\n\n        totalSpankStaked = SafeMath.add(totalSpankStaked, spankAmount);\n\n        require(delegateKey != address(0));\n        require(bootyBase != address(0));\n        require(stakerByDelegateKey[delegateKey] == address(0));\n        stakerByDelegateKey[delegateKey] = stakerAddress;\n\n        emit StakeEvent(\n            stakerAddress,\n            currentPeriod + 1,\n            stakers[stakerAddress].spankPoints[currentPeriod + 1],\n            spankAmount,\n            stakePeriods\n        );\n    }\n\n    function _calculateNextPeriodPoints(address stakerAddress, uint256 stakingPeriods) internal {\n        Staker storage staker = stakers[stakerAddress];\n\n        // NOTE: This require should be used instead of the if statement that\n        // was here before, because there's no situations where this should\n        // be called more than once per period.\n        require(staker.spankPoints[currentPeriod + 1] == 0, \"spank points have already been calculated for the next period\");\n\n        uint256 nextSpankPoints = SafeMath.div(SafeMath.mul(staker.spankStaked, pointsTable[stakingPeriods]), 100);\n        staker.spankPoints[currentPeriod + 1] = nextSpankPoints;\n\n        uint256 nextTotalSpankPoints = periods[currentPeriod + 1].totalSpankPoints;\n        periods[currentPeriod + 1].totalSpankPoints = SafeMath.add(nextTotalSpankPoints, nextSpankPoints);\n\n        Period storage period = periods[currentPeriod];\n        period.totalStakedSpank = SafeMath.add(period.totalStakedSpank, staker.spankStaked);\n    }\n\n    function receiveApproval(address from, uint256 amount, address tokenContract, bytes extraData) SpankBankIsOpen public returns (bool success) {\n        address delegateKeyFromBytes = extraData.toAddress(12);\n        address bootyBaseFromBytes = extraData.toAddress(44);\n        uint256 periodFromBytes = extraData.toUint(64);\n        \n        emit ReceiveApprovalEvent(from, tokenContract, extraData);\n        \n        doStake(from, amount, periodFromBytes, delegateKeyFromBytes, bootyBaseFromBytes);\n        return true;\n    }\n\n    // user will be able to add more SPANK to their stake and / or extend it\n    // function updateStake(uint256 amount, uint256 periods) {}\n\n    // 1. Anyone calls the mint function, which generates all the new booty for that period\n    //  - what if no one calls mint? the booty supply will be lower for the next round\n    //  - more booty will be created later to compensate (not really a bid deal)\n    // 2. Stakers can withdraw their minted BOOTY\n\n    // Do the fees get calculated for the current period or the next one? Current\n    // Does the minting depends on current stake or next?\n    // If I start staking at 10.5, my stake will only matter for 11, and the BOOTY generated after 11 will be based on the fees paid during 11, and can only be collected after 11 is done\n\n    function sendFees(uint256 bootyAmount) SpankBankIsOpen public {\n        updatePeriod();\n\n        require(bootyAmount > 0, \"sendFees::fees must be greater than 0\"); // fees must be greater than 0\n        require(bootyToken.transferFrom(msg.sender, this, bootyAmount), \"sendFees::bootyToken transfer failed\");\n\n        bootyToken.burn(bootyAmount);\n\n        uint256 currentBootyFees = periods[currentPeriod].bootyFees;\n        currentBootyFees = SafeMath.add(bootyAmount, currentBootyFees);\n        periods[currentPeriod].bootyFees = currentBootyFees;\n\n        emit SendFeesEvent(msg.sender, bootyAmount);\n    }\n\n    function mintBooty() SpankBankIsOpen public {\n        updatePeriod();\n\n        Period storage period = periods[currentPeriod - 1];\n        require(!period.mintingComplete, \"mintBooty::mintingComplete must be false\"); // cant mint BOOTY twice\n\n        period.mintingComplete = true;\n\n        uint256 targetBootySupply = SafeMath.mul(period.bootyFees, 20);\n        uint256 totalBootySupply = bootyToken.totalSupply();\n\n        if (targetBootySupply > totalBootySupply) {\n            uint256 bootyMinted = targetBootySupply - totalBootySupply;\n            bootyToken.mint(this, bootyMinted);\n            period.bootyMinted = bootyMinted;\n            emit MintBootyEvent(targetBootySupply, totalBootySupply);\n        }\n    }\n\n    // This will check the current time and update the current period accordingly\n    // - called from all write functions to ensure the period is always up to date before any writes\n    // - can also be called externally, but there isn't a good reason for why you would want to\n    // - the while loop protects against the edge case where we miss a period\n\n    function updatePeriod() public {\n        while (now >= periods[currentPeriod].endTime) {\n            Period memory prevPeriod = periods[currentPeriod];\n            emit PeriodEvent(\n                currentPeriod,\n                prevPeriod.bootyFees,\n                prevPeriod.totalSpankPoints,\n                prevPeriod.bootyMinted,\n                prevPeriod.closingVotes,\n                prevPeriod.totalStakedSpank\n            );\n\n            currentPeriod += 1;\n            periods[currentPeriod].startTime = prevPeriod.endTime;\n            periods[currentPeriod].endTime = SafeMath.add(prevPeriod.endTime, periodLength);\n        }\n    }\n\n    // In order to receive Booty, each staker will have to check-in every period.\n    // This check-in will compute the spankPoints locally and globally for each staker.\n    function checkIn(uint256 updatedEndingPeriod) SpankBankIsOpen public {\n        updatePeriod();\n\n        address stakerAddress =  stakerByDelegateKey[msg.sender];\n\n        Staker storage staker = stakers[stakerAddress];\n\n        require(currentPeriod < staker.endingPeriod);\n\n        if (updatedEndingPeriod > 0) {\n            // TODO I'm not sure we can rely on the staker.endingPeriod to be greater than the\n            // currentPeriod - what if the staker expires but never withdraws their stake?\n            require(updatedEndingPeriod > currentPeriod, \"checkIn::updatedEndingPeriod must be greater than currentPeriod\");\n            require(updatedEndingPeriod > staker.endingPeriod, \"checkIn::updatedEndingPeriod must be greater than staker.endingPeriod\");\n            require(updatedEndingPeriod <= currentPeriod + maxPeriods, \"updatedEndingPeriod must be less than or equal to currentPeriod + maxPeriods\");\n            require(staker.spankPoints[currentPeriod+1] == 0);\n\n            staker.endingPeriod = updatedEndingPeriod;\n        }\n\n        uint256 stakePeriods = staker.endingPeriod - currentPeriod;\n\n        _calculateNextPeriodPoints(stakerAddress, stakePeriods);\n\n        emit CheckInEvent(stakerAddress, currentPeriod + 1, staker.spankPoints[currentPeriod + 1], staker.endingPeriod);\n    }\n\n    function claimBooty(uint256 _period) public {\n        updatePeriod();\n\n        require(_period < currentPeriod, \"claimBooty::_period must be less than currentPeriod\"); // can only claim booty for previous periods\n\n        address stakerAddress = stakerByDelegateKey[msg.sender];\n\n        Staker storage staker = stakers[stakerAddress];\n\n        require(!staker.didClaimBooty[_period], \"claimBooty::didClaimBooty for period must be false\"); // can only claim booty once\n\n        staker.didClaimBooty[_period] = true;\n\n        Period memory period = periods[_period];\n        require(period.mintingComplete);\n        \n        uint256 bootyMinted = period.bootyMinted;\n        uint256 totalSpankPoints = period.totalSpankPoints;\n\n        if (totalSpankPoints > 0) {\n            uint256 stakerSpankPoints = staker.spankPoints[_period];\n            uint256 bootyOwed = SafeMath.div(SafeMath.mul(stakerSpankPoints, bootyMinted), totalSpankPoints);\n\n            require(bootyToken.transfer(staker.bootyBase, bootyOwed), \"claimBooty::bootyToken transfer failure\");\n\n            emit ClaimBootyEvent(stakerAddress, _period, bootyOwed);\n        }\n    }\n\n    function withdrawStake() public {\n        updatePeriod();\n\n        Staker storage staker = stakers[msg.sender];\n\n        if (isClosed) {\n            staker.endingPeriod = SafeMath.sub(currentPeriod, 1);\n        }\n\n        require(currentPeriod > staker.endingPeriod, \"withdrawStake::currentPeriod must be greater than staker.endingPeriod\");\n\n        spankToken.transfer(msg.sender, staker.spankStaked);\n\n        uint256 totalSpankToWithdraw = staker.spankStaked;\n\n        totalSpankStaked = SafeMath.sub(totalSpankStaked, staker.spankStaked);\n        staker.spankStaked = 0;\n\n        emit WithdrawStakeEvent(msg.sender, totalSpankToWithdraw);\n    }\n\n    function splitStake(address newAddress, address newDelegateKey, address newBootyBase, uint256 spankAmount) public {\n        updatePeriod();\n\n        require(newAddress != address(0), \"splitStake::newAddress must be a non-zero address\");\n        require(spankAmount > 0, \"splitStake::spankAmount must be greater than 0\");\n\n        Staker storage staker = stakers[msg.sender];\n        require(currentPeriod < staker.endingPeriod, \"currentPeriod must be less than staker endingPeriod\");\n        require(spankAmount <= staker.spankStaked, \"spankAmount must be less than or equal to staker stake\");\n        require(staker.spankPoints[currentPeriod+1] == 0);\n\n        staker.spankStaked = SafeMath.sub(staker.spankStaked, spankAmount);\n\n        stakers[newAddress] = Staker(spankAmount, staker.startingPeriod, staker.endingPeriod, newDelegateKey, newBootyBase);\n\n        stakerByDelegateKey[newDelegateKey] = newAddress;\n\n        emit SplitStakeEvent(msg.sender, newAddress, spankAmount);\n    }\n\n    function voteToClose() public {\n        updatePeriod();\n\n        Staker storage staker = stakers[msg.sender];\n        require(staker.spankStaked > 0, \"stake must be greater than zero\");\n        require(staker.endingPeriod >= currentPeriod, \"endingPeriod must be greater than or equal to currentPeriod\");        \n        require (staker.votedToClose[currentPeriod] == false);\n        require(isClosed == false);\n\n        if (closingPeriod != currentPeriod) {\n            closingPeriod = currentPeriod;\n            closingVotes = 0;\n        }\n        closingVotes = SafeMath.add(closingVotes, staker.spankStaked);\n        staker.votedToClose[currentPeriod] = true;\n\n        uint256 closingTrigger = SafeMath.div(totalSpankStaked, 2);\n        if (closingVotes > closingTrigger) {\n            isClosed = true;\n        }\n\n        emit VoteToCloseEvent(msg.sender, currentPeriod);\n    }\n\n    function updateDelegateKey(address newDelegateKey) public {\n        require (newDelegateKey != address(0));\n        require (stakerByDelegateKey[newDelegateKey] == address(0));\n\n        Staker storage staker = stakers[msg.sender];\n        require (staker.delegateKey != address(0));\n        staker.delegateKey = newDelegateKey;\n        \n        stakerByDelegateKey[staker.delegateKey] = address(0);\n\n        stakerByDelegateKey[newDelegateKey] = msg.sender;\n\n        emit UpdateDelegateKeyEvent(msg.sender);\n    }\n\n    function updateBootyBase(address newBootyBase) public {\n        Staker storage staker = stakers[msg.sender];\n        require (staker.spankStaked > 0);\n\n        staker.bootyBase = newBootyBase;\n\n        emit UpdateBootyBaseEvent(msg.sender);\n    }\n\n    // TODO as-is, the contract doesnt allow for dynamic stake allocation - you can only extend\n    // the entire stake, or withdraw the entire stake. Even if you could withdraw partial stake,\n    // you would still be making the decision to extend the entire stake, or not.\n    // - allow staker to split stake (or move some fraction under a new address)\n    // - accept that you have to extend the entire stake, and plan ahead accordingly\n    //   - split the stake up into several portions, and decide to extend / not each portion\n\n    function getSpankPoints(address stakerAddress, uint256 period) public view returns (uint256)  {\n        return stakers[stakerAddress].spankPoints[period];\n    }\n\n    function getDidClaimBooty(address stakerAddress, uint256 period) public view returns (bool)  {\n        return stakers[stakerAddress].didClaimBooty[period];\n    }\n\n    function getVote(address stakerAddress, uint period) public view returns (bool) {\n        return stakers[stakerAddress].votedToClose[period];\n    }\n\n    function getPeriod(uint256 period) public view returns (uint256, uint256, uint256, bool, uint256, uint256, uint256, uint256) {\n        Period memory p = periods[period];\n        return (\n            p.bootyFees,\n            p.totalSpankPoints,\n            p.bootyMinted,\n            p.mintingComplete,\n            p.startTime,\n            p.endTime,\n            p.closingVotes,\n            p.totalStakedSpank\n        );\n    }\n\n    function getStaker(address stakerAddress) public view returns (uint256, uint256, uint256, address, address) {\n        Staker memory staker = stakers[stakerAddress];\n        return (\n            staker.spankStaked,\n            staker.startingPeriod,\n            staker.endingPeriod,\n            staker.delegateKey,\n            staker.bootyBase\n        );\n    }\n\n    function getStakerFromDelegateKey(address delegateAddress) public view returns (address) {\n        return stakerByDelegateKey[delegateAddress];\n    }\n\n}\n",
  "sourcePath": "/Users/wolever/SpankChain/repos/spankbank/contracts/SpankBank.sol",
  "compiler": {
    "name": "solc",
    "version": "0.4.24+commit.e67f0147.Emscripten.clang"
  },
  "schemaVersion": "2.0.0",
  "updatedAt": "2018-08-24T06:24:25.686Z"
}