{
  "contractName": "SpankBank",
  "abi": [
    {
      "constant": true,
      "inputs": [],
      "name": "currentPeriod",
      "outputs": [
        {
          "name": "",
          "type": "uint256"
        }
      ],
      "payable": false,
      "stateMutability": "view",
      "type": "function"
    },
    {
      "constant": true,
      "inputs": [],
      "name": "bootyToken",
      "outputs": [
        {
          "name": "",
          "type": "address"
        }
      ],
      "payable": false,
      "stateMutability": "view",
      "type": "function"
    },
    {
      "constant": true,
      "inputs": [],
      "name": "maxPeriods",
      "outputs": [
        {
          "name": "",
          "type": "uint256"
        }
      ],
      "payable": false,
      "stateMutability": "view",
      "type": "function"
    },
    {
      "constant": true,
      "inputs": [
        {
          "name": "",
          "type": "address"
        }
      ],
      "name": "stakers",
      "outputs": [
        {
          "name": "stakerAddress",
          "type": "address"
        },
        {
          "name": "spankStaked",
          "type": "uint256"
        },
        {
          "name": "startingPeriod",
          "type": "uint256"
        },
        {
          "name": "endingPeriod",
          "type": "uint256"
        }
      ],
      "payable": false,
      "stateMutability": "view",
      "type": "function"
    },
    {
      "constant": true,
      "inputs": [],
      "name": "spankToken",
      "outputs": [
        {
          "name": "",
          "type": "address"
        }
      ],
      "payable": false,
      "stateMutability": "view",
      "type": "function"
    },
    {
      "constant": true,
      "inputs": [],
      "name": "periodLength",
      "outputs": [
        {
          "name": "",
          "type": "uint256"
        }
      ],
      "payable": false,
      "stateMutability": "view",
      "type": "function"
    },
    {
      "constant": true,
      "inputs": [
        {
          "name": "",
          "type": "uint256"
        }
      ],
      "name": "periods",
      "outputs": [
        {
          "name": "bootyFees",
          "type": "uint256"
        },
        {
          "name": "totalSpankPoints",
          "type": "uint256"
        },
        {
          "name": "bootyMinted",
          "type": "uint256"
        },
        {
          "name": "mintingComplete",
          "type": "bool"
        },
        {
          "name": "startTime",
          "type": "uint256"
        },
        {
          "name": "endTime",
          "type": "uint256"
        }
      ],
      "payable": false,
      "stateMutability": "view",
      "type": "function"
    },
    {
      "constant": true,
      "inputs": [],
      "name": "spankAddress",
      "outputs": [
        {
          "name": "",
          "type": "address"
        }
      ],
      "payable": false,
      "stateMutability": "view",
      "type": "function"
    },
    {
      "inputs": [
        {
          "name": "_spankAddress",
          "type": "address"
        },
        {
          "name": "_periodLength",
          "type": "uint256"
        },
        {
          "name": "_maxPeriods",
          "type": "uint256"
        },
        {
          "name": "initialBootySupply",
          "type": "uint256"
        }
      ],
      "payable": false,
      "stateMutability": "nonpayable",
      "type": "constructor"
    },
    {
      "constant": false,
      "inputs": [
        {
          "name": "spankAmount",
          "type": "uint256"
        },
        {
          "name": "stakePeriods",
          "type": "uint256"
        }
      ],
      "name": "stake",
      "outputs": [],
      "payable": false,
      "stateMutability": "nonpayable",
      "type": "function"
    },
    {
      "constant": false,
      "inputs": [
        {
          "name": "stakerAddress",
          "type": "address"
        },
        {
          "name": "period",
          "type": "uint256"
        }
      ],
      "name": "getSpankPoints",
      "outputs": [
        {
          "name": "",
          "type": "uint256"
        }
      ],
      "payable": false,
      "stateMutability": "nonpayable",
      "type": "function"
    },
    {
      "constant": false,
      "inputs": [
        {
          "name": "stakerAddress",
          "type": "address"
        },
        {
          "name": "period",
          "type": "uint256"
        }
      ],
      "name": "getDidClaimBooty",
      "outputs": [
        {
          "name": "",
          "type": "bool"
        }
      ],
      "payable": false,
      "stateMutability": "nonpayable",
      "type": "function"
    },
    {
      "constant": false,
      "inputs": [
        {
          "name": "bootyAmount",
          "type": "uint256"
        }
      ],
      "name": "sendFees",
      "outputs": [],
      "payable": false,
      "stateMutability": "nonpayable",
      "type": "function"
    },
    {
      "constant": false,
      "inputs": [],
      "name": "mintBooty",
      "outputs": [],
      "payable": false,
      "stateMutability": "nonpayable",
      "type": "function"
    },
    {
      "constant": false,
      "inputs": [],
      "name": "updatePeriod",
      "outputs": [],
      "payable": false,
      "stateMutability": "nonpayable",
      "type": "function"
    },
    {
      "constant": false,
      "inputs": [],
      "name": "mintInitialBooty",
      "outputs": [],
      "payable": false,
      "stateMutability": "nonpayable",
      "type": "function"
    },
    {
      "constant": false,
      "inputs": [
        {
          "name": "_period",
          "type": "uint256"
        }
      ],
      "name": "claimBooty",
      "outputs": [],
      "payable": false,
      "stateMutability": "nonpayable",
      "type": "function"
    },
    {
      "constant": false,
      "inputs": [],
      "name": "claimInitialBooty",
      "outputs": [],
      "payable": false,
      "stateMutability": "nonpayable",
      "type": "function"
    },
    {
      "constant": false,
      "inputs": [
        {
          "name": "receiver",
          "type": "address"
        },
        {
          "name": "amount",
          "type": "uint256"
        }
      ],
      "name": "sendBooty",
      "outputs": [],
      "payable": false,
      "stateMutability": "nonpayable",
      "type": "function"
    }
  ],
  "bytecode": "0x608060405260006006553480156200001657600080fd5b506040516080806200346d833981018060405281019080805190602001909291908051906020019092919080519060200190929190805190602001909291905050506000846000806101000a81548173ffffffffffffffffffffffffffffffffffffffff021916908373ffffffffffffffffffffffffffffffffffffffff160217905550836001819055506000809054906101000a900473ffffffffffffffffffffffffffffffffffffffff16600360006101000a81548173ffffffffffffffffffffffffffffffffffffffff021916908373ffffffffffffffffffffffffffffffffffffffff1602179055506200010d62000436565b604051809103906000f0801580156200012a573d6000803e3d6000fd5b50600460006101000a81548173ffffffffffffffffffffffffffffffffffffffff021916908373ffffffffffffffffffffffffffffffffffffffff160217905550600460009054906101000a900473ffffffffffffffffffffffffffffffffffffffff1673ffffffffffffffffffffffffffffffffffffffff166340c10f1930846040518363ffffffff167c0100000000000000000000000000000000000000000000000000000000028152600401808373ffffffffffffffffffffffffffffffffffffffff1673ffffffffffffffffffffffffffffffffffffffff16815260200182815260200192505050602060405180830381600087803b1580156200023157600080fd5b505af115801562000246573d6000803e3d6000fd5b505050506040513d60208110156200025d57600080fd5b810190808051906020019092919050505050826002819055504290508060086000600654815260200190815260200160002060040181905550620002b8816001546200041764010000000002620016c4176401000000009004565b60086000600654815260200190815260200160002060050181905550602d60056000600181526020019081526020016000208190555060326005600060028152602001908152602001600020819055506037600560006003815260200190815260200160002081905550603c60056000600481526020019081526020016000208190555060416005600060058152602001908152602001600020819055506046600560006006815260200190815260200160002081905550604b60056000600781526020019081526020016000208190555060506005600060088152602001908152602001600020819055506055600560006009815260200190815260200160002081905550605a60056000600a815260200190815260200160002081905550605f60056000600b815260200190815260200160002081905550606460056000600c815260200190815260200160002081905550505050505062000447565b60008082840190508381101515156200042c57fe5b8091505092915050565b6040516118cf8062001b9e83390190565b61174780620004576000396000f3006080604052600436106100fc576000357c0100000000000000000000000000000000000000000000000000000000900463ffffffff16806306040618146101015780631fcbbefa1461012c5780634cfef2201461017957806350a9b541146101da5780635155bafa1461023157806353547d3f1461025c5780637b0472f0146102735780639168ae72146102aa57806392f4d22514610342578063a0ac577614610399578063a83627de146103c6578063cc741c9c146103dd578063d2ca211514610442578063ea4a11041461046d578063ebae6e44146104d5578063ecd4eb741461052c578063ee2f357714610559578063f140b79b14610570575b600080fd5b34801561010d57600080fd5b50610116610587565b6040518082815260200191505060405180910390f35b34801561013857600080fd5b50610177600480360381019080803573ffffffffffffffffffffffffffffffffffffffff1690602001909291908035906020019092919050505061058d565b005b34801561018557600080fd5b506101c4600480360381019080803573ffffffffffffffffffffffffffffffffffffffff16906020019092919080359060200190929190505050610692565b6040518082815260200191505060405180910390f35b3480156101e657600080fd5b506101ef6106f0565b604051808273ffffffffffffffffffffffffffffffffffffffff1673ffffffffffffffffffffffffffffffffffffffff16815260200191505060405180910390f35b34801561023d57600080fd5b50610246610716565b6040518082815260200191505060405180910390f35b34801561026857600080fd5b5061027161071c565b005b34801561027f57600080fd5b506102a86004803603810190808035906020019092919080359060200190929190505050610971565b005b3480156102b657600080fd5b506102eb600480360381019080803573ffffffffffffffffffffffffffffffffffffffff169060200190929190505050610d2c565b604051808573ffffffffffffffffffffffffffffffffffffffff1673ffffffffffffffffffffffffffffffffffffffff16815260200184815260200183815260200182815260200194505050505060405180910390f35b34801561034e57600080fd5b50610357610d7c565b604051808273ffffffffffffffffffffffffffffffffffffffff1673ffffffffffffffffffffffffffffffffffffffff16815260200191505060405180910390f35b3480156103a557600080fd5b506103c460048036038101908080359060200190929190505050610da2565b005b3480156103d257600080fd5b506103db610f03565b005b3480156103e957600080fd5b50610428600480360381019080803573ffffffffffffffffffffffffffffffffffffffff16906020019092919080359060200190929190505050611003565b604051808215151515815260200191505060405180910390f35b34801561044e57600080fd5b5061045761106e565b6040518082815260200191505060405180910390f35b34801561047957600080fd5b5061049860048036038101908080359060200190929190505050611074565b6040518087815260200186815260200185815260200184151515158152602001838152602001828152602001965050505050505060405180910390f35b3480156104e157600080fd5b506104ea6110bd565b604051808273ffffffffffffffffffffffffffffffffffffffff1673ffffffffffffffffffffffffffffffffffffffff16815260200191505060405180910390f35b34801561053857600080fd5b50610557600480360381019080803590602001909291905050506110e2565b005b34801561056557600080fd5b5061056e61132b565b005b34801561057c57600080fd5b5061058561155d565b005b60065481565b600460009054906101000a900473ffffffffffffffffffffffffffffffffffffffff1673ffffffffffffffffffffffffffffffffffffffff1663a9059cbb83836040518363ffffffff167c0100000000000000000000000000000000000000000000000000000000028152600401808373ffffffffffffffffffffffffffffffffffffffff1673ffffffffffffffffffffffffffffffffffffffff16815260200182815260200192505050602060405180830381600087803b15801561065257600080fd5b505af1158015610666573d6000803e3d6000fd5b505050506040513d602081101561067c57600080fd5b8101908080519060200190929190505050505050565b6000600760008473ffffffffffffffffffffffffffffffffffffffff1673ffffffffffffffffffffffffffffffffffffffff168152602001908152602001600020600401600083815260200190815260200160002054905092915050565b600460009054906101000a900473ffffffffffffffffffffffffffffffffffffffff1681565b60025481565b60008060008061072a610f03565b60086000600160065403815260200190815260200160002093508360030160009054906101000a900460ff1615151561076257600080fd5b60018460030160006101000a81548160ff02191690831515021790555061078e84600001546014611676565b9250600460009054906101000a900473ffffffffffffffffffffffffffffffffffffffff1673ffffffffffffffffffffffffffffffffffffffff166318160ddd6040518163ffffffff167c0100000000000000000000000000000000000000000000000000000000028152600401602060405180830381600087803b15801561081657600080fd5b505af115801561082a573d6000803e3d6000fd5b505050506040513d602081101561084057600080fd5b810190808051906020019092919050505091508183111561096b578183039050600460009054906101000a900473ffffffffffffffffffffffffffffffffffffffff1673ffffffffffffffffffffffffffffffffffffffff166340c10f1930836040518363ffffffff167c0100000000000000000000000000000000000000000000000000000000028152600401808373ffffffffffffffffffffffffffffffffffffffff1673ffffffffffffffffffffffffffffffffffffffff16815260200182815260200192505050602060405180830381600087803b15801561092557600080fd5b505af1158015610939573d6000803e3d6000fd5b505050506040513d602081101561094f57600080fd5b8101908080519060200190929190505050508084600201819055505b50505050565b60008061097c610f03565b60008311801561098e57506002548311155b151561099957600080fd5b6000841115156109a857600080fd5b6000600760003373ffffffffffffffffffffffffffffffffffffffff1673ffffffffffffffffffffffffffffffffffffffff16815260200190815260200160002060000160009054906101000a900473ffffffffffffffffffffffffffffffffffffffff1673ffffffffffffffffffffffffffffffffffffffff16141515610a2f57600080fd5b600360009054906101000a900473ffffffffffffffffffffffffffffffffffffffff1673ffffffffffffffffffffffffffffffffffffffff166323b872dd3330876040518463ffffffff167c0100000000000000000000000000000000000000000000000000000000028152600401808473ffffffffffffffffffffffffffffffffffffffff1673ffffffffffffffffffffffffffffffffffffffff1681526020018373ffffffffffffffffffffffffffffffffffffffff1673ffffffffffffffffffffffffffffffffffffffff1681526020018281526020019350505050602060405180830381600087803b158015610b2857600080fd5b505af1158015610b3c573d6000803e3d6000fd5b505050506040513d6020811015610b5257600080fd5b81019080805190602001909291905050501515610b6e57600080fd5b610b95610b8e856005600087815260200190815260200160002054611676565b60646116a9565b91506080604051908101604052803373ffffffffffffffffffffffffffffffffffffffff16815260200185815260200160016006540181526020018460065401815250600760003373ffffffffffffffffffffffffffffffffffffffff1673ffffffffffffffffffffffffffffffffffffffff16815260200190815260200160002060008201518160000160006101000a81548173ffffffffffffffffffffffffffffffffffffffff021916908373ffffffffffffffffffffffffffffffffffffffff16021790555060208201518160010155604082015181600201556060820151816003015590505081600760003373ffffffffffffffffffffffffffffffffffffffff1673ffffffffffffffffffffffffffffffffffffffff1681526020019081526020016000206004016000600160065401815260200190815260200160002081905550600860006001600654018152602001908152602001600020600101549050610d0481836116c4565b9050806008600060016006540181526020019081526020016000206001018190555050505050565b60076020528060005260406000206000915090508060000160009054906101000a900473ffffffffffffffffffffffffffffffffffffffff16908060010154908060020154908060030154905084565b600360009054906101000a900473ffffffffffffffffffffffffffffffffffffffff1681565b6000610dac6116e2565b6000806000610db9610f03565b60065486101515610dc957600080fd5b600760003373ffffffffffffffffffffffffffffffffffffffff1673ffffffffffffffffffffffffffffffffffffffff168152602001908152602001600020945084600501600087815260200190815260200160002060009054906101000a900460ff16151515610e3957600080fd5b600185600501600088815260200190815260200160002060006101000a81548160ff0219169083151502179055506008600087815260200190815260200160002060c060405190810160405290816000820154815260200160018201548152602001600282015481526020016003820160009054906101000a900460ff161515151581526020016004820154815260200160058201548152505093508360400151925083602001519150846004016000878152602001908152602001600020549050505050505050565b610f0b6116e2565b5b60086000600654815260200190815260200160002060050154421015156110005760086000600654815260200190815260200160002060c060405190810160405290816000820154815260200160018201548152602001600282015481526020016003820160009054906101000a900460ff1615151515815260200160048201548152602001600582015481525050905060016006600082825401925050819055508060a0015160086000600654815260200190815260200160002060040181905550610fdf8160a001516001546116c4565b60086000600654815260200190815260200160002060050181905550610f0c565b50565b6000600760008473ffffffffffffffffffffffffffffffffffffffff1673ffffffffffffffffffffffffffffffffffffffff168152602001908152602001600020600501600083815260200190815260200160002060009054906101000a900460ff16905092915050565b60015481565b60086020528060005260406000206000915090508060000154908060010154908060020154908060030160009054906101000a900460ff16908060040154908060050154905086565b6000809054906101000a900473ffffffffffffffffffffffffffffffffffffffff1681565b60006110ec610f03565b6000821115156110fb57600080fd5b600460009054906101000a900473ffffffffffffffffffffffffffffffffffffffff1673ffffffffffffffffffffffffffffffffffffffff166323b872dd3330856040518463ffffffff167c0100000000000000000000000000000000000000000000000000000000028152600401808473ffffffffffffffffffffffffffffffffffffffff1673ffffffffffffffffffffffffffffffffffffffff1681526020018373ffffffffffffffffffffffffffffffffffffffff1673ffffffffffffffffffffffffffffffffffffffff1681526020018281526020019350505050602060405180830381600087803b1580156111f457600080fd5b505af1158015611208573d6000803e3d6000fd5b505050506040513d602081101561121e57600080fd5b8101908080519060200190929190505050151561123a57600080fd5b600460009054906101000a900473ffffffffffffffffffffffffffffffffffffffff1673ffffffffffffffffffffffffffffffffffffffff166342966c68836040518263ffffffff167c010000000000000000000000000000000000000000000000000000000002815260040180828152602001915050600060405180830381600087803b1580156112cb57600080fd5b505af11580156112df573d6000803e3d6000fd5b5050505060086000600654815260200190815260200160002060000154905061130882826116c4565b905080600860006006548152602001908152602001600020600001819055505050565b600080600080600061133b610f03565b600160065414151561134c57600080fd5b600760003373ffffffffffffffffffffffffffffffffffffffff1673ffffffffffffffffffffffffffffffffffffffff168152602001908152602001600020945084600501600080815260200190815260200160002060009054906101000a900460ff161515156113bc57600080fd5b600185600501600080815260200190815260200160002060006101000a81548160ff021916908315150217905550600860008081526020019081526020016000206002015493506008600060018152602001908152602001600020600101549250846004016000600181526020019081526020016000205491506114496114438386611676565b846116a9565b9050600460009054906101000a900473ffffffffffffffffffffffffffffffffffffffff1673ffffffffffffffffffffffffffffffffffffffff1663a9059cbb33836040518363ffffffff167c0100000000000000000000000000000000000000000000000000000000028152600401808373ffffffffffffffffffffffffffffffffffffffff1673ffffffffffffffffffffffffffffffffffffffff16815260200182815260200192505050602060405180830381600087803b15801561151057600080fd5b505af1158015611524573d6000803e3d6000fd5b505050506040513d602081101561153a57600080fd5b8101908080519060200190929190505050151561155657600080fd5b5050505050565b6000611567610f03565b60016006541415611673576008600060016006540381526020019081526020016000209050600460009054906101000a900473ffffffffffffffffffffffffffffffffffffffff1673ffffffffffffffffffffffffffffffffffffffff166318160ddd6040518163ffffffff167c0100000000000000000000000000000000000000000000000000000000028152600401602060405180830381600087803b15801561161257600080fd5b505af1158015611626573d6000803e3d6000fd5b505050506040513d602081101561163c57600080fd5b8101908080519060200190929190505050816002018190555060018160030160006101000a81548160ff0219169083151502179055505b50565b60008082840290506000841480611697575082848281151561169457fe5b04145b151561169f57fe5b8091505092915050565b60008082848115156116b757fe5b0490508091505092915050565b60008082840190508381101515156116d857fe5b8091505092915050565b60c060405190810160405280600081526020016000815260200160008152602001600015158152602001600081526020016000815250905600a165627a7a72305820995134b38c95b0e2bf3b0eb0b209fc5c900cf6e438798078deac5a5b9452e917002960806040526000600360146101000a81548160ff02191690831515021790555033600360006101000a81548173ffffffffffffffffffffffffffffffffffffffff021916908373ffffffffffffffffffffffffffffffffffffffff1602179055506118608061006f6000396000f3006080604052600436106100d0576000357c0100000000000000000000000000000000000000000000000000000000900463ffffffff16806305d2035b146100d5578063095ea7b31461010457806318160ddd1461016957806323b872dd1461019457806340c10f191461021957806342966c681461027e57806366188463146102ab57806370a08231146103105780637d64bcb4146103675780638da5cb5b14610396578063a9059cbb146103ed578063d73dd62314610452578063dd62ed3e146104b7578063f2fde38b1461052e575b600080fd5b3480156100e157600080fd5b506100ea610571565b604051808215151515815260200191505060405180910390f35b34801561011057600080fd5b5061014f600480360381019080803573ffffffffffffffffffffffffffffffffffffffff16906020019092919080359060200190929190505050610584565b604051808215151515815260200191505060405180910390f35b34801561017557600080fd5b5061017e610676565b6040518082815260200191505060405180910390f35b3480156101a057600080fd5b506101ff600480360381019080803573ffffffffffffffffffffffffffffffffffffffff169060200190929190803573ffffffffffffffffffffffffffffffffffffffff16906020019092919080359060200190929190505050610680565b604051808215151515815260200191505060405180910390f35b34801561022557600080fd5b50610264600480360381019080803573ffffffffffffffffffffffffffffffffffffffff16906020019092919080359060200190929190505050610a3a565b604051808215151515815260200191505060405180910390f35b34801561028a57600080fd5b506102a960048036038101908080359060200190929190505050610c20565b005b3480156102b757600080fd5b506102f6600480360381019080803573ffffffffffffffffffffffffffffffffffffffff16906020019092919080359060200190929190505050610c89565b604051808215151515815260200191505060405180910390f35b34801561031c57600080fd5b50610351600480360381019080803573ffffffffffffffffffffffffffffffffffffffff169060200190929190505050610f1a565b6040518082815260200191505060405180910390f35b34801561037357600080fd5b5061037c610f62565b604051808215151515815260200191505060405180910390f35b3480156103a257600080fd5b506103ab61102a565b604051808273ffffffffffffffffffffffffffffffffffffffff1673ffffffffffffffffffffffffffffffffffffffff16815260200191505060405180910390f35b3480156103f957600080fd5b50610438600480360381019080803573ffffffffffffffffffffffffffffffffffffffff16906020019092919080359060200190929190505050611050565b604051808215151515815260200191505060405180910390f35b34801561045e57600080fd5b5061049d600480360381019080803573ffffffffffffffffffffffffffffffffffffffff1690602001909291908035906020019092919050505061126f565b604051808215151515815260200191505060405180910390f35b3480156104c357600080fd5b50610518600480360381019080803573ffffffffffffffffffffffffffffffffffffffff169060200190929190803573ffffffffffffffffffffffffffffffffffffffff16906020019092919050505061146b565b6040518082815260200191505060405180910390f35b34801561053a57600080fd5b5061056f600480360381019080803573ffffffffffffffffffffffffffffffffffffffff1690602001909291905050506114f2565b005b600360149054906101000a900460ff1681565b600081600260003373ffffffffffffffffffffffffffffffffffffffff1673ffffffffffffffffffffffffffffffffffffffff16815260200190815260200160002060008573ffffffffffffffffffffffffffffffffffffffff1673ffffffffffffffffffffffffffffffffffffffff168152602001908152602001600020819055508273ffffffffffffffffffffffffffffffffffffffff163373ffffffffffffffffffffffffffffffffffffffff167f8c5be1e5ebec7d5bd14f71427d1e84f3dd0314c0f7b2291e5b200ac8c7c3b925846040518082815260200191505060405180910390a36001905092915050565b6000600154905090565b60008073ffffffffffffffffffffffffffffffffffffffff168373ffffffffffffffffffffffffffffffffffffffff16141515156106bd57600080fd5b6000808573ffffffffffffffffffffffffffffffffffffffff1673ffffffffffffffffffffffffffffffffffffffff16815260200190815260200160002054821115151561070a57600080fd5b600260008573ffffffffffffffffffffffffffffffffffffffff1673ffffffffffffffffffffffffffffffffffffffff16815260200190815260200160002060003373ffffffffffffffffffffffffffffffffffffffff1673ffffffffffffffffffffffffffffffffffffffff16815260200190815260200160002054821115151561079557600080fd5b6107e6826000808773ffffffffffffffffffffffffffffffffffffffff1673ffffffffffffffffffffffffffffffffffffffff1681526020019081526020016000205461164a90919063ffffffff16565b6000808673ffffffffffffffffffffffffffffffffffffffff1673ffffffffffffffffffffffffffffffffffffffff16815260200190815260200160002081905550610879826000808673ffffffffffffffffffffffffffffffffffffffff1673ffffffffffffffffffffffffffffffffffffffff1681526020019081526020016000205461166390919063ffffffff16565b6000808573ffffffffffffffffffffffffffffffffffffffff1673ffffffffffffffffffffffffffffffffffffffff1681526020019081526020016000208190555061094a82600260008773ffffffffffffffffffffffffffffffffffffffff1673ffffffffffffffffffffffffffffffffffffffff16815260200190815260200160002060003373ffffffffffffffffffffffffffffffffffffffff1673ffffffffffffffffffffffffffffffffffffffff1681526020019081526020016000205461164a90919063ffffffff16565b600260008673ffffffffffffffffffffffffffffffffffffffff1673ffffffffffffffffffffffffffffffffffffffff16815260200190815260200160002060003373ffffffffffffffffffffffffffffffffffffffff1673ffffffffffffffffffffffffffffffffffffffff168152602001908152602001600020819055508273ffffffffffffffffffffffffffffffffffffffff168473ffffffffffffffffffffffffffffffffffffffff167fddf252ad1be2c89b69c2b068fc378daa952ba7f163c4a11628f55a4df523b3ef846040518082815260200191505060405180910390a3600190509392505050565b6000600360009054906101000a900473ffffffffffffffffffffffffffffffffffffffff1673ffffffffffffffffffffffffffffffffffffffff163373ffffffffffffffffffffffffffffffffffffffff16141515610a9857600080fd5b600360149054906101000a900460ff16151515610ab457600080fd5b610ac98260015461166390919063ffffffff16565b600181905550610b20826000808673ffffffffffffffffffffffffffffffffffffffff1673ffffffffffffffffffffffffffffffffffffffff1681526020019081526020016000205461166390919063ffffffff16565b6000808573ffffffffffffffffffffffffffffffffffffffff1673ffffffffffffffffffffffffffffffffffffffff168152602001908152602001600020819055508273ffffffffffffffffffffffffffffffffffffffff167f0f6798a560793a54c3bcfe86a93cde1e73087d944c0ea20544137d4121396885836040518082815260200191505060405180910390a28273ffffffffffffffffffffffffffffffffffffffff16600073ffffffffffffffffffffffffffffffffffffffff167fddf252ad1be2c89b69c2b068fc378daa952ba7f163c4a11628f55a4df523b3ef846040518082815260200191505060405180910390a36001905092915050565b600360009054906101000a900473ffffffffffffffffffffffffffffffffffffffff1673ffffffffffffffffffffffffffffffffffffffff163373ffffffffffffffffffffffffffffffffffffffff16141515610c7c57600080fd5b610c863382611681565b50565b600080600260003373ffffffffffffffffffffffffffffffffffffffff1673ffffffffffffffffffffffffffffffffffffffff16815260200190815260200160002060008573ffffffffffffffffffffffffffffffffffffffff1673ffffffffffffffffffffffffffffffffffffffff16815260200190815260200160002054905080831115610d9a576000600260003373ffffffffffffffffffffffffffffffffffffffff1673ffffffffffffffffffffffffffffffffffffffff16815260200190815260200160002060008673ffffffffffffffffffffffffffffffffffffffff1673ffffffffffffffffffffffffffffffffffffffff16815260200190815260200160002081905550610e2e565b610dad838261164a90919063ffffffff16565b600260003373ffffffffffffffffffffffffffffffffffffffff1673ffffffffffffffffffffffffffffffffffffffff16815260200190815260200160002060008673ffffffffffffffffffffffffffffffffffffffff1673ffffffffffffffffffffffffffffffffffffffff168152602001908152602001600020819055505b8373ffffffffffffffffffffffffffffffffffffffff163373ffffffffffffffffffffffffffffffffffffffff167f8c5be1e5ebec7d5bd14f71427d1e84f3dd0314c0f7b2291e5b200ac8c7c3b925600260003373ffffffffffffffffffffffffffffffffffffffff1673ffffffffffffffffffffffffffffffffffffffff16815260200190815260200160002060008873ffffffffffffffffffffffffffffffffffffffff1673ffffffffffffffffffffffffffffffffffffffff168152602001908152602001600020546040518082815260200191505060405180910390a3600191505092915050565b60008060008373ffffffffffffffffffffffffffffffffffffffff1673ffffffffffffffffffffffffffffffffffffffff168152602001908152602001600020549050919050565b6000600360009054906101000a900473ffffffffffffffffffffffffffffffffffffffff1673ffffffffffffffffffffffffffffffffffffffff163373ffffffffffffffffffffffffffffffffffffffff16141515610fc057600080fd5b600360149054906101000a900460ff16151515610fdc57600080fd5b6001600360146101000a81548160ff0219169083151502179055507fae5184fba832cb2b1f702aca6117b8d265eaf03ad33eb133f19dde0f5920fa0860405160405180910390a16001905090565b600360009054906101000a900473ffffffffffffffffffffffffffffffffffffffff1681565b60008073ffffffffffffffffffffffffffffffffffffffff168373ffffffffffffffffffffffffffffffffffffffff161415151561108d57600080fd5b6000803373ffffffffffffffffffffffffffffffffffffffff1673ffffffffffffffffffffffffffffffffffffffff1681526020019081526020016000205482111515156110da57600080fd5b61112b826000803373ffffffffffffffffffffffffffffffffffffffff1673ffffffffffffffffffffffffffffffffffffffff1681526020019081526020016000205461164a90919063ffffffff16565b6000803373ffffffffffffffffffffffffffffffffffffffff1673ffffffffffffffffffffffffffffffffffffffff168152602001908152602001600020819055506111be826000808673ffffffffffffffffffffffffffffffffffffffff1673ffffffffffffffffffffffffffffffffffffffff1681526020019081526020016000205461166390919063ffffffff16565b6000808573ffffffffffffffffffffffffffffffffffffffff1673ffffffffffffffffffffffffffffffffffffffff168152602001908152602001600020819055508273ffffffffffffffffffffffffffffffffffffffff163373ffffffffffffffffffffffffffffffffffffffff167fddf252ad1be2c89b69c2b068fc378daa952ba7f163c4a11628f55a4df523b3ef846040518082815260200191505060405180910390a36001905092915050565b600061130082600260003373ffffffffffffffffffffffffffffffffffffffff1673ffffffffffffffffffffffffffffffffffffffff16815260200190815260200160002060008673ffffffffffffffffffffffffffffffffffffffff1673ffffffffffffffffffffffffffffffffffffffff1681526020019081526020016000205461166390919063ffffffff16565b600260003373ffffffffffffffffffffffffffffffffffffffff1673ffffffffffffffffffffffffffffffffffffffff16815260200190815260200160002060008573ffffffffffffffffffffffffffffffffffffffff1673ffffffffffffffffffffffffffffffffffffffff168152602001908152602001600020819055508273ffffffffffffffffffffffffffffffffffffffff163373ffffffffffffffffffffffffffffffffffffffff167f8c5be1e5ebec7d5bd14f71427d1e84f3dd0314c0f7b2291e5b200ac8c7c3b925600260003373ffffffffffffffffffffffffffffffffffffffff1673ffffffffffffffffffffffffffffffffffffffff16815260200190815260200160002060008773ffffffffffffffffffffffffffffffffffffffff1673ffffffffffffffffffffffffffffffffffffffff168152602001908152602001600020546040518082815260200191505060405180910390a36001905092915050565b6000600260008473ffffffffffffffffffffffffffffffffffffffff1673ffffffffffffffffffffffffffffffffffffffff16815260200190815260200160002060008373ffffffffffffffffffffffffffffffffffffffff1673ffffffffffffffffffffffffffffffffffffffff16815260200190815260200160002054905092915050565b600360009054906101000a900473ffffffffffffffffffffffffffffffffffffffff1673ffffffffffffffffffffffffffffffffffffffff163373ffffffffffffffffffffffffffffffffffffffff1614151561154e57600080fd5b600073ffffffffffffffffffffffffffffffffffffffff168173ffffffffffffffffffffffffffffffffffffffff161415151561158a57600080fd5b8073ffffffffffffffffffffffffffffffffffffffff16600360009054906101000a900473ffffffffffffffffffffffffffffffffffffffff1673ffffffffffffffffffffffffffffffffffffffff167f8be0079c531659141344cd1fd0a4f28419497f9722a3daafe3b4186f6b6457e060405160405180910390a380600360006101000a81548173ffffffffffffffffffffffffffffffffffffffff021916908373ffffffffffffffffffffffffffffffffffffffff16021790555050565b600082821115151561165857fe5b818303905092915050565b600080828401905083811015151561167757fe5b8091505092915050565b6000808373ffffffffffffffffffffffffffffffffffffffff1673ffffffffffffffffffffffffffffffffffffffff1681526020019081526020016000205481111515156116ce57600080fd5b61171f816000808573ffffffffffffffffffffffffffffffffffffffff1673ffffffffffffffffffffffffffffffffffffffff1681526020019081526020016000205461164a90919063ffffffff16565b6000808473ffffffffffffffffffffffffffffffffffffffff1673ffffffffffffffffffffffffffffffffffffffff168152602001908152602001600020819055506117768160015461164a90919063ffffffff16565b6001819055508173ffffffffffffffffffffffffffffffffffffffff167fcc16f5dbb4873280815c1ee09dbd06736cffcc184412cf7a71a0fdb75d397ca5826040518082815260200191505060405180910390a2600073ffffffffffffffffffffffffffffffffffffffff168273ffffffffffffffffffffffffffffffffffffffff167fddf252ad1be2c89b69c2b068fc378daa952ba7f163c4a11628f55a4df523b3ef836040518082815260200191505060405180910390a350505600a165627a7a723058205c78e41ce2de1f5180c1e7f72a89352f78b941dfca4817b186e8b97a764ef6db0029",
  "source": "pragma solidity 0.4.23;\nimport {SafeMath} from './SafeMath.sol';\nimport {HumanStandardToken} from './HumanStandardToken.sol';\nimport {MintableToken} from './MintableToken.sol';\n\ncontract SpankBank {\n\n  /***********************************\n  VARIABLES SET AT CONTRACT DEPLOYMENT\n  ************************************/\n  // ADDRESSES DEFINED AT DEPLOYMENT\n  address public spankAddress;\n\n  // GLOBAL CONSTANT VARIABLES\n  uint256 public periodLength; // time length of each period in seconds\n  uint256 public maxPeriods;\n\n  // ERC-20 BASED TOKEN WITH SOME ADDED PROPERTIES FOR HUMAN READABILITY\n  // https://github.com/ConsenSys/Tokens/blob/master/contracts/HumanStandardToken.sol\n  HumanStandardToken public spankToken;\n  MintableToken public bootyToken;\n\n  // LOOKUP TABLE FOR SPANKPOINTS BY PERIOD\n  // 1 -> 40%\n  // 2 -> 45%\n  // ...\n  // 12 -> 100%\n  mapping(uint256 => uint256) pointsTable;\n\n  /*************************************\n  INTERAL ACCOUNTING\n  **************************************/\n  uint256 public currentPeriod = 0;\n\n  struct Staker {\n    // TODO do we need stakerAddress? Right now it is being used to check existence\n    address stakerAddress; // the address of the staker\n    uint256 spankStaked; // the amount of spank staked\n\n    uint256 startingPeriod; // the period this staker started staking\n    uint256 endingPeriod; // the period after which this stake expires\n    mapping(uint256 => uint256) spankPoints; // the spankPoints per period\n    mapping(uint256 => bool) didClaimBooty;\n  }\n\n  mapping(address => Staker) public stakers;\n\n  struct Period {\n    uint256 bootyFees;\n    uint256 totalSpankPoints; // the total spankPoints of all stakers per period\n    uint256 bootyMinted;\n    bool mintingComplete;\n    uint256 startTime;\n    uint256 endTime;\n  }\n\n  mapping(uint256 => Period) public periods;\n\n  function SpankBank (\n    address _spankAddress,\n    uint256 _periodLength,\n    uint256 _maxPeriods,\n    uint256 initialBootySupply\n  ) {\n    spankAddress = _spankAddress;\n    periodLength = _periodLength;\n    spankToken = HumanStandardToken(spankAddress);\n    bootyToken = new MintableToken();\n    bootyToken.mint(this, initialBootySupply);\n    maxPeriods = _maxPeriods;\n\n    uint256 startTime = now;\n\n    periods[currentPeriod].startTime = startTime;\n    periods[currentPeriod].endTime = SafeMath.add(startTime, periodLength);\n\n    // initialize points table\n    pointsTable[1] = 45;\n    pointsTable[2] = 50;\n    pointsTable[3] = 55;\n    pointsTable[4] = 60;\n    pointsTable[5] = 65;\n    pointsTable[6] = 70;\n    pointsTable[7] = 75;\n    pointsTable[8] = 80;\n    pointsTable[9] = 85;\n    pointsTable[10] = 90;\n    pointsTable[11] = 95;\n    pointsTable[12] = 100;\n  }\n\n  // Used to create a new staking position - verifies that the caller is not staking\n  function stake(uint256 spankAmount, uint256 stakePeriods) {\n    updatePeriod();\n\n    require(stakePeriods > 0 && stakePeriods <= maxPeriods); // stake 1-12 (max) periods\n    require(spankAmount > 0); // stake must be greater than 0\n\n    // the msg.sender must not have an active staking position\n    require(stakers[msg.sender].stakerAddress == 0);\n\n    // transfer SPANK to this contract - assumes sender has already \"allowed\" the spankAmount\n    require(spankToken.transferFrom(msg.sender, this, spankAmount));\n\n    // The spankAmount of spankPoints the user will have during the next staking period\n    uint256 nextSpankPoints = SafeMath.div( SafeMath.mul(spankAmount, pointsTable[stakePeriods]), 100 );\n\n    stakers[msg.sender] = Staker(msg.sender, spankAmount, currentPeriod + 1, currentPeriod + stakePeriods);\n\n    stakers[msg.sender].spankPoints[currentPeriod + 1] = nextSpankPoints;\n\n    uint256 nextTotalSpankPoints = periods[currentPeriod + 1].totalSpankPoints;\n    nextTotalSpankPoints = SafeMath.add(nextTotalSpankPoints, nextSpankPoints);\n    periods[currentPeriod + 1].totalSpankPoints = nextTotalSpankPoints;\n  }\n\n  function getSpankPoints(address stakerAddress, uint256 period) returns (uint256) {\n    return stakers[stakerAddress].spankPoints[period];\n  }\n\n  function getDidClaimBooty(address stakerAddress, uint256 period) returns (bool) {\n    return stakers[stakerAddress].didClaimBooty[period];\n  }\n\n  // user will be able to add more SPANK to their stake and / or extend it\n  // function updateStake(uint256 amount, uint256 periods) {}\n\n  // 1. Anyone calls the mint function, which generates all the new booty for that period\n  //  - what if no one calls mint? the booty supply will be lower for the next round\n  //  - more booty will be created later to compensate (not really a bid deal)\n  // 2. Stakers can withdraw their minted BOOTY\n\n  // Do the fees get calculated for the current period or the next one? Current\n  // Does the minting depends on current stake or next?\n  // If I start staking at 10.5, my stake will only matter for 11, and the BOOTY generated after 11 will be based on the fees paid during 11, and can only be collected after 11 is done\n\n  function sendFees(uint256 bootyAmount) {\n    updatePeriod();\n\n    require(bootyAmount > 0); // fees must be greater than 0\n    require(bootyToken.transferFrom(msg.sender, this, bootyAmount));\n\n    bootyToken.burn(bootyAmount);\n\n    uint256 currentBootyFees = periods[currentPeriod].bootyFees;\n    currentBootyFees = SafeMath.add(bootyAmount, currentBootyFees);\n    periods[currentPeriod].bootyFees = currentBootyFees;\n  }\n\n  function mintBooty() {\n    updatePeriod();\n\n    Period storage period = periods[currentPeriod - 1];\n    require(!period.mintingComplete); // cant mint BOOTY twice\n\n    period.mintingComplete = true;\n\n    uint256 targetBootySupply = SafeMath.mul(period.bootyFees, 20);\n    uint256 totalBootySupply = bootyToken.totalSupply();\n\n    if (targetBootySupply > totalBootySupply) {\n      uint256 bootyMinted = targetBootySupply - totalBootySupply;\n      bootyToken.mint(this, bootyMinted);\n      period.bootyMinted = bootyMinted;\n    }\n  }\n\n  // This will check the current time and update the current period accordingly\n  // - called from all write functions to ensure the period is always up to date before any writes\n  // - can also be called externally, but there isn't a good reason for why you would want to\n  // - the while loop protects against the edge case where we miss a period\n\n  function updatePeriod() {\n    while (now >= periods[currentPeriod].endTime) {\n      Period memory prevPeriod = periods[currentPeriod];\n      currentPeriod += 1;\n      periods[currentPeriod].startTime = prevPeriod.endTime;\n      periods[currentPeriod].endTime = SafeMath.add(prevPeriod.endTime, periodLength);\n    }\n  }\n\n  function mintInitialBooty() {\n    updatePeriod();\n    if (currentPeriod == 1) { // TODO why not use require here?\n      Period storage period = periods[currentPeriod - 1];\n      period.bootyMinted = bootyToken.totalSupply();\n      period.mintingComplete = true;\n    }\n  }\n\n  function claimBooty(uint256 _period) {\n    updatePeriod();\n\n    require(_period < currentPeriod); // can only claim booty for previous periods\n\n    Staker storage staker = stakers[msg.sender];\n\n    require(!staker.didClaimBooty[_period]); // can only claim booty once\n\n    staker.didClaimBooty[_period] = true;\n\n    Period memory period = periods[_period];\n    uint256 bootyMinted = period.bootyMinted;\n    uint256 totalSpankPoints = period.totalSpankPoints;\n\n    uint256 stakerSpankPoints = staker.spankPoints[_period];\n\n    /*\n    uint256 bootyOwed = SafeMath.div( SafeMath.mul( stakerSpankPoints, bootyMinted), totalSpankPoints);\n\n    require(bootyToken.transfer(msg.sender, bootyOwed));\n    */\n  }\n\n  // special function for claiming initial booty\n  // uses the spank points for period 1 to determine booty distribution\n  // this works because stakers during period 1 set their spankpoints for period 2\n  function claimInitialBooty() {\n    updatePeriod();\n\n    require(currentPeriod == 1);\n\n    Staker storage staker = stakers[msg.sender];\n\n    require(!staker.didClaimBooty[0]); // can only claim booty once\n\n    staker.didClaimBooty[0] = true;\n\n    // use booty minted from period 0 but spank points from period 1\n    uint256 bootyMinted = periods[0].bootyMinted;\n    uint256 totalSpankPoints = periods[1].totalSpankPoints;\n\n    uint256 stakerSpankPoints = staker.spankPoints[1];\n\n    uint256 bootyOwed = SafeMath.div( SafeMath.mul( stakerSpankPoints, bootyMinted), totalSpankPoints);\n\n    require(bootyToken.transfer(msg.sender, bootyOwed));\n  }\n\n  /*\n  function withdrawStake(uint256 amount) {\n    // check timelock - if expired, allow withdrawl\n  }\n  */\n\n  // TODO delete this function\n  function sendBooty(address receiver, uint256 amount) {\n    bootyToken.transfer(receiver, amount);\n  }\n}\n",
  "sourcePath": "/Users/admin/spankchain/spankbank_updated/contracts/SpankBank.sol",
  "compiler": {
    "name": "solc",
    "version": "0.4.23+commit.124ca40d.Emscripten.clang"
  },
  "schemaVersion": "2.0.0",
  "updatedAt": "2018-05-08T04:09:54.496Z"
}