{
  "contractName": "SpankBank",
  "abi": [
    {
      "constant": true,
      "inputs": [],
      "name": "currentPeriod",
      "outputs": [
        {
          "name": "",
          "type": "uint256"
        }
      ],
      "payable": false,
      "stateMutability": "view",
      "type": "function"
    },
    {
      "constant": true,
      "inputs": [],
      "name": "closingVotes",
      "outputs": [
        {
          "name": "",
          "type": "uint256"
        }
      ],
      "payable": false,
      "stateMutability": "view",
      "type": "function"
    },
    {
      "constant": true,
      "inputs": [],
      "name": "bootyToken",
      "outputs": [
        {
          "name": "",
          "type": "address"
        }
      ],
      "payable": false,
      "stateMutability": "view",
      "type": "function"
    },
    {
      "constant": true,
      "inputs": [],
      "name": "maxPeriods",
      "outputs": [
        {
          "name": "",
          "type": "uint256"
        }
      ],
      "payable": false,
      "stateMutability": "view",
      "type": "function"
    },
    {
      "constant": true,
      "inputs": [
        {
          "name": "",
          "type": "address"
        }
      ],
      "name": "stakers",
      "outputs": [
        {
          "name": "spankStaked",
          "type": "uint256"
        },
        {
          "name": "startingPeriod",
          "type": "uint256"
        },
        {
          "name": "endingPeriod",
          "type": "uint256"
        },
        {
          "name": "delegateKey",
          "type": "address"
        },
        {
          "name": "bootyBase",
          "type": "address"
        }
      ],
      "payable": false,
      "stateMutability": "view",
      "type": "function"
    },
    {
      "constant": true,
      "inputs": [],
      "name": "spankToken",
      "outputs": [
        {
          "name": "",
          "type": "address"
        }
      ],
      "payable": false,
      "stateMutability": "view",
      "type": "function"
    },
    {
      "constant": true,
      "inputs": [],
      "name": "isClosed",
      "outputs": [
        {
          "name": "",
          "type": "bool"
        }
      ],
      "payable": false,
      "stateMutability": "view",
      "type": "function"
    },
    {
      "constant": true,
      "inputs": [],
      "name": "totalSpankStaked",
      "outputs": [
        {
          "name": "",
          "type": "uint256"
        }
      ],
      "payable": false,
      "stateMutability": "view",
      "type": "function"
    },
    {
      "constant": true,
      "inputs": [],
      "name": "periodLength",
      "outputs": [
        {
          "name": "",
          "type": "uint256"
        }
      ],
      "payable": false,
      "stateMutability": "view",
      "type": "function"
    },
    {
      "constant": true,
      "inputs": [],
      "name": "closingPeriod",
      "outputs": [
        {
          "name": "",
          "type": "uint256"
        }
      ],
      "payable": false,
      "stateMutability": "view",
      "type": "function"
    },
    {
      "constant": true,
      "inputs": [
        {
          "name": "",
          "type": "address"
        }
      ],
      "name": "delegateKeys",
      "outputs": [
        {
          "name": "stakerAddress",
          "type": "address"
        }
      ],
      "payable": false,
      "stateMutability": "view",
      "type": "function"
    },
    {
      "constant": true,
      "inputs": [
        {
          "name": "",
          "type": "uint256"
        }
      ],
      "name": "periods",
      "outputs": [
        {
          "name": "bootyFees",
          "type": "uint256"
        },
        {
          "name": "totalSpankPoints",
          "type": "uint256"
        },
        {
          "name": "bootyMinted",
          "type": "uint256"
        },
        {
          "name": "mintingComplete",
          "type": "bool"
        },
        {
          "name": "startTime",
          "type": "uint256"
        },
        {
          "name": "endTime",
          "type": "uint256"
        },
        {
          "name": "closingVotes",
          "type": "uint256"
        },
        {
          "name": "totalStakedSpank",
          "type": "uint256"
        }
      ],
      "payable": false,
      "stateMutability": "view",
      "type": "function"
    },
    {
      "inputs": [
        {
          "name": "_periodLength",
          "type": "uint256"
        },
        {
          "name": "_maxPeriods",
          "type": "uint256"
        },
        {
          "name": "spankAddress",
          "type": "address"
        },
        {
          "name": "initialBootySupply",
          "type": "uint256"
        }
      ],
      "payable": false,
      "stateMutability": "nonpayable",
      "type": "constructor"
    },
    {
      "anonymous": false,
      "inputs": [
        {
          "indexed": true,
          "name": "staker",
          "type": "address"
        },
        {
          "indexed": true,
          "name": "stakePeriods",
          "type": "uint256"
        },
        {
          "indexed": true,
          "name": "startPeriod",
          "type": "uint256"
        },
        {
          "indexed": false,
          "name": "delegateKey",
          "type": "address"
        },
        {
          "indexed": false,
          "name": "bootyBase",
          "type": "address"
        },
        {
          "indexed": false,
          "name": "currentPeriod",
          "type": "uint256"
        }
      ],
      "name": "StakeEvent",
      "type": "event"
    },
    {
      "anonymous": false,
      "inputs": [
        {
          "indexed": true,
          "name": "sender",
          "type": "address"
        },
        {
          "indexed": true,
          "name": "bootyAmount",
          "type": "uint256"
        },
        {
          "indexed": true,
          "name": "currentBootyFees",
          "type": "uint256"
        },
        {
          "indexed": false,
          "name": "currentPeriod",
          "type": "uint256"
        }
      ],
      "name": "SendFeesEvent",
      "type": "event"
    },
    {
      "anonymous": false,
      "inputs": [
        {
          "indexed": true,
          "name": "targetBootySupply",
          "type": "uint256"
        },
        {
          "indexed": true,
          "name": "totalBootySupply",
          "type": "uint256"
        },
        {
          "indexed": true,
          "name": "currentPeriod",
          "type": "uint256"
        }
      ],
      "name": "MintBootyEvent",
      "type": "event"
    },
    {
      "anonymous": false,
      "inputs": [
        {
          "indexed": true,
          "name": "staker",
          "type": "address"
        },
        {
          "indexed": true,
          "name": "updatedEndingPeriod",
          "type": "uint256"
        },
        {
          "indexed": true,
          "name": "currentPeriod",
          "type": "uint256"
        },
        {
          "indexed": false,
          "name": "delegateKey",
          "type": "address"
        },
        {
          "indexed": false,
          "name": "bootyBase",
          "type": "address"
        }
      ],
      "name": "CheckInEvent",
      "type": "event"
    },
    {
      "anonymous": false,
      "inputs": [
        {
          "indexed": true,
          "name": "staker",
          "type": "address"
        },
        {
          "indexed": true,
          "name": "period",
          "type": "uint256"
        },
        {
          "indexed": true,
          "name": "bootyOwed",
          "type": "uint256"
        },
        {
          "indexed": false,
          "name": "stakerSpankPoints",
          "type": "uint256"
        },
        {
          "indexed": false,
          "name": "currentPeriod",
          "type": "uint256"
        },
        {
          "indexed": false,
          "name": "delegateKey",
          "type": "address"
        },
        {
          "indexed": false,
          "name": "bootyBase",
          "type": "address"
        }
      ],
      "name": "ClaimBootyEvent",
      "type": "event"
    },
    {
      "anonymous": false,
      "inputs": [
        {
          "indexed": true,
          "name": "staker",
          "type": "address"
        },
        {
          "indexed": true,
          "name": "totalSpankToWithdraw",
          "type": "uint256"
        },
        {
          "indexed": true,
          "name": "currentPeriod",
          "type": "uint256"
        },
        {
          "indexed": false,
          "name": "totalSpankStaked",
          "type": "uint256"
        },
        {
          "indexed": false,
          "name": "delegateKey",
          "type": "address"
        },
        {
          "indexed": false,
          "name": "bootyBase",
          "type": "address"
        }
      ],
      "name": "WithdrawStakeEvent",
      "type": "event"
    },
    {
      "anonymous": false,
      "inputs": [
        {
          "indexed": true,
          "name": "staker",
          "type": "address"
        },
        {
          "indexed": true,
          "name": "newAddress",
          "type": "address"
        },
        {
          "indexed": true,
          "name": "newDelegateKey",
          "type": "address"
        },
        {
          "indexed": false,
          "name": "newBootyBase",
          "type": "address"
        },
        {
          "indexed": false,
          "name": "spankAmount",
          "type": "uint256"
        },
        {
          "indexed": false,
          "name": "currentPeriod",
          "type": "uint256"
        },
        {
          "indexed": false,
          "name": "startingPeriod",
          "type": "uint256"
        },
        {
          "indexed": false,
          "name": "endingPeriod",
          "type": "uint256"
        }
      ],
      "name": "SplitStakeEvent",
      "type": "event"
    },
    {
      "anonymous": false,
      "inputs": [
        {
          "indexed": true,
          "name": "staker",
          "type": "address"
        },
        {
          "indexed": true,
          "name": "spankStaked",
          "type": "uint256"
        },
        {
          "indexed": true,
          "name": "currentPeriod",
          "type": "uint256"
        },
        {
          "indexed": false,
          "name": "isClosed",
          "type": "bool"
        },
        {
          "indexed": false,
          "name": "totalSpankStaked",
          "type": "uint256"
        },
        {
          "indexed": false,
          "name": "delegateKey",
          "type": "address"
        },
        {
          "indexed": false,
          "name": "bootyBase",
          "type": "address"
        }
      ],
      "name": "VoteToCloseEvent",
      "type": "event"
    },
    {
      "anonymous": false,
      "inputs": [
        {
          "indexed": true,
          "name": "staker",
          "type": "address"
        },
        {
          "indexed": true,
          "name": "newDelegateKey",
          "type": "address"
        },
        {
          "indexed": true,
          "name": "currentPeriod",
          "type": "uint256"
        },
        {
          "indexed": false,
          "name": "delegateKey",
          "type": "address"
        },
        {
          "indexed": false,
          "name": "bootyBase",
          "type": "address"
        }
      ],
      "name": "UpdateDelegateKeyEvent",
      "type": "event"
    },
    {
      "anonymous": false,
      "inputs": [
        {
          "indexed": true,
          "name": "staker",
          "type": "address"
        },
        {
          "indexed": true,
          "name": "newBootyBase",
          "type": "address"
        },
        {
          "indexed": true,
          "name": "currentPeriod",
          "type": "uint256"
        },
        {
          "indexed": false,
          "name": "delegateKey",
          "type": "address"
        },
        {
          "indexed": false,
          "name": "bootyBase",
          "type": "address"
        }
      ],
      "name": "UpdateBootyBaseEvent",
      "type": "event"
    },
    {
      "anonymous": false,
      "inputs": [
        {
          "indexed": false,
          "name": "from",
          "type": "address"
        },
        {
          "indexed": false,
          "name": "amount",
          "type": "uint256"
        },
        {
          "indexed": false,
          "name": "tokenContract",
          "type": "address"
        },
        {
          "indexed": false,
          "name": "extraData",
          "type": "bytes"
        }
      ],
      "name": "ReceiveApprovalEvent",
      "type": "event"
    },
    {
      "constant": false,
      "inputs": [
        {
          "name": "spankAmount",
          "type": "uint256"
        },
        {
          "name": "stakePeriods",
          "type": "uint256"
        },
        {
          "name": "delegateKey",
          "type": "address"
        },
        {
          "name": "bootyBase",
          "type": "address"
        }
      ],
      "name": "stake",
      "outputs": [],
      "payable": false,
      "stateMutability": "nonpayable",
      "type": "function"
    },
    {
      "constant": false,
      "inputs": [
        {
          "name": "from",
          "type": "address"
        },
        {
          "name": "amount",
          "type": "uint256"
        },
        {
          "name": "tokenContract",
          "type": "address"
        },
        {
          "name": "extraData",
          "type": "bytes"
        }
      ],
      "name": "receiveApproval",
      "outputs": [
        {
          "name": "success",
          "type": "bool"
        }
      ],
      "payable": false,
      "stateMutability": "nonpayable",
      "type": "function"
    },
    {
      "constant": true,
      "inputs": [
        {
          "name": "stakerAddress",
          "type": "address"
        },
        {
          "name": "period",
          "type": "uint256"
        }
      ],
      "name": "getSpankPoints",
      "outputs": [
        {
          "name": "",
          "type": "uint256"
        }
      ],
      "payable": false,
      "stateMutability": "view",
      "type": "function"
    },
    {
      "constant": true,
      "inputs": [
        {
          "name": "stakerAddress",
          "type": "address"
        },
        {
          "name": "period",
          "type": "uint256"
        }
      ],
      "name": "getDidClaimBooty",
      "outputs": [
        {
          "name": "",
          "type": "bool"
        }
      ],
      "payable": false,
      "stateMutability": "view",
      "type": "function"
    },
    {
      "constant": true,
      "inputs": [
        {
          "name": "stakerAddress",
          "type": "address"
        },
        {
          "name": "period",
          "type": "uint256"
        }
      ],
      "name": "getVote",
      "outputs": [
        {
          "name": "",
          "type": "bool"
        }
      ],
      "payable": false,
      "stateMutability": "view",
      "type": "function"
    },
    {
      "constant": true,
      "inputs": [
        {
          "name": "period",
          "type": "uint256"
        }
      ],
      "name": "getPeriod",
      "outputs": [
        {
          "name": "",
          "type": "uint256"
        },
        {
          "name": "",
          "type": "uint256"
        },
        {
          "name": "",
          "type": "uint256"
        },
        {
          "name": "",
          "type": "bool"
        },
        {
          "name": "",
          "type": "uint256"
        },
        {
          "name": "",
          "type": "uint256"
        }
      ],
      "payable": false,
      "stateMutability": "view",
      "type": "function"
    },
    {
      "constant": true,
      "inputs": [
        {
          "name": "stakerAddress",
          "type": "address"
        }
      ],
      "name": "getStaker",
      "outputs": [
        {
          "name": "",
          "type": "uint256"
        },
        {
          "name": "",
          "type": "uint256"
        },
        {
          "name": "",
          "type": "uint256"
        },
        {
          "name": "",
          "type": "address"
        },
        {
          "name": "",
          "type": "address"
        }
      ],
      "payable": false,
      "stateMutability": "view",
      "type": "function"
    },
    {
      "constant": true,
      "inputs": [
        {
          "name": "delegateAddress",
          "type": "address"
        }
      ],
      "name": "getStakerFromDelegateKey",
      "outputs": [
        {
          "name": "",
          "type": "address"
        }
      ],
      "payable": false,
      "stateMutability": "view",
      "type": "function"
    },
    {
      "constant": false,
      "inputs": [
        {
          "name": "bootyAmount",
          "type": "uint256"
        }
      ],
      "name": "sendFees",
      "outputs": [],
      "payable": false,
      "stateMutability": "nonpayable",
      "type": "function"
    },
    {
      "constant": false,
      "inputs": [],
      "name": "mintBooty",
      "outputs": [],
      "payable": false,
      "stateMutability": "nonpayable",
      "type": "function"
    },
    {
      "constant": false,
      "inputs": [],
      "name": "updatePeriod",
      "outputs": [],
      "payable": false,
      "stateMutability": "nonpayable",
      "type": "function"
    },
    {
      "constant": false,
      "inputs": [
        {
          "name": "updatedEndingPeriod",
          "type": "uint256"
        }
      ],
      "name": "checkIn",
      "outputs": [],
      "payable": false,
      "stateMutability": "nonpayable",
      "type": "function"
    },
    {
      "constant": false,
      "inputs": [
        {
          "name": "_period",
          "type": "uint256"
        }
      ],
      "name": "claimBooty",
      "outputs": [],
      "payable": false,
      "stateMutability": "nonpayable",
      "type": "function"
    },
    {
      "constant": false,
      "inputs": [],
      "name": "withdrawStake",
      "outputs": [],
      "payable": false,
      "stateMutability": "nonpayable",
      "type": "function"
    },
    {
      "constant": false,
      "inputs": [
        {
          "name": "newAddress",
          "type": "address"
        },
        {
          "name": "newDelegateKey",
          "type": "address"
        },
        {
          "name": "newBootyBase",
          "type": "address"
        },
        {
          "name": "spankAmount",
          "type": "uint256"
        }
      ],
      "name": "splitStake",
      "outputs": [],
      "payable": false,
      "stateMutability": "nonpayable",
      "type": "function"
    },
    {
      "constant": false,
      "inputs": [],
      "name": "voteToClose",
      "outputs": [],
      "payable": false,
      "stateMutability": "nonpayable",
      "type": "function"
    },
    {
      "constant": false,
      "inputs": [
        {
          "name": "newDelegateKey",
          "type": "address"
        }
      ],
      "name": "updateDelegateKey",
      "outputs": [],
      "payable": false,
      "stateMutability": "nonpayable",
      "type": "function"
    },
    {
      "constant": false,
      "inputs": [
        {
          "name": "newBootyBase",
          "type": "address"
        }
      ],
      "name": "updateBootyBase",
      "outputs": [],
      "payable": false,
      "stateMutability": "nonpayable",
      "type": "function"
    }
  ],
  "bytecode": "0x608060405260006009553480156200001657600080fd5b50604051608080620057ef833981018060405281019080805190602001909291908051906020019092919080519060200190929190805190602001909291905050506000846000819055508360018190555082600660006101000a81548173ffffffffffffffffffffffffffffffffffffffff021916908373ffffffffffffffffffffffffffffffffffffffff160217905550620000b3620004f2565b604051809103906000f080158015620000d0573d6000803e3d6000fd5b50600760006101000a81548173ffffffffffffffffffffffffffffffffffffffff021916908373ffffffffffffffffffffffffffffffffffffffff160217905550600760009054906101000a900473ffffffffffffffffffffffffffffffffffffffff1673ffffffffffffffffffffffffffffffffffffffff166340c10f1930846040518363ffffffff167c0100000000000000000000000000000000000000000000000000000000028152600401808373ffffffffffffffffffffffffffffffffffffffff1673ffffffffffffffffffffffffffffffffffffffff16815260200182815260200192505050602060405180830381600087803b158015620001d757600080fd5b505af1158015620001ec573d6000803e3d6000fd5b505050506040513d60208110156200020357600080fd5b81019080805190602001909291905050505042905080600b60006009548152602001908152602001600020600401819055506200025781600054620004d364010000000002620036e1176401000000009004565b600b6000600954815260200190815260200160002060050181905550600760009054906101000a900473ffffffffffffffffffffffffffffffffffffffff1673ffffffffffffffffffffffffffffffffffffffff1663a9059cbb33846040518363ffffffff167c0100000000000000000000000000000000000000000000000000000000028152600401808373ffffffffffffffffffffffffffffffffffffffff1673ffffffffffffffffffffffffffffffffffffffff16815260200182815260200192505050602060405180830381600087803b1580156200033957600080fd5b505af11580156200034e573d6000803e3d6000fd5b505050506040513d60208110156200036557600080fd5b81019080805190602001909291905050505060006008600080815260200190815260200160002081905550602d60086000600181526020019081526020016000208190555060326008600060028152602001908152602001600020819055506037600860006003815260200190815260200160002081905550603c60086000600481526020019081526020016000208190555060416008600060058152602001908152602001600020819055506046600860006006815260200190815260200160002081905550604b60086000600781526020019081526020016000208190555060506008600060088152602001908152602001600020819055506055600860006009815260200190815260200160002081905550605a60086000600a815260200190815260200160002081905550605f60086000600b815260200190815260200160002081905550606460086000600c815260200190815260200160002081905550505050505062000503565b6000808284019050838110151515620004e857fe5b8091505092915050565b60405161112c80620046c383390190565b6141b080620005136000396000f300608060405260043610610180576000357c0100000000000000000000000000000000000000000000000000000000900463ffffffff16806306040618146101855780632277466b146101b05780632582bf2a146101c75780633c84278a1461020a57806340809acd146102355780634b2c0706146102ac5780634cfef2201461031457806350a9b541146103755780635155bafa146103cc57806353547d3f146103f75780636b0dd90f1461040e5780637e9e1561146104735780638f4ffcb1146104f65780639168ae72146105c157806392f4d2251461068c578063948cfd0c146106e3578063a0ac577614610726578063a23c44b114610753578063a83627de1461081e578063b8c0517a14610835578063bed9d861146108c2578063c2b6b58c146108d9578063cc741c9c14610908578063cd43ebf91461096d578063d2ca211514610998578063dd768c28146109c3578063e079f48f146109ee578063e95a644f14610a71578063ea4a110414610a9e578063ecd4eb7414610b14575b600080fd5b34801561019157600080fd5b5061019a610b41565b6040518082815260200191505060405180910390f35b3480156101bc57600080fd5b506101c5610b47565b005b3480156101d357600080fd5b50610208600480360381019080803573ffffffffffffffffffffffffffffffffffffffff169060200190929190505050610ecd565b005b34801561021657600080fd5b5061021f6112d1565b6040518082815260200191505060405180910390f35b34801561024157600080fd5b506102aa6004803603810190808035906020019092919080359060200190929190803573ffffffffffffffffffffffffffffffffffffffff169060200190929190803573ffffffffffffffffffffffffffffffffffffffff1690602001909291905050506112d7565b005b3480156102b857600080fd5b506102d76004803603810190808035906020019092919050505061130c565b6040518087815260200186815260200185815260200184151515158152602001838152602001828152602001965050505050505060405180910390f35b34801561032057600080fd5b5061035f600480360381019080803573ffffffffffffffffffffffffffffffffffffffff169060200190929190803590602001909291905050506113c1565b6040518082815260200191505060405180910390f35b34801561038157600080fd5b5061038a61141f565b604051808273ffffffffffffffffffffffffffffffffffffffff1673ffffffffffffffffffffffffffffffffffffffff16815260200191505060405180910390f35b3480156103d857600080fd5b506103e1611445565b6040518082815260200191505060405180910390f35b34801561040357600080fd5b5061040c61144b565b005b34801561041a57600080fd5b50610459600480360381019080803573ffffffffffffffffffffffffffffffffffffffff16906020019092919080359060200190929190505050611782565b604051808215151515815260200191505060405180910390f35b34801561047f57600080fd5b506104b4600480360381019080803573ffffffffffffffffffffffffffffffffffffffff1690602001909291905050506117ed565b604051808273ffffffffffffffffffffffffffffffffffffffff1673ffffffffffffffffffffffffffffffffffffffff16815260200191505060405180910390f35b34801561050257600080fd5b506105a7600480360381019080803573ffffffffffffffffffffffffffffffffffffffff16906020019092919080359060200190929190803573ffffffffffffffffffffffffffffffffffffffff169060200190929190803590602001908201803590602001908080601f0160208091040260200160405190810160405280939291908181526020018383808284378201915050505050509192919290505050611859565b604051808215151515815260200191505060405180910390f35b3480156105cd57600080fd5b50610602600480360381019080803573ffffffffffffffffffffffffffffffffffffffff1690602001909291905050506119c9565b604051808681526020018581526020018481526020018373ffffffffffffffffffffffffffffffffffffffff1673ffffffffffffffffffffffffffffffffffffffff1681526020018273ffffffffffffffffffffffffffffffffffffffff1673ffffffffffffffffffffffffffffffffffffffff1681526020019550505050505060405180910390f35b34801561069857600080fd5b506106a1611a3f565b604051808273ffffffffffffffffffffffffffffffffffffffff1673ffffffffffffffffffffffffffffffffffffffff16815260200191505060405180910390f35b3480156106ef57600080fd5b50610724600480360381019080803573ffffffffffffffffffffffffffffffffffffffff169060200190929190505050611a65565b005b34801561073257600080fd5b5061075160048036038101908080359060200190929190505050611c12565b005b34801561075f57600080fd5b50610794600480360381019080803573ffffffffffffffffffffffffffffffffffffffff169060200190929190505050612206565b604051808681526020018581526020018481526020018373ffffffffffffffffffffffffffffffffffffffff1673ffffffffffffffffffffffffffffffffffffffff1681526020018273ffffffffffffffffffffffffffffffffffffffff1673ffffffffffffffffffffffffffffffffffffffff1681526020019550505050505060405180910390f35b34801561082a57600080fd5b5061083361235a565b005b34801561084157600080fd5b506108c0600480360381019080803573ffffffffffffffffffffffffffffffffffffffff169060200190929190803573ffffffffffffffffffffffffffffffffffffffff169060200190929190803573ffffffffffffffffffffffffffffffffffffffff1690602001909291908035906020019092919050505061246f565b005b3480156108ce57600080fd5b506108d7612a30565b005b3480156108e557600080fd5b506108ee612da4565b604051808215151515815260200191505060405180910390f35b34801561091457600080fd5b50610953600480360381019080803573ffffffffffffffffffffffffffffffffffffffff16906020019092919080359060200190929190505050612db7565b604051808215151515815260200191505060405180910390f35b34801561097957600080fd5b50610982612e22565b6040518082815260200191505060405180910390f35b3480156109a457600080fd5b506109ad612e28565b6040518082815260200191505060405180910390f35b3480156109cf57600080fd5b506109d8612e2e565b6040518082815260200191505060405180910390f35b3480156109fa57600080fd5b50610a2f600480360381019080803573ffffffffffffffffffffffffffffffffffffffff169060200190929190505050612e34565b604051808273ffffffffffffffffffffffffffffffffffffffff1673ffffffffffffffffffffffffffffffffffffffff16815260200191505060405180910390f35b348015610a7d57600080fd5b50610a9c60048036038101908080359060200190929190505050612e72565b005b348015610aaa57600080fd5b50610ac9600480360381019080803590602001909291905050506132b2565b60405180898152602001888152602001878152602001861515151581526020018581526020018481526020018381526020018281526020019850505050505050505060405180910390f35b348015610b2057600080fd5b50610b3f60048036038101908080359060200190929190505050613307565b005b60095481565b600080610b5261235a565b600a60003373ffffffffffffffffffffffffffffffffffffffff1673ffffffffffffffffffffffffffffffffffffffff168152602001908152602001600020915060008260000154111515610c0f576040517f08c379a000000000000000000000000000000000000000000000000000000000815260040180806020018281038252601f8152602001807f7374616b65206d7573742062652067726561746572207468616e207a65726f0081525060200191505060405180910390fd5b600954826002015410151515610cb3576040517f08c379a000000000000000000000000000000000000000000000000000000000815260040180806020018281038252603b8152602001807f656e64696e67506572696f64206d75737420626520677265617465722074686181526020017f6e206f7220657175616c20746f2063757272656e74506572696f64000000000081525060400191505060405180910390fd5b60001515826005016000600954815260200190815260200160002060009054906101000a900460ff161515141515610cea57600080fd5b60001515600360009054906101000a900460ff161515141515610d0c57600080fd5b600954600554141515610d2b5760095460058190555060006004819055505b610d3b60045483600001546136e1565b6004819055506001826005016000600954815260200190815260200160002060006101000a81548160ff021916908315150217905550610d7e60025460026136ff565b9050806004541115610da6576001600360006101000a81548160ff0219169083151502179055505b60095482600001543373ffffffffffffffffffffffffffffffffffffffff167ff1af139ddf49ffc8b588dd56bc07f4acdd41d41977850640139271302e870745600360009054906101000a900460ff166002548760060160009054906101000a900473ffffffffffffffffffffffffffffffffffffffff168860070160009054906101000a900473ffffffffffffffffffffffffffffffffffffffff1660405180851515151581526020018481526020018373ffffffffffffffffffffffffffffffffffffffff1673ffffffffffffffffffffffffffffffffffffffff1681526020018273ffffffffffffffffffffffffffffffffffffffff1673ffffffffffffffffffffffffffffffffffffffff16815260200194505050505060405180910390a45050565b60008060008073ffffffffffffffffffffffffffffffffffffffff168473ffffffffffffffffffffffffffffffffffffffff1614151515610f0d57600080fd5b600073ffffffffffffffffffffffffffffffffffffffff16600c60008673ffffffffffffffffffffffffffffffffffffffff1673ffffffffffffffffffffffffffffffffffffffff16815260200190815260200160002060000160009054906101000a900473ffffffffffffffffffffffffffffffffffffffff1673ffffffffffffffffffffffffffffffffffffffff16141515610faa57600080fd5b600a60003373ffffffffffffffffffffffffffffffffffffffff1673ffffffffffffffffffffffffffffffffffffffff1681526020019081526020016000209250600073ffffffffffffffffffffffffffffffffffffffff168360060160009054906101000a900473ffffffffffffffffffffffffffffffffffffffff1673ffffffffffffffffffffffffffffffffffffffff161415151561104b57600080fd5b838360060160006101000a81548173ffffffffffffffffffffffffffffffffffffffff021916908373ffffffffffffffffffffffffffffffffffffffff160217905550600c60008460060160009054906101000a900473ffffffffffffffffffffffffffffffffffffffff1673ffffffffffffffffffffffffffffffffffffffff1673ffffffffffffffffffffffffffffffffffffffff168152602001908152602001600020915060008260000160006101000a81548173ffffffffffffffffffffffffffffffffffffffff021916908373ffffffffffffffffffffffffffffffffffffffff160217905550600c60008573ffffffffffffffffffffffffffffffffffffffff1673ffffffffffffffffffffffffffffffffffffffff1681526020019081526020016000209050338160000160006101000a81548173ffffffffffffffffffffffffffffffffffffffff021916908373ffffffffffffffffffffffffffffffffffffffff1602179055506009548473ffffffffffffffffffffffffffffffffffffffff163373ffffffffffffffffffffffffffffffffffffffff167f1f34ab1f26809874562032bbf1c1853c821a6f0bf8334543ec841418af86c3418660060160009054906101000a900473ffffffffffffffffffffffffffffffffffffffff168760070160009054906101000a900473ffffffffffffffffffffffffffffffffffffffff16604051808373ffffffffffffffffffffffffffffffffffffffff1673ffffffffffffffffffffffffffffffffffffffff1681526020018273ffffffffffffffffffffffffffffffffffffffff1673ffffffffffffffffffffffffffffffffffffffff1681526020019250505060405180910390a450505050565b60045481565b60001515600360009054906101000a900460ff1615151415156112f957600080fd5b611306338585858561371a565b50505050565b600080600080600080600b600088815260200190815260200160002060000154600b600089815260200190815260200160002060010154600b60008a815260200190815260200160002060020154600b60008b815260200190815260200160002060030160009054906101000a900460ff16600b60008c815260200190815260200160002060040154600b60008d81526020019081526020016000206005015495509550955095509550955091939550919395565b6000600a60008473ffffffffffffffffffffffffffffffffffffffff1673ffffffffffffffffffffffffffffffffffffffff168152602001908152602001600020600301600083815260200190815260200160002054905092915050565b600760009054906101000a900473ffffffffffffffffffffffffffffffffffffffff1681565b60015481565b60008060008060001515600360009054906101000a900460ff16151514151561147357600080fd5b61147b61235a565b600b6000600160095403815260200190815260200160002093508360030160009054906101000a900460ff16151515611542576040517f08c379a00000000000000000000000000000000000000000000000000000000081526004018080602001828103825260288152602001807f6d696e74426f6f74793a3a6d696e74696e67436f6d706c657465206d7573742081526020017f62652066616c736500000000000000000000000000000000000000000000000081525060400191505060405180910390fd5b60018460030160006101000a81548160ff02191690831515021790555061156e84600001546014613ef3565b9250600760009054906101000a900473ffffffffffffffffffffffffffffffffffffffff1673ffffffffffffffffffffffffffffffffffffffff166318160ddd6040518163ffffffff167c0100000000000000000000000000000000000000000000000000000000028152600401602060405180830381600087803b1580156115f657600080fd5b505af115801561160a573d6000803e3d6000fd5b505050506040513d602081101561162057600080fd5b810190808051906020019092919050505091508183111561177c578183039050600760009054906101000a900473ffffffffffffffffffffffffffffffffffffffff1673ffffffffffffffffffffffffffffffffffffffff166340c10f1930836040518363ffffffff167c0100000000000000000000000000000000000000000000000000000000028152600401808373ffffffffffffffffffffffffffffffffffffffff1673ffffffffffffffffffffffffffffffffffffffff16815260200182815260200192505050602060405180830381600087803b15801561170557600080fd5b505af1158015611719573d6000803e3d6000fd5b505050506040513d602081101561172f57600080fd5b81019080805190602001909291905050505080846002018190555060095482847f010a0dccde1dc09471f09377456312d6a650dc23f1e296f6f47f2b41061d396a60405160405180910390a45b50505050565b6000600a60008473ffffffffffffffffffffffffffffffffffffffff1673ffffffffffffffffffffffffffffffffffffffff168152602001908152602001600020600501600083815260200190815260200160002060009054906101000a900460ff16905092915050565b6000600c60008373ffffffffffffffffffffffffffffffffffffffff1673ffffffffffffffffffffffffffffffffffffffff16815260200190815260200160002060000160009054906101000a900473ffffffffffffffffffffffffffffffffffffffff169050919050565b600080600080611873600c86613f2690919063ffffffff16565b9250611889602c86613f2690919063ffffffff16565b915061189f604086613f5e90919063ffffffff16565b90507f948b03b29efedc7c04662890639a4071d580c3583e3190afee42706a36b8752788888888604051808573ffffffffffffffffffffffffffffffffffffffff1673ffffffffffffffffffffffffffffffffffffffff1681526020018481526020018373ffffffffffffffffffffffffffffffffffffffff1673ffffffffffffffffffffffffffffffffffffffff16815260200180602001828103825283818151815260200191508051906020019080838360005b83811015611970578082015181840152602081019050611955565b50505050905090810190601f16801561199d5780820380516001836020036101000a031916815260200191505b509550505050505060405180910390a16119ba888883868661371a565b60019350505050949350505050565b600a6020528060005260406000206000915090508060000154908060010154908060020154908060060160009054906101000a900473ffffffffffffffffffffffffffffffffffffffff16908060070160009054906101000a900473ffffffffffffffffffffffffffffffffffffffff16905085565b600660009054906101000a900473ffffffffffffffffffffffffffffffffffffffff1681565b6000600a60003373ffffffffffffffffffffffffffffffffffffffff1673ffffffffffffffffffffffffffffffffffffffff168152602001908152602001600020905060008160000154111515611abb57600080fd5b818160070160006101000a81548173ffffffffffffffffffffffffffffffffffffffff021916908373ffffffffffffffffffffffffffffffffffffffff1602179055506009548273ffffffffffffffffffffffffffffffffffffffff163373ffffffffffffffffffffffffffffffffffffffff167fe18b64985a59b982c3b839a10515e6b60496cede4f59719ae60df3a4007f68488460060160009054906101000a900473ffffffffffffffffffffffffffffffffffffffff168560070160009054906101000a900473ffffffffffffffffffffffffffffffffffffffff16604051808373ffffffffffffffffffffffffffffffffffffffff1673ffffffffffffffffffffffffffffffffffffffff1681526020018273ffffffffffffffffffffffffffffffffffffffff1673ffffffffffffffffffffffffffffffffffffffff1681526020019250505060405180910390a45050565b600080611c1d6140e0565b600080600080611c2b61235a565b60095488101515611cca576040517f08c379a00000000000000000000000000000000000000000000000000000000081526004018080602001828103825260338152602001807f636c61696d426f6f74793a3a5f706572696f64206d757374206265206c65737381526020017f207468616e2063757272656e74506572696f640000000000000000000000000081525060400191505060405180910390fd5b600c60003373ffffffffffffffffffffffffffffffffffffffff1673ffffffffffffffffffffffffffffffffffffffff16815260200190815260200160002060000160009054906101000a900473ffffffffffffffffffffffffffffffffffffffff169650600a60008873ffffffffffffffffffffffffffffffffffffffff1673ffffffffffffffffffffffffffffffffffffffff168152602001908152602001600020955085600401600089815260200190815260200160002060009054906101000a900460ff16151515611e2e576040517f08c379a00000000000000000000000000000000000000000000000000000000081526004018080602001828103825260328152602001807f636c61696d426f6f74793a3a646964436c61696d426f6f747920666f7220706581526020017f72696f64206d7573742062652066616c7365000000000000000000000000000081525060400191505060405180910390fd5b60018660040160008a815260200190815260200160002060006101000a81548160ff021916908315150217905550600b600089815260200190815260200160002061010060405190810160405290816000820154815260200160018201548152602001600282015481526020016003820160009054906101000a900460ff16151515158152602001600482015481526020016005820154815260200160068201548152602001600782015481525050945084606001511515611eef57600080fd5b846040015193508460200151925060008311156121fc57856003016000898152602001908152602001600020549150611f31611f2b8386613ef3565b846136ff565b9050600760009054906101000a900473ffffffffffffffffffffffffffffffffffffffff1673ffffffffffffffffffffffffffffffffffffffff1663a9059cbb8760070160009054906101000a900473ffffffffffffffffffffffffffffffffffffffff16836040518363ffffffff167c0100000000000000000000000000000000000000000000000000000000028152600401808373ffffffffffffffffffffffffffffffffffffffff1673ffffffffffffffffffffffffffffffffffffffff16815260200182815260200192505050602060405180830381600087803b15801561201c57600080fd5b505af1158015612030573d6000803e3d6000fd5b505050506040513d602081101561204657600080fd5b810190808051906020019092919050505015156120f1576040517f08c379a00000000000000000000000000000000000000000000000000000000081526004018080602001828103825260278152602001807f636c61696d426f6f74793a3a626f6f7479546f6b656e207472616e736665722081526020017f6661696c7572650000000000000000000000000000000000000000000000000081525060400191505060405180910390fd5b80888873ffffffffffffffffffffffffffffffffffffffff167f4b11188a1cc878807be5f5eb99c700fbeab057dc4d23b713a5b00f4f41334fc6856009548b60060160009054906101000a900473ffffffffffffffffffffffffffffffffffffffff168c60070160009054906101000a900473ffffffffffffffffffffffffffffffffffffffff16604051808581526020018481526020018373ffffffffffffffffffffffffffffffffffffffff1673ffffffffffffffffffffffffffffffffffffffff1681526020018273ffffffffffffffffffffffffffffffffffffffff1673ffffffffffffffffffffffffffffffffffffffff16815260200194505050505060405180910390a45b5050505050505050565b6000806000806000612216614128565b600a60008873ffffffffffffffffffffffffffffffffffffffff1673ffffffffffffffffffffffffffffffffffffffff16815260200190815260200160002060a060405190810160405290816000820154815260200160018201548152602001600282015481526020016006820160009054906101000a900473ffffffffffffffffffffffffffffffffffffffff1673ffffffffffffffffffffffffffffffffffffffff1673ffffffffffffffffffffffffffffffffffffffff1681526020016007820160009054906101000a900473ffffffffffffffffffffffffffffffffffffffff1673ffffffffffffffffffffffffffffffffffffffff1673ffffffffffffffffffffffffffffffffffffffff1681525050905080600001518160200151826040015183606001518460800151955095509550955095505091939590929450565b6123626140e0565b5b600b60006009548152602001908152602001600020600501544210151561246c57600b6000600954815260200190815260200160002061010060405190810160405290816000820154815260200160018201548152602001600282015481526020016003820160009054906101000a900460ff16151515158152602001600482015481526020016005820154815260200160068201548152602001600782015481525050905060016009600082825401925050819055508060a00151600b600060095481526020019081526020016000206004018190555061244b8160a001516000546136e1565b600b6000600954815260200190815260200160002060050181905550612363565b50565b60008061247a61235a565b600073ffffffffffffffffffffffffffffffffffffffff168673ffffffffffffffffffffffffffffffffffffffff1614151515612545576040517f08c379a00000000000000000000000000000000000000000000000000000000081526004018080602001828103825260318152602001807f73706c69745374616b653a3a6e657741646472657373206d757374206265206181526020017f206e6f6e2d7a65726f206164647265737300000000000000000000000000000081525060400191505060405180910390fd5b6000831115156125e3576040517f08c379a000000000000000000000000000000000000000000000000000000000815260040180806020018281038252602e8152602001807f73706c69745374616b653a3a7370616e6b416d6f756e74206d7573742062652081526020017f67726561746572207468616e203000000000000000000000000000000000000081525060400191505060405180910390fd5b600a60003373ffffffffffffffffffffffffffffffffffffffff1673ffffffffffffffffffffffffffffffffffffffff168152602001908152602001600020915081600201546009541015156126c7576040517f08c379a00000000000000000000000000000000000000000000000000000000081526004018080602001828103825260338152602001807f63757272656e74506572696f64206d757374206265206c657373207468616e2081526020017f7374616b657220656e64696e67506572696f640000000000000000000000000081525060400191505060405180910390fd5b81600001548311151515612769576040517f08c379a00000000000000000000000000000000000000000000000000000000081526004018080602001828103825260368152602001807f7370616e6b416d6f756e74206d757374206265206c657373207468616e206f7281526020017f20657175616c20746f207374616b6572207374616b650000000000000000000081525060400191505060405180910390fd5b612780838360000154613f8790919063ffffffff16565b826000018190555060a06040519081016040528084815260200183600101548152602001836002015481526020018673ffffffffffffffffffffffffffffffffffffffff1681526020018573ffffffffffffffffffffffffffffffffffffffff16815250600a60008873ffffffffffffffffffffffffffffffffffffffff1673ffffffffffffffffffffffffffffffffffffffff16815260200190815260200160002060008201518160000155602082015181600101556040820151816002015560608201518160060160006101000a81548173ffffffffffffffffffffffffffffffffffffffff021916908373ffffffffffffffffffffffffffffffffffffffff16021790555060808201518160070160006101000a81548173ffffffffffffffffffffffffffffffffffffffff021916908373ffffffffffffffffffffffffffffffffffffffff160217905550905050600c60008673ffffffffffffffffffffffffffffffffffffffff1673ffffffffffffffffffffffffffffffffffffffff1681526020019081526020016000209050858160000160006101000a81548173ffffffffffffffffffffffffffffffffffffffff021916908373ffffffffffffffffffffffffffffffffffffffff1602179055508473ffffffffffffffffffffffffffffffffffffffff168673ffffffffffffffffffffffffffffffffffffffff163373ffffffffffffffffffffffffffffffffffffffff167f9253c785252c257e6d457c43d70ecfbc21f54c8c471fe8dd7dbd1d70c64a6b19878760095488600101548960020154604051808673ffffffffffffffffffffffffffffffffffffffff1673ffffffffffffffffffffffffffffffffffffffff1681526020018581526020018481526020018381526020018281526020019550505050505060405180910390a4505050505050565b600080612a3b61235a565b600a60003373ffffffffffffffffffffffffffffffffffffffff1673ffffffffffffffffffffffffffffffffffffffff1681526020019081526020016000209150600360009054906101000a900460ff1615612aa757612a9e60095460016136e1565b82600201819055505b8160020154600954111515612b70576040517f08c379a00000000000000000000000000000000000000000000000000000000081526004018080602001828103825260458152602001807f77697468647261775374616b653a3a63757272656e74506572696f64206d757381526020017f742062652067726561746572207468616e207374616b65722e656e64696e675081526020017f6572696f6400000000000000000000000000000000000000000000000000000081525060600191505060405180910390fd5b600660009054906101000a900473ffffffffffffffffffffffffffffffffffffffff1673ffffffffffffffffffffffffffffffffffffffff1663a9059cbb3384600001546040518363ffffffff167c0100000000000000000000000000000000000000000000000000000000028152600401808373ffffffffffffffffffffffffffffffffffffffff1673ffffffffffffffffffffffffffffffffffffffff16815260200182815260200192505050602060405180830381600087803b158015612c3957600080fd5b505af1158015612c4d573d6000803e3d6000fd5b505050506040513d6020811015612c6357600080fd5b81019080805190602001909291905050505081600001549050612c8c6002548360000154613f87565b60028190555060008260000181905550600954813373ffffffffffffffffffffffffffffffffffffffff167fafc5850f6e317608940d0b6f6454e23b66be312c0041d6b5c2c9897dae03f9b26002548660060160009054906101000a900473ffffffffffffffffffffffffffffffffffffffff168760070160009054906101000a900473ffffffffffffffffffffffffffffffffffffffff16604051808481526020018373ffffffffffffffffffffffffffffffffffffffff1673ffffffffffffffffffffffffffffffffffffffff1681526020018273ffffffffffffffffffffffffffffffffffffffff1673ffffffffffffffffffffffffffffffffffffffff168152602001935050505060405180910390a45050565b600360009054906101000a900460ff1681565b6000600a60008473ffffffffffffffffffffffffffffffffffffffff1673ffffffffffffffffffffffffffffffffffffffff168152602001908152602001600020600401600083815260200190815260200160002060009054906101000a900460ff16905092915050565b60025481565b60005481565b60055481565b600c6020528060005260406000206000915090508060000160009054906101000a900473ffffffffffffffffffffffffffffffffffffffff16905081565b6000806000801515600360009054906101000a900460ff161515141515612e9857600080fd5b612ea061235a565b600c60003373ffffffffffffffffffffffffffffffffffffffff1673ffffffffffffffffffffffffffffffffffffffff16815260200190815260200160002060000160009054906101000a900473ffffffffffffffffffffffffffffffffffffffff169250600a60008473ffffffffffffffffffffffffffffffffffffffff1673ffffffffffffffffffffffffffffffffffffffff16815260200190815260200160002091508160020154600954101515612f5a57600080fd5b600084111561319d5760095484111515613002576040517f08c379a000000000000000000000000000000000000000000000000000000000815260040180806020018281038252603f8152602001807f636865636b496e3a3a75706461746564456e64696e67506572696f64206d757381526020017f742062652067726561746572207468616e2063757272656e74506572696f640081525060400191505060405180910390fd5b8160020154841115156130c9576040517f08c379a00000000000000000000000000000000000000000000000000000000081526004018080602001828103825260458152602001807f636865636b496e3a3a75706461746564456e64696e67506572696f64206d757381526020017f742062652067726561746572207468616e207374616b65722e656e64696e675081526020017f6572696f6400000000000000000000000000000000000000000000000000000081525060600191505060405180910390fd5b600154600954018411151515613193576040517f08c379a000000000000000000000000000000000000000000000000000000000815260040180806020018281038252604c8152602001807f75706461746564456e64696e67506572696f64206d757374206265206c65737381526020017f207468616e206f7220657175616c20746f2063757272656e74506572696f642081526020017f2b206d6178506572696f6473000000000000000000000000000000000000000081525060600191505060405180910390fd5b8382600201819055505b60095482600201540390506131b28382613fa0565b600954848473ffffffffffffffffffffffffffffffffffffffff167fbc635ca4edc041749c019b9ad2f535906b901981bb45b2063501cababa12e3348560060160009054906101000a900473ffffffffffffffffffffffffffffffffffffffff168660070160009054906101000a900473ffffffffffffffffffffffffffffffffffffffff16604051808373ffffffffffffffffffffffffffffffffffffffff1673ffffffffffffffffffffffffffffffffffffffff1681526020018273ffffffffffffffffffffffffffffffffffffffff1673ffffffffffffffffffffffffffffffffffffffff1681526020019250505060405180910390a450505050565b600b6020528060005260406000206000915090508060000154908060010154908060020154908060030160009054906101000a900460ff16908060040154908060050154908060060154908060070154905088565b6000801515600360009054906101000a900460ff16151514151561332a57600080fd5b61333261235a565b6000821115156133d0576040517f08c379a00000000000000000000000000000000000000000000000000000000081526004018080602001828103825260258152602001807f73656e64466565733a3a66656573206d7573742062652067726561746572207481526020017f68616e203000000000000000000000000000000000000000000000000000000081525060400191505060405180910390fd5b600760009054906101000a900473ffffffffffffffffffffffffffffffffffffffff1673ffffffffffffffffffffffffffffffffffffffff166323b872dd3330856040518463ffffffff167c0100000000000000000000000000000000000000000000000000000000028152600401808473ffffffffffffffffffffffffffffffffffffffff1673ffffffffffffffffffffffffffffffffffffffff1681526020018373ffffffffffffffffffffffffffffffffffffffff1673ffffffffffffffffffffffffffffffffffffffff1681526020018281526020019350505050602060405180830381600087803b1580156134c957600080fd5b505af11580156134dd573d6000803e3d6000fd5b505050506040513d60208110156134f357600080fd5b8101908080519060200190929190505050151561359e576040517f08c379a00000000000000000000000000000000000000000000000000000000081526004018080602001828103825260248152602001807f73656e64466565733a3a626f6f7479546f6b656e207472616e7366657220666181526020017f696c65640000000000000000000000000000000000000000000000000000000081525060400191505060405180910390fd5b600760009054906101000a900473ffffffffffffffffffffffffffffffffffffffff1673ffffffffffffffffffffffffffffffffffffffff166342966c68836040518263ffffffff167c010000000000000000000000000000000000000000000000000000000002815260040180828152602001915050600060405180830381600087803b15801561362f57600080fd5b505af1158015613643573d6000803e3d6000fd5b50505050600b6000600954815260200190815260200160002060000154905061366c82826136e1565b905080600b600060095481526020019081526020016000206000018190555080823373ffffffffffffffffffffffffffffffffffffffff167f263e49a3ed292d53f6bac1132be11241d0d55dcfdf3897493e502150e28947356009546040518082815260200191505060405180910390a45050565b60008082840190508381101515156136f557fe5b8091505092915050565b600080828481151561370d57fe5b0490508091505092915050565b600061372461235a565b60008411801561373657506001548411155b15156137d0576040517f08c379a000000000000000000000000000000000000000000000000000000000815260040180806020018281038252602e8152602001807f7374616b653a3a207374616b65206d757374206265206265747765656e20302081526020017f616e64206d6178506572696f647300000000000000000000000000000000000081525060400191505060405180910390fd5b60008511151561386e576040517f08c379a00000000000000000000000000000000000000000000000000000000081526004018080602001828103825260298152602001807f7374616b653a3a7370616e6b416d6f756e74206d75737420626520677265617481526020017f6572207468616e2030000000000000000000000000000000000000000000000081525060400191505060405180910390fd5b6000600a60008873ffffffffffffffffffffffffffffffffffffffff1673ffffffffffffffffffffffffffffffffffffffff1681526020019081526020016000206001015414801561390257506000600a60008873ffffffffffffffffffffffffffffffffffffffff1673ffffffffffffffffffffffffffffffffffffffff16815260200190815260200160002060020154145b151561399c576040517f08c379a00000000000000000000000000000000000000000000000000000000081526004018080602001828103825260308152602001807f7374616b653a3a7374617274696e67506572696f6420616e6420656e64696e6781526020017f506572696f64206d75737420626520300000000000000000000000000000000081525060400191505060405180910390fd5b600660009054906101000a900473ffffffffffffffffffffffffffffffffffffffff1673ffffffffffffffffffffffffffffffffffffffff166323b872dd8730886040518463ffffffff167c0100000000000000000000000000000000000000000000000000000000028152600401808473ffffffffffffffffffffffffffffffffffffffff1673ffffffffffffffffffffffffffffffffffffffff1681526020018373ffffffffffffffffffffffffffffffffffffffff1673ffffffffffffffffffffffffffffffffffffffff1681526020018281526020019350505050602060405180830381600087803b158015613a9557600080fd5b505af1158015613aa9573d6000803e3d6000fd5b505050506040513d6020811015613abf57600080fd5b81019080805190602001909291905050501515613b6a576040517f08c379a00000000000000000000000000000000000000000000000000000000081526004018080602001828103825260228152602001807f7374616b653a3a7370616e6b546f6b656e207472616e73666572206661696c7581526020017f726500000000000000000000000000000000000000000000000000000000000081525060400191505060405180910390fd5b60a0604051908101604052808681526020016001600954018152602001856009540181526020018473ffffffffffffffffffffffffffffffffffffffff1681526020018373ffffffffffffffffffffffffffffffffffffffff16815250600a60008873ffffffffffffffffffffffffffffffffffffffff1673ffffffffffffffffffffffffffffffffffffffff16815260200190815260200160002060008201518160000155602082015181600101556040820151816002015560608201518160060160006101000a81548173ffffffffffffffffffffffffffffffffffffffff021916908373ffffffffffffffffffffffffffffffffffffffff16021790555060808201518160070160006101000a81548173ffffffffffffffffffffffffffffffffffffffff021916908373ffffffffffffffffffffffffffffffffffffffff160217905550905050613cbf8685613fa0565b613ccb600254866136e1565b600281905550600c60008473ffffffffffffffffffffffffffffffffffffffff1673ffffffffffffffffffffffffffffffffffffffff1681526020019081526020016000209050600073ffffffffffffffffffffffffffffffffffffffff168373ffffffffffffffffffffffffffffffffffffffff1614151515613d4e57600080fd5b600073ffffffffffffffffffffffffffffffffffffffff168273ffffffffffffffffffffffffffffffffffffffff1614151515613d8a57600080fd5b600073ffffffffffffffffffffffffffffffffffffffff168160000160009054906101000a900473ffffffffffffffffffffffffffffffffffffffff1673ffffffffffffffffffffffffffffffffffffffff16141515613de957600080fd5b858160000160006101000a81548173ffffffffffffffffffffffffffffffffffffffff021916908373ffffffffffffffffffffffffffffffffffffffff160217905550600160095401848773ffffffffffffffffffffffffffffffffffffffff167f12a7968b5588a74dd7604d403097b36fb82b4693074b2c212bb56487790760b18686600954604051808473ffffffffffffffffffffffffffffffffffffffff1673ffffffffffffffffffffffffffffffffffffffff1681526020018373ffffffffffffffffffffffffffffffffffffffff1673ffffffffffffffffffffffffffffffffffffffff168152602001828152602001935050505060405180910390a4505050505050565b60008082840290506000841480613f145750828482811515613f1157fe5b04145b1515613f1c57fe5b8091505092915050565b60008060148301845110151515613f3c57600080fd5b6c01000000000000000000000000836020860101510490508091505092915050565b60008060208301845110151515613f7457600080fd5b8260208501015190508091505092915050565b6000828211151515613f9557fe5b818303905092915050565b6000806000806000600a60008873ffffffffffffffffffffffffffffffffffffffff1673ffffffffffffffffffffffffffffffffffffffff168152602001908152602001600020945061401461400d8660000154600860008a815260200190815260200160002054613ef3565b60646136ff565b93508460030160006001600954018152602001908152602001600020549250600083141561408757600b6000600160095401815260200190815260200160002060010154915061406482856136e1565b915081600b60006001600954018152602001908152602001600020600101819055505b83856003016000600160095401815260200190815260200160002081905550600b6000600954815260200190815260200160002090506140cf816007015486600001546136e1565b816007018190555050505050505050565b61010060405190810160405280600081526020016000815260200160008152602001600015158152602001600081526020016000815260200160008152602001600081525090565b60a060405190810160405280600081526020016000815260200160008152602001600073ffffffffffffffffffffffffffffffffffffffff168152602001600073ffffffffffffffffffffffffffffffffffffffff16815250905600a165627a7a723058202e4c638b2aebc20d3e43aece20b8f4cf81ac6619747be33b536c4bfb027baefd002960806040526000600360146101000a81548160ff02191690831515021790555033600360006101000a81548173ffffffffffffffffffffffffffffffffffffffff021916908373ffffffffffffffffffffffffffffffffffffffff1602179055506110bd8061006f6000396000f3006080604052600436106100ba576000357c0100000000000000000000000000000000000000000000000000000000900463ffffffff16806305d2035b146100bf578063095ea7b3146100ee57806318160ddd1461015357806323b872dd1461017e57806340c10f191461020357806342966c681461026857806370a08231146102955780637d64bcb4146102ec5780638da5cb5b1461031b578063a9059cbb14610372578063dd62ed3e146103d7578063f2fde38b1461044e575b600080fd5b3480156100cb57600080fd5b506100d4610491565b604051808215151515815260200191505060405180910390f35b3480156100fa57600080fd5b50610139600480360381019080803573ffffffffffffffffffffffffffffffffffffffff169060200190929190803590602001909291905050506104a4565b604051808215151515815260200191505060405180910390f35b34801561015f57600080fd5b50610168610596565b6040518082815260200191505060405180910390f35b34801561018a57600080fd5b506101e9600480360381019080803573ffffffffffffffffffffffffffffffffffffffff169060200190929190803573ffffffffffffffffffffffffffffffffffffffff1690602001909291908035906020019092919050505061059c565b604051808215151515815260200191505060405180910390f35b34801561020f57600080fd5b5061024e600480360381019080803573ffffffffffffffffffffffffffffffffffffffff16906020019092919080359060200190929190505050610808565b604051808215151515815260200191505060405180910390f35b34801561027457600080fd5b50610293600480360381019080803590602001909291905050506109de565b005b3480156102a157600080fd5b506102d6600480360381019080803573ffffffffffffffffffffffffffffffffffffffff169060200190929190505050610a47565b6040518082815260200191505060405180910390f35b3480156102f857600080fd5b50610301610a90565b604051808215151515815260200191505060405180910390f35b34801561032757600080fd5b50610330610b58565b604051808273ffffffffffffffffffffffffffffffffffffffff1673ffffffffffffffffffffffffffffffffffffffff16815260200191505060405180910390f35b34801561037e57600080fd5b506103bd600480360381019080803573ffffffffffffffffffffffffffffffffffffffff16906020019092919080359060200190929190505050610b7e565b604051808215151515815260200191505060405180910390f35b3480156103e357600080fd5b50610438600480360381019080803573ffffffffffffffffffffffffffffffffffffffff169060200190929190803573ffffffffffffffffffffffffffffffffffffffff169060200190929190505050610cd7565b6040518082815260200191505060405180910390f35b34801561045a57600080fd5b5061048f600480360381019080803573ffffffffffffffffffffffffffffffffffffffff169060200190929190505050610d5e565b005b600360149054906101000a900460ff1681565b600081600260003373ffffffffffffffffffffffffffffffffffffffff1673ffffffffffffffffffffffffffffffffffffffff16815260200190815260200160002060008573ffffffffffffffffffffffffffffffffffffffff1673ffffffffffffffffffffffffffffffffffffffff168152602001908152602001600020819055508273ffffffffffffffffffffffffffffffffffffffff163373ffffffffffffffffffffffffffffffffffffffff167f8c5be1e5ebec7d5bd14f71427d1e84f3dd0314c0f7b2291e5b200ac8c7c3b925846040518082815260200191505060405180910390a36001905092915050565b60005481565b600081600160008673ffffffffffffffffffffffffffffffffffffffff1673ffffffffffffffffffffffffffffffffffffffff1681526020019081526020016000205410158015610669575081600260008673ffffffffffffffffffffffffffffffffffffffff1673ffffffffffffffffffffffffffffffffffffffff16815260200190815260200160002060003373ffffffffffffffffffffffffffffffffffffffff1673ffffffffffffffffffffffffffffffffffffffff1681526020019081526020016000205410155b151561067457600080fd5b81600160008573ffffffffffffffffffffffffffffffffffffffff1673ffffffffffffffffffffffffffffffffffffffff1681526020019081526020016000206000828254019250508190555081600160008673ffffffffffffffffffffffffffffffffffffffff1673ffffffffffffffffffffffffffffffffffffffff1681526020019081526020016000206000828254039250508190555081600260008673ffffffffffffffffffffffffffffffffffffffff1673ffffffffffffffffffffffffffffffffffffffff16815260200190815260200160002060003373ffffffffffffffffffffffffffffffffffffffff1673ffffffffffffffffffffffffffffffffffffffff168152602001908152602001600020600082825403925050819055508273ffffffffffffffffffffffffffffffffffffffff168473ffffffffffffffffffffffffffffffffffffffff167fddf252ad1be2c89b69c2b068fc378daa952ba7f163c4a11628f55a4df523b3ef846040518082815260200191505060405180910390a3600190509392505050565b6000600360009054906101000a900473ffffffffffffffffffffffffffffffffffffffff1673ffffffffffffffffffffffffffffffffffffffff163373ffffffffffffffffffffffffffffffffffffffff1614151561086657600080fd5b600360149054906101000a900460ff1615151561088257600080fd5b61088e82600054610eb6565b6000819055506108dd82600160008673ffffffffffffffffffffffffffffffffffffffff1673ffffffffffffffffffffffffffffffffffffffff16815260200190815260200160002054610eb6565b600160008573ffffffffffffffffffffffffffffffffffffffff1673ffffffffffffffffffffffffffffffffffffffff168152602001908152602001600020819055508273ffffffffffffffffffffffffffffffffffffffff167f0f6798a560793a54c3bcfe86a93cde1e73087d944c0ea20544137d4121396885836040518082815260200191505060405180910390a28273ffffffffffffffffffffffffffffffffffffffff16600073ffffffffffffffffffffffffffffffffffffffff167fddf252ad1be2c89b69c2b068fc378daa952ba7f163c4a11628f55a4df523b3ef846040518082815260200191505060405180910390a36001905092915050565b600360009054906101000a900473ffffffffffffffffffffffffffffffffffffffff1673ffffffffffffffffffffffffffffffffffffffff163373ffffffffffffffffffffffffffffffffffffffff16141515610a3a57600080fd5b610a443382610ed4565b50565b6000600160008373ffffffffffffffffffffffffffffffffffffffff1673ffffffffffffffffffffffffffffffffffffffff168152602001908152602001600020549050919050565b6000600360009054906101000a900473ffffffffffffffffffffffffffffffffffffffff1673ffffffffffffffffffffffffffffffffffffffff163373ffffffffffffffffffffffffffffffffffffffff16141515610aee57600080fd5b600360149054906101000a900460ff16151515610b0a57600080fd5b6001600360146101000a81548160ff0219169083151502179055507fae5184fba832cb2b1f702aca6117b8d265eaf03ad33eb133f19dde0f5920fa0860405160405180910390a16001905090565b600360009054906101000a900473ffffffffffffffffffffffffffffffffffffffff1681565b600081600160003373ffffffffffffffffffffffffffffffffffffffff1673ffffffffffffffffffffffffffffffffffffffff1681526020019081526020016000205410151515610bce57600080fd5b81600160003373ffffffffffffffffffffffffffffffffffffffff1673ffffffffffffffffffffffffffffffffffffffff1681526020019081526020016000206000828254039250508190555081600160008573ffffffffffffffffffffffffffffffffffffffff1673ffffffffffffffffffffffffffffffffffffffff168152602001908152602001600020600082825401925050819055508273ffffffffffffffffffffffffffffffffffffffff163373ffffffffffffffffffffffffffffffffffffffff167fddf252ad1be2c89b69c2b068fc378daa952ba7f163c4a11628f55a4df523b3ef846040518082815260200191505060405180910390a36001905092915050565b6000600260008473ffffffffffffffffffffffffffffffffffffffff1673ffffffffffffffffffffffffffffffffffffffff16815260200190815260200160002060008373ffffffffffffffffffffffffffffffffffffffff1673ffffffffffffffffffffffffffffffffffffffff16815260200190815260200160002054905092915050565b600360009054906101000a900473ffffffffffffffffffffffffffffffffffffffff1673ffffffffffffffffffffffffffffffffffffffff163373ffffffffffffffffffffffffffffffffffffffff16141515610dba57600080fd5b600073ffffffffffffffffffffffffffffffffffffffff168173ffffffffffffffffffffffffffffffffffffffff1614151515610df657600080fd5b8073ffffffffffffffffffffffffffffffffffffffff16600360009054906101000a900473ffffffffffffffffffffffffffffffffffffffff1673ffffffffffffffffffffffffffffffffffffffff167f8be0079c531659141344cd1fd0a4f28419497f9722a3daafe3b4186f6b6457e060405160405180910390a380600360006101000a81548173ffffffffffffffffffffffffffffffffffffffff021916908373ffffffffffffffffffffffffffffffffffffffff16021790555050565b6000808284019050838110151515610eca57fe5b8091505092915050565b600160008373ffffffffffffffffffffffffffffffffffffffff1673ffffffffffffffffffffffffffffffffffffffff168152602001908152602001600020548111151515610f2257600080fd5b610f6b600160008473ffffffffffffffffffffffffffffffffffffffff1673ffffffffffffffffffffffffffffffffffffffff1681526020019081526020016000205482611078565b600160008473ffffffffffffffffffffffffffffffffffffffff1673ffffffffffffffffffffffffffffffffffffffff16815260200190815260200160002081905550610fba60005482611078565b6000819055508173ffffffffffffffffffffffffffffffffffffffff167fcc16f5dbb4873280815c1ee09dbd06736cffcc184412cf7a71a0fdb75d397ca5826040518082815260200191505060405180910390a2600073ffffffffffffffffffffffffffffffffffffffff168273ffffffffffffffffffffffffffffffffffffffff167fddf252ad1be2c89b69c2b068fc378daa952ba7f163c4a11628f55a4df523b3ef836040518082815260200191505060405180910390a35050565b600082821115151561108657fe5b8183039050929150505600a165627a7a723058207cf0d56d42d7bb6caa444b44a0027748171869c470f6fd03f2254ca64caab26e0029",
  "source": "pragma solidity 0.4.24;\nimport {SafeMath} from \"./SafeMath.sol\";\nimport {HumanStandardToken} from \"./HumanStandardToken.sol\";\nimport {MintAndBurnToken} from \"./MintAndBurnToken.sol\";\nimport \"./BytesLib.sol\";\n\ncontract SpankBank {\n    using BytesLib for bytes;\n    using SafeMath for uint256;\n\n    event StakeEvent(\n        address indexed staker,\n        uint256 indexed stakePeriods,\n        uint256 indexed startPeriod,\n        address delegateKey,\n        address bootyBase,\n        uint256 currentPeriod\n    );\n    \n    event SendFeesEvent (\n        address indexed sender,\n        uint256 indexed bootyAmount,\n        uint256 indexed currentBootyFees,\n        uint256 currentPeriod\n    );\n\n    event MintBootyEvent (\n        uint256 indexed targetBootySupply,\n        uint256 indexed totalBootySupply,\n        uint256 indexed currentPeriod\n    );\n\n    event CheckInEvent (\n        address indexed staker,\n        uint256 indexed updatedEndingPeriod,\n        uint256 indexed currentPeriod,\n        address delegateKey,\n        address bootyBase\n    );\n\n    event ClaimBootyEvent (\n        address indexed staker,\n        uint256 indexed period,\n        uint256 indexed bootyOwed,\n        uint256 stakerSpankPoints,\n        uint256 currentPeriod,\n        address delegateKey,\n        address bootyBase\n    );\n\n    event WithdrawStakeEvent (\n        address indexed staker,\n        uint256 indexed totalSpankToWithdraw,\n        uint256 indexed currentPeriod,\n        uint256 totalSpankStaked,\n        address delegateKey,\n        address bootyBase\n    );\n\n    event SplitStakeEvent (\n        address indexed staker,\n        address indexed newAddress,\n        address indexed newDelegateKey,\n        address newBootyBase,\n        uint spankAmount,\n        uint currentPeriod,\n        uint startingPeriod,\n        uint endingPeriod\n    );\n\n    event VoteToCloseEvent (\n        address indexed staker,\n        uint256 indexed spankStaked,\n        uint256 indexed currentPeriod,\n        bool isClosed,\n        uint256 totalSpankStaked,\n        address delegateKey,\n        address bootyBase\n    );\n\n    event UpdateDelegateKeyEvent (\n        address indexed staker,\n        address indexed newDelegateKey,\n        uint256 indexed currentPeriod,\n        address delegateKey,\n        address bootyBase\n    );\n\n    event UpdateBootyBaseEvent (\n        address indexed staker,\n        address indexed newBootyBase,\n        uint256 indexed currentPeriod,\n        address delegateKey,\n        address bootyBase\n    );\n\n    event ReceiveApprovalEvent (\n        address from, \n        uint256 amount,\n        address tokenContract, \n        bytes extraData\n    );\n\n    /***********************************\n    VARIABLES SET AT CONTRACT DEPLOYMENT\n    ************************************/\n    // GLOBAL CONSTANT VARIABLES\n    uint256 public periodLength; // time length of each period in seconds\n    uint256 public maxPeriods;\n    uint256 public totalSpankStaked;\n    bool public isClosed;\n    uint256 public closingVotes;\n    uint256 public closingPeriod;\n\n    // ERC-20 BASED TOKEN WITH SOME ADDED PROPERTIES FOR HUMAN READABILITY\n    // https://github.com/ConsenSys/Tokens/blob/master/contracts/HumanStandardToken.sol\n    HumanStandardToken public spankToken;\n    MintAndBurnToken public bootyToken;\n\n    // LOOKUP TABLE FOR SPANKPOINTS BY PERIOD\n    // 1 -> 45%\n    // 2 -> 50%\n    // ...\n    // 12 -> 100%\n    mapping(uint256 => uint256) pointsTable;\n\n    /*************************************\n    INTERAL ACCOUNTING\n    **************************************/\n    uint256 public currentPeriod = 0;\n\n    struct Staker {\n        uint256 spankStaked; // the amount of spank staked\n        uint256 startingPeriod; // the period this staker started staking\n        uint256 endingPeriod; // the period after which this stake expires\n        mapping(uint256 => uint256) spankPoints; // the spankPoints per period\n        mapping(uint256 => bool) didClaimBooty; // true if staker claimed BOOTY for that period\n        mapping(uint256 => bool) votedToClose; // true if voter voted \n        address delegateKey;\n        address bootyBase;\n    }\n\n    mapping(address => Staker) public stakers;\n\n    struct Period {\n        uint256 bootyFees; // the amount of BOOTY collected in fees\n        uint256 totalSpankPoints; // the total spankPoints of all stakers\n        uint256 bootyMinted; // the amount of BOOTY minted\n        bool mintingComplete; // true if BOOTY has already been minted for this period\n        uint256 startTime; // the starting unix timestamp in seconds\n        uint256 endTime; // the ending unix timestamp in seconds\n        uint256 closingVotes; // the total votes to close this period\n        uint256 totalStakedSpank; // the total SPANK staked\n    }\n\n    mapping(uint256 => Period) public periods;\n\n    struct DelegateKey {\n        address stakerAddress;\n    }\n\n    mapping(address => DelegateKey) public delegateKeys;\n\n    modifier SpankBankIsOpen() {\n        require(isClosed == false);\n        _;\n    }\n\n    constructor (\n        uint256 _periodLength,\n        uint256 _maxPeriods,\n        address spankAddress,\n        uint256 initialBootySupply\n    )   public {\n        periodLength = _periodLength;\n        maxPeriods = _maxPeriods;\n        spankToken = HumanStandardToken(spankAddress);\n        bootyToken = new MintAndBurnToken();\n        bootyToken.mint(this, initialBootySupply);\n\n        uint256 startTime = now;\n\n        periods[currentPeriod].startTime = startTime;\n        periods[currentPeriod].endTime = SafeMath.add(startTime, periodLength);\n\n        bootyToken.transfer(msg.sender, initialBootySupply);\n\n        // initialize points table\n        pointsTable[0] = 0;\n        pointsTable[1] = 45;\n        pointsTable[2] = 50;\n        pointsTable[3] = 55;\n        pointsTable[4] = 60;\n        pointsTable[5] = 65;\n        pointsTable[6] = 70;\n        pointsTable[7] = 75;\n        pointsTable[8] = 80;\n        pointsTable[9] = 85;\n        pointsTable[10] = 90;\n        pointsTable[11] = 95;\n        pointsTable[12] = 100;\n    }\n\n    // Used to create a new staking position - verifies that the caller is not staking\n    function stake(uint256 spankAmount, uint256 stakePeriods, address delegateKey, address bootyBase) SpankBankIsOpen public {\n        doStake(msg.sender, spankAmount, stakePeriods, delegateKey, bootyBase);\n    }\n\n    function doStake(address stakerAddress, uint256 spankAmount, uint256 stakePeriods, address delegateKey, address bootyBase) internal {\n        updatePeriod();\n        require(stakePeriods > 0 && stakePeriods <= maxPeriods, \"stake:: stake must be between 0 and maxPeriods\"); // stake 1-12 (max) periods\n        require(spankAmount > 0, \"stake::spankAmount must be greater than 0\"); // stake must be greater than 0\n\n        // the msg.sender must not have an active staking position\n        // TODO checking that endingPeriod == 0 should cover all periods\n        require(stakers[stakerAddress].startingPeriod == 0 && stakers[stakerAddress].endingPeriod == 0, \"stake::startingPeriod and endingPeriod must be 0\");\n\n        // transfer SPANK to this contract - assumes sender has already \"allowed\" the spankAmount\n        require(spankToken.transferFrom(stakerAddress, this, spankAmount),\"stake::spankToken transfer failure\");\n\n        stakers[stakerAddress] = Staker(spankAmount, currentPeriod + 1, currentPeriod + stakePeriods, delegateKey, bootyBase);\n\n        _calculateNextPeriodPoints(stakerAddress, stakePeriods);\n\n        totalSpankStaked = SafeMath.add(totalSpankStaked, spankAmount);\n\n        DelegateKey storage newDelegateKey = delegateKeys[delegateKey];\n        require(delegateKey != address(0));\n        require(bootyBase != address(0));\n        require(newDelegateKey.stakerAddress == address(0));\n        newDelegateKey.stakerAddress = stakerAddress;\n\n        emit StakeEvent(stakerAddress, stakePeriods, currentPeriod + 1, delegateKey, bootyBase, currentPeriod);\n    }\n\n    function _calculateNextPeriodPoints(address stakerAddress, uint256 stakingPeriods) internal {\n        Staker storage staker = stakers[stakerAddress];\n        uint256 nextSpankPoints = SafeMath.div(SafeMath.mul(staker.spankStaked, pointsTable[stakingPeriods]), 100);\n        uint256 stakerNextPeriodSpankPoints = staker.spankPoints[currentPeriod + 1];\n\n        if (stakerNextPeriodSpankPoints == 0) {\n            uint256 nextTotalSpankPoints = periods[currentPeriod + 1].totalSpankPoints;\n            nextTotalSpankPoints = SafeMath.add(nextTotalSpankPoints, nextSpankPoints);\n            periods[currentPeriod + 1].totalSpankPoints = nextTotalSpankPoints;\n        }\n\n        staker.spankPoints[currentPeriod + 1] = nextSpankPoints;\n\n        Period storage period = periods[currentPeriod];\n        period.totalStakedSpank = SafeMath.add(period.totalStakedSpank, staker.spankStaked);\n    }\n\n    function receiveApproval(address from, uint256 amount, address tokenContract, bytes extraData) public returns (bool success) {\n        address delegateKeyFromBytes = extraData.toAddress(12);\n        address bootyBaseFromBytes = extraData.toAddress(44);\n        uint256 periodFromBytes = extraData.toUint(64);\n        \n        emit ReceiveApprovalEvent(from, amount, tokenContract, extraData);\n        \n        doStake(from, amount, periodFromBytes, delegateKeyFromBytes, bootyBaseFromBytes);\n        return true;\n    }\n\n    function getSpankPoints(address stakerAddress, uint256 period) public view returns (uint256)  {\n        return stakers[stakerAddress].spankPoints[period];\n    }\n\n    function getDidClaimBooty(address stakerAddress, uint256 period) public view returns (bool)  {\n        return stakers[stakerAddress].didClaimBooty[period];\n    }\n\n    function getVote(address stakerAddress, uint period) public view returns (bool) {\n        return stakers[stakerAddress].votedToClose[period];\n    }\n\n    function getPeriod(uint256 period) public view returns (uint256, uint256, uint256, bool, uint256, uint256) {\n        return (periods[period].bootyFees, periods[period].totalSpankPoints, periods[period].bootyMinted, periods[period].mintingComplete, periods[period].startTime, periods[period].endTime);\n    }\n\n    function getStaker(address stakerAddress) public view returns (uint256, uint256, uint256, address, address) {\n        Staker memory staker = stakers[stakerAddress];\n        return (staker.spankStaked, staker.startingPeriod, staker.endingPeriod, staker.delegateKey, staker.bootyBase);\n    }\n\n    function getStakerFromDelegateKey(address delegateAddress) public view returns (address) {\n        return delegateKeys[delegateAddress].stakerAddress;\n    }\n\n    // user will be able to add more SPANK to their stake and / or extend it\n    // function updateStake(uint256 amount, uint256 periods) {}\n\n    // 1. Anyone calls the mint function, which generates all the new booty for that period\n    //  - what if no one calls mint? the booty supply will be lower for the next round\n    //  - more booty will be created later to compensate (not really a bid deal)\n    // 2. Stakers can withdraw their minted BOOTY\n\n    // Do the fees get calculated for the current period or the next one? Current\n    // Does the minting depends on current stake or next?\n    // If I start staking at 10.5, my stake will only matter for 11, and the BOOTY generated after 11 will be based on the fees paid during 11, and can only be collected after 11 is done\n\n    function sendFees(uint256 bootyAmount) SpankBankIsOpen public {\n        updatePeriod();\n\n        require(bootyAmount > 0, \"sendFees::fees must be greater than 0\"); // fees must be greater than 0\n        require(bootyToken.transferFrom(msg.sender, this, bootyAmount), \"sendFees::bootyToken transfer failed\");\n\n        bootyToken.burn(bootyAmount);\n\n        uint256 currentBootyFees = periods[currentPeriod].bootyFees;\n        currentBootyFees = SafeMath.add(bootyAmount, currentBootyFees);\n        periods[currentPeriod].bootyFees = currentBootyFees;\n\n        emit SendFeesEvent(msg.sender, bootyAmount, currentBootyFees, currentPeriod);\n    }\n\n    function mintBooty() SpankBankIsOpen public {\n        updatePeriod();\n\n        Period storage period = periods[currentPeriod - 1];\n        require(!period.mintingComplete, \"mintBooty::mintingComplete must be false\"); // cant mint BOOTY twice\n\n        period.mintingComplete = true;\n\n        uint256 targetBootySupply = SafeMath.mul(period.bootyFees, 20);\n        uint256 totalBootySupply = bootyToken.totalSupply();\n\n        if (targetBootySupply > totalBootySupply) {\n            uint256 bootyMinted = targetBootySupply - totalBootySupply;\n            bootyToken.mint(this, bootyMinted);\n            period.bootyMinted = bootyMinted;\n            emit MintBootyEvent(targetBootySupply, totalBootySupply, currentPeriod);\n        }\n    }\n\n    // This will check the current time and update the current period accordingly\n    // - called from all write functions to ensure the period is always up to date before any writes\n    // - can also be called externally, but there isn't a good reason for why you would want to\n    // - the while loop protects against the edge case where we miss a period\n\n    function updatePeriod() public {\n        while (now >= periods[currentPeriod].endTime) {\n            Period memory prevPeriod = periods[currentPeriod];\n            currentPeriod += 1;\n            periods[currentPeriod].startTime = prevPeriod.endTime;\n            periods[currentPeriod].endTime = SafeMath.add(prevPeriod.endTime, periodLength);\n        }\n    }\n\n    // In order to receive Booty, each staker will have to check-in every period.\n    // This check-in will compute the spankPoints locally and globally for each staker.\n    function checkIn(uint256 updatedEndingPeriod) SpankBankIsOpen public {\n        updatePeriod();\n\n        address stakerAddress =  delegateKeys[msg.sender].stakerAddress;\n\n        Staker storage staker = stakers[stakerAddress];\n\n        require(currentPeriod < staker.endingPeriod);\n\n        if (updatedEndingPeriod > 0) {\n            // TODO I'm not sure we can rely on the staker.endingPeriod to be greater than the\n            // currentPeriod - what if the staker expires but never withdraws their stake?\n            require(updatedEndingPeriod > currentPeriod, \"checkIn::updatedEndingPeriod must be greater than currentPeriod\");\n            require(updatedEndingPeriod > staker.endingPeriod, \"checkIn::updatedEndingPeriod must be greater than staker.endingPeriod\");\n            require(updatedEndingPeriod <= currentPeriod + maxPeriods, \"updatedEndingPeriod must be less than or equal to currentPeriod + maxPeriods\");\n\n            staker.endingPeriod = updatedEndingPeriod;\n      }\n\n        uint256 stakePeriods = staker.endingPeriod - currentPeriod;\n\n        _calculateNextPeriodPoints(stakerAddress, stakePeriods);\n        \n        emit CheckInEvent(stakerAddress, updatedEndingPeriod, currentPeriod, staker.delegateKey, staker.bootyBase);\n    }\n\n    function claimBooty(uint256 _period) public {\n        updatePeriod();\n\n        require(_period < currentPeriod, \"claimBooty::_period must be less than currentPeriod\"); // can only claim booty for previous periods\n\n        address stakerAddress =  delegateKeys[msg.sender].stakerAddress;\n\n        Staker storage staker = stakers[stakerAddress];\n\n        require(!staker.didClaimBooty[_period], \"claimBooty::didClaimBooty for period must be false\"); // can only claim booty once\n\n        staker.didClaimBooty[_period] = true;\n\n        Period memory period = periods[_period];\n        require(period.mintingComplete);\n        \n        uint256 bootyMinted = period.bootyMinted;\n        uint256 totalSpankPoints = period.totalSpankPoints;\n\n        if (totalSpankPoints > 0) {\n            uint256 stakerSpankPoints = staker.spankPoints[_period];\n            uint256 bootyOwed = SafeMath.div(SafeMath.mul(stakerSpankPoints, bootyMinted), totalSpankPoints);\n\n          require(bootyToken.transfer(staker.bootyBase, bootyOwed), \"claimBooty::bootyToken transfer failure\");\n\n          emit ClaimBootyEvent(stakerAddress, _period, bootyOwed, stakerSpankPoints, currentPeriod, staker.delegateKey, staker.bootyBase);\n        }\n    }\n\n    function withdrawStake() public {\n        updatePeriod();\n\n        Staker storage staker = stakers[msg.sender];\n\n        if (isClosed) {\n            staker.endingPeriod = SafeMath.add(currentPeriod, 1);\n        }\n\n        require(currentPeriod > staker.endingPeriod, \"withdrawStake::currentPeriod must be greater than staker.endingPeriod\");\n\n        spankToken.transfer(msg.sender, staker.spankStaked);\n\n        uint256 totalSpankToWithdraw = staker.spankStaked;\n\n        totalSpankStaked = SafeMath.sub(totalSpankStaked, staker.spankStaked);\n        staker.spankStaked = 0;\n\n        emit WithdrawStakeEvent(msg.sender, totalSpankToWithdraw, currentPeriod, totalSpankStaked, staker.delegateKey, staker.bootyBase);\n    }\n\n    function splitStake(address newAddress, address newDelegateKey, address newBootyBase, uint256 spankAmount) public {\n        updatePeriod();\n\n        require(newAddress != address(0), \"splitStake::newAddress must be a non-zero address\");\n        require(spankAmount > 0, \"splitStake::spankAmount must be greater than 0\");\n\n        Staker storage staker = stakers[msg.sender];\n        require(currentPeriod < staker.endingPeriod, \"currentPeriod must be less than staker endingPeriod\");\n        require(spankAmount <= staker.spankStaked, \"spankAmount must be less than or equal to staker stake\");\n\n        staker.spankStaked = staker.spankStaked.sub(spankAmount);\n\n        stakers[newAddress] = Staker(spankAmount, staker.startingPeriod, staker.endingPeriod, newDelegateKey, newBootyBase);\n\n        DelegateKey storage splitDelegateKey = delegateKeys[newDelegateKey];\n        splitDelegateKey.stakerAddress = newAddress;\n\n        emit SplitStakeEvent(msg.sender, newAddress, newDelegateKey, newBootyBase, spankAmount, currentPeriod, staker.startingPeriod, staker.endingPeriod);\n    }\n\n    function voteToClose() public {\n        updatePeriod();\n\n        Staker storage staker = stakers[msg.sender];\n        require(staker.spankStaked > 0, \"stake must be greater than zero\");\n        require(staker.endingPeriod >= currentPeriod, \"endingPeriod must be greater than or equal to currentPeriod\");        \n        require (staker.votedToClose[currentPeriod] == false);\n        require(isClosed == false);\n\n        if (closingPeriod != currentPeriod) {\n            closingPeriod = currentPeriod;\n            closingVotes = 0;\n        }\n        closingVotes = SafeMath.add(closingVotes, staker.spankStaked);\n        staker.votedToClose[currentPeriod] = true;\n\n        uint256 closingTrigger = SafeMath.div(totalSpankStaked, 2);\n        if (closingVotes > closingTrigger) {\n            isClosed = true;\n        }\n\n        emit VoteToCloseEvent(msg.sender, staker.spankStaked, currentPeriod, isClosed, totalSpankStaked, staker.delegateKey, staker.bootyBase);\n    }\n\n    function updateDelegateKey(address newDelegateKey) public {\n        require (newDelegateKey != address(0));\n        require (delegateKeys[newDelegateKey].stakerAddress == address(0));\n\n        Staker storage staker = stakers[msg.sender];\n        require (staker.delegateKey != address(0));\n        staker.delegateKey = newDelegateKey;\n        \n        DelegateKey storage oldDelegateKey = delegateKeys[staker.delegateKey];\n        oldDelegateKey.stakerAddress = address(0);\n\n        DelegateKey storage delegateKey = delegateKeys[newDelegateKey];\n        delegateKey.stakerAddress = msg.sender;\n\n        emit UpdateDelegateKeyEvent(msg.sender, newDelegateKey, currentPeriod, staker.delegateKey, staker.bootyBase);\n    }\n\n    function updateBootyBase(address newBootyBase) public {\n        Staker storage staker = stakers[msg.sender];\n        require (staker.spankStaked > 0);\n\n        staker.bootyBase = newBootyBase;\n\n        emit UpdateBootyBaseEvent(msg.sender, newBootyBase, currentPeriod, staker.delegateKey, staker.bootyBase);\n    }\n\n    // TODO as-is, the contract doesnt allow for dynamic stake allocation - you can only extend\n    // the entire stake, or withdraw the entire stake. Even if you could withdraw partial stake,\n    // you would still be making the decision to extend the entire stake, or not.\n    // - allow staker to split stake (or move some fraction under a new address)\n    // - accept that you have to extend the entire stake, and plan ahead accordingly\n    //   - split the stake up into several portions, and decide to extend / not each portion\n}",
  "sourcePath": "/Users/frankbonetti/work/kyokan/SpankChain/spankbank/contracts/SpankBank.sol",
  "compiler": {
    "name": "solc",
    "version": "0.4.24+commit.e67f0147.Emscripten.clang"
  },
  "schemaVersion": "2.0.1",
  "updatedAt": "2018-08-06T23:36:21.114Z"
}