{
  "contractName": "SpankBank",
  "abi": [
    {
      "constant": true,
      "inputs": [],
      "name": "currentPeriod",
      "outputs": [
        {
          "name": "",
          "type": "uint256"
        }
      ],
      "payable": false,
      "stateMutability": "view",
      "type": "function"
    },
    {
      "constant": true,
      "inputs": [],
      "name": "bootyToken",
      "outputs": [
        {
          "name": "",
          "type": "address"
        }
      ],
      "payable": false,
      "stateMutability": "view",
      "type": "function"
    },
    {
      "constant": true,
      "inputs": [],
      "name": "maxPeriods",
      "outputs": [
        {
          "name": "",
          "type": "uint256"
        }
      ],
      "payable": false,
      "stateMutability": "view",
      "type": "function"
    },
    {
      "constant": true,
      "inputs": [
        {
          "name": "",
          "type": "address"
        }
      ],
      "name": "stakerByDelegateKey",
      "outputs": [
        {
          "name": "",
          "type": "address"
        }
      ],
      "payable": false,
      "stateMutability": "view",
      "type": "function"
    },
    {
      "constant": true,
      "inputs": [
        {
          "name": "",
          "type": "address"
        }
      ],
      "name": "stakers",
      "outputs": [
        {
          "name": "spankStaked",
          "type": "uint256"
        },
        {
          "name": "startingPeriod",
          "type": "uint256"
        },
        {
          "name": "endingPeriod",
          "type": "uint256"
        },
        {
          "name": "delegateKey",
          "type": "address"
        },
        {
          "name": "bootyBase",
          "type": "address"
        }
      ],
      "payable": false,
      "stateMutability": "view",
      "type": "function"
    },
    {
      "constant": true,
      "inputs": [],
      "name": "spankToken",
      "outputs": [
        {
          "name": "",
          "type": "address"
        }
      ],
      "payable": false,
      "stateMutability": "view",
      "type": "function"
    },
    {
      "constant": true,
      "inputs": [
        {
          "name": "",
          "type": "uint256"
        }
      ],
      "name": "pointsTable",
      "outputs": [
        {
          "name": "",
          "type": "uint256"
        }
      ],
      "payable": false,
      "stateMutability": "view",
      "type": "function"
    },
    {
      "constant": true,
      "inputs": [],
      "name": "isClosed",
      "outputs": [
        {
          "name": "",
          "type": "bool"
        }
      ],
      "payable": false,
      "stateMutability": "view",
      "type": "function"
    },
    {
      "constant": true,
      "inputs": [],
      "name": "totalSpankStaked",
      "outputs": [
        {
          "name": "",
          "type": "uint256"
        }
      ],
      "payable": false,
      "stateMutability": "view",
      "type": "function"
    },
    {
      "constant": true,
      "inputs": [],
      "name": "periodLength",
      "outputs": [
        {
          "name": "",
          "type": "uint256"
        }
      ],
      "payable": false,
      "stateMutability": "view",
      "type": "function"
    },
    {
      "constant": true,
      "inputs": [
        {
          "name": "",
          "type": "uint256"
        }
      ],
      "name": "periods",
      "outputs": [
        {
          "name": "bootyFees",
          "type": "uint256"
        },
        {
          "name": "totalSpankPoints",
          "type": "uint256"
        },
        {
          "name": "bootyMinted",
          "type": "uint256"
        },
        {
          "name": "mintingComplete",
          "type": "bool"
        },
        {
          "name": "startTime",
          "type": "uint256"
        },
        {
          "name": "endTime",
          "type": "uint256"
        },
        {
          "name": "closingVotes",
          "type": "uint256"
        }
      ],
      "payable": false,
      "stateMutability": "view",
      "type": "function"
    },
    {
      "inputs": [
        {
          "name": "_periodLength",
          "type": "uint256"
        },
        {
          "name": "_maxPeriods",
          "type": "uint256"
        },
        {
          "name": "spankAddress",
          "type": "address"
        },
        {
          "name": "initialBootySupply",
          "type": "uint256"
        },
        {
          "name": "bootyTokenName",
          "type": "string"
        },
        {
          "name": "bootyDecimalUnits",
          "type": "uint8"
        },
        {
          "name": "bootySymbol",
          "type": "string"
        }
      ],
      "payable": false,
      "stateMutability": "nonpayable",
      "type": "constructor"
    },
    {
      "anonymous": false,
      "inputs": [
        {
          "indexed": false,
          "name": "periodLength",
          "type": "uint256"
        },
        {
          "indexed": false,
          "name": "maxPeriods",
          "type": "uint256"
        },
        {
          "indexed": false,
          "name": "spankAddress",
          "type": "address"
        },
        {
          "indexed": false,
          "name": "initialBootySupply",
          "type": "uint256"
        },
        {
          "indexed": false,
          "name": "bootyTokenName",
          "type": "string"
        },
        {
          "indexed": false,
          "name": "bootyDecimalUnits",
          "type": "uint8"
        },
        {
          "indexed": false,
          "name": "bootySymbol",
          "type": "string"
        }
      ],
      "name": "SpankBankCreated",
      "type": "event"
    },
    {
      "anonymous": false,
      "inputs": [
        {
          "indexed": true,
          "name": "staker",
          "type": "address"
        },
        {
          "indexed": false,
          "name": "period",
          "type": "uint256"
        },
        {
          "indexed": false,
          "name": "spankPoints",
          "type": "uint256"
        },
        {
          "indexed": false,
          "name": "spankAmount",
          "type": "uint256"
        },
        {
          "indexed": false,
          "name": "stakePeriods",
          "type": "uint256"
        }
      ],
      "name": "StakeEvent",
      "type": "event"
    },
    {
      "anonymous": false,
      "inputs": [
        {
          "indexed": true,
          "name": "sender",
          "type": "address"
        },
        {
          "indexed": false,
          "name": "bootyAmount",
          "type": "uint256"
        }
      ],
      "name": "SendFeesEvent",
      "type": "event"
    },
    {
      "anonymous": false,
      "inputs": [
        {
          "indexed": true,
          "name": "targetBootySupply",
          "type": "uint256"
        },
        {
          "indexed": true,
          "name": "totalBootySupply",
          "type": "uint256"
        }
      ],
      "name": "MintBootyEvent",
      "type": "event"
    },
    {
      "anonymous": false,
      "inputs": [
        {
          "indexed": true,
          "name": "staker",
          "type": "address"
        },
        {
          "indexed": false,
          "name": "period",
          "type": "uint256"
        },
        {
          "indexed": false,
          "name": "spankPoints",
          "type": "uint256"
        },
        {
          "indexed": false,
          "name": "stakerEndingPeriod",
          "type": "uint256"
        }
      ],
      "name": "CheckInEvent",
      "type": "event"
    },
    {
      "anonymous": false,
      "inputs": [
        {
          "indexed": true,
          "name": "staker",
          "type": "address"
        },
        {
          "indexed": true,
          "name": "period",
          "type": "uint256"
        },
        {
          "indexed": true,
          "name": "bootyOwed",
          "type": "uint256"
        }
      ],
      "name": "ClaimBootyEvent",
      "type": "event"
    },
    {
      "anonymous": false,
      "inputs": [
        {
          "indexed": true,
          "name": "staker",
          "type": "address"
        },
        {
          "indexed": true,
          "name": "totalSpankToWithdraw",
          "type": "uint256"
        }
      ],
      "name": "WithdrawStakeEvent",
      "type": "event"
    },
    {
      "anonymous": false,
      "inputs": [
        {
          "indexed": true,
          "name": "staker",
          "type": "address"
        },
        {
          "indexed": true,
          "name": "newAddress",
          "type": "address"
        },
        {
          "indexed": true,
          "name": "newDelegateKey",
          "type": "address"
        },
        {
          "indexed": false,
          "name": "newBootyBase",
          "type": "address"
        },
        {
          "indexed": false,
          "name": "spankAmount",
          "type": "uint256"
        }
      ],
      "name": "SplitStakeEvent",
      "type": "event"
    },
    {
      "anonymous": false,
      "inputs": [
        {
          "indexed": true,
          "name": "staker",
          "type": "address"
        },
        {
          "indexed": false,
          "name": "period",
          "type": "uint256"
        }
      ],
      "name": "VoteToCloseEvent",
      "type": "event"
    },
    {
      "anonymous": false,
      "inputs": [
        {
          "indexed": true,
          "name": "staker",
          "type": "address"
        }
      ],
      "name": "UpdateDelegateKeyEvent",
      "type": "event"
    },
    {
      "anonymous": false,
      "inputs": [
        {
          "indexed": true,
          "name": "staker",
          "type": "address"
        }
      ],
      "name": "UpdateBootyBaseEvent",
      "type": "event"
    },
    {
      "anonymous": false,
      "inputs": [
        {
          "indexed": false,
          "name": "from",
          "type": "address"
        },
        {
          "indexed": false,
          "name": "tokenContract",
          "type": "address"
        }
      ],
      "name": "ReceiveApprovalEvent",
      "type": "event"
    },
    {
      "constant": false,
      "inputs": [
        {
          "name": "spankAmount",
          "type": "uint256"
        },
        {
          "name": "stakePeriods",
          "type": "uint256"
        },
        {
          "name": "delegateKey",
          "type": "address"
        },
        {
          "name": "bootyBase",
          "type": "address"
        }
      ],
      "name": "stake",
      "outputs": [],
      "payable": false,
      "stateMutability": "nonpayable",
      "type": "function"
    },
    {
      "constant": false,
      "inputs": [
        {
          "name": "from",
          "type": "address"
        },
        {
          "name": "amount",
          "type": "uint256"
        },
        {
          "name": "tokenContract",
          "type": "address"
        },
        {
          "name": "extraData",
          "type": "bytes"
        }
      ],
      "name": "receiveApproval",
      "outputs": [
        {
          "name": "success",
          "type": "bool"
        }
      ],
      "payable": false,
      "stateMutability": "nonpayable",
      "type": "function"
    },
    {
      "constant": false,
      "inputs": [
        {
          "name": "bootyAmount",
          "type": "uint256"
        }
      ],
      "name": "sendFees",
      "outputs": [],
      "payable": false,
      "stateMutability": "nonpayable",
      "type": "function"
    },
    {
      "constant": false,
      "inputs": [],
      "name": "mintBooty",
      "outputs": [],
      "payable": false,
      "stateMutability": "nonpayable",
      "type": "function"
    },
    {
      "constant": false,
      "inputs": [],
      "name": "updatePeriod",
      "outputs": [],
      "payable": false,
      "stateMutability": "nonpayable",
      "type": "function"
    },
    {
      "constant": false,
      "inputs": [
        {
          "name": "updatedEndingPeriod",
          "type": "uint256"
        }
      ],
      "name": "checkIn",
      "outputs": [],
      "payable": false,
      "stateMutability": "nonpayable",
      "type": "function"
    },
    {
      "constant": false,
      "inputs": [
        {
          "name": "claimPeriod",
          "type": "uint256"
        }
      ],
      "name": "claimBooty",
      "outputs": [],
      "payable": false,
      "stateMutability": "nonpayable",
      "type": "function"
    },
    {
      "constant": false,
      "inputs": [],
      "name": "withdrawStake",
      "outputs": [],
      "payable": false,
      "stateMutability": "nonpayable",
      "type": "function"
    },
    {
      "constant": false,
      "inputs": [
        {
          "name": "newAddress",
          "type": "address"
        },
        {
          "name": "newDelegateKey",
          "type": "address"
        },
        {
          "name": "newBootyBase",
          "type": "address"
        },
        {
          "name": "spankAmount",
          "type": "uint256"
        }
      ],
      "name": "splitStake",
      "outputs": [],
      "payable": false,
      "stateMutability": "nonpayable",
      "type": "function"
    },
    {
      "constant": false,
      "inputs": [],
      "name": "voteToClose",
      "outputs": [],
      "payable": false,
      "stateMutability": "nonpayable",
      "type": "function"
    },
    {
      "constant": false,
      "inputs": [
        {
          "name": "newDelegateKey",
          "type": "address"
        }
      ],
      "name": "updateDelegateKey",
      "outputs": [],
      "payable": false,
      "stateMutability": "nonpayable",
      "type": "function"
    },
    {
      "constant": false,
      "inputs": [
        {
          "name": "newBootyBase",
          "type": "address"
        }
      ],
      "name": "updateBootyBase",
      "outputs": [],
      "payable": false,
      "stateMutability": "nonpayable",
      "type": "function"
    },
    {
      "constant": true,
      "inputs": [
        {
          "name": "stakerAddress",
          "type": "address"
        },
        {
          "name": "period",
          "type": "uint256"
        }
      ],
      "name": "getSpankPoints",
      "outputs": [
        {
          "name": "",
          "type": "uint256"
        }
      ],
      "payable": false,
      "stateMutability": "view",
      "type": "function"
    },
    {
      "constant": true,
      "inputs": [
        {
          "name": "stakerAddress",
          "type": "address"
        },
        {
          "name": "period",
          "type": "uint256"
        }
      ],
      "name": "getDidClaimBooty",
      "outputs": [
        {
          "name": "",
          "type": "bool"
        }
      ],
      "payable": false,
      "stateMutability": "view",
      "type": "function"
    },
    {
      "constant": true,
      "inputs": [
        {
          "name": "stakerAddress",
          "type": "address"
        },
        {
          "name": "period",
          "type": "uint256"
        }
      ],
      "name": "getVote",
      "outputs": [
        {
          "name": "",
          "type": "bool"
        }
      ],
      "payable": false,
      "stateMutability": "view",
      "type": "function"
    },
    {
      "constant": true,
      "inputs": [
        {
          "name": "delegateAddress",
          "type": "address"
        }
      ],
      "name": "getStakerFromDelegateKey",
      "outputs": [
        {
          "name": "",
          "type": "address"
        }
      ],
      "payable": false,
      "stateMutability": "view",
      "type": "function"
    }
  ],
  "bytecode": "0x608060405260006006553480156200001657600080fd5b5060405162005b7238038062005b72833981018060405281019080805190602001909291908051906020019092919080519060200190929190805190602001909291908051820192919060200180519060200190929190805182019291905050506000876000819055508660018190555085600360016101000a81548173ffffffffffffffffffffffffffffffffffffffff021916908373ffffffffffffffffffffffffffffffffffffffff160217905550838383620000d56200076e565b80806020018460ff1660ff16815260200180602001838103835286818151815260200191508051906020019080838360005b838110156200012457808201518184015260208101905062000107565b50505050905090810190601f168015620001525780820380516001836020036101000a031916815260200191505b50838103825284818151815260200191508051906020019080838360005b838110156200018d57808201518184015260208101905062000170565b50505050905090810190601f168015620001bb5780820380516001836020036101000a031916815260200191505b5095505050505050604051809103906000f080158015620001e0573d6000803e3d6000fd5b50600460006101000a81548173ffffffffffffffffffffffffffffffffffffffff021916908373ffffffffffffffffffffffffffffffffffffffff160217905550600460009054906101000a900473ffffffffffffffffffffffffffffffffffffffff1673ffffffffffffffffffffffffffffffffffffffff166340c10f1930876040518363ffffffff167c0100000000000000000000000000000000000000000000000000000000028152600401808373ffffffffffffffffffffffffffffffffffffffff1673ffffffffffffffffffffffffffffffffffffffff16815260200182815260200192505050602060405180830381600087803b158015620002e757600080fd5b505af1158015620002fc573d6000803e3d6000fd5b505050506040513d60208110156200031357600080fd5b810190808051906020019092919050505050429050806008600060065481526020019081526020016000206004018190555062000367816000546200074f64010000000002620032cd176401000000009004565b60086000600654815260200190815260200160002060050181905550600460009054906101000a900473ffffffffffffffffffffffffffffffffffffffff1673ffffffffffffffffffffffffffffffffffffffff1663a9059cbb33876040518363ffffffff167c0100000000000000000000000000000000000000000000000000000000028152600401808373ffffffffffffffffffffffffffffffffffffffff1673ffffffffffffffffffffffffffffffffffffffff16815260200182815260200192505050602060405180830381600087803b1580156200044957600080fd5b505af11580156200045e573d6000803e3d6000fd5b505050506040513d60208110156200047557600080fd5b81019080805190602001909291905050505060006005600080815260200190815260200160002081905550602d60056000600181526020019081526020016000208190555060326005600060028152602001908152602001600020819055506037600560006003815260200190815260200160002081905550603c60056000600481526020019081526020016000208190555060416005600060058152602001908152602001600020819055506046600560006006815260200190815260200160002081905550604b60056000600781526020019081526020016000208190555060506005600060088152602001908152602001600020819055506055600560006009815260200190815260200160002081905550605a60056000600a815260200190815260200160002081905550605f60056000600b815260200190815260200160002081905550606460056000600c8152602001908152602001600020819055507fba1ce6db8884d27cbb3d0fdd8350de432de2f29d88b06d43fded901a8689ecb588888888888888604051808881526020018781526020018673ffffffffffffffffffffffffffffffffffffffff1673ffffffffffffffffffffffffffffffffffffffff168152602001858152602001806020018460ff1660ff16815260200180602001838103835286818151815260200191508051906020019080838360005b838110156200069657808201518184015260208101905062000679565b50505050905090810190601f168015620006c45780820380516001836020036101000a031916815260200191505b50838103825284818151815260200191508051906020019080838360005b83811015620006ff578082015181840152602081019050620006e2565b50505050905090810190601f1680156200072d5780820380516001836020036101000a031916815260200191505b50995050505050505050505060405180910390a150505050505050506200077f565b60008082840190508381101515156200076457fe5b8091505092915050565b6040516116c080620044b283390190565b613d23806200078f6000396000f30060806040526004361061015f576000357c0100000000000000000000000000000000000000000000000000000000900463ffffffff16806306040618146101645780632277466b1461018f5780632582bf2a146101a657806340809acd146101e95780634cfef2201461026057806350a9b541146102c15780635155bafa1461031857806353547d3f1461034357806364b61d0a1461035a5780636b0dd90f146103dd5780637e9e1561146104425780638f4ffcb1146104c55780639168ae721461059057806392f4d2251461065b578063948cfd0c146106b2578063a002c871146106f5578063a0ac577614610736578063a83627de14610763578063b8c0517a1461077a578063bed9d86114610807578063c2b6b58c1461081e578063cc741c9c1461084d578063cd43ebf9146108b2578063d2ca2115146108dd578063e95a644f14610908578063ea4a110414610935578063ecd4eb74146109a4575b600080fd5b34801561017057600080fd5b506101796109d1565b6040518082815260200191505060405180910390f35b34801561019b57600080fd5b506101a46109d7565b005b3480156101b257600080fd5b506101e7600480360381019080803573ffffffffffffffffffffffffffffffffffffffff169060200190929190505050610d49565b005b3480156101f557600080fd5b5061025e6004803603810190808035906020019092919080359060200190929190803573ffffffffffffffffffffffffffffffffffffffff169060200190929190803573ffffffffffffffffffffffffffffffffffffffff16906020019092919050505061115a565b005b34801561026c57600080fd5b506102ab600480360381019080803573ffffffffffffffffffffffffffffffffffffffff1690602001909291908035906020019092919050505061118f565b6040518082815260200191505060405180910390f35b3480156102cd57600080fd5b506102d66111ed565b604051808273ffffffffffffffffffffffffffffffffffffffff1673ffffffffffffffffffffffffffffffffffffffff16815260200191505060405180910390f35b34801561032457600080fd5b5061032d611213565b6040518082815260200191505060405180910390f35b34801561034f57600080fd5b50610358611219565b005b34801561036657600080fd5b5061039b600480360381019080803573ffffffffffffffffffffffffffffffffffffffff1690602001909291905050506115a1565b604051808273ffffffffffffffffffffffffffffffffffffffff1673ffffffffffffffffffffffffffffffffffffffff16815260200191505060405180910390f35b3480156103e957600080fd5b50610428600480360381019080803573ffffffffffffffffffffffffffffffffffffffff169060200190929190803590602001909291905050506115d4565b604051808215151515815260200191505060405180910390f35b34801561044e57600080fd5b50610483600480360381019080803573ffffffffffffffffffffffffffffffffffffffff16906020019092919050505061163f565b604051808273ffffffffffffffffffffffffffffffffffffffff1673ffffffffffffffffffffffffffffffffffffffff16815260200191505060405180910390f35b3480156104d157600080fd5b50610576600480360381019080803573ffffffffffffffffffffffffffffffffffffffff16906020019092919080359060200190929190803573ffffffffffffffffffffffffffffffffffffffff169060200190929190803590602001908201803590602001908080601f01602080910402602001604051908101604052809392919081815260200183838082843782019150505050505091929192905050506116a8565b604051808215151515815260200191505060405180910390f35b34801561059c57600080fd5b506105d1600480360381019080803573ffffffffffffffffffffffffffffffffffffffff1690602001909291905050506117c5565b604051808681526020018581526020018481526020018373ffffffffffffffffffffffffffffffffffffffff1673ffffffffffffffffffffffffffffffffffffffff1681526020018273ffffffffffffffffffffffffffffffffffffffff1673ffffffffffffffffffffffffffffffffffffffff1681526020019550505050505060405180910390f35b34801561066757600080fd5b5061067061183b565b604051808273ffffffffffffffffffffffffffffffffffffffff1673ffffffffffffffffffffffffffffffffffffffff16815260200191505060405180910390f35b3480156106be57600080fd5b506106f3600480360381019080803573ffffffffffffffffffffffffffffffffffffffff169060200190929190505050611861565b005b34801561070157600080fd5b50610720600480360381019080803590602001909291905050506119aa565b6040518082815260200191505060405180910390f35b34801561074257600080fd5b50610761600480360381019080803590602001909291905050506119c2565b005b34801561076f57600080fd5b50610778611e66565b005b34801561078657600080fd5b50610805600480360381019080803573ffffffffffffffffffffffffffffffffffffffff169060200190929190803573ffffffffffffffffffffffffffffffffffffffff169060200190929190803573ffffffffffffffffffffffffffffffffffffffff16906020019092919080359060200190929190505050611f70565b005b34801561081357600080fd5b5061081c61276b565b005b34801561082a57600080fd5b50610833612a5d565b604051808215151515815260200191505060405180910390f35b34801561085957600080fd5b50610898600480360381019080803573ffffffffffffffffffffffffffffffffffffffff16906020019092919080359060200190929190505050612a70565b604051808215151515815260200191505060405180910390f35b3480156108be57600080fd5b506108c7612adb565b6040518082815260200191505060405180910390f35b3480156108e957600080fd5b506108f2612ae1565b6040518082815260200191505060405180910390f35b34801561091457600080fd5b5061093360048036038101908080359060200190929190505050612ae7565b005b34801561094157600080fd5b5061096060048036038101908080359060200190929190505050612f5d565b604051808881526020018781526020018681526020018515151515815260200184815260200183815260200182815260200197505050505050505060405180910390f35b3480156109b057600080fd5b506109cf60048036038101908080359060200190929190505050612fac565b005b60065481565b60008060006109e4611e66565b600760003373ffffffffffffffffffffffffffffffffffffffff1673ffffffffffffffffffffffffffffffffffffffff168152602001908152602001600020925060008360000154111515610aa1576040517f08c379a000000000000000000000000000000000000000000000000000000000815260040180806020018281038252600d8152602001807f7374616b65206973207a65726f0000000000000000000000000000000000000081525060200191505060405180910390fd5b8260020154600654101515610b1e576040517f08c379a000000000000000000000000000000000000000000000000000000000815260040180806020018281038252600e8152602001807f7374616b6572206578706972656400000000000000000000000000000000000081525060200191505060405180910390fd5b60001515836005016000600654815260200190815260200160002060009054906101000a900460ff161515141515610bbe576040517f08c379a00000000000000000000000000000000000000000000000000000000081526004018080602001828103825260138152602001807f7374616b6520616c726561647920766f7465640000000000000000000000000081525060200191505060405180910390fd5b60001515600360009054906101000a900460ff161515141515610c49576040517f08c379a00000000000000000000000000000000000000000000000000000000081526004018080602001828103825260188152602001807f5370616e6b42616e6b20616c726561647920636c6f736564000000000000000081525060200191505060405180910390fd5b600860006006548152602001908152602001600020600601549150610c728284600001546132cd565b915081600860006006548152602001908152602001600020600601819055506001836005016000600654815260200190815260200160002060006101000a81548160ff021916908315150217905550610cce60025460026132eb565b905080821115610cf4576001600360006101000a81548160ff0219169083151502179055505b3373ffffffffffffffffffffffffffffffffffffffff167f959f8a1dbf04c81ed0f0e69045e99d3fec4b61c08bb829b5a540450a580fcc966006546040518082815260200191505060405180910390a2505050565b60008073ffffffffffffffffffffffffffffffffffffffff168273ffffffffffffffffffffffffffffffffffffffff1614151515610def576040517f08c379a00000000000000000000000000000000000000000000000000000000081526004018080602001828103825260138152602001807f64656c65676174654b6579206973207a65726f0000000000000000000000000081525060200191505060405180910390fd5b600073ffffffffffffffffffffffffffffffffffffffff16600960008473ffffffffffffffffffffffffffffffffffffffff1673ffffffffffffffffffffffffffffffffffffffff16815260200190815260200160002060009054906101000a900473ffffffffffffffffffffffffffffffffffffffff1673ffffffffffffffffffffffffffffffffffffffff16141515610ef2576040517f08c379a000000000000000000000000000000000000000000000000000000000815260040180806020018281038252601a8152602001807f64656c65676174654b657920616c72656164792065786973747300000000000081525060200191505060405180910390fd5b600760003373ffffffffffffffffffffffffffffffffffffffff1673ffffffffffffffffffffffffffffffffffffffff168152602001908152602001600020905060008160010154111515610faf576040517f08c379a000000000000000000000000000000000000000000000000000000000815260040180806020018281038252601e8152602001807f7374616b6572207374617274696e6720706572696f64206973207a65726f000081525060200191505060405180910390fd5b6000600960008360060160009054906101000a900473ffffffffffffffffffffffffffffffffffffffff1673ffffffffffffffffffffffffffffffffffffffff1673ffffffffffffffffffffffffffffffffffffffff16815260200190815260200160002060006101000a81548173ffffffffffffffffffffffffffffffffffffffff021916908373ffffffffffffffffffffffffffffffffffffffff160217905550818160060160006101000a81548173ffffffffffffffffffffffffffffffffffffffff021916908373ffffffffffffffffffffffffffffffffffffffff16021790555033600960008473ffffffffffffffffffffffffffffffffffffffff1673ffffffffffffffffffffffffffffffffffffffff16815260200190815260200160002060006101000a81548173ffffffffffffffffffffffffffffffffffffffff021916908373ffffffffffffffffffffffffffffffffffffffff1602179055503373ffffffffffffffffffffffffffffffffffffffff167f4f6212734c1b33297f2b7d38060ce89d5b9e283c9c9e86fc09b3210369d7675060405160405180910390a25050565b60001515600360009054906101000a900460ff16151514151561117c57600080fd5b6111893385858585613306565b50505050565b6000600760008473ffffffffffffffffffffffffffffffffffffffff1673ffffffffffffffffffffffffffffffffffffffff168152602001908152602001600020600301600083815260200190815260200160002054905092915050565b600460009054906101000a900473ffffffffffffffffffffffffffffffffffffffff1681565b60015481565b60008060008060001515600360009054906101000a900460ff16151514151561124157600080fd5b611249611e66565b60006006541115156112c3576040517f08c379a00000000000000000000000000000000000000000000000000000000081526004018080602001828103825260168152602001807f63757272656e7420706572696f64206973207a65726f0000000000000000000081525060200191505060405180910390fd5b60086000600160065403815260200190815260200160002093508360030160009054906101000a900460ff16151515611364576040517f08c379a00000000000000000000000000000000000000000000000000000000081526004018080602001828103825260188152602001807f6d696e74696e6720616c726561647920636f6d706c657465000000000000000081525060200191505060405180910390fd5b60018460030160006101000a81548160ff02191690831515021790555061139084600001546014613b27565b9250600460009054906101000a900473ffffffffffffffffffffffffffffffffffffffff1673ffffffffffffffffffffffffffffffffffffffff166318160ddd6040518163ffffffff167c0100000000000000000000000000000000000000000000000000000000028152600401602060405180830381600087803b15801561141857600080fd5b505af115801561142c573d6000803e3d6000fd5b505050506040513d602081101561144257600080fd5b810190808051906020019092919050505091508183111561159b578183039050600460009054906101000a900473ffffffffffffffffffffffffffffffffffffffff1673ffffffffffffffffffffffffffffffffffffffff166340c10f1930836040518363ffffffff167c0100000000000000000000000000000000000000000000000000000000028152600401808373ffffffffffffffffffffffffffffffffffffffff1673ffffffffffffffffffffffffffffffffffffffff16815260200182815260200192505050602060405180830381600087803b15801561152757600080fd5b505af115801561153b573d6000803e3d6000fd5b505050506040513d602081101561155157600080fd5b81019080805190602001909291905050505080846002018190555081837fdd72482b0b62344dba1c62defa4d0b9a8c3b0c228fdc759fa19f50bb4768bf9a60405160405180910390a35b50505050565b60096020528060005260406000206000915054906101000a900473ffffffffffffffffffffffffffffffffffffffff1681565b6000600760008473ffffffffffffffffffffffffffffffffffffffff1673ffffffffffffffffffffffffffffffffffffffff168152602001908152602001600020600501600083815260200190815260200160002060009054906101000a900460ff16905092915050565b6000600960008373ffffffffffffffffffffffffffffffffffffffff1673ffffffffffffffffffffffffffffffffffffffff16815260200190815260200160002060009054906101000a900473ffffffffffffffffffffffffffffffffffffffff169050919050565b60008060008060001515600360009054906101000a900460ff1615151415156116d057600080fd5b6116e4600c86613b5a90919063ffffffff16565b92506116fa602c86613b5a90919063ffffffff16565b9150611710604086613b9290919063ffffffff16565b90507fa50b8dc0af675484ab09e9763bccc4f4cbb321b3786ab2887673f7e17b98384b8887604051808373ffffffffffffffffffffffffffffffffffffffff1673ffffffffffffffffffffffffffffffffffffffff1681526020018273ffffffffffffffffffffffffffffffffffffffff1673ffffffffffffffffffffffffffffffffffffffff1681526020019250505060405180910390a16117b68888838686613306565b60019350505050949350505050565b60076020528060005260406000206000915090508060000154908060010154908060020154908060060160009054906101000a900473ffffffffffffffffffffffffffffffffffffffff16908060070160009054906101000a900473ffffffffffffffffffffffffffffffffffffffff16905085565b600360019054906101000a900473ffffffffffffffffffffffffffffffffffffffff1681565b6000600760003373ffffffffffffffffffffffffffffffffffffffff1673ffffffffffffffffffffffffffffffffffffffff168152602001908152602001600020905060008160010154111515611920576040517f08c379a000000000000000000000000000000000000000000000000000000000815260040180806020018281038252601e8152602001807f7374616b6572207374617274696e6720706572696f64206973207a65726f000081525060200191505060405180910390fd5b818160070160006101000a81548173ffffffffffffffffffffffffffffffffffffffff021916908373ffffffffffffffffffffffffffffffffffffffff1602179055503373ffffffffffffffffffffffffffffffffffffffff167f36b8b0be2f783dadecc9da5d8bcac1f541caf94ed53df0cf9a11c1e89bef2c5c60405160405180910390a25050565b60056020528060005260406000206000915090505481565b6119ca613cb7565b6000806000806000806119db611e66565b6008600089815260200190815260200160002060e060405190810160405290816000820154815260200160018201548152602001600282015481526020016003820160009054906101000a900460ff161515151581526020016004820154815260200160058201548152602001600682015481525050965086606001511515611acc576040517f08c379a00000000000000000000000000000000000000000000000000000000081526004018080602001828103825260108152602001807f626f6f7479206e6f74206d696e7465640000000000000000000000000000000081525060200191505060405180910390fd5b600960003373ffffffffffffffffffffffffffffffffffffffff1673ffffffffffffffffffffffffffffffffffffffff16815260200190815260200160002060009054906101000a900473ffffffffffffffffffffffffffffffffffffffff169550600760008773ffffffffffffffffffffffffffffffffffffffff1673ffffffffffffffffffffffffffffffffffffffff168152602001908152602001600020945084600401600089815260200190815260200160002060009054906101000a900460ff16151515611c07576040517f08c379a00000000000000000000000000000000000000000000000000000000081526004018080602001828103825260168152602001807f7374616b657220616c726561647920636c61696d65640000000000000000000081525060200191505060405180910390fd5b846003016000898152602001908152602001600020549350600084111515611c97576040517f08c379a00000000000000000000000000000000000000000000000000000000081526004018080602001828103825260148152602001807f7374616b657220686173206e6f20706f696e747300000000000000000000000081525060200191505060405180910390fd5b60018560040160008a815260200190815260200160002060006101000a81548160ff0219169083151502179055508660400151925086602001519150611ce6611ce08585613b27565b836132eb565b9050600460009054906101000a900473ffffffffffffffffffffffffffffffffffffffff1673ffffffffffffffffffffffffffffffffffffffff1663a9059cbb8660070160009054906101000a900473ffffffffffffffffffffffffffffffffffffffff16836040518363ffffffff167c0100000000000000000000000000000000000000000000000000000000028152600401808373ffffffffffffffffffffffffffffffffffffffff1673ffffffffffffffffffffffffffffffffffffffff16815260200182815260200192505050602060405180830381600087803b158015611dd157600080fd5b505af1158015611de5573d6000803e3d6000fd5b505050506040513d6020811015611dfb57600080fd5b81019080805190602001909291905050501515611e1757600080fd5b80888773ffffffffffffffffffffffffffffffffffffffff167f2fd6ff0d6667e656647d29c2382be0055e33f9d93855304f719c417aee48515060405160405180910390a45050505050505050565b611e6e613cb7565b5b6008600060065481526020019081526020016000206005015442101515611f6d5760086000600654815260200190815260200160002060e060405190810160405290816000820154815260200160018201548152602001600282015481526020016003820160009054906101000a900460ff161515151581526020016004820154815260200160058201548152602001600682015481525050905060016006600082825401925050819055508060a0015160086000600654815260200190815260200160002060040181905550611f4c8160a001516000546132cd565b60086000600654815260200190815260200160002060050181905550611e6f565b50565b6000611f7a611e66565b600073ffffffffffffffffffffffffffffffffffffffff168573ffffffffffffffffffffffffffffffffffffffff161415151561201f576040517f08c379a00000000000000000000000000000000000000000000000000000000081526004018080602001828103825260128152602001807f6e657741646472657373206973207a65726f000000000000000000000000000081525060200191505060405180910390fd5b600073ffffffffffffffffffffffffffffffffffffffff168473ffffffffffffffffffffffffffffffffffffffff16141515156120c4576040517f08c379a00000000000000000000000000000000000000000000000000000000081526004018080602001828103825260138152602001807f64656c65676174654b6579206973207a65726f0000000000000000000000000081525060200191505060405180910390fd5b600073ffffffffffffffffffffffffffffffffffffffff168373ffffffffffffffffffffffffffffffffffffffff1614151515612169576040517f08c379a00000000000000000000000000000000000000000000000000000000081526004018080602001828103825260118152602001807f626f6f747942617365206973207a65726f00000000000000000000000000000081525060200191505060405180910390fd5b600073ffffffffffffffffffffffffffffffffffffffff16600960008673ffffffffffffffffffffffffffffffffffffffff1673ffffffffffffffffffffffffffffffffffffffff16815260200190815260200160002060009054906101000a900473ffffffffffffffffffffffffffffffffffffffff1673ffffffffffffffffffffffffffffffffffffffff1614151561226c576040517f08c379a00000000000000000000000000000000000000000000000000000000081526004018080602001828103825260128152602001807f64656c65676174654b657920696e20757365000000000000000000000000000081525060200191505060405180910390fd5b6000821115156122e4576040517f08c379a00000000000000000000000000000000000000000000000000000000081526004018080602001828103825260138152602001807f7370616e6b416d6f756e74206973207a65726f0000000000000000000000000081525060200191505060405180910390fd5b600760003373ffffffffffffffffffffffffffffffffffffffff1673ffffffffffffffffffffffffffffffffffffffff168152602001908152602001600020905080600201546006541015156123a2576040517f08c379a000000000000000000000000000000000000000000000000000000000815260040180806020018281038252600e8152602001807f7374616b6572206578706972656400000000000000000000000000000000000081525060200191505060405180910390fd5b8060000154821115151561241e576040517f08c379a000000000000000000000000000000000000000000000000000000000815260040180806020018281038252601e8152602001807f7370616e6b416d6f756e742067726561746572207468616e207374616b65000081525060200191505060405180910390fd5b60008160030160006001600654018152602001908152602001600020541415156124d6576040517f08c379a00000000000000000000000000000000000000000000000000000000081526004018080602001828103825260218152602001807f7374616b65722068617320706f696e747320666f72206e65787420706572696f81526020017f640000000000000000000000000000000000000000000000000000000000000081525060400191505060405180910390fd5b6124e4816000015483613bbb565b816000018190555060a06040519081016040528083815260200182600101548152602001826002015481526020018573ffffffffffffffffffffffffffffffffffffffff1681526020018473ffffffffffffffffffffffffffffffffffffffff16815250600760008773ffffffffffffffffffffffffffffffffffffffff1673ffffffffffffffffffffffffffffffffffffffff16815260200190815260200160002060008201518160000155602082015181600101556040820151816002015560608201518160060160006101000a81548173ffffffffffffffffffffffffffffffffffffffff021916908373ffffffffffffffffffffffffffffffffffffffff16021790555060808201518160070160006101000a81548173ffffffffffffffffffffffffffffffffffffffff021916908373ffffffffffffffffffffffffffffffffffffffff16021790555090505084600960008673ffffffffffffffffffffffffffffffffffffffff1673ffffffffffffffffffffffffffffffffffffffff16815260200190815260200160002060006101000a81548173ffffffffffffffffffffffffffffffffffffffff021916908373ffffffffffffffffffffffffffffffffffffffff1602179055508373ffffffffffffffffffffffffffffffffffffffff168573ffffffffffffffffffffffffffffffffffffffff163373ffffffffffffffffffffffffffffffffffffffff167f89f2292821f8c2270b88e93369feebc88dacba2a337f3fa7cd3a852e7af1a0d58686604051808373ffffffffffffffffffffffffffffffffffffffff1673ffffffffffffffffffffffffffffffffffffffff1681526020018281526020019250505060405180910390a45050505050565b600080612776611e66565b600760003373ffffffffffffffffffffffffffffffffffffffff1673ffffffffffffffffffffffffffffffffffffffff168152602001908152602001600020915060008260000154111515612833576040517f08c379a00000000000000000000000000000000000000000000000000000000081526004018080602001828103825260138152602001807f7374616b657220686173206e6f207374616b650000000000000000000000000081525060200191505060405180910390fd5b600360009054906101000a900460ff168061285357508160020154600654115b15156128ed576040517f08c379a00000000000000000000000000000000000000000000000000000000081526004018080602001828103825260388152602001807f63757272656e74506572696f64206c657373207468616e20656e64696e67506581526020017f72696f64206f72207370616e6b62616e6b20636c6f736564000000000000000081525060400191505060405180910390fd5b816000015490506129046002548360000154613bbb565b60028190555060008260000181905550600360019054906101000a900473ffffffffffffffffffffffffffffffffffffffff1673ffffffffffffffffffffffffffffffffffffffff1663a9059cbb33836040518363ffffffff167c0100000000000000000000000000000000000000000000000000000000028152600401808373ffffffffffffffffffffffffffffffffffffffff1673ffffffffffffffffffffffffffffffffffffffff16815260200182815260200192505050602060405180830381600087803b1580156129d957600080fd5b505af11580156129ed573d6000803e3d6000fd5b505050506040513d6020811015612a0357600080fd5b810190808051906020019092919050505050803373ffffffffffffffffffffffffffffffffffffffff167f6aacd1e4534b984215f3230eb74caaf79156b03a979f3d6cb564fe17a2f8490f60405160405180910390a35050565b600360009054906101000a900460ff1681565b6000600760008473ffffffffffffffffffffffffffffffffffffffff1673ffffffffffffffffffffffffffffffffffffffff168152602001908152602001600020600401600083815260200190815260200160002060009054906101000a900460ff16905092915050565b60025481565b60005481565b6000806000801515600360009054906101000a900460ff161515141515612b0d57600080fd5b612b15611e66565b600960003373ffffffffffffffffffffffffffffffffffffffff1673ffffffffffffffffffffffffffffffffffffffff16815260200190815260200160002060009054906101000a900473ffffffffffffffffffffffffffffffffffffffff169250600760008473ffffffffffffffffffffffffffffffffffffffff1673ffffffffffffffffffffffffffffffffffffffff168152602001908152602001600020915060008260000154111515612c34576040517f08c379a00000000000000000000000000000000000000000000000000000000081526004018080602001828103825260148152602001807f7374616b6572207374616b65206973207a65726f00000000000000000000000081525060200191505060405180910390fd5b8160020154600654101515612cb1576040517f08c379a000000000000000000000000000000000000000000000000000000000815260040180806020018281038252600e8152602001807f7374616b6572206578706972656400000000000000000000000000000000000081525060200191505060405180910390fd5b6000826003016000600160065401815260200190815260200160002054141515612d69576040517f08c379a00000000000000000000000000000000000000000000000000000000081526004018080602001828103825260218152602001807f7374616b65722068617320706f696e747320666f72206e65787420706572696f81526020017f640000000000000000000000000000000000000000000000000000000000000081525060400191505060405180910390fd5b6000841115612ec157816002015484111515612e13576040517f08c379a000000000000000000000000000000000000000000000000000000000815260040180806020018281038252603d8152602001807f75706461746564456e64696e67506572696f64206c657373207468616e206f7281526020017f20657175616c20746f207374616b657220656e64696e67506572696f6400000081525060400191505060405180910390fd5b600154600654018411151515612eb7576040517f08c379a000000000000000000000000000000000000000000000000000000000815260040180806020018281038252603d8152602001807f75706461746564456e64696e67506572696f642067726561746572207468616e81526020017f2063757272656e74506572696f6420616e64206d6178506572696f647300000081525060400191505060405180910390fd5b8382600201819055505b6006548260020154039050612ed68382613bd4565b8273ffffffffffffffffffffffffffffffffffffffff167fede66e503b72a02fe9af902146849d461fea9c7f6a20951d793a6e8435fbab88600160065401846003016000600160065401815260200190815260200160002054856002015460405180848152602001838152602001828152602001935050505060405180910390a250505050565b60086020528060005260406000206000915090508060000154908060010154908060020154908060030160009054906101000a900460ff16908060040154908060050154908060060154905087565b6000801515600360009054906101000a900460ff161515141515612fcf57600080fd5b612fd7611e66565b60008211151561304f576040517f08c379a000000000000000000000000000000000000000000000000000000000815260040180806020018281038252600b8152602001807f666565206973207a65726f00000000000000000000000000000000000000000081525060200191505060405180910390fd5b600460009054906101000a900473ffffffffffffffffffffffffffffffffffffffff1673ffffffffffffffffffffffffffffffffffffffff166323b872dd3330856040518463ffffffff167c0100000000000000000000000000000000000000000000000000000000028152600401808473ffffffffffffffffffffffffffffffffffffffff1673ffffffffffffffffffffffffffffffffffffffff1681526020018373ffffffffffffffffffffffffffffffffffffffff1673ffffffffffffffffffffffffffffffffffffffff1681526020018281526020019350505050602060405180830381600087803b15801561314857600080fd5b505af115801561315c573d6000803e3d6000fd5b505050506040513d602081101561317257600080fd5b8101908080519060200190929190505050151561318e57600080fd5b600460009054906101000a900473ffffffffffffffffffffffffffffffffffffffff1673ffffffffffffffffffffffffffffffffffffffff166342966c68836040518263ffffffff167c010000000000000000000000000000000000000000000000000000000002815260040180828152602001915050600060405180830381600087803b15801561321f57600080fd5b505af1158015613233573d6000803e3d6000fd5b5050505060086000600654815260200190815260200160002060000154905061325c82826132cd565b905080600860006006548152602001908152602001600020600001819055503373ffffffffffffffffffffffffffffffffffffffff167fb5383de6f0fbf1c75d39afec1fe1233f6e425ba9b742882b1da821e0706d84ec836040518082815260200191505060405180910390a25050565b60008082840190508381101515156132e157fe5b8091505092915050565b60008082848115156132f957fe5b0490508091505092915050565b61330e611e66565b60008311801561332057506001548311155b15156133ba576040517f08c379a00000000000000000000000000000000000000000000000000000000081526004018080602001828103825260258152602001807f7374616b65206e6f74206265747765656e207a65726f20616e64206d6178506581526020017f72696f647300000000000000000000000000000000000000000000000000000081525060400191505060405180910390fd5b600084111515613432576040517f08c379a000000000000000000000000000000000000000000000000000000000815260040180806020018281038252600a8152602001807f7374616b6520697320300000000000000000000000000000000000000000000081525060200191505060405180910390fd5b6000600760008773ffffffffffffffffffffffffffffffffffffffff1673ffffffffffffffffffffffffffffffffffffffff168152602001908152602001600020600101541415156134ec576040517f08c379a00000000000000000000000000000000000000000000000000000000081526004018080602001828103825260158152602001807f7374616b657220616c726561647920657869737473000000000000000000000081525060200191505060405180910390fd5b600360019054906101000a900473ffffffffffffffffffffffffffffffffffffffff1673ffffffffffffffffffffffffffffffffffffffff166323b872dd8630876040518463ffffffff167c0100000000000000000000000000000000000000000000000000000000028152600401808473ffffffffffffffffffffffffffffffffffffffff1673ffffffffffffffffffffffffffffffffffffffff1681526020018373ffffffffffffffffffffffffffffffffffffffff1673ffffffffffffffffffffffffffffffffffffffff1681526020018281526020019350505050602060405180830381600087803b1580156135e557600080fd5b505af11580156135f9573d6000803e3d6000fd5b505050506040513d602081101561360f57600080fd5b8101908080519060200190929190505050151561362b57600080fd5b60a0604051908101604052808581526020016001600654018152602001846006540181526020018373ffffffffffffffffffffffffffffffffffffffff1681526020018273ffffffffffffffffffffffffffffffffffffffff16815250600760008773ffffffffffffffffffffffffffffffffffffffff1673ffffffffffffffffffffffffffffffffffffffff16815260200190815260200160002060008201518160000155602082015181600101556040820151816002015560608201518160060160006101000a81548173ffffffffffffffffffffffffffffffffffffffff021916908373ffffffffffffffffffffffffffffffffffffffff16021790555060808201518160070160006101000a81548173ffffffffffffffffffffffffffffffffffffffff021916908373ffffffffffffffffffffffffffffffffffffffff1602179055509050506137808584613bd4565b61378c600254856132cd565b600281905550600073ffffffffffffffffffffffffffffffffffffffff168273ffffffffffffffffffffffffffffffffffffffff1614151515613837576040517f08c379a000000000000000000000000000000000000000000000000000000000815260040180806020018281038252601a8152602001807f64656c65676174654b657920646f6573206e6f7420657869737400000000000081525060200191505060405180910390fd5b600073ffffffffffffffffffffffffffffffffffffffff168173ffffffffffffffffffffffffffffffffffffffff16141515156138dc576040517f08c379a00000000000000000000000000000000000000000000000000000000081526004018080602001828103825260188152602001807f626f6f74794261736520646f6573206e6f74206578697374000000000000000081525060200191505060405180910390fd5b600073ffffffffffffffffffffffffffffffffffffffff16600960008473ffffffffffffffffffffffffffffffffffffffff1673ffffffffffffffffffffffffffffffffffffffff16815260200190815260200160002060009054906101000a900473ffffffffffffffffffffffffffffffffffffffff1673ffffffffffffffffffffffffffffffffffffffff161415156139df576040517f08c379a00000000000000000000000000000000000000000000000000000000081526004018080602001828103825260188152602001807f64656c65676174654b657920616c72656164792075736564000000000000000081525060200191505060405180910390fd5b84600960008473ffffffffffffffffffffffffffffffffffffffff1673ffffffffffffffffffffffffffffffffffffffff16815260200190815260200160002060006101000a81548173ffffffffffffffffffffffffffffffffffffffff021916908373ffffffffffffffffffffffffffffffffffffffff1602179055508473ffffffffffffffffffffffffffffffffffffffff167fc42c0833e241d95fe2df0c95444743e6f7d1805d1fcc7f35be6bae74592c0e37600160065401600760008973ffffffffffffffffffffffffffffffffffffffff1673ffffffffffffffffffffffffffffffffffffffff168152602001908152602001600020600301600060016006540181526020019081526020016000205487876040518085815260200184815260200183815260200182815260200194505050505060405180910390a25050505050565b60008082840290506000841480613b485750828482811515613b4557fe5b04145b1515613b5057fe5b8091505092915050565b60008060148301845110151515613b7057600080fd5b6c01000000000000000000000000836020860101510490508091505092915050565b60008060208301845110151515613ba857600080fd5b8260208501015190508091505092915050565b6000828211151515613bc957fe5b818303905092915050565b6000806000600760008673ffffffffffffffffffffffffffffffffffffffff1673ffffffffffffffffffffffffffffffffffffffff1681526020019081526020016000209250613c45613c3e84600001546005600088815260200190815260200160002054613b27565b60646132eb565b9150600860006001600654018152602001908152602001600020600101549050613c6f81836132cd565b90508060086000600160065401815260200190815260200160002060010181905550818360030160006001600654018152602001908152602001600020819055505050505050565b60e06040519081016040528060008152602001600081526020016000815260200160001515815260200160008152602001600081526020016000815250905600a165627a7a72305820b3dfbd4fee6bfb4b0ea2e4ef1f831b477b5252d13756ac3db7473a68ba62d78e002960806040526000600360146101000a81548160ff0219169083151502179055506040805190810160405280600481526020017f48302e3100000000000000000000000000000000000000000000000000000000815250600790805190602001906200006c9291906200014a565b503480156200007a57600080fd5b50604051620016c0380380620016c083398101806040528101908080518201929190602001805190602001909291908051820192919050505033600360006101000a81548173ffffffffffffffffffffffffffffffffffffffff021916908373ffffffffffffffffffffffffffffffffffffffff16021790555082600490805190602001906200010c9291906200014a565b5081600560006101000a81548160ff021916908360ff1602179055508060069080519060200190620001409291906200014a565b50505050620001f9565b828054600181600116156101000203166002900490600052602060002090601f016020900481019282601f106200018d57805160ff1916838001178555620001be565b82800160010185558215620001be579182015b82811115620001bd578251825591602001919060010190620001a0565b5b509050620001cd9190620001d1565b5090565b620001f691905b80821115620001f2576000816000905550600101620001d8565b5090565b90565b6114b780620002096000396000f3006080604052600436106100e6576000357c0100000000000000000000000000000000000000000000000000000000900463ffffffff16806305d2035b146100eb57806306fdde031461011a578063095ea7b3146101aa57806318160ddd1461020f57806323b872dd1461023a578063313ce567146102bf57806340c10f19146102f057806342966c681461035557806354fd4d501461038257806370a08231146104125780637d64bcb4146104695780638da5cb5b1461049857806395d89b41146104ef578063a9059cbb1461057f578063dd62ed3e146105e4578063f2fde38b1461065b575b600080fd5b3480156100f757600080fd5b5061010061069e565b604051808215151515815260200191505060405180910390f35b34801561012657600080fd5b5061012f6106b1565b6040518080602001828103825283818151815260200191508051906020019080838360005b8381101561016f578082015181840152602081019050610154565b50505050905090810190601f16801561019c5780820380516001836020036101000a031916815260200191505b509250505060405180910390f35b3480156101b657600080fd5b506101f5600480360381019080803573ffffffffffffffffffffffffffffffffffffffff1690602001909291908035906020019092919050505061074f565b604051808215151515815260200191505060405180910390f35b34801561021b57600080fd5b50610224610841565b6040518082815260200191505060405180910390f35b34801561024657600080fd5b506102a5600480360381019080803573ffffffffffffffffffffffffffffffffffffffff169060200190929190803573ffffffffffffffffffffffffffffffffffffffff16906020019092919080359060200190929190505050610847565b604051808215151515815260200191505060405180910390f35b3480156102cb57600080fd5b506102d4610ab3565b604051808260ff1660ff16815260200191505060405180910390f35b3480156102fc57600080fd5b5061033b600480360381019080803573ffffffffffffffffffffffffffffffffffffffff16906020019092919080359060200190929190505050610ac6565b604051808215151515815260200191505060405180910390f35b34801561036157600080fd5b5061038060048036038101908080359060200190929190505050610c9c565b005b34801561038e57600080fd5b50610397610d05565b6040518080602001828103825283818151815260200191508051906020019080838360005b838110156103d75780820151818401526020810190506103bc565b50505050905090810190601f1680156104045780820380516001836020036101000a031916815260200191505b509250505060405180910390f35b34801561041e57600080fd5b50610453600480360381019080803573ffffffffffffffffffffffffffffffffffffffff169060200190929190505050610da3565b6040518082815260200191505060405180910390f35b34801561047557600080fd5b5061047e610dec565b604051808215151515815260200191505060405180910390f35b3480156104a457600080fd5b506104ad610eb4565b604051808273ffffffffffffffffffffffffffffffffffffffff1673ffffffffffffffffffffffffffffffffffffffff16815260200191505060405180910390f35b3480156104fb57600080fd5b50610504610eda565b6040518080602001828103825283818151815260200191508051906020019080838360005b83811015610544578082015181840152602081019050610529565b50505050905090810190601f1680156105715780820380516001836020036101000a031916815260200191505b509250505060405180910390f35b34801561058b57600080fd5b506105ca600480360381019080803573ffffffffffffffffffffffffffffffffffffffff16906020019092919080359060200190929190505050610f78565b604051808215151515815260200191505060405180910390f35b3480156105f057600080fd5b50610645600480360381019080803573ffffffffffffffffffffffffffffffffffffffff169060200190929190803573ffffffffffffffffffffffffffffffffffffffff1690602001909291905050506110d1565b6040518082815260200191505060405180910390f35b34801561066757600080fd5b5061069c600480360381019080803573ffffffffffffffffffffffffffffffffffffffff169060200190929190505050611158565b005b600360149054906101000a900460ff1681565b60048054600181600116156101000203166002900480601f0160208091040260200160405190810160405280929190818152602001828054600181600116156101000203166002900480156107475780601f1061071c57610100808354040283529160200191610747565b820191906000526020600020905b81548152906001019060200180831161072a57829003601f168201915b505050505081565b600081600260003373ffffffffffffffffffffffffffffffffffffffff1673ffffffffffffffffffffffffffffffffffffffff16815260200190815260200160002060008573ffffffffffffffffffffffffffffffffffffffff1673ffffffffffffffffffffffffffffffffffffffff168152602001908152602001600020819055508273ffffffffffffffffffffffffffffffffffffffff163373ffffffffffffffffffffffffffffffffffffffff167f8c5be1e5ebec7d5bd14f71427d1e84f3dd0314c0f7b2291e5b200ac8c7c3b925846040518082815260200191505060405180910390a36001905092915050565b60005481565b600081600160008673ffffffffffffffffffffffffffffffffffffffff1673ffffffffffffffffffffffffffffffffffffffff1681526020019081526020016000205410158015610914575081600260008673ffffffffffffffffffffffffffffffffffffffff1673ffffffffffffffffffffffffffffffffffffffff16815260200190815260200160002060003373ffffffffffffffffffffffffffffffffffffffff1673ffffffffffffffffffffffffffffffffffffffff1681526020019081526020016000205410155b151561091f57600080fd5b81600160008573ffffffffffffffffffffffffffffffffffffffff1673ffffffffffffffffffffffffffffffffffffffff1681526020019081526020016000206000828254019250508190555081600160008673ffffffffffffffffffffffffffffffffffffffff1673ffffffffffffffffffffffffffffffffffffffff1681526020019081526020016000206000828254039250508190555081600260008673ffffffffffffffffffffffffffffffffffffffff1673ffffffffffffffffffffffffffffffffffffffff16815260200190815260200160002060003373ffffffffffffffffffffffffffffffffffffffff1673ffffffffffffffffffffffffffffffffffffffff168152602001908152602001600020600082825403925050819055508273ffffffffffffffffffffffffffffffffffffffff168473ffffffffffffffffffffffffffffffffffffffff167fddf252ad1be2c89b69c2b068fc378daa952ba7f163c4a11628f55a4df523b3ef846040518082815260200191505060405180910390a3600190509392505050565b600560009054906101000a900460ff1681565b6000600360009054906101000a900473ffffffffffffffffffffffffffffffffffffffff1673ffffffffffffffffffffffffffffffffffffffff163373ffffffffffffffffffffffffffffffffffffffff16141515610b2457600080fd5b600360149054906101000a900460ff16151515610b4057600080fd5b610b4c826000546112b0565b600081905550610b9b82600160008673ffffffffffffffffffffffffffffffffffffffff1673ffffffffffffffffffffffffffffffffffffffff168152602001908152602001600020546112b0565b600160008573ffffffffffffffffffffffffffffffffffffffff1673ffffffffffffffffffffffffffffffffffffffff168152602001908152602001600020819055508273ffffffffffffffffffffffffffffffffffffffff167f0f6798a560793a54c3bcfe86a93cde1e73087d944c0ea20544137d4121396885836040518082815260200191505060405180910390a28273ffffffffffffffffffffffffffffffffffffffff16600073ffffffffffffffffffffffffffffffffffffffff167fddf252ad1be2c89b69c2b068fc378daa952ba7f163c4a11628f55a4df523b3ef846040518082815260200191505060405180910390a36001905092915050565b600360009054906101000a900473ffffffffffffffffffffffffffffffffffffffff1673ffffffffffffffffffffffffffffffffffffffff163373ffffffffffffffffffffffffffffffffffffffff16141515610cf857600080fd5b610d0233826112ce565b50565b60078054600181600116156101000203166002900480601f016020809104026020016040519081016040528092919081815260200182805460018160011615610100020316600290048015610d9b5780601f10610d7057610100808354040283529160200191610d9b565b820191906000526020600020905b815481529060010190602001808311610d7e57829003601f168201915b505050505081565b6000600160008373ffffffffffffffffffffffffffffffffffffffff1673ffffffffffffffffffffffffffffffffffffffff168152602001908152602001600020549050919050565b6000600360009054906101000a900473ffffffffffffffffffffffffffffffffffffffff1673ffffffffffffffffffffffffffffffffffffffff163373ffffffffffffffffffffffffffffffffffffffff16141515610e4a57600080fd5b600360149054906101000a900460ff16151515610e6657600080fd5b6001600360146101000a81548160ff0219169083151502179055507fae5184fba832cb2b1f702aca6117b8d265eaf03ad33eb133f19dde0f5920fa0860405160405180910390a16001905090565b600360009054906101000a900473ffffffffffffffffffffffffffffffffffffffff1681565b60068054600181600116156101000203166002900480601f016020809104026020016040519081016040528092919081815260200182805460018160011615610100020316600290048015610f705780601f10610f4557610100808354040283529160200191610f70565b820191906000526020600020905b815481529060010190602001808311610f5357829003601f168201915b505050505081565b600081600160003373ffffffffffffffffffffffffffffffffffffffff1673ffffffffffffffffffffffffffffffffffffffff1681526020019081526020016000205410151515610fc857600080fd5b81600160003373ffffffffffffffffffffffffffffffffffffffff1673ffffffffffffffffffffffffffffffffffffffff1681526020019081526020016000206000828254039250508190555081600160008573ffffffffffffffffffffffffffffffffffffffff1673ffffffffffffffffffffffffffffffffffffffff168152602001908152602001600020600082825401925050819055508273ffffffffffffffffffffffffffffffffffffffff163373ffffffffffffffffffffffffffffffffffffffff167fddf252ad1be2c89b69c2b068fc378daa952ba7f163c4a11628f55a4df523b3ef846040518082815260200191505060405180910390a36001905092915050565b6000600260008473ffffffffffffffffffffffffffffffffffffffff1673ffffffffffffffffffffffffffffffffffffffff16815260200190815260200160002060008373ffffffffffffffffffffffffffffffffffffffff1673ffffffffffffffffffffffffffffffffffffffff16815260200190815260200160002054905092915050565b600360009054906101000a900473ffffffffffffffffffffffffffffffffffffffff1673ffffffffffffffffffffffffffffffffffffffff163373ffffffffffffffffffffffffffffffffffffffff161415156111b457600080fd5b600073ffffffffffffffffffffffffffffffffffffffff168173ffffffffffffffffffffffffffffffffffffffff16141515156111f057600080fd5b8073ffffffffffffffffffffffffffffffffffffffff16600360009054906101000a900473ffffffffffffffffffffffffffffffffffffffff1673ffffffffffffffffffffffffffffffffffffffff167f8be0079c531659141344cd1fd0a4f28419497f9722a3daafe3b4186f6b6457e060405160405180910390a380600360006101000a81548173ffffffffffffffffffffffffffffffffffffffff021916908373ffffffffffffffffffffffffffffffffffffffff16021790555050565b60008082840190508381101515156112c457fe5b8091505092915050565b600160008373ffffffffffffffffffffffffffffffffffffffff1673ffffffffffffffffffffffffffffffffffffffff16815260200190815260200160002054811115151561131c57600080fd5b611365600160008473ffffffffffffffffffffffffffffffffffffffff1673ffffffffffffffffffffffffffffffffffffffff1681526020019081526020016000205482611472565b600160008473ffffffffffffffffffffffffffffffffffffffff1673ffffffffffffffffffffffffffffffffffffffff168152602001908152602001600020819055506113b460005482611472565b6000819055508173ffffffffffffffffffffffffffffffffffffffff167fcc16f5dbb4873280815c1ee09dbd06736cffcc184412cf7a71a0fdb75d397ca5826040518082815260200191505060405180910390a2600073ffffffffffffffffffffffffffffffffffffffff168273ffffffffffffffffffffffffffffffffffffffff167fddf252ad1be2c89b69c2b068fc378daa952ba7f163c4a11628f55a4df523b3ef836040518082815260200191505060405180910390a35050565b600082821115151561148057fe5b8183039050929150505600a165627a7a7230582048a2841761fa7ea1a45e2d81a14eaaba3e920545af77dc2b98f08f1ddc99ad5d0029",
  "source": "pragma solidity 0.4.24;\nimport {SafeMath} from \"./SafeMath.sol\";\nimport {HumanStandardToken} from \"./HumanStandardToken.sol\";\nimport {MintAndBurnToken} from \"./MintAndBurnToken.sol\";\nimport \"./BytesLib.sol\";\n\ncontract SpankBank {\n    using BytesLib for bytes;\n    using SafeMath for uint256;\n\n    event SpankBankCreated(\n        uint256 periodLength,\n        uint256 maxPeriods,\n        address spankAddress,\n        uint256 initialBootySupply,\n        string bootyTokenName,\n        uint8 bootyDecimalUnits,\n        string bootySymbol\n    );\n\n    event StakeEvent(\n        address indexed staker,\n        uint256 period,\n        uint256 spankPoints,\n        uint256 spankAmount,\n        uint256 stakePeriods\n    );\n\n    event SendFeesEvent (\n        address indexed sender,\n        uint256 bootyAmount\n    );\n\n    event MintBootyEvent (\n        uint256 indexed targetBootySupply,\n        uint256 indexed totalBootySupply\n    );\n\n    event CheckInEvent (\n        address indexed staker,\n        uint256 period,\n        uint256 spankPoints,\n        uint256 stakerEndingPeriod\n    );\n\n    event ClaimBootyEvent (\n        address indexed staker,\n        uint256 indexed period,\n        uint256 indexed bootyOwed\n    );\n\n    event WithdrawStakeEvent (\n        address indexed staker,\n        uint256 indexed totalSpankToWithdraw\n    );\n\n    event SplitStakeEvent (\n        address indexed staker,\n        address indexed newAddress,\n        address indexed newDelegateKey,\n        address newBootyBase,\n        uint256 spankAmount\n    );\n\n    event VoteToCloseEvent (\n        address indexed staker,\n        uint256 period\n    );\n\n    event UpdateDelegateKeyEvent (\n        address indexed staker\n    );\n\n    event UpdateBootyBaseEvent (\n        address indexed staker\n    );\n\n    event ReceiveApprovalEvent (\n        address from,\n        address tokenContract\n    );\n\n    /***********************************\n    VARIABLES SET AT CONTRACT DEPLOYMENT\n    ************************************/\n    // GLOBAL CONSTANT VARIABLES\n    uint256 public periodLength; // time length of each period in seconds\n    uint256 public maxPeriods; // the maximum # of periods a staker can stake for\n    uint256 public totalSpankStaked; // the total SPANK staked across all stakers\n    bool public isClosed; // true if voteToClose has passed, allows early withdrawals\n\n    // ERC-20 BASED TOKEN WITH SOME ADDED PROPERTIES FOR HUMAN READABILITY\n    // https://github.com/ConsenSys/Tokens/blob/master/contracts/HumanStandardToken.sol\n    HumanStandardToken public spankToken;\n    MintAndBurnToken public bootyToken;\n\n    // LOOKUP TABLE FOR SPANKPOINTS BY PERIOD\n    // 1 -> 45%\n    // 2 -> 50%\n    // ...\n    // 12 -> 100%\n    mapping(uint256 => uint256) public pointsTable;\n\n    /*************************************\n    INTERAL ACCOUNTING\n    **************************************/\n    uint256 public currentPeriod = 0;\n\n    struct Staker {\n        uint256 spankStaked; // the amount of spank staked\n        uint256 startingPeriod; // the period this staker started staking\n        uint256 endingPeriod; // the period after which this stake expires\n        mapping(uint256 => uint256) spankPoints; // the spankPoints per period\n        mapping(uint256 => bool) didClaimBooty; // true if staker claimed BOOTY for that period\n        mapping(uint256 => bool) votedToClose; // true if staker voted to close for that period\n        address delegateKey; // address used to call checkIn and claimBooty\n        address bootyBase; // destination address to receive BOOTY\n    }\n\n    mapping(address => Staker) public stakers;\n\n    struct Period {\n        uint256 bootyFees; // the amount of BOOTY collected in fees\n        uint256 totalSpankPoints; // the total spankPoints of all stakers\n        uint256 bootyMinted; // the amount of BOOTY minted\n        bool mintingComplete; // true if BOOTY has already been minted for this period\n        uint256 startTime; // the starting unix timestamp in seconds\n        uint256 endTime; // the ending unix timestamp in seconds\n        uint256 closingVotes; // the total votes to close this period\n    }\n\n    mapping(uint256 => Period) public periods;\n\n    mapping(address => address) public stakerByDelegateKey;\n\n    modifier SpankBankIsOpen() {\n        require(isClosed == false);\n        _;\n    }\n\n    constructor (\n        uint256 _periodLength,\n        uint256 _maxPeriods,\n        address spankAddress,\n        uint256 initialBootySupply,\n        string bootyTokenName,\n        uint8 bootyDecimalUnits,\n        string bootySymbol\n    )   public {\n        periodLength = _periodLength;\n        maxPeriods = _maxPeriods;\n        spankToken = HumanStandardToken(spankAddress);\n        bootyToken = new MintAndBurnToken(bootyTokenName, bootyDecimalUnits, bootySymbol);\n        bootyToken.mint(this, initialBootySupply);\n\n        uint256 startTime = now;\n\n        periods[currentPeriod].startTime = startTime;\n        periods[currentPeriod].endTime = SafeMath.add(startTime, periodLength);\n\n        bootyToken.transfer(msg.sender, initialBootySupply);\n\n        // initialize points table\n        pointsTable[0] = 0;\n        pointsTable[1] = 45;\n        pointsTable[2] = 50;\n        pointsTable[3] = 55;\n        pointsTable[4] = 60;\n        pointsTable[5] = 65;\n        pointsTable[6] = 70;\n        pointsTable[7] = 75;\n        pointsTable[8] = 80;\n        pointsTable[9] = 85;\n        pointsTable[10] = 90;\n        pointsTable[11] = 95;\n        pointsTable[12] = 100;\n\n        emit SpankBankCreated(_periodLength, _maxPeriods, spankAddress, initialBootySupply, bootyTokenName, bootyDecimalUnits, bootySymbol);\n    }\n\n    // Used to create a new staking position - verifies that the caller is not staking\n    function stake(uint256 spankAmount, uint256 stakePeriods, address delegateKey, address bootyBase) SpankBankIsOpen public {\n        doStake(msg.sender, spankAmount, stakePeriods, delegateKey, bootyBase);\n    }\n\n    function doStake(address stakerAddress, uint256 spankAmount, uint256 stakePeriods, address delegateKey, address bootyBase) internal {\n        updatePeriod();\n        require(stakePeriods > 0 && stakePeriods <= maxPeriods, \"stake not between zero and maxPeriods\"); // stake 1-12 (max) periods\n        require(spankAmount > 0, \"stake is 0\"); // stake must be greater than 0\n\n        // the staker must not have an active staking position\n        require(stakers[stakerAddress].startingPeriod == 0, \"staker already exists\");\n\n        // transfer SPANK to this contract - assumes sender has already \"allowed\" the spankAmount\n        require(spankToken.transferFrom(stakerAddress, this, spankAmount));\n\n        stakers[stakerAddress] = Staker(spankAmount, currentPeriod + 1, currentPeriod + stakePeriods, delegateKey, bootyBase);\n\n        _updateNextPeriodPoints(stakerAddress, stakePeriods);\n\n        totalSpankStaked = SafeMath.add(totalSpankStaked, spankAmount);\n\n        require(delegateKey != address(0), \"delegateKey does not exist\");\n        require(bootyBase != address(0), \"bootyBase does not exist\");\n        require(stakerByDelegateKey[delegateKey] == address(0), \"delegateKey already used\");\n        stakerByDelegateKey[delegateKey] = stakerAddress;\n\n        emit StakeEvent(\n            stakerAddress,\n            currentPeriod + 1,\n            stakers[stakerAddress].spankPoints[currentPeriod + 1],\n            spankAmount,\n            stakePeriods\n        );\n    }\n\n    // Called during stake and checkIn, assumes those functions prevent duplicate calls\n    // for the same staker.\n    function _updateNextPeriodPoints(address stakerAddress, uint256 stakingPeriods) internal {\n        Staker storage staker = stakers[stakerAddress];\n\n        uint256 stakerPoints = SafeMath.div(SafeMath.mul(staker.spankStaked, pointsTable[stakingPeriods]), 100);\n\n        // add staker spankpoints to total spankpoints for the next period\n        uint256 totalPoints = periods[currentPeriod + 1].totalSpankPoints;\n        totalPoints = SafeMath.add(totalPoints, stakerPoints);\n        periods[currentPeriod + 1].totalSpankPoints = totalPoints;\n\n        staker.spankPoints[currentPeriod + 1] = stakerPoints;\n    }\n\n    function receiveApproval(address from, uint256 amount, address tokenContract, bytes extraData) SpankBankIsOpen public returns (bool success) {\n        address delegateKeyFromBytes = extraData.toAddress(12);\n        address bootyBaseFromBytes = extraData.toAddress(44);\n        uint256 periodFromBytes = extraData.toUint(64);\n\n        emit ReceiveApprovalEvent(from, tokenContract);\n\n        doStake(from, amount, periodFromBytes, delegateKeyFromBytes, bootyBaseFromBytes);\n        return true;\n    }\n\n    function sendFees(uint256 bootyAmount) SpankBankIsOpen public {\n        updatePeriod();\n\n        require(bootyAmount > 0, \"fee is zero\"); // fees must be greater than 0\n        require(bootyToken.transferFrom(msg.sender, this, bootyAmount));\n\n        bootyToken.burn(bootyAmount);\n\n        uint256 currentBootyFees = periods[currentPeriod].bootyFees;\n        currentBootyFees = SafeMath.add(bootyAmount, currentBootyFees);\n        periods[currentPeriod].bootyFees = currentBootyFees;\n\n        emit SendFeesEvent(msg.sender, bootyAmount);\n    }\n\n    function mintBooty() SpankBankIsOpen public {\n        updatePeriod();\n\n        // can't mint BOOTY during period 0 - would result in integer underflow\n        require(currentPeriod > 0, \"current period is zero\");\n\n        Period storage period = periods[currentPeriod - 1];\n        require(!period.mintingComplete, \"minting already complete\"); // cant mint BOOTY twice\n\n        period.mintingComplete = true;\n\n        uint256 targetBootySupply = SafeMath.mul(period.bootyFees, 20);\n        uint256 totalBootySupply = bootyToken.totalSupply();\n\n        if (targetBootySupply > totalBootySupply) {\n            uint256 bootyMinted = targetBootySupply - totalBootySupply;\n            bootyToken.mint(this, bootyMinted);\n            period.bootyMinted = bootyMinted;\n            emit MintBootyEvent(targetBootySupply, totalBootySupply);\n        }\n    }\n\n    // This will check the current time and update the current period accordingly\n    // - called from all write functions to ensure the period is always up to date before any writes\n    // - can also be called externally, but there isn't a good reason for why you would want to\n    // - the while loop protects against the edge case where we miss a period\n\n    function updatePeriod() public {\n        while (now >= periods[currentPeriod].endTime) {\n            Period memory prevPeriod = periods[currentPeriod];\n            currentPeriod += 1;\n            periods[currentPeriod].startTime = prevPeriod.endTime;\n            periods[currentPeriod].endTime = SafeMath.add(prevPeriod.endTime, periodLength);\n        }\n    }\n\n    // In order to receive Booty, each staker will have to check-in every period.\n    // This check-in will compute the spankPoints locally and globally for each staker.\n    function checkIn(uint256 updatedEndingPeriod) SpankBankIsOpen public {\n        updatePeriod();\n\n        address stakerAddress =  stakerByDelegateKey[msg.sender];\n\n        Staker storage staker = stakers[stakerAddress];\n\n        require(staker.spankStaked > 0, \"staker stake is zero\");\n        require(currentPeriod < staker.endingPeriod, \"staker expired\");\n        require(staker.spankPoints[currentPeriod+1] == 0, \"staker has points for next period\");\n\n        // If updatedEndingPeriod is 0, don't update the ending period\n        if (updatedEndingPeriod > 0) {\n            require(updatedEndingPeriod > staker.endingPeriod, \"updatedEndingPeriod less than or equal to staker endingPeriod\");\n            require(updatedEndingPeriod <= currentPeriod + maxPeriods, \"updatedEndingPeriod greater than currentPeriod and maxPeriods\");\n            staker.endingPeriod = updatedEndingPeriod;\n        }\n\n        uint256 stakePeriods = staker.endingPeriod - currentPeriod;\n\n        _updateNextPeriodPoints(stakerAddress, stakePeriods);\n\n        emit CheckInEvent(stakerAddress, currentPeriod + 1, staker.spankPoints[currentPeriod + 1], staker.endingPeriod);\n    }\n\n    function claimBooty(uint256 claimPeriod) public {\n        updatePeriod();\n\n        Period memory period = periods[claimPeriod];\n        require(period.mintingComplete, \"booty not minted\");\n\n        address stakerAddress = stakerByDelegateKey[msg.sender];\n\n        Staker storage staker = stakers[stakerAddress];\n\n        require(!staker.didClaimBooty[claimPeriod], \"staker already claimed\"); // can only claim booty once\n\n        uint256 stakerSpankPoints = staker.spankPoints[claimPeriod];\n        require(stakerSpankPoints > 0, \"staker has no points\"); // only stakers can claim\n\n        staker.didClaimBooty[claimPeriod] = true;\n\n        uint256 bootyMinted = period.bootyMinted;\n        uint256 totalSpankPoints = period.totalSpankPoints;\n\n        uint256 bootyOwed = SafeMath.div(SafeMath.mul(stakerSpankPoints, bootyMinted), totalSpankPoints);\n\n        require(bootyToken.transfer(staker.bootyBase, bootyOwed));\n\n        emit ClaimBootyEvent(stakerAddress, claimPeriod, bootyOwed);\n    }\n\n    function withdrawStake() public {\n        updatePeriod();\n\n        Staker storage staker = stakers[msg.sender];\n        require(staker.spankStaked > 0, \"staker has no stake\");\n\n        require(isClosed || currentPeriod > staker.endingPeriod, \"currentPeriod less than endingPeriod or spankbank closed\");\n\n        uint256 spankToWithdraw = staker.spankStaked;\n\n        totalSpankStaked = SafeMath.sub(totalSpankStaked, staker.spankStaked);\n        staker.spankStaked = 0;\n\n        spankToken.transfer(msg.sender, spankToWithdraw);\n\n        emit WithdrawStakeEvent(msg.sender, spankToWithdraw);\n    }\n\n    function splitStake(address newAddress, address newDelegateKey, address newBootyBase, uint256 spankAmount) public {\n        updatePeriod();\n\n        require(newAddress != address(0), \"newAddress is zero\");\n        require(newDelegateKey != address(0), \"delegateKey is zero\");\n        require(newBootyBase != address(0), \"bootyBase is zero\");\n        require(stakerByDelegateKey[newDelegateKey] == address(0), \"delegateKey in use\");\n\n        require(spankAmount > 0, \"spankAmount is zero\");\n\n        Staker storage staker = stakers[msg.sender];\n        require(currentPeriod < staker.endingPeriod, \"staker expired\");\n        require(spankAmount <= staker.spankStaked, \"spankAmount greater than stake\");\n        require(staker.spankPoints[currentPeriod+1] == 0, \"staker has points for next period\");\n\n        staker.spankStaked = SafeMath.sub(staker.spankStaked, spankAmount);\n\n        stakers[newAddress] = Staker(spankAmount, staker.startingPeriod, staker.endingPeriod, newDelegateKey, newBootyBase);\n\n        stakerByDelegateKey[newDelegateKey] = newAddress;\n\n        emit SplitStakeEvent(msg.sender, newAddress, newDelegateKey, newBootyBase, spankAmount);\n    }\n\n    function voteToClose() public {\n        updatePeriod();\n\n        Staker storage staker = stakers[msg.sender];\n\n        require(staker.spankStaked > 0, \"stake is zero\");\n        require(currentPeriod < staker.endingPeriod , \"staker expired\");\n        require(staker.votedToClose[currentPeriod] == false, \"stake already voted\");\n        require(isClosed == false, \"SpankBank already closed\");\n\n        uint256 closingVotes = periods[currentPeriod].closingVotes;\n        closingVotes = SafeMath.add(closingVotes, staker.spankStaked);\n        periods[currentPeriod].closingVotes = closingVotes;\n\n        staker.votedToClose[currentPeriod] = true;\n\n        uint256 closingTrigger = SafeMath.div(totalSpankStaked, 2);\n        if (closingVotes > closingTrigger) {\n            isClosed = true;\n        }\n\n        emit VoteToCloseEvent(msg.sender, currentPeriod);\n    }\n\n    function updateDelegateKey(address newDelegateKey) public {\n        require(newDelegateKey != address(0), \"delegateKey is zero\");\n        require(stakerByDelegateKey[newDelegateKey] == address(0), \"delegateKey already exists\");\n\n        Staker storage staker = stakers[msg.sender];\n        require(staker.startingPeriod > 0, \"staker starting period is zero\");\n\n        stakerByDelegateKey[staker.delegateKey] = address(0);\n        staker.delegateKey = newDelegateKey;\n        stakerByDelegateKey[newDelegateKey] = msg.sender;\n\n        emit UpdateDelegateKeyEvent(msg.sender);\n    }\n\n    function updateBootyBase(address newBootyBase) public {\n        Staker storage staker = stakers[msg.sender];\n        require(staker.startingPeriod > 0, \"staker starting period is zero\");\n\n        staker.bootyBase = newBootyBase;\n\n        emit UpdateBootyBaseEvent(msg.sender);\n    }\n\n    function getSpankPoints(address stakerAddress, uint256 period) public view returns (uint256)  {\n        return stakers[stakerAddress].spankPoints[period];\n    }\n\n    function getDidClaimBooty(address stakerAddress, uint256 period) public view returns (bool)  {\n        return stakers[stakerAddress].didClaimBooty[period];\n    }\n\n    function getVote(address stakerAddress, uint period) public view returns (bool) {\n        return stakers[stakerAddress].votedToClose[period];\n    }\n\n    function getStakerFromDelegateKey(address delegateAddress) public view returns (address) {\n        return stakerByDelegateKey[delegateAddress];\n    }\n}\n",
  "sourcePath": "/Users/lex/Repos/spankchain/spankbank/contracts/SpankBank.sol",
  "compiler": {
    "name": "solc",
    "version": "0.4.24+commit.e67f0147.Emscripten.clang"
  },
  "schemaVersion": "2.0.1",
  "updatedAt": "2018-08-29T21:46:11.373Z"
}