{
  "contractName": "SpankBank",
  "abi": [
    {
      "constant": true,
      "inputs": [],
      "name": "currentPeriod",
      "outputs": [
        {
          "name": "",
          "type": "uint256"
        }
      ],
      "payable": false,
      "stateMutability": "view",
      "type": "function"
    },
    {
      "constant": true,
      "inputs": [],
      "name": "bootyToken",
      "outputs": [
        {
          "name": "",
          "type": "address"
        }
      ],
      "payable": false,
      "stateMutability": "view",
      "type": "function"
    },
    {
      "constant": true,
      "inputs": [],
      "name": "maxPeriods",
      "outputs": [
        {
          "name": "",
          "type": "uint256"
        }
      ],
      "payable": false,
      "stateMutability": "view",
      "type": "function"
    },
    {
      "constant": true,
      "inputs": [],
      "name": "unwind",
      "outputs": [
        {
          "name": "",
          "type": "bool"
        }
      ],
      "payable": false,
      "stateMutability": "view",
      "type": "function"
    },
    {
      "constant": true,
      "inputs": [
        {
          "name": "",
          "type": "address"
        }
      ],
      "name": "stakers",
      "outputs": [
        {
          "name": "spankStaked",
          "type": "uint256"
        },
        {
          "name": "startingPeriod",
          "type": "uint256"
        },
        {
          "name": "endingPeriod",
          "type": "uint256"
        },
        {
          "name": "activityKey",
          "type": "address"
        },
        {
          "name": "bootyBase",
          "type": "address"
        }
      ],
      "payable": false,
      "stateMutability": "view",
      "type": "function"
    },
    {
      "constant": true,
      "inputs": [],
      "name": "spankToken",
      "outputs": [
        {
          "name": "",
          "type": "address"
        }
      ],
      "payable": false,
      "stateMutability": "view",
      "type": "function"
    },
    {
      "constant": true,
      "inputs": [
        {
          "name": "",
          "type": "address"
        }
      ],
      "name": "activityKeys",
      "outputs": [
        {
          "name": "stakerAddress",
          "type": "address"
        }
      ],
      "payable": false,
      "stateMutability": "view",
      "type": "function"
    },
    {
      "constant": true,
      "inputs": [],
      "name": "totalSpankStaked",
      "outputs": [
        {
          "name": "",
          "type": "uint256"
        }
      ],
      "payable": false,
      "stateMutability": "view",
      "type": "function"
    },
    {
      "constant": true,
      "inputs": [],
      "name": "periodLength",
      "outputs": [
        {
          "name": "",
          "type": "uint256"
        }
      ],
      "payable": false,
      "stateMutability": "view",
      "type": "function"
    },
    {
      "constant": true,
      "inputs": [],
      "name": "unwindPeriod",
      "outputs": [
        {
          "name": "",
          "type": "uint256"
        }
      ],
      "payable": false,
      "stateMutability": "view",
      "type": "function"
    },
    {
      "constant": true,
      "inputs": [],
      "name": "unwindVotes",
      "outputs": [
        {
          "name": "",
          "type": "uint256"
        }
      ],
      "payable": false,
      "stateMutability": "view",
      "type": "function"
    },
    {
      "constant": true,
      "inputs": [
        {
          "name": "",
          "type": "uint256"
        }
      ],
      "name": "periods",
      "outputs": [
        {
          "name": "bootyFees",
          "type": "uint256"
        },
        {
          "name": "totalSpankPoints",
          "type": "uint256"
        },
        {
          "name": "bootyMinted",
          "type": "uint256"
        },
        {
          "name": "mintingComplete",
          "type": "bool"
        },
        {
          "name": "startTime",
          "type": "uint256"
        },
        {
          "name": "endTime",
          "type": "uint256"
        }
      ],
      "payable": false,
      "stateMutability": "view",
      "type": "function"
    },
    {
      "inputs": [
        {
          "name": "_periodLength",
          "type": "uint256"
        },
        {
          "name": "_maxPeriods",
          "type": "uint256"
        },
        {
          "name": "spankAddress",
          "type": "address"
        },
        {
          "name": "initialBootySupply",
          "type": "uint256"
        }
      ],
      "payable": false,
      "stateMutability": "nonpayable",
      "type": "constructor"
    },
    {
      "anonymous": false,
      "inputs": [
        {
          "indexed": true,
          "name": "staker",
          "type": "address"
        },
        {
          "indexed": true,
          "name": "startPeriod",
          "type": "uint256"
        },
        {
          "indexed": true,
          "name": "endPeriod",
          "type": "uint256"
        },
        {
          "indexed": false,
          "name": "activityKey",
          "type": "address"
        },
        {
          "indexed": false,
          "name": "bootyBase",
          "type": "address"
        }
      ],
      "name": "StakeEvent",
      "type": "event"
    },
    {
      "anonymous": false,
      "inputs": [
        {
          "indexed": true,
          "name": "sender",
          "type": "address"
        },
        {
          "indexed": true,
          "name": "bootyAmount",
          "type": "uint256"
        },
        {
          "indexed": true,
          "name": "currentBootyFees",
          "type": "uint256"
        }
      ],
      "name": "SendFeesEvent",
      "type": "event"
    },
    {
      "anonymous": false,
      "inputs": [
        {
          "indexed": true,
          "name": "targetBootySupply",
          "type": "uint256"
        },
        {
          "indexed": true,
          "name": "totalBootySupply",
          "type": "uint256"
        },
        {
          "indexed": true,
          "name": "currentPeriod",
          "type": "uint256"
        }
      ],
      "name": "MintBootyEvent",
      "type": "event"
    },
    {
      "anonymous": false,
      "inputs": [
        {
          "indexed": true,
          "name": "staker",
          "type": "address"
        },
        {
          "indexed": true,
          "name": "updatedEndingPeriod",
          "type": "uint256"
        },
        {
          "indexed": true,
          "name": "currentPeriod",
          "type": "uint256"
        }
      ],
      "name": "CheckInEvent",
      "type": "event"
    },
    {
      "anonymous": false,
      "inputs": [
        {
          "indexed": true,
          "name": "staker",
          "type": "address"
        },
        {
          "indexed": true,
          "name": "period",
          "type": "uint256"
        },
        {
          "indexed": true,
          "name": "bootyOwed",
          "type": "uint256"
        },
        {
          "indexed": false,
          "name": "stakerSpankPoints",
          "type": "uint256"
        }
      ],
      "name": "ClaimBootyEvent",
      "type": "event"
    },
    {
      "anonymous": false,
      "inputs": [
        {
          "indexed": true,
          "name": "staker",
          "type": "address"
        },
        {
          "indexed": true,
          "name": "totalSpankStaked",
          "type": "uint256"
        },
        {
          "indexed": true,
          "name": "currentPeriod",
          "type": "uint256"
        }
      ],
      "name": "WithdrawStakeEvent",
      "type": "event"
    },
    {
      "anonymous": false,
      "inputs": [
        {
          "indexed": true,
          "name": "staker",
          "type": "address"
        },
        {
          "indexed": true,
          "name": "newAddress",
          "type": "address"
        },
        {
          "indexed": true,
          "name": "spankAmount",
          "type": "uint256"
        },
        {
          "indexed": false,
          "name": "currentPeriod",
          "type": "uint256"
        },
        {
          "indexed": false,
          "name": "startingPeriod",
          "type": "uint256"
        },
        {
          "indexed": false,
          "name": "endingPeriod",
          "type": "uint256"
        },
        {
          "indexed": false,
          "name": "activityKey",
          "type": "address"
        },
        {
          "indexed": false,
          "name": "bootyBase",
          "type": "address"
        }
      ],
      "name": "SplitStakeEvent",
      "type": "event"
    },
    {
      "anonymous": false,
      "inputs": [
        {
          "indexed": true,
          "name": "staker",
          "type": "address"
        },
        {
          "indexed": true,
          "name": "spankStaked",
          "type": "uint256"
        },
        {
          "indexed": true,
          "name": "unwind",
          "type": "bool"
        },
        {
          "indexed": false,
          "name": "currentPeriod",
          "type": "uint256"
        },
        {
          "indexed": false,
          "name": "totalSpankStaked",
          "type": "uint256"
        }
      ],
      "name": "VoteToUnwindEvent",
      "type": "event"
    },
    {
      "anonymous": false,
      "inputs": [
        {
          "indexed": true,
          "name": "staker",
          "type": "address"
        },
        {
          "indexed": true,
          "name": "newActivityKey",
          "type": "address"
        },
        {
          "indexed": true,
          "name": "currentPeriod",
          "type": "uint256"
        }
      ],
      "name": "UpdateActivityKeyEvent",
      "type": "event"
    },
    {
      "anonymous": false,
      "inputs": [
        {
          "indexed": true,
          "name": "staker",
          "type": "address"
        },
        {
          "indexed": true,
          "name": "newBootyBase",
          "type": "address"
        },
        {
          "indexed": true,
          "name": "currentPeriod",
          "type": "uint256"
        }
      ],
      "name": "UpdateBootyBaseEvent",
      "type": "event"
    },
    {
      "constant": false,
      "inputs": [
        {
          "name": "spankAmount",
          "type": "uint256"
        },
        {
          "name": "stakePeriods",
          "type": "uint256"
        },
        {
          "name": "activityKey",
          "type": "address"
        },
        {
          "name": "bootyBase",
          "type": "address"
        }
      ],
      "name": "stake",
      "outputs": [],
      "payable": false,
      "stateMutability": "nonpayable",
      "type": "function"
    },
    {
      "constant": true,
      "inputs": [
        {
          "name": "stakerAddress",
          "type": "address"
        },
        {
          "name": "period",
          "type": "uint256"
        }
      ],
      "name": "getSpankPoints",
      "outputs": [
        {
          "name": "",
          "type": "uint256"
        }
      ],
      "payable": false,
      "stateMutability": "view",
      "type": "function"
    },
    {
      "constant": true,
      "inputs": [
        {
          "name": "stakerAddress",
          "type": "address"
        },
        {
          "name": "period",
          "type": "uint256"
        }
      ],
      "name": "getDidClaimBooty",
      "outputs": [
        {
          "name": "",
          "type": "bool"
        }
      ],
      "payable": false,
      "stateMutability": "view",
      "type": "function"
    },
    {
      "constant": false,
      "inputs": [
        {
          "name": "bootyAmount",
          "type": "uint256"
        }
      ],
      "name": "sendFees",
      "outputs": [],
      "payable": false,
      "stateMutability": "nonpayable",
      "type": "function"
    },
    {
      "constant": false,
      "inputs": [],
      "name": "mintBooty",
      "outputs": [],
      "payable": false,
      "stateMutability": "nonpayable",
      "type": "function"
    },
    {
      "constant": false,
      "inputs": [],
      "name": "updatePeriod",
      "outputs": [],
      "payable": false,
      "stateMutability": "nonpayable",
      "type": "function"
    },
    {
      "constant": false,
      "inputs": [
        {
          "name": "updatedEndingPeriod",
          "type": "uint256"
        }
      ],
      "name": "checkIn",
      "outputs": [],
      "payable": false,
      "stateMutability": "nonpayable",
      "type": "function"
    },
    {
      "constant": false,
      "inputs": [
        {
          "name": "_period",
          "type": "uint256"
        }
      ],
      "name": "claimBooty",
      "outputs": [],
      "payable": false,
      "stateMutability": "nonpayable",
      "type": "function"
    },
    {
      "constant": false,
      "inputs": [],
      "name": "withdrawStake",
      "outputs": [],
      "payable": false,
      "stateMutability": "nonpayable",
      "type": "function"
    },
    {
      "constant": false,
      "inputs": [
        {
          "name": "newAddress",
          "type": "address"
        },
        {
          "name": "newActivityKey",
          "type": "address"
        },
        {
          "name": "newBootyBase",
          "type": "address"
        },
        {
          "name": "spankAmount",
          "type": "uint256"
        }
      ],
      "name": "splitStake",
      "outputs": [],
      "payable": false,
      "stateMutability": "nonpayable",
      "type": "function"
    },
    {
      "constant": false,
      "inputs": [],
      "name": "voteToUnwind",
      "outputs": [],
      "payable": false,
      "stateMutability": "nonpayable",
      "type": "function"
    },
    {
      "constant": false,
      "inputs": [
        {
          "name": "newActivityKey",
          "type": "address"
        }
      ],
      "name": "updateActivityKey",
      "outputs": [],
      "payable": false,
      "stateMutability": "nonpayable",
      "type": "function"
    },
    {
      "constant": false,
      "inputs": [
        {
          "name": "newBootyBase",
          "type": "address"
        }
      ],
      "name": "updateBootyBase",
      "outputs": [],
      "payable": false,
      "stateMutability": "nonpayable",
      "type": "function"
    }
  ],
  "bytecode": "0x608060405260006008553480156200001657600080fd5b5060405160808062005154833981018060405281019080805190602001909291908051906020019092919080519060200190929190805190602001909291905050506000846000819055508360018190555082600560016101000a81548173ffffffffffffffffffffffffffffffffffffffff021916908373ffffffffffffffffffffffffffffffffffffffff160217905550620000b3620004f2565b604051809103906000f080158015620000d0573d6000803e3d6000fd5b50600660006101000a81548173ffffffffffffffffffffffffffffffffffffffff021916908373ffffffffffffffffffffffffffffffffffffffff160217905550600660009054906101000a900473ffffffffffffffffffffffffffffffffffffffff1673ffffffffffffffffffffffffffffffffffffffff166340c10f1930846040518363ffffffff167c0100000000000000000000000000000000000000000000000000000000028152600401808373ffffffffffffffffffffffffffffffffffffffff1673ffffffffffffffffffffffffffffffffffffffff16815260200182815260200192505050602060405180830381600087803b158015620001d757600080fd5b505af1158015620001ec573d6000803e3d6000fd5b505050506040513d60208110156200020357600080fd5b81019080805190602001909291905050505042905080600a60006008548152602001908152602001600020600401819055506200025781600054620004d364010000000002620032d6176401000000009004565b600a6000600854815260200190815260200160002060050181905550600660009054906101000a900473ffffffffffffffffffffffffffffffffffffffff1673ffffffffffffffffffffffffffffffffffffffff1663a9059cbb33846040518363ffffffff167c0100000000000000000000000000000000000000000000000000000000028152600401808373ffffffffffffffffffffffffffffffffffffffff1673ffffffffffffffffffffffffffffffffffffffff16815260200182815260200192505050602060405180830381600087803b1580156200033957600080fd5b505af11580156200034e573d6000803e3d6000fd5b505050506040513d60208110156200036557600080fd5b81019080805190602001909291905050505060006007600080815260200190815260200160002081905550602d60076000600181526020019081526020016000208190555060326007600060028152602001908152602001600020819055506037600760006003815260200190815260200160002081905550603c60076000600481526020019081526020016000208190555060416007600060058152602001908152602001600020819055506046600760006006815260200190815260200160002081905550604b60076000600781526020019081526020016000208190555060506007600060088152602001908152602001600020819055506055600760006009815260200190815260200160002081905550605a60076000600a815260200190815260200160002081905550605f60076000600b815260200190815260200160002081905550606460076000600c815260200190815260200160002081905550505050505062000503565b6000808284019050838110151515620004e857fe5b8091505092915050565b6040516118cf806200388583390190565b61337280620005136000396000f300608060405260043610610149576000357c0100000000000000000000000000000000000000000000000000000000900463ffffffff168063060406181461014e57806340809acd146101795780634cfef220146101f057806350a9b541146102515780635155bafa146102a857806353547d3f146102d3578063807763ab146102ea5780639017e2dd146103195780639168ae721461033057806392f4d225146103fb578063948cfd0c146104525780639f80a85614610495578063a0ac5776146104d8578063a83627de14610505578063b8c0517a1461051c578063bed9d861146105a9578063cadecbf4146105c0578063cc741c9c14610643578063cd43ebf9146106a8578063d2ca2115146106d3578063ded217fb146106fe578063e8493e0c14610729578063e95a644f14610754578063ea4a110414610781578063ecd4eb74146107e9575b600080fd5b34801561015a57600080fd5b50610163610816565b6040518082815260200191505060405180910390f35b34801561018557600080fd5b506101ee6004803603810190808035906020019092919080359060200190929190803573ffffffffffffffffffffffffffffffffffffffff169060200190929190803573ffffffffffffffffffffffffffffffffffffffff16906020019092919050505061081c565b005b3480156101fc57600080fd5b5061023b600480360381019080803573ffffffffffffffffffffffffffffffffffffffff16906020019092919080359060200190929190505050611062565b6040518082815260200191505060405180910390f35b34801561025d57600080fd5b506102666110c0565b604051808273ffffffffffffffffffffffffffffffffffffffff1673ffffffffffffffffffffffffffffffffffffffff16815260200191505060405180910390f35b3480156102b457600080fd5b506102bd6110e6565b6040518082815260200191505060405180910390f35b3480156102df57600080fd5b506102e86110ec565b005b3480156102f657600080fd5b506102ff6113f2565b604051808215151515815260200191505060405180910390f35b34801561032557600080fd5b5061032e611405565b005b34801561033c57600080fd5b50610371600480360381019080803573ffffffffffffffffffffffffffffffffffffffff1690602001909291905050506116b5565b604051808681526020018581526020018481526020018373ffffffffffffffffffffffffffffffffffffffff1673ffffffffffffffffffffffffffffffffffffffff1681526020018273ffffffffffffffffffffffffffffffffffffffff1673ffffffffffffffffffffffffffffffffffffffff1681526020019550505050505060405180910390f35b34801561040757600080fd5b5061041061172b565b604051808273ffffffffffffffffffffffffffffffffffffffff1673ffffffffffffffffffffffffffffffffffffffff16815260200191505060405180910390f35b34801561045e57600080fd5b50610493600480360381019080803573ffffffffffffffffffffffffffffffffffffffff169060200190929190505050611751565b005b3480156104a157600080fd5b506104d6600480360381019080803573ffffffffffffffffffffffffffffffffffffffff16906020019092919050505061184b565b005b3480156104e457600080fd5b5061050360048036038101908080359060200190929190505050611ac4565b005b34801561051157600080fd5b5061051a611fd9565b005b34801561052857600080fd5b506105a7600480360381019080803573ffffffffffffffffffffffffffffffffffffffff169060200190929190803573ffffffffffffffffffffffffffffffffffffffff169060200190929190803573ffffffffffffffffffffffffffffffffffffffff169060200190929190803590602001909291905050506120d9565b005b3480156105b557600080fd5b506105be6126a7565b005b3480156105cc57600080fd5b50610601600480360381019080803573ffffffffffffffffffffffffffffffffffffffff169060200190929190505050612993565b604051808273ffffffffffffffffffffffffffffffffffffffff1673ffffffffffffffffffffffffffffffffffffffff16815260200191505060405180910390f35b34801561064f57600080fd5b5061068e600480360381019080803573ffffffffffffffffffffffffffffffffffffffff169060200190929190803590602001909291905050506129d1565b604051808215151515815260200191505060405180910390f35b3480156106b457600080fd5b506106bd612a3c565b6040518082815260200191505060405180910390f35b3480156106df57600080fd5b506106e8612a42565b6040518082815260200191505060405180910390f35b34801561070a57600080fd5b50610713612a48565b6040518082815260200191505060405180910390f35b34801561073557600080fd5b5061073e612a4e565b6040518082815260200191505060405180910390f35b34801561076057600080fd5b5061077f60048036038101908080359060200190929190505050612a54565b005b34801561078d57600080fd5b506107ac60048036038101908080359060200190929190505050612e72565b6040518087815260200186815260200185815260200184151515158152602001838152602001828152602001965050505050505060405180910390f35b3480156107f557600080fd5b5061081460048036038101908080359060200190929190505050612ebb565b005b60085481565b6000806000801515600560009054906101000a900460ff16151514151561084257600080fd5b61084a611fd9565b60008611801561085c57506001548611155b15156108f6576040517f08c379a000000000000000000000000000000000000000000000000000000000815260040180806020018281038252602e8152602001807f7374616b653a3a207374616b65206d757374206265206265747765656e20302081526020017f616e64206d6178506572696f647300000000000000000000000000000000000081525060400191505060405180910390fd5b600087111515610994576040517f08c379a00000000000000000000000000000000000000000000000000000000081526004018080602001828103825260298152602001807f7374616b653a3a7370616e6b416d6f756e74206d75737420626520677265617481526020017f6572207468616e2030000000000000000000000000000000000000000000000081525060400191505060405180910390fd5b6000600960003373ffffffffffffffffffffffffffffffffffffffff1673ffffffffffffffffffffffffffffffffffffffff16815260200190815260200160002060010154148015610a2857506000600960003373ffffffffffffffffffffffffffffffffffffffff1673ffffffffffffffffffffffffffffffffffffffff16815260200190815260200160002060020154145b1515610ac2576040517f08c379a00000000000000000000000000000000000000000000000000000000081526004018080602001828103825260308152602001807f7374616b653a3a7374617274696e67506572696f6420616e6420656e64696e6781526020017f506572696f64206d75737420626520300000000000000000000000000000000081525060400191505060405180910390fd5b600560019054906101000a900473ffffffffffffffffffffffffffffffffffffffff1673ffffffffffffffffffffffffffffffffffffffff166323b872dd33308a6040518463ffffffff167c0100000000000000000000000000000000000000000000000000000000028152600401808473ffffffffffffffffffffffffffffffffffffffff1673ffffffffffffffffffffffffffffffffffffffff1681526020018373ffffffffffffffffffffffffffffffffffffffff1673ffffffffffffffffffffffffffffffffffffffff1681526020018281526020019350505050602060405180830381600087803b158015610bbb57600080fd5b505af1158015610bcf573d6000803e3d6000fd5b505050506040513d6020811015610be557600080fd5b81019080805190602001909291905050501515610c90576040517f08c379a00000000000000000000000000000000000000000000000000000000081526004018080602001828103825260228152602001807f7374616b653a3a7370616e6b546f6b656e207472616e73666572206661696c7581526020017f726500000000000000000000000000000000000000000000000000000000000081525060400191505060405180910390fd5b610cb7610cb088600760008a815260200190815260200160002054613288565b60646132bb565b925060a0604051908101604052808881526020016001600854018152602001876008540181526020018673ffffffffffffffffffffffffffffffffffffffff1681526020018573ffffffffffffffffffffffffffffffffffffffff16815250600960003373ffffffffffffffffffffffffffffffffffffffff1673ffffffffffffffffffffffffffffffffffffffff16815260200190815260200160002060008201518160000155602082015181600101556040820151816002015560608201518160060160006101000a81548173ffffffffffffffffffffffffffffffffffffffff021916908373ffffffffffffffffffffffffffffffffffffffff16021790555060808201518160070160006101000a81548173ffffffffffffffffffffffffffffffffffffffff021916908373ffffffffffffffffffffffffffffffffffffffff16021790555090505082600960003373ffffffffffffffffffffffffffffffffffffffff1673ffffffffffffffffffffffffffffffffffffffff1681526020019081526020016000206003016000600160085401815260200190815260200160002081905550600a60006001600854018152602001908152602001600020600101549150610e8982846132d6565b915081600a6000600160085401815260200190815260200160002060010181905550610eb7600254886132d6565b600281905550600b60008673ffffffffffffffffffffffffffffffffffffffff1673ffffffffffffffffffffffffffffffffffffffff1681526020019081526020016000209050600073ffffffffffffffffffffffffffffffffffffffff168160000160009054906101000a900473ffffffffffffffffffffffffffffffffffffffff1673ffffffffffffffffffffffffffffffffffffffff16141515610f5d57600080fd5b338160000160006101000a81548173ffffffffffffffffffffffffffffffffffffffff021916908373ffffffffffffffffffffffffffffffffffffffff16021790555085600854016001600854013373ffffffffffffffffffffffffffffffffffffffff167f9c13c846ec75aea1a0e03d6594d9f3383d1e1e1e6f63a8c8f90b6c86aa7b79c98888604051808373ffffffffffffffffffffffffffffffffffffffff1673ffffffffffffffffffffffffffffffffffffffff1681526020018273ffffffffffffffffffffffffffffffffffffffff1673ffffffffffffffffffffffffffffffffffffffff1681526020019250505060405180910390a450505050505050565b6000600960008473ffffffffffffffffffffffffffffffffffffffff1673ffffffffffffffffffffffffffffffffffffffff168152602001908152602001600020600301600083815260200190815260200160002054905092915050565b600660009054906101000a900473ffffffffffffffffffffffffffffffffffffffff1681565b60015481565b60008060008060001515600560009054906101000a900460ff16151514151561111457600080fd5b61111c611fd9565b600a6000600160085403815260200190815260200160002093508360030160009054906101000a900460ff161515156111e3576040517f08c379a00000000000000000000000000000000000000000000000000000000081526004018080602001828103825260288152602001807f6d696e74426f6f74793a3a6d696e74696e67436f6d706c657465206d7573742081526020017f62652066616c736500000000000000000000000000000000000000000000000081525060400191505060405180910390fd5b60018460030160006101000a81548160ff02191690831515021790555061120f84600001546014613288565b9250600660009054906101000a900473ffffffffffffffffffffffffffffffffffffffff1673ffffffffffffffffffffffffffffffffffffffff166318160ddd6040518163ffffffff167c0100000000000000000000000000000000000000000000000000000000028152600401602060405180830381600087803b15801561129757600080fd5b505af11580156112ab573d6000803e3d6000fd5b505050506040513d60208110156112c157600080fd5b81019080805190602001909291905050509150818311156113ec578183039050600660009054906101000a900473ffffffffffffffffffffffffffffffffffffffff1673ffffffffffffffffffffffffffffffffffffffff166340c10f1930836040518363ffffffff167c0100000000000000000000000000000000000000000000000000000000028152600401808373ffffffffffffffffffffffffffffffffffffffff1673ffffffffffffffffffffffffffffffffffffffff16815260200182815260200192505050602060405180830381600087803b1580156113a657600080fd5b505af11580156113ba573d6000803e3d6000fd5b505050506040513d60208110156113d057600080fd5b8101908080519060200190929190505050508084600201819055505b50505050565b600560009054906101000a900460ff1681565b6000806000611412611fd9565b60001515600560009054906101000a900460ff16151514151561143457600080fd5b600b60003373ffffffffffffffffffffffffffffffffffffffff1673ffffffffffffffffffffffffffffffffffffffff16815260200190815260200160002060000160009054906101000a900473ffffffffffffffffffffffffffffffffffffffff169250600073ffffffffffffffffffffffffffffffffffffffff168373ffffffffffffffffffffffffffffffffffffffff16141515156114d557600080fd5b600960008473ffffffffffffffffffffffffffffffffffffffff1673ffffffffffffffffffffffffffffffffffffffff16815260200190815260200160002091506000826000015411151561152957600080fd5b60085482600201541015151561153e57600080fd5b60085460045414151561158d5760085460048190555060006003819055506000826005016000600854815260200190815260200160002060006101000a81548160ff0219169083151502179055505b60001515826005016000600854815260200190815260200160002060009054906101000a900460ff1615151415156115c457600080fd5b6001826005016000600854815260200190815260200160002060006101000a81548160ff02191690831515021790555061160460035483600001546132d6565b60038190555061161760025460026132bb565b905080600354111561163f576001600560006101000a81548160ff0219169083151502179055505b600560009054906101000a900460ff16151582600001548473ffffffffffffffffffffffffffffffffffffffff167f6181df612071041923f95401c4beba899f880201e8e81c6da20e1f574e0ce21f600854600254604051808381526020018281526020019250505060405180910390a4505050565b60096020528060005260406000206000915090508060000154908060010154908060020154908060060160009054906101000a900473ffffffffffffffffffffffffffffffffffffffff16908060070160009054906101000a900473ffffffffffffffffffffffffffffffffffffffff16905085565b600560019054906101000a900473ffffffffffffffffffffffffffffffffffffffff1681565b6000600960003373ffffffffffffffffffffffffffffffffffffffff1673ffffffffffffffffffffffffffffffffffffffff1681526020019081526020016000209050600081600001541115156117a757600080fd5b818160070160006101000a81548173ffffffffffffffffffffffffffffffffffffffff021916908373ffffffffffffffffffffffffffffffffffffffff1602179055506008548273ffffffffffffffffffffffffffffffffffffffff163373ffffffffffffffffffffffffffffffffffffffff167f5adf14c9b8806eee46c946f8629fb2d05cfdb3ec6870004cc8145e8fa8dfc9e660405160405180910390a45050565b6000806000600960003373ffffffffffffffffffffffffffffffffffffffff1673ffffffffffffffffffffffffffffffffffffffff1681526020019081526020016000209250600073ffffffffffffffffffffffffffffffffffffffff168360060160009054906101000a900473ffffffffffffffffffffffffffffffffffffffff1673ffffffffffffffffffffffffffffffffffffffff16141515156118f157600080fd5b838360060160006101000a81548173ffffffffffffffffffffffffffffffffffffffff021916908373ffffffffffffffffffffffffffffffffffffffff160217905550600b60008460060160009054906101000a900473ffffffffffffffffffffffffffffffffffffffff1673ffffffffffffffffffffffffffffffffffffffff1673ffffffffffffffffffffffffffffffffffffffff168152602001908152602001600020915060008260000160006101000a81548173ffffffffffffffffffffffffffffffffffffffff021916908373ffffffffffffffffffffffffffffffffffffffff160217905550600b60008573ffffffffffffffffffffffffffffffffffffffff1673ffffffffffffffffffffffffffffffffffffffff1681526020019081526020016000209050338160000160006101000a81548173ffffffffffffffffffffffffffffffffffffffff021916908373ffffffffffffffffffffffffffffffffffffffff1602179055506008548473ffffffffffffffffffffffffffffffffffffffff163373ffffffffffffffffffffffffffffffffffffffff167fa6e8688bef48c01074b1df5fba9beee4b8da987ac92ff7fc4353c6e70258d7ff60405160405180910390a450505050565b600080611acf61330d565b600080600080611add611fd9565b60085488101515611b7c576040517f08c379a00000000000000000000000000000000000000000000000000000000081526004018080602001828103825260338152602001807f636c61696d426f6f74793a3a5f706572696f64206d757374206265206c65737381526020017f207468616e2063757272656e74506572696f640000000000000000000000000081525060400191505060405180910390fd5b600b60003373ffffffffffffffffffffffffffffffffffffffff1673ffffffffffffffffffffffffffffffffffffffff16815260200190815260200160002060000160009054906101000a900473ffffffffffffffffffffffffffffffffffffffff169650600960008873ffffffffffffffffffffffffffffffffffffffff1673ffffffffffffffffffffffffffffffffffffffff168152602001908152602001600020955085600401600089815260200190815260200160002060009054906101000a900460ff16151515611ce0576040517f08c379a00000000000000000000000000000000000000000000000000000000081526004018080602001828103825260328152602001807f636c61696d426f6f74793a3a646964436c61696d426f6f747920666f7220706581526020017f72696f64206d7573742062652066616c7365000000000000000000000000000081525060400191505060405180910390fd5b60018660040160008a815260200190815260200160002060006101000a81548160ff021916908315150217905550600a600089815260200190815260200160002060c060405190810160405290816000820154815260200160018201548152602001600282015481526020016003820160009054906101000a900460ff1615151515815260200160048201548152602001600582015481525050945084604001519350846020015192506000831115611fcf57856003016000898152602001908152602001600020549150611dbe611db88386613288565b846132bb565b9050600660009054906101000a900473ffffffffffffffffffffffffffffffffffffffff1673ffffffffffffffffffffffffffffffffffffffff1663a9059cbb8760070160009054906101000a900473ffffffffffffffffffffffffffffffffffffffff16836040518363ffffffff167c0100000000000000000000000000000000000000000000000000000000028152600401808373ffffffffffffffffffffffffffffffffffffffff1673ffffffffffffffffffffffffffffffffffffffff16815260200182815260200192505050602060405180830381600087803b158015611ea957600080fd5b505af1158015611ebd573d6000803e3d6000fd5b505050506040513d6020811015611ed357600080fd5b81019080805190602001909291905050501515611f7e576040517f08c379a00000000000000000000000000000000000000000000000000000000081526004018080602001828103825260278152602001807f636c61696d426f6f74793a3a626f6f7479546f6b656e207472616e736665722081526020017f6661696c7572650000000000000000000000000000000000000000000000000081525060400191505060405180910390fd5b80888873ffffffffffffffffffffffffffffffffffffffff167fe1d1189cee6887b24b34b81f7035870bd447e9a987ed494343b936e029ea583c856040518082815260200191505060405180910390a45b5050505050505050565b611fe161330d565b5b600a6000600854815260200190815260200160002060050154421015156120d657600a6000600854815260200190815260200160002060c060405190810160405290816000820154815260200160018201548152602001600282015481526020016003820160009054906101000a900460ff1615151515815260200160048201548152602001600582015481525050905060016008600082825401925050819055508060a00151600a60006008548152602001908152602001600020600401819055506120b58160a001516000546132d6565b600a6000600854815260200190815260200160002060050181905550611fe2565b50565b6000806120e4611fd9565b600073ffffffffffffffffffffffffffffffffffffffff168673ffffffffffffffffffffffffffffffffffffffff16141515156121af576040517f08c379a00000000000000000000000000000000000000000000000000000000081526004018080602001828103825260318152602001807f73706c69745374616b653a3a6e657741646472657373206d757374206265206181526020017f206e6f6e2d7a65726f206164647265737300000000000000000000000000000081525060400191505060405180910390fd5b60008311151561224d576040517f08c379a000000000000000000000000000000000000000000000000000000000815260040180806020018281038252602e8152602001807f73706c69745374616b653a3a7370616e6b416d6f756e74206d7573742062652081526020017f67726561746572207468616e203000000000000000000000000000000000000081525060400191505060405180910390fd5b600960003373ffffffffffffffffffffffffffffffffffffffff1673ffffffffffffffffffffffffffffffffffffffff16815260200190815260200160002091508160020154600854101515612331576040517f08c379a00000000000000000000000000000000000000000000000000000000081526004018080602001828103825260338152602001807f63757272656e74506572696f64206d757374206265206c657373207468616e2081526020017f7374616b65722e656e64696e67506572696f640000000000000000000000000081525060400191505060405180910390fd5b816000015483111515156123d3576040517f08c379a000000000000000000000000000000000000000000000000000000000815260040180806020018281038252603c8152602001807f7370616e6b416d6f756e74206d757374206265206c657373207468616e206f7281526020017f20657175616c20746f207374616b65722e7370616e6b5374616b65640000000081525060400191505060405180910390fd5b6123e18260000154846132f4565b826000018190555060a06040519081016040528084815260200183600101548152602001836002015481526020018673ffffffffffffffffffffffffffffffffffffffff1681526020018573ffffffffffffffffffffffffffffffffffffffff16815250600960008873ffffffffffffffffffffffffffffffffffffffff1673ffffffffffffffffffffffffffffffffffffffff16815260200190815260200160002060008201518160000155602082015181600101556040820151816002015560608201518160060160006101000a81548173ffffffffffffffffffffffffffffffffffffffff021916908373ffffffffffffffffffffffffffffffffffffffff16021790555060808201518160070160006101000a81548173ffffffffffffffffffffffffffffffffffffffff021916908373ffffffffffffffffffffffffffffffffffffffff160217905550905050600b60008673ffffffffffffffffffffffffffffffffffffffff1673ffffffffffffffffffffffffffffffffffffffff1681526020019081526020016000209050858160000160006101000a81548173ffffffffffffffffffffffffffffffffffffffff021916908373ffffffffffffffffffffffffffffffffffffffff160217905550828673ffffffffffffffffffffffffffffffffffffffff163373ffffffffffffffffffffffffffffffffffffffff167f020ad122863f9d4606cd49b606d739363e29bde82d8674133d9232bc0f4e1110600854866001015487600201548b8b604051808681526020018581526020018481526020018373ffffffffffffffffffffffffffffffffffffffff1673ffffffffffffffffffffffffffffffffffffffff1681526020018273ffffffffffffffffffffffffffffffffffffffff1673ffffffffffffffffffffffffffffffffffffffff1681526020019550505050505060405180910390a4505050505050565b6000806126b2611fd9565b600b60003373ffffffffffffffffffffffffffffffffffffffff1673ffffffffffffffffffffffffffffffffffffffff16815260200190815260200160002060000160009054906101000a900473ffffffffffffffffffffffffffffffffffffffff169150600960008373ffffffffffffffffffffffffffffffffffffffff1673ffffffffffffffffffffffffffffffffffffffff16815260200190815260200160002090508060020154600854111515612821576040517f08c379a00000000000000000000000000000000000000000000000000000000081526004018080602001828103825260458152602001807f77697468647261775374616b653a3a63757272656e74506572696f64206d757381526020017f742062652067726561746572207468616e207374616b65722e656e64696e675081526020017f6572696f6400000000000000000000000000000000000000000000000000000081525060600191505060405180910390fd5b600560019054906101000a900473ffffffffffffffffffffffffffffffffffffffff1673ffffffffffffffffffffffffffffffffffffffff1663a9059cbb8383600001546040518363ffffffff167c0100000000000000000000000000000000000000000000000000000000028152600401808373ffffffffffffffffffffffffffffffffffffffff1673ffffffffffffffffffffffffffffffffffffffff16815260200182815260200192505050602060405180830381600087803b1580156128ea57600080fd5b505af11580156128fe573d6000803e3d6000fd5b505050506040513d602081101561291457600080fd5b81019080805190602001909291905050505061293660025482600001546132f4565b600281905550600081600001819055506008546002548373ffffffffffffffffffffffffffffffffffffffff167ff91cbf8dea09a94f0080cb927fb1d67eb5121d465abe58fadfd50165382961d860405160405180910390a45050565b600b6020528060005260406000206000915090508060000160009054906101000a900473ffffffffffffffffffffffffffffffffffffffff16905081565b6000600960008473ffffffffffffffffffffffffffffffffffffffff1673ffffffffffffffffffffffffffffffffffffffff168152602001908152602001600020600401600083815260200190815260200160002060009054906101000a900460ff16905092915050565b60025481565b60005481565b60045481565b60035481565b6000806000806000801515600560009054906101000a900460ff161515141515612a7d57600080fd5b612a85611fd9565b600b60003373ffffffffffffffffffffffffffffffffffffffff1673ffffffffffffffffffffffffffffffffffffffff16815260200190815260200160002060000160009054906101000a900473ffffffffffffffffffffffffffffffffffffffff169450600960008673ffffffffffffffffffffffffffffffffffffffff1673ffffffffffffffffffffffffffffffffffffffff16815260200190815260200160002093508360020154600854101515612b3f57600080fd5b6000861115612d825760085486111515612be7576040517f08c379a000000000000000000000000000000000000000000000000000000000815260040180806020018281038252603f8152602001807f636865636b496e3a3a75706461746564456e64696e67506572696f64206d757381526020017f742062652067726561746572207468616e2063757272656e74506572696f640081525060400191505060405180910390fd5b836002015486111515612cae576040517f08c379a00000000000000000000000000000000000000000000000000000000081526004018080602001828103825260458152602001807f636865636b496e3a3a75706461746564456e64696e67506572696f64206d757381526020017f742062652067726561746572207468616e207374616b65722e656e64696e675081526020017f6572696f6400000000000000000000000000000000000000000000000000000081525060600191505060405180910390fd5b600154600854018611151515612d78576040517f08c379a000000000000000000000000000000000000000000000000000000000815260040180806020018281038252604c8152602001807f75706461746564456e64696e67506572696f64206d757374206265206c65737381526020017f207468616e206f7220657175616c20746f2063757272656e74506572696f642081526020017f2b206d6178506572696f6473000000000000000000000000000000000000000081525060600191505060405180910390fd5b8584600201819055505b6008548460020154039250612db8612db185600001546007600087815260200190815260200160002054613288565b60646132bb565b915081846003016000600160085401815260200190815260200160002081905550600a60006001600854018152602001908152602001600020600101549050612e0181836132d6565b905080600a6000600160085401815260200190815260200160002060010181905550600854868673ffffffffffffffffffffffffffffffffffffffff167f455c1ec2de533b70dc801a34a71f427f49eab272a8ae032773d40899e546e89060405160405180910390a4505050505050565b600a6020528060005260406000206000915090508060000154908060010154908060020154908060030160009054906101000a900460ff16908060040154908060050154905086565b6000801515600560009054906101000a900460ff161515141515612ede57600080fd5b612ee6611fd9565b600082111515612f84576040517f08c379a00000000000000000000000000000000000000000000000000000000081526004018080602001828103825260258152602001807f73656e64466565733a3a66656573206d7573742062652067726561746572207481526020017f68616e203000000000000000000000000000000000000000000000000000000081525060400191505060405180910390fd5b600660009054906101000a900473ffffffffffffffffffffffffffffffffffffffff1673ffffffffffffffffffffffffffffffffffffffff166323b872dd3330856040518463ffffffff167c0100000000000000000000000000000000000000000000000000000000028152600401808473ffffffffffffffffffffffffffffffffffffffff1673ffffffffffffffffffffffffffffffffffffffff1681526020018373ffffffffffffffffffffffffffffffffffffffff1673ffffffffffffffffffffffffffffffffffffffff1681526020018281526020019350505050602060405180830381600087803b15801561307d57600080fd5b505af1158015613091573d6000803e3d6000fd5b505050506040513d60208110156130a757600080fd5b81019080805190602001909291905050501515613152576040517f08c379a00000000000000000000000000000000000000000000000000000000081526004018080602001828103825260248152602001807f73656e64466565733a3a626f6f7479546f6b656e207472616e7366657220666181526020017f696c65640000000000000000000000000000000000000000000000000000000081525060400191505060405180910390fd5b600660009054906101000a900473ffffffffffffffffffffffffffffffffffffffff1673ffffffffffffffffffffffffffffffffffffffff166342966c68836040518263ffffffff167c010000000000000000000000000000000000000000000000000000000002815260040180828152602001915050600060405180830381600087803b1580156131e357600080fd5b505af11580156131f7573d6000803e3d6000fd5b50505050600a6000600854815260200190815260200160002060000154905061322082826132d6565b905080600a600060085481526020019081526020016000206000018190555080823373ffffffffffffffffffffffffffffffffffffffff167f25ff5f7e1c06929c6e3964f0ddde60bc47b581c30806cff0257a599b78cda3c560405160405180910390a45050565b600080828402905060008414806132a957508284828115156132a657fe5b04145b15156132b157fe5b8091505092915050565b60008082848115156132c957fe5b0490508091505092915050565b60008082840190508381101515156132ea57fe5b8091505092915050565b600082821115151561330257fe5b818303905092915050565b60c060405190810160405280600081526020016000815260200160008152602001600015158152602001600081526020016000815250905600a165627a7a723058200dc716ab1b8cd4b8ca2c21457c353b85150a22df822f810bfce31476ed5dd2dc002960806040526000600360146101000a81548160ff02191690831515021790555033600360006101000a81548173ffffffffffffffffffffffffffffffffffffffff021916908373ffffffffffffffffffffffffffffffffffffffff1602179055506118608061006f6000396000f3006080604052600436106100d0576000357c0100000000000000000000000000000000000000000000000000000000900463ffffffff16806305d2035b146100d5578063095ea7b31461010457806318160ddd1461016957806323b872dd1461019457806340c10f191461021957806342966c681461027e57806366188463146102ab57806370a08231146103105780637d64bcb4146103675780638da5cb5b14610396578063a9059cbb146103ed578063d73dd62314610452578063dd62ed3e146104b7578063f2fde38b1461052e575b600080fd5b3480156100e157600080fd5b506100ea610571565b604051808215151515815260200191505060405180910390f35b34801561011057600080fd5b5061014f600480360381019080803573ffffffffffffffffffffffffffffffffffffffff16906020019092919080359060200190929190505050610584565b604051808215151515815260200191505060405180910390f35b34801561017557600080fd5b5061017e610676565b6040518082815260200191505060405180910390f35b3480156101a057600080fd5b506101ff600480360381019080803573ffffffffffffffffffffffffffffffffffffffff169060200190929190803573ffffffffffffffffffffffffffffffffffffffff16906020019092919080359060200190929190505050610680565b604051808215151515815260200191505060405180910390f35b34801561022557600080fd5b50610264600480360381019080803573ffffffffffffffffffffffffffffffffffffffff16906020019092919080359060200190929190505050610a3a565b604051808215151515815260200191505060405180910390f35b34801561028a57600080fd5b506102a960048036038101908080359060200190929190505050610c20565b005b3480156102b757600080fd5b506102f6600480360381019080803573ffffffffffffffffffffffffffffffffffffffff16906020019092919080359060200190929190505050610c89565b604051808215151515815260200191505060405180910390f35b34801561031c57600080fd5b50610351600480360381019080803573ffffffffffffffffffffffffffffffffffffffff169060200190929190505050610f1a565b6040518082815260200191505060405180910390f35b34801561037357600080fd5b5061037c610f62565b604051808215151515815260200191505060405180910390f35b3480156103a257600080fd5b506103ab61102a565b604051808273ffffffffffffffffffffffffffffffffffffffff1673ffffffffffffffffffffffffffffffffffffffff16815260200191505060405180910390f35b3480156103f957600080fd5b50610438600480360381019080803573ffffffffffffffffffffffffffffffffffffffff16906020019092919080359060200190929190505050611050565b604051808215151515815260200191505060405180910390f35b34801561045e57600080fd5b5061049d600480360381019080803573ffffffffffffffffffffffffffffffffffffffff1690602001909291908035906020019092919050505061126f565b604051808215151515815260200191505060405180910390f35b3480156104c357600080fd5b50610518600480360381019080803573ffffffffffffffffffffffffffffffffffffffff169060200190929190803573ffffffffffffffffffffffffffffffffffffffff16906020019092919050505061146b565b6040518082815260200191505060405180910390f35b34801561053a57600080fd5b5061056f600480360381019080803573ffffffffffffffffffffffffffffffffffffffff1690602001909291905050506114f2565b005b600360149054906101000a900460ff1681565b600081600260003373ffffffffffffffffffffffffffffffffffffffff1673ffffffffffffffffffffffffffffffffffffffff16815260200190815260200160002060008573ffffffffffffffffffffffffffffffffffffffff1673ffffffffffffffffffffffffffffffffffffffff168152602001908152602001600020819055508273ffffffffffffffffffffffffffffffffffffffff163373ffffffffffffffffffffffffffffffffffffffff167f8c5be1e5ebec7d5bd14f71427d1e84f3dd0314c0f7b2291e5b200ac8c7c3b925846040518082815260200191505060405180910390a36001905092915050565b6000600154905090565b60008073ffffffffffffffffffffffffffffffffffffffff168373ffffffffffffffffffffffffffffffffffffffff16141515156106bd57600080fd5b6000808573ffffffffffffffffffffffffffffffffffffffff1673ffffffffffffffffffffffffffffffffffffffff16815260200190815260200160002054821115151561070a57600080fd5b600260008573ffffffffffffffffffffffffffffffffffffffff1673ffffffffffffffffffffffffffffffffffffffff16815260200190815260200160002060003373ffffffffffffffffffffffffffffffffffffffff1673ffffffffffffffffffffffffffffffffffffffff16815260200190815260200160002054821115151561079557600080fd5b6107e6826000808773ffffffffffffffffffffffffffffffffffffffff1673ffffffffffffffffffffffffffffffffffffffff1681526020019081526020016000205461164a90919063ffffffff16565b6000808673ffffffffffffffffffffffffffffffffffffffff1673ffffffffffffffffffffffffffffffffffffffff16815260200190815260200160002081905550610879826000808673ffffffffffffffffffffffffffffffffffffffff1673ffffffffffffffffffffffffffffffffffffffff1681526020019081526020016000205461166390919063ffffffff16565b6000808573ffffffffffffffffffffffffffffffffffffffff1673ffffffffffffffffffffffffffffffffffffffff1681526020019081526020016000208190555061094a82600260008773ffffffffffffffffffffffffffffffffffffffff1673ffffffffffffffffffffffffffffffffffffffff16815260200190815260200160002060003373ffffffffffffffffffffffffffffffffffffffff1673ffffffffffffffffffffffffffffffffffffffff1681526020019081526020016000205461164a90919063ffffffff16565b600260008673ffffffffffffffffffffffffffffffffffffffff1673ffffffffffffffffffffffffffffffffffffffff16815260200190815260200160002060003373ffffffffffffffffffffffffffffffffffffffff1673ffffffffffffffffffffffffffffffffffffffff168152602001908152602001600020819055508273ffffffffffffffffffffffffffffffffffffffff168473ffffffffffffffffffffffffffffffffffffffff167fddf252ad1be2c89b69c2b068fc378daa952ba7f163c4a11628f55a4df523b3ef846040518082815260200191505060405180910390a3600190509392505050565b6000600360009054906101000a900473ffffffffffffffffffffffffffffffffffffffff1673ffffffffffffffffffffffffffffffffffffffff163373ffffffffffffffffffffffffffffffffffffffff16141515610a9857600080fd5b600360149054906101000a900460ff16151515610ab457600080fd5b610ac98260015461166390919063ffffffff16565b600181905550610b20826000808673ffffffffffffffffffffffffffffffffffffffff1673ffffffffffffffffffffffffffffffffffffffff1681526020019081526020016000205461166390919063ffffffff16565b6000808573ffffffffffffffffffffffffffffffffffffffff1673ffffffffffffffffffffffffffffffffffffffff168152602001908152602001600020819055508273ffffffffffffffffffffffffffffffffffffffff167f0f6798a560793a54c3bcfe86a93cde1e73087d944c0ea20544137d4121396885836040518082815260200191505060405180910390a28273ffffffffffffffffffffffffffffffffffffffff16600073ffffffffffffffffffffffffffffffffffffffff167fddf252ad1be2c89b69c2b068fc378daa952ba7f163c4a11628f55a4df523b3ef846040518082815260200191505060405180910390a36001905092915050565b600360009054906101000a900473ffffffffffffffffffffffffffffffffffffffff1673ffffffffffffffffffffffffffffffffffffffff163373ffffffffffffffffffffffffffffffffffffffff16141515610c7c57600080fd5b610c863382611681565b50565b600080600260003373ffffffffffffffffffffffffffffffffffffffff1673ffffffffffffffffffffffffffffffffffffffff16815260200190815260200160002060008573ffffffffffffffffffffffffffffffffffffffff1673ffffffffffffffffffffffffffffffffffffffff16815260200190815260200160002054905080831115610d9a576000600260003373ffffffffffffffffffffffffffffffffffffffff1673ffffffffffffffffffffffffffffffffffffffff16815260200190815260200160002060008673ffffffffffffffffffffffffffffffffffffffff1673ffffffffffffffffffffffffffffffffffffffff16815260200190815260200160002081905550610e2e565b610dad838261164a90919063ffffffff16565b600260003373ffffffffffffffffffffffffffffffffffffffff1673ffffffffffffffffffffffffffffffffffffffff16815260200190815260200160002060008673ffffffffffffffffffffffffffffffffffffffff1673ffffffffffffffffffffffffffffffffffffffff168152602001908152602001600020819055505b8373ffffffffffffffffffffffffffffffffffffffff163373ffffffffffffffffffffffffffffffffffffffff167f8c5be1e5ebec7d5bd14f71427d1e84f3dd0314c0f7b2291e5b200ac8c7c3b925600260003373ffffffffffffffffffffffffffffffffffffffff1673ffffffffffffffffffffffffffffffffffffffff16815260200190815260200160002060008873ffffffffffffffffffffffffffffffffffffffff1673ffffffffffffffffffffffffffffffffffffffff168152602001908152602001600020546040518082815260200191505060405180910390a3600191505092915050565b60008060008373ffffffffffffffffffffffffffffffffffffffff1673ffffffffffffffffffffffffffffffffffffffff168152602001908152602001600020549050919050565b6000600360009054906101000a900473ffffffffffffffffffffffffffffffffffffffff1673ffffffffffffffffffffffffffffffffffffffff163373ffffffffffffffffffffffffffffffffffffffff16141515610fc057600080fd5b600360149054906101000a900460ff16151515610fdc57600080fd5b6001600360146101000a81548160ff0219169083151502179055507fae5184fba832cb2b1f702aca6117b8d265eaf03ad33eb133f19dde0f5920fa0860405160405180910390a16001905090565b600360009054906101000a900473ffffffffffffffffffffffffffffffffffffffff1681565b60008073ffffffffffffffffffffffffffffffffffffffff168373ffffffffffffffffffffffffffffffffffffffff161415151561108d57600080fd5b6000803373ffffffffffffffffffffffffffffffffffffffff1673ffffffffffffffffffffffffffffffffffffffff1681526020019081526020016000205482111515156110da57600080fd5b61112b826000803373ffffffffffffffffffffffffffffffffffffffff1673ffffffffffffffffffffffffffffffffffffffff1681526020019081526020016000205461164a90919063ffffffff16565b6000803373ffffffffffffffffffffffffffffffffffffffff1673ffffffffffffffffffffffffffffffffffffffff168152602001908152602001600020819055506111be826000808673ffffffffffffffffffffffffffffffffffffffff1673ffffffffffffffffffffffffffffffffffffffff1681526020019081526020016000205461166390919063ffffffff16565b6000808573ffffffffffffffffffffffffffffffffffffffff1673ffffffffffffffffffffffffffffffffffffffff168152602001908152602001600020819055508273ffffffffffffffffffffffffffffffffffffffff163373ffffffffffffffffffffffffffffffffffffffff167fddf252ad1be2c89b69c2b068fc378daa952ba7f163c4a11628f55a4df523b3ef846040518082815260200191505060405180910390a36001905092915050565b600061130082600260003373ffffffffffffffffffffffffffffffffffffffff1673ffffffffffffffffffffffffffffffffffffffff16815260200190815260200160002060008673ffffffffffffffffffffffffffffffffffffffff1673ffffffffffffffffffffffffffffffffffffffff1681526020019081526020016000205461166390919063ffffffff16565b600260003373ffffffffffffffffffffffffffffffffffffffff1673ffffffffffffffffffffffffffffffffffffffff16815260200190815260200160002060008573ffffffffffffffffffffffffffffffffffffffff1673ffffffffffffffffffffffffffffffffffffffff168152602001908152602001600020819055508273ffffffffffffffffffffffffffffffffffffffff163373ffffffffffffffffffffffffffffffffffffffff167f8c5be1e5ebec7d5bd14f71427d1e84f3dd0314c0f7b2291e5b200ac8c7c3b925600260003373ffffffffffffffffffffffffffffffffffffffff1673ffffffffffffffffffffffffffffffffffffffff16815260200190815260200160002060008773ffffffffffffffffffffffffffffffffffffffff1673ffffffffffffffffffffffffffffffffffffffff168152602001908152602001600020546040518082815260200191505060405180910390a36001905092915050565b6000600260008473ffffffffffffffffffffffffffffffffffffffff1673ffffffffffffffffffffffffffffffffffffffff16815260200190815260200160002060008373ffffffffffffffffffffffffffffffffffffffff1673ffffffffffffffffffffffffffffffffffffffff16815260200190815260200160002054905092915050565b600360009054906101000a900473ffffffffffffffffffffffffffffffffffffffff1673ffffffffffffffffffffffffffffffffffffffff163373ffffffffffffffffffffffffffffffffffffffff1614151561154e57600080fd5b600073ffffffffffffffffffffffffffffffffffffffff168173ffffffffffffffffffffffffffffffffffffffff161415151561158a57600080fd5b8073ffffffffffffffffffffffffffffffffffffffff16600360009054906101000a900473ffffffffffffffffffffffffffffffffffffffff1673ffffffffffffffffffffffffffffffffffffffff167f8be0079c531659141344cd1fd0a4f28419497f9722a3daafe3b4186f6b6457e060405160405180910390a380600360006101000a81548173ffffffffffffffffffffffffffffffffffffffff021916908373ffffffffffffffffffffffffffffffffffffffff16021790555050565b600082821115151561165857fe5b818303905092915050565b600080828401905083811015151561167757fe5b8091505092915050565b6000808373ffffffffffffffffffffffffffffffffffffffff1673ffffffffffffffffffffffffffffffffffffffff1681526020019081526020016000205481111515156116ce57600080fd5b61171f816000808573ffffffffffffffffffffffffffffffffffffffff1673ffffffffffffffffffffffffffffffffffffffff1681526020019081526020016000205461164a90919063ffffffff16565b6000808473ffffffffffffffffffffffffffffffffffffffff1673ffffffffffffffffffffffffffffffffffffffff168152602001908152602001600020819055506117768160015461164a90919063ffffffff16565b6001819055508173ffffffffffffffffffffffffffffffffffffffff167fcc16f5dbb4873280815c1ee09dbd06736cffcc184412cf7a71a0fdb75d397ca5826040518082815260200191505060405180910390a2600073ffffffffffffffffffffffffffffffffffffffff168273ffffffffffffffffffffffffffffffffffffffff167fddf252ad1be2c89b69c2b068fc378daa952ba7f163c4a11628f55a4df523b3ef836040518082815260200191505060405180910390a350505600a165627a7a72305820d4aa7f9002bd9f4afbaf2a7b0dc35a768a01a64cee13ea2f890afee120b25f270029",
  "source": "pragma solidity 0.4.24;\nimport {SafeMath} from \"./SafeMath.sol\";\nimport {HumanStandardToken} from \"./HumanStandardToken.sol\";\nimport {MintableToken} from \"./MintableToken.sol\";\n\ncontract SpankBank {\n\n    event StakeEvent(\n        address indexed staker,\n        uint indexed startPeriod,\n        uint indexed endPeriod,\n        address activityKey,\n        address bootyBase\n    );\n    \n    event SendFeesEvent (\n        address indexed sender,\n        uint indexed bootyAmount,\n        uint indexed currentBootyFees\n    );\n\n    event MintBootyEvent (\n        uint indexed targetBootySupply,\n        uint indexed totalBootySupply,\n        uint indexed currentPeriod\n    );\n\n    event CheckInEvent (\n        address indexed staker,\n        uint indexed updatedEndingPeriod,\n        uint indexed currentPeriod\n    );\n\n    event ClaimBootyEvent (\n        address indexed staker,\n        uint indexed period,\n        uint indexed bootyOwed,\n        uint stakerSpankPoints\n    );\n\n    event WithdrawStakeEvent (\n        address indexed staker,\n        uint indexed totalSpankStaked,\n        uint indexed currentPeriod\n        \n    );\n\n    event SplitStakeEvent (\n        address indexed staker,\n        address indexed newAddress,\n        uint indexed spankAmount,\n        uint currentPeriod,\n        uint startingPeriod,\n        uint endingPeriod,\n        address activityKey,\n        address bootyBase\n    );\n\n    event VoteToUnwindEvent (\n        address indexed staker,\n        uint indexed spankStaked,\n        bool indexed unwind,\n        uint currentPeriod,\n        uint totalSpankStaked\n    );\n\n    event UpdateActivityKeyEvent (\n        address indexed staker,\n        address indexed newActivityKey,\n        uint indexed currentPeriod\n    );\n\n    event UpdateBootyBaseEvent (\n        address indexed staker,\n        address indexed newBootyBase,\n        uint indexed currentPeriod\n    );\n\n    /***********************************\n    VARIABLES SET AT CONTRACT DEPLOYMENT\n    ************************************/\n    // GLOBAL CONSTANT VARIABLES\n    uint256 public periodLength; // time length of each period in seconds\n    uint256 public maxPeriods;\n    uint256 public totalSpankStaked;\n    uint256 public unwindVotes;\n    uint256 public unwindPeriod;\n    bool public unwind;\n\n    // ERC-20 BASED TOKEN WITH SOME ADDED PROPERTIES FOR HUMAN READABILITY\n    // https://github.com/ConsenSys/Tokens/blob/master/contracts/HumanStandardToken.sol\n    HumanStandardToken public spankToken;\n    MintableToken public bootyToken;\n\n    // LOOKUP TABLE FOR SPANKPOINTS BY PERIOD\n    // 1 -> 45%\n    // 2 -> 50%\n    // ...\n    // 12 -> 100%\n    mapping(uint256 => uint256) pointsTable;\n\n    /*************************************\n    INTERAL ACCOUNTING\n    **************************************/\n    uint256 public currentPeriod = 0;\n\n    struct Staker {\n        uint256 spankStaked; // the amount of spank staked\n        uint256 startingPeriod; // the period this staker started staking\n        uint256 endingPeriod; // the period after which this stake expires\n        mapping(uint256 => uint256) spankPoints; // the spankPoints per period\n        mapping(uint256 => bool) didClaimBooty; // true if staker claimed BOOTY for that period\n        mapping(uint256 => bool) votedToUnwind; // true if voter voted \n        address activityKey;\n        address bootyBase;\n    }\n\n    mapping(address => Staker) public stakers;\n\n    struct Period {\n        uint256 bootyFees; // the amount of BOOTY collected in fees\n        uint256 totalSpankPoints; // the total spankPoints of all stakers\n        uint256 bootyMinted; // the amount of BOOTY minted\n        bool mintingComplete; // true if BOOTY has already been minted for this period\n        uint256 startTime; // the starting unix timestamp in seconds\n        uint256 endTime; // the ending unix timestamp in seconds\n    }\n\n    mapping(uint256 => Period) public periods;\n\n    struct ActivityKey {\n        address stakerAddress;\n    }\n\n    mapping(address => ActivityKey) public activityKeys;\n\n    modifier active() {\n      require(unwind == false);\n      _;\n    }\n\n    constructor (\n        uint256 _periodLength,\n        uint256 _maxPeriods,\n        address spankAddress,\n        uint256 initialBootySupply\n    )   public {\n        periodLength = _periodLength;\n        maxPeriods = _maxPeriods;\n        spankToken = HumanStandardToken(spankAddress);\n        bootyToken = new MintableToken();\n        bootyToken.mint(this, initialBootySupply);\n\n        uint256 startTime = now;\n\n        periods[currentPeriod].startTime = startTime;\n        periods[currentPeriod].endTime = SafeMath.add(startTime, periodLength);\n\n        bootyToken.transfer(msg.sender, initialBootySupply);\n\n        // initialize points table\n        pointsTable[0] = 0;\n        pointsTable[1] = 45;\n        pointsTable[2] = 50;\n        pointsTable[3] = 55;\n        pointsTable[4] = 60;\n        pointsTable[5] = 65;\n        pointsTable[6] = 70;\n        pointsTable[7] = 75;\n        pointsTable[8] = 80;\n        pointsTable[9] = 85;\n        pointsTable[10] = 90;\n        pointsTable[11] = 95;\n        pointsTable[12] = 100;\n    }\n\n    // Used to create a new staking position - verifies that the caller is not staking\n    function stake(uint256 spankAmount, uint256 stakePeriods, address activityKey, address bootyBase) active public {\n        updatePeriod();\n\n        require(stakePeriods > 0 && stakePeriods <= maxPeriods, \"stake:: stake must be between 0 and maxPeriods\"); // stake 1-12 (max) periods\n        require(spankAmount > 0, \"stake::spankAmount must be greater than 0\"); // stake must be greater than 0\n\n        // the msg.sender must not have an active staking position\n        // TODO checking that endingPeriod == 0 should cover all periods\n        require(stakers[msg.sender].startingPeriod == 0 && stakers[msg.sender].endingPeriod == 0, \"stake::startingPeriod and endingPeriod must be 0\");\n\n        // transfer SPANK to this contract - assumes sender has already \"allowed\" the spankAmount\n        require(spankToken.transferFrom(msg.sender, this, spankAmount),\"stake::spankToken transfer failure\");\n\n        // The spankAmount of spankPoints the user will have during the next staking period\n        // TODO the division is unnecessary - we're only dividing by the total\n        uint256 nextSpankPoints = SafeMath.div( SafeMath.mul(spankAmount, pointsTable[stakePeriods]), 100 );\n\n        stakers[msg.sender] = Staker(spankAmount, currentPeriod + 1, currentPeriod + stakePeriods, activityKey, bootyBase);\n\n        stakers[msg.sender].spankPoints[currentPeriod + 1] = nextSpankPoints;\n\n        uint256 nextTotalSpankPoints = periods[currentPeriod + 1].totalSpankPoints;\n        nextTotalSpankPoints = SafeMath.add(nextTotalSpankPoints, nextSpankPoints);\n        periods[currentPeriod + 1].totalSpankPoints = nextTotalSpankPoints;\n\n        totalSpankStaked = SafeMath.add(totalSpankStaked, spankAmount);\n\n        ActivityKey storage newActivityKey = activityKeys[activityKey];\n        require(newActivityKey.stakerAddress == address(0));\n        newActivityKey.stakerAddress = msg.sender;\n\n        emit StakeEvent(msg.sender, currentPeriod + 1, currentPeriod + stakePeriods, activityKey, bootyBase);\n    }\n\n    function getSpankPoints(address stakerAddress, uint256 period) public view returns (uint256)  {\n        return stakers[stakerAddress].spankPoints[period];\n    }\n\n    function getDidClaimBooty(address stakerAddress, uint256 period) public view returns (bool)  {\n        return stakers[stakerAddress].didClaimBooty[period];\n    }\n\n    // user will be able to add more SPANK to their stake and / or extend it\n    // function updateStake(uint256 amount, uint256 periods) {}\n\n    // 1. Anyone calls the mint function, which generates all the new booty for that period\n    //  - what if no one calls mint? the booty supply will be lower for the next round\n    //  - more booty will be created later to compensate (not really a bid deal)\n    // 2. Stakers can withdraw their minted BOOTY\n\n    // Do the fees get calculated for the current period or the next one? Current\n    // Does the minting depends on current stake or next?\n    // If I start staking at 10.5, my stake will only matter for 11, and the BOOTY generated after 11 will be based on the fees paid during 11, and can only be collected after 11 is done\n\n    function sendFees(uint256 bootyAmount) active public {\n        updatePeriod();\n\n        require(bootyAmount > 0, \"sendFees::fees must be greater than 0\"); // fees must be greater than 0\n        require(bootyToken.transferFrom(msg.sender, this, bootyAmount), \"sendFees::bootyToken transfer failed\");\n\n        bootyToken.burn(bootyAmount);\n\n        uint256 currentBootyFees = periods[currentPeriod].bootyFees;\n        currentBootyFees = SafeMath.add(bootyAmount, currentBootyFees);\n        periods[currentPeriod].bootyFees = currentBootyFees;\n\n        emit SendFeesEvent(msg.sender, bootyAmount, currentBootyFees);\n    }\n\n    function mintBooty() active public {\n        updatePeriod();\n\n        Period storage period = periods[currentPeriod - 1];\n        require(!period.mintingComplete, \"mintBooty::mintingComplete must be false\"); // cant mint BOOTY twice\n\n        period.mintingComplete = true;\n\n        uint256 targetBootySupply = SafeMath.mul(period.bootyFees, 20);\n        uint256 totalBootySupply = bootyToken.totalSupply();\n\n        if (targetBootySupply > totalBootySupply) {\n            uint256 bootyMinted = targetBootySupply - totalBootySupply;\n            bootyToken.mint(this, bootyMinted);\n            period.bootyMinted = bootyMinted;\n        }\n    }\n\n    // This will check the current time and update the current period accordingly\n    // - called from all write functions to ensure the period is always up to date before any writes\n    // - can also be called externally, but there isn't a good reason for why you would want to\n    // - the while loop protects against the edge case where we miss a period\n\n    function updatePeriod() public {\n        while (now >= periods[currentPeriod].endTime) {\n            Period memory prevPeriod = periods[currentPeriod];\n            currentPeriod += 1;\n            periods[currentPeriod].startTime = prevPeriod.endTime;\n            periods[currentPeriod].endTime = SafeMath.add(prevPeriod.endTime, periodLength);\n        }\n    }\n\n    // In order to receive Booty, each staker will have to check-in every period.\n    // This check-in will compute the spankPoints locally and globally for each staker.\n    function checkIn(uint256 updatedEndingPeriod) active public {\n        updatePeriod();\n\n        address stakerAddress =  activityKeys[msg.sender].stakerAddress;\n\n        Staker storage staker = stakers[stakerAddress];\n\n        require(currentPeriod < staker.endingPeriod);\n\n        if (updatedEndingPeriod > 0) {\n            // TODO I'm not sure we can rely on the staker.endingPeriod to be greater than the\n            // currentPeriod - what if the staker expires but never withdraws their stake?\n            require(updatedEndingPeriod > currentPeriod, \"checkIn::updatedEndingPeriod must be greater than currentPeriod\");\n            require(updatedEndingPeriod > staker.endingPeriod, \"checkIn::updatedEndingPeriod must be greater than staker.endingPeriod\");\n            require(updatedEndingPeriod <= currentPeriod + maxPeriods, \"updatedEndingPeriod must be less than or equal to currentPeriod + maxPeriods\");\n\n            staker.endingPeriod = updatedEndingPeriod;\n      }\n\n        uint256 stakePeriods = staker.endingPeriod - currentPeriod;\n\n        // TODO combine this and the code from stake into their own function to reduce dup\n\n        // The spankAmount of spankPoints the user will have during the next staking period\n        uint256 nextSpankPoints = SafeMath.div(SafeMath.mul(staker.spankStaked, pointsTable[stakePeriods]), 100);\n\n        staker.spankPoints[currentPeriod + 1] = nextSpankPoints;\n\n        uint256 nextTotalSpankPoints = periods[currentPeriod + 1].totalSpankPoints;\n        nextTotalSpankPoints = SafeMath.add(nextTotalSpankPoints, nextSpankPoints);\n        periods[currentPeriod + 1].totalSpankPoints = nextTotalSpankPoints;\n\n        emit CheckInEvent(stakerAddress, updatedEndingPeriod, currentPeriod);\n    }\n\n    function claimBooty(uint256 _period) public {\n        updatePeriod();\n\n        require(_period < currentPeriod, \"claimBooty::_period must be less than currentPeriod\"); // can only claim booty for previous periods\n\n        address stakerAddress =  activityKeys[msg.sender].stakerAddress;\n\n        Staker storage staker = stakers[stakerAddress];\n\n        require(!staker.didClaimBooty[_period], \"claimBooty::didClaimBooty for period must be false\"); // can only claim booty once\n\n        staker.didClaimBooty[_period] = true;\n\n        Period memory period = periods[_period];\n        uint256 bootyMinted = period.bootyMinted;\n        uint256 totalSpankPoints = period.totalSpankPoints;\n\n        if (totalSpankPoints > 0) {\n            uint256 stakerSpankPoints = staker.spankPoints[_period];\n            uint256 bootyOwed = SafeMath.div(SafeMath.mul(stakerSpankPoints, bootyMinted), totalSpankPoints);\n\n          require(bootyToken.transfer(staker.bootyBase, bootyOwed), \"claimBooty::bootyToken transfer failure\");\n\n          emit ClaimBootyEvent(stakerAddress, _period, bootyOwed, stakerSpankPoints);\n        }\n    }\n\n    function withdrawStake() public {\n        updatePeriod();\n\n        address stakerAddress =  activityKeys[msg.sender].stakerAddress;\n\n        Staker storage staker = stakers[stakerAddress];\n\n        require(currentPeriod > staker.endingPeriod, \"withdrawStake::currentPeriod must be greater than staker.endingPeriod\");\n\n        spankToken.transfer(stakerAddress, staker.spankStaked);\n\n        totalSpankStaked = SafeMath.sub(totalSpankStaked, staker.spankStaked);\n        staker.spankStaked = 0;\n\n        emit WithdrawStakeEvent(stakerAddress, totalSpankStaked, currentPeriod);\n    }\n\n    function splitStake(address newAddress, address newActivityKey, address newBootyBase, uint256 spankAmount) public {\n        updatePeriod();\n\n        require(newAddress != address(0), \"splitStake::newAddress must be a non-zero address\");\n        require(spankAmount > 0, \"splitStake::spankAmount must be greater than 0\");\n\n        Staker storage staker = stakers[msg.sender];\n        require(currentPeriod < staker.endingPeriod, \"currentPeriod must be less than staker.endingPeriod\");\n        require(spankAmount <= staker.spankStaked, \"spankAmount must be less than or equal to staker.spankStaked\");\n        staker.spankStaked = SafeMath.sub(staker.spankStaked, spankAmount);\n\n        stakers[newAddress] = Staker(spankAmount, staker.startingPeriod, staker.endingPeriod, newActivityKey, newBootyBase);\n\n        ActivityKey storage splitActivityKey = activityKeys[newActivityKey];\n        splitActivityKey.stakerAddress = newAddress;\n\n        emit SplitStakeEvent(msg.sender, newAddress, spankAmount, currentPeriod, staker.startingPeriod, staker.endingPeriod, newActivityKey, newBootyBase);\n    }\n\n    function voteToUnwind() public {\n        updatePeriod();\n\n        require(unwind == false);\n\n        address stakerAddress = activityKeys[msg.sender].stakerAddress;\n        require(stakerAddress != address(0));\n\n        Staker storage staker = stakers[stakerAddress];\n        require(staker.spankStaked > 0);\n        require(staker.endingPeriod >= currentPeriod);\n        \n\n        if (unwindPeriod != currentPeriod) {\n            unwindPeriod = currentPeriod;\n            unwindVotes = 0;\n            staker.votedToUnwind[currentPeriod] = false;\n        }\n        \n        require (staker.votedToUnwind[currentPeriod] == false);\n        staker.votedToUnwind[currentPeriod] = true;\n        unwindVotes = SafeMath.add(unwindVotes, staker.spankStaked);\n\n        uint256 unwindTrigger = SafeMath.div(totalSpankStaked, 2);\n        if (unwindVotes > unwindTrigger) {\n            unwind = true;\n        }\n\n        emit VoteToUnwindEvent(stakerAddress, staker.spankStaked, unwind, currentPeriod, totalSpankStaked);\n    }\n\n    function updateActivityKey(address newActivityKey) public {\n        Staker storage staker = stakers[msg.sender];\n        require (staker.activityKey != address(0));\n        staker.activityKey = newActivityKey;\n        \n        ActivityKey storage oldActivityKey = activityKeys[staker.activityKey];\n        oldActivityKey.stakerAddress = address(0);\n\n        ActivityKey storage activityKey = activityKeys[newActivityKey];\n        activityKey.stakerAddress = msg.sender;\n\n        emit UpdateActivityKeyEvent(msg.sender, newActivityKey, currentPeriod);\n    }\n\n    function updateBootyBase(address newBootyBase) public {\n        Staker storage staker = stakers[msg.sender];\n        require (staker.spankStaked > 0);\n\n        staker.bootyBase = newBootyBase;\n\n        emit UpdateBootyBaseEvent(msg.sender, newBootyBase, currentPeriod);\n    }\n\n    // TODO as-is, the contract doesnt allow for dynamic stake allocation - you can only extend\n    // the entire stake, or withdraw the entire stake. Even if you could withdraw partial stake,\n    // you would still be making the decision to extend the entire stake, or not.\n    // - allow staker to split stake (or move some fraction under a new address)\n    // - accept that you have to extend the entire stake, and plan ahead accordingly\n    //   - split the stake up into several portions, and decide to extend / not each portion\n}\n",
  "sourcePath": "/Users/euforic/go/src/github.com/SpankChain/spankbank/contracts/SpankBank.sol",
  "compiler": {
    "name": "solc",
    "version": "0.4.24+commit.e67f0147.Emscripten.clang"
  },
  "schemaVersion": "2.0.0",
  "updatedAt": "2018-06-19T22:44:05.547Z"
}