{
  "contractName": "SpankBank",
  "abi": [
    {
      "constant": true,
      "inputs": [],
      "name": "currentPeriod",
      "outputs": [
        {
          "name": "",
          "type": "uint256"
        }
      ],
      "payable": false,
      "stateMutability": "view",
      "type": "function"
    },
    {
      "constant": true,
      "inputs": [],
      "name": "bootyToken",
      "outputs": [
        {
          "name": "",
          "type": "address"
        }
      ],
      "payable": false,
      "stateMutability": "view",
      "type": "function"
    },
    {
      "constant": true,
      "inputs": [],
      "name": "maxPeriods",
      "outputs": [
        {
          "name": "",
          "type": "uint256"
        }
      ],
      "payable": false,
      "stateMutability": "view",
      "type": "function"
    },
    {
      "constant": true,
      "inputs": [
        {
          "name": "",
          "type": "address"
        }
      ],
      "name": "stakers",
      "outputs": [
        {
          "name": "spankStaked",
          "type": "uint256"
        },
        {
          "name": "startingPeriod",
          "type": "uint256"
        },
        {
          "name": "endingPeriod",
          "type": "uint256"
        }
      ],
      "payable": false,
      "stateMutability": "view",
      "type": "function"
    },
    {
      "constant": true,
      "inputs": [],
      "name": "spankToken",
      "outputs": [
        {
          "name": "",
          "type": "address"
        }
      ],
      "payable": false,
      "stateMutability": "view",
      "type": "function"
    },
    {
      "constant": true,
      "inputs": [],
      "name": "periodLength",
      "outputs": [
        {
          "name": "",
          "type": "uint256"
        }
      ],
      "payable": false,
      "stateMutability": "view",
      "type": "function"
    },
    {
      "constant": true,
      "inputs": [
        {
          "name": "",
          "type": "uint256"
        }
      ],
      "name": "periods",
      "outputs": [
        {
          "name": "bootyFees",
          "type": "uint256"
        },
        {
          "name": "totalSpankPoints",
          "type": "uint256"
        },
        {
          "name": "bootyMinted",
          "type": "uint256"
        },
        {
          "name": "mintingComplete",
          "type": "bool"
        },
        {
          "name": "startTime",
          "type": "uint256"
        },
        {
          "name": "endTime",
          "type": "uint256"
        }
      ],
      "payable": false,
      "stateMutability": "view",
      "type": "function"
    },
    {
      "inputs": [
        {
          "name": "_periodLength",
          "type": "uint256"
        },
        {
          "name": "_maxPeriods",
          "type": "uint256"
        },
        {
          "name": "spankAddress",
          "type": "address"
        },
        {
          "name": "initialBootySupply",
          "type": "uint256"
        }
      ],
      "payable": false,
      "stateMutability": "nonpayable",
      "type": "constructor"
    },
    {
      "constant": false,
      "inputs": [
        {
          "name": "spankAmount",
          "type": "uint256"
        },
        {
          "name": "stakePeriods",
          "type": "uint256"
        }
      ],
      "name": "stake",
      "outputs": [],
      "payable": false,
      "stateMutability": "nonpayable",
      "type": "function"
    },
    {
      "constant": false,
      "inputs": [
        {
          "name": "stakerAddress",
          "type": "address"
        },
        {
          "name": "period",
          "type": "uint256"
        }
      ],
      "name": "getSpankPoints",
      "outputs": [
        {
          "name": "",
          "type": "uint256"
        }
      ],
      "payable": false,
      "stateMutability": "nonpayable",
      "type": "function"
    },
    {
      "constant": false,
      "inputs": [
        {
          "name": "stakerAddress",
          "type": "address"
        },
        {
          "name": "period",
          "type": "uint256"
        }
      ],
      "name": "getDidClaimBooty",
      "outputs": [
        {
          "name": "",
          "type": "bool"
        }
      ],
      "payable": false,
      "stateMutability": "nonpayable",
      "type": "function"
    },
    {
      "constant": false,
      "inputs": [
        {
          "name": "bootyAmount",
          "type": "uint256"
        }
      ],
      "name": "sendFees",
      "outputs": [],
      "payable": false,
      "stateMutability": "nonpayable",
      "type": "function"
    },
    {
      "constant": false,
      "inputs": [],
      "name": "mintBooty",
      "outputs": [],
      "payable": false,
      "stateMutability": "nonpayable",
      "type": "function"
    },
    {
      "constant": false,
      "inputs": [],
      "name": "updatePeriod",
      "outputs": [],
      "payable": false,
      "stateMutability": "nonpayable",
      "type": "function"
    },
    {
      "constant": false,
      "inputs": [
        {
          "name": "updatedEndingPeriod",
          "type": "uint256"
        }
      ],
      "name": "checkIn",
      "outputs": [],
      "payable": false,
      "stateMutability": "nonpayable",
      "type": "function"
    },
    {
      "constant": false,
      "inputs": [
        {
          "name": "_period",
          "type": "uint256"
        }
      ],
      "name": "claimBooty",
      "outputs": [],
      "payable": false,
      "stateMutability": "nonpayable",
      "type": "function"
    },
    {
      "constant": false,
      "inputs": [],
      "name": "withdrawStake",
      "outputs": [],
      "payable": false,
      "stateMutability": "nonpayable",
      "type": "function"
    },
    {
      "constant": false,
      "inputs": [
        {
          "name": "newAddress",
          "type": "address"
        },
        {
          "name": "spankAmount",
          "type": "uint256"
        }
      ],
      "name": "splitStake",
      "outputs": [],
      "payable": false,
      "stateMutability": "nonpayable",
      "type": "function"
    }
  ],
  "bytecode": "0x608060405260006005553480156200001657600080fd5b5060405160808062003512833981018060405281019080805190602001909291908051906020019092919080519060200190929190805190602001909291905050506000846000819055508360018190555082600260006101000a81548173ffffffffffffffffffffffffffffffffffffffff021916908373ffffffffffffffffffffffffffffffffffffffff160217905550620000b3620004d9565b604051809103906000f080158015620000d0573d6000803e3d6000fd5b50600360006101000a81548173ffffffffffffffffffffffffffffffffffffffff021916908373ffffffffffffffffffffffffffffffffffffffff160217905550600360009054906101000a900473ffffffffffffffffffffffffffffffffffffffff1673ffffffffffffffffffffffffffffffffffffffff166340c10f1930846040518363ffffffff167c0100000000000000000000000000000000000000000000000000000000028152600401808373ffffffffffffffffffffffffffffffffffffffff1673ffffffffffffffffffffffffffffffffffffffff16815260200182815260200192505050602060405180830381600087803b158015620001d757600080fd5b505af1158015620001ec573d6000803e3d6000fd5b505050506040513d60208110156200020357600080fd5b81019080805190602001909291905050505042905080600760006005548152602001908152602001600020600401819055506200025781600054620004ba64010000000002620016c6176401000000009004565b60076000600554815260200190815260200160002060050181905550600360009054906101000a900473ffffffffffffffffffffffffffffffffffffffff1673ffffffffffffffffffffffffffffffffffffffff1663a9059cbb33846040518363ffffffff167c0100000000000000000000000000000000000000000000000000000000028152600401808373ffffffffffffffffffffffffffffffffffffffff1673ffffffffffffffffffffffffffffffffffffffff16815260200182815260200192505050602060405180830381600087803b1580156200033957600080fd5b505af11580156200034e573d6000803e3d6000fd5b505050506040513d60208110156200036557600080fd5b810190808051906020019092919050505050602d60046000600181526020019081526020016000208190555060326004600060028152602001908152602001600020819055506037600460006003815260200190815260200160002081905550603c60046000600481526020019081526020016000208190555060416004600060058152602001908152602001600020819055506046600460006006815260200190815260200160002081905550604b60046000600781526020019081526020016000208190555060506004600060088152602001908152602001600020819055506055600460006009815260200190815260200160002081905550605a60046000600a815260200190815260200160002081905550605f60046000600b815260200190815260200160002081905550606460046000600c8152602001908152602001600020819055505050505050620004ea565b6000808284019050838110151515620004cf57fe5b8091505092915050565b6040516118cf8062001c4383390190565b61174980620004fa6000396000f3006080604052600436106100f1576000357c0100000000000000000000000000000000000000000000000000000000900463ffffffff16806306040618146100f65780634cfef2201461012157806350a9b541146101825780635155bafa146101d957806353547d3f14610204578063603c0f441461021b5780637b0472f0146102685780639168ae721461029f57806392f4d22514610304578063a0ac57761461035b578063a83627de14610388578063bed9d8611461039f578063cc741c9c146103b6578063d2ca21151461041b578063e95a644f14610446578063ea4a110414610473578063ecd4eb74146104db575b600080fd5b34801561010257600080fd5b5061010b610508565b6040518082815260200191505060405180910390f35b34801561012d57600080fd5b5061016c600480360381019080803573ffffffffffffffffffffffffffffffffffffffff1690602001909291908035906020019092919050505061050e565b6040518082815260200191505060405180910390f35b34801561018e57600080fd5b5061019761056c565b604051808273ffffffffffffffffffffffffffffffffffffffff1673ffffffffffffffffffffffffffffffffffffffff16815260200191505060405180910390f35b3480156101e557600080fd5b506101ee610592565b6040518082815260200191505060405180910390f35b34801561021057600080fd5b50610219610598565b005b34801561022757600080fd5b50610266600480360381019080803573ffffffffffffffffffffffffffffffffffffffff169060200190929190803590602001909291905050506107ed565b005b34801561027457600080fd5b5061029d6004803603810190808035906020019092919080359060200190929190505050610949565b005b3480156102ab57600080fd5b506102e0600480360381019080803573ffffffffffffffffffffffffffffffffffffffff169060200190929190505050610cb9565b60405180848152602001838152602001828152602001935050505060405180910390f35b34801561031057600080fd5b50610319610ce3565b604051808273ffffffffffffffffffffffffffffffffffffffff1673ffffffffffffffffffffffffffffffffffffffff16815260200191505060405180910390f35b34801561036757600080fd5b5061038660048036038101908080359060200190929190505050610d09565b005b34801561039457600080fd5b5061039d610f96565b005b3480156103ab57600080fd5b506103b4611096565b005b3480156103c257600080fd5b50610401600480360381019080803573ffffffffffffffffffffffffffffffffffffffff16906020019092919080359060200190929190505050611207565b604051808215151515815260200191505060405180910390f35b34801561042757600080fd5b50610430611272565b6040518082815260200191505060405180910390f35b34801561045257600080fd5b5061047160048036038101908080359060200190929190505050611278565b005b34801561047f57600080fd5b5061049e600480360381019080803590602001909291905050506113cd565b6040518087815260200186815260200185815260200184151515158152602001838152602001828152602001965050505050505060405180910390f35b3480156104e757600080fd5b5061050660048036038101908080359060200190929190505050611416565b005b60055481565b6000600660008473ffffffffffffffffffffffffffffffffffffffff1673ffffffffffffffffffffffffffffffffffffffff168152602001908152602001600020600301600083815260200190815260200160002054905092915050565b600360009054906101000a900473ffffffffffffffffffffffffffffffffffffffff1681565b60015481565b6000806000806105a6610f96565b60076000600160055403815260200190815260200160002093508360030160009054906101000a900460ff161515156105de57600080fd5b60018460030160006101000a81548160ff02191690831515021790555061060a8460000154601461165f565b9250600360009054906101000a900473ffffffffffffffffffffffffffffffffffffffff1673ffffffffffffffffffffffffffffffffffffffff166318160ddd6040518163ffffffff167c0100000000000000000000000000000000000000000000000000000000028152600401602060405180830381600087803b15801561069257600080fd5b505af11580156106a6573d6000803e3d6000fd5b505050506040513d60208110156106bc57600080fd5b81019080805190602001909291905050509150818311156107e7578183039050600360009054906101000a900473ffffffffffffffffffffffffffffffffffffffff1673ffffffffffffffffffffffffffffffffffffffff166340c10f1930836040518363ffffffff167c0100000000000000000000000000000000000000000000000000000000028152600401808373ffffffffffffffffffffffffffffffffffffffff1673ffffffffffffffffffffffffffffffffffffffff16815260200182815260200192505050602060405180830381600087803b1580156107a157600080fd5b505af11580156107b5573d6000803e3d6000fd5b505050506040513d60208110156107cb57600080fd5b8101908080519060200190929190505050508084600201819055505b50505050565b60006107f7610f96565b600073ffffffffffffffffffffffffffffffffffffffff168373ffffffffffffffffffffffffffffffffffffffff161415151561083357600080fd5b60008211151561084257600080fd5b600660003373ffffffffffffffffffffffffffffffffffffffff1673ffffffffffffffffffffffffffffffffffffffff1681526020019081526020016000209050806002015460055410151561089757600080fd5b806000015482111515156108aa57600080fd5b6108b8816000015483611692565b8160000181905550606060405190810160405280838152602001826001015481526020018260020154815250600660008573ffffffffffffffffffffffffffffffffffffffff1673ffffffffffffffffffffffffffffffffffffffff168152602001908152602001600020600082015181600001556020820151816001015560408201518160020155905050505050565b600080610954610f96565b60008311801561096657506001548311155b151561097157600080fd5b60008411151561098057600080fd5b6000600660003373ffffffffffffffffffffffffffffffffffffffff1673ffffffffffffffffffffffffffffffffffffffff16815260200190815260200160002060010154148015610a1457506000600660003373ffffffffffffffffffffffffffffffffffffffff1673ffffffffffffffffffffffffffffffffffffffff16815260200190815260200160002060020154145b1515610a1f57600080fd5b600260009054906101000a900473ffffffffffffffffffffffffffffffffffffffff1673ffffffffffffffffffffffffffffffffffffffff166323b872dd3330876040518463ffffffff167c0100000000000000000000000000000000000000000000000000000000028152600401808473ffffffffffffffffffffffffffffffffffffffff1673ffffffffffffffffffffffffffffffffffffffff1681526020018373ffffffffffffffffffffffffffffffffffffffff1673ffffffffffffffffffffffffffffffffffffffff1681526020018281526020019350505050602060405180830381600087803b158015610b1857600080fd5b505af1158015610b2c573d6000803e3d6000fd5b505050506040513d6020811015610b4257600080fd5b81019080805190602001909291905050501515610b5e57600080fd5b610b85610b7e85600460008781526020019081526020016000205461165f565b60646116ab565b915060606040519081016040528085815260200160016005540181526020018460055401815250600660003373ffffffffffffffffffffffffffffffffffffffff1673ffffffffffffffffffffffffffffffffffffffff16815260200190815260200160002060008201518160000155602082015181600101556040820151816002015590505081600660003373ffffffffffffffffffffffffffffffffffffffff1673ffffffffffffffffffffffffffffffffffffffff1681526020019081526020016000206003016000600160055401815260200190815260200160002081905550600760006001600554018152602001908152602001600020600101549050610c9181836116c6565b9050806007600060016005540181526020019081526020016000206001018190555050505050565b60066020528060005260406000206000915090508060000154908060010154908060020154905083565b600260009054906101000a900473ffffffffffffffffffffffffffffffffffffffff1681565b6000610d136116e4565b600080600080610d21610f96565b60055487101515610d3157600080fd5b600660003373ffffffffffffffffffffffffffffffffffffffff1673ffffffffffffffffffffffffffffffffffffffff168152602001908152602001600020955085600401600088815260200190815260200160002060009054906101000a900460ff16151515610da157600080fd5b600186600401600089815260200190815260200160002060006101000a81548160ff0219169083151502179055506007600088815260200190815260200160002060c060405190810160405290816000820154815260200160018201548152602001600282015481526020016003820160009054906101000a900460ff1615151515815260200160048201548152602001600582015481525050945084604001519350846020015192506000831115610f8d57856003016000888152602001908152602001600020549150610e7f610e79838661165f565b846116ab565b9050600360009054906101000a900473ffffffffffffffffffffffffffffffffffffffff1673ffffffffffffffffffffffffffffffffffffffff1663a9059cbb33836040518363ffffffff167c0100000000000000000000000000000000000000000000000000000000028152600401808373ffffffffffffffffffffffffffffffffffffffff1673ffffffffffffffffffffffffffffffffffffffff16815260200182815260200192505050602060405180830381600087803b158015610f4657600080fd5b505af1158015610f5a573d6000803e3d6000fd5b505050506040513d6020811015610f7057600080fd5b81019080805190602001909291905050501515610f8c57600080fd5b5b50505050505050565b610f9e6116e4565b5b60076000600554815260200190815260200160002060050154421015156110935760076000600554815260200190815260200160002060c060405190810160405290816000820154815260200160018201548152602001600282015481526020016003820160009054906101000a900460ff1615151515815260200160048201548152602001600582015481525050905060016005600082825401925050819055508060a00151600760006005548152602001908152602001600020600401819055506110728160a001516000546116c6565b60076000600554815260200190815260200160002060050181905550610f9f565b50565b60006110a0610f96565b600660003373ffffffffffffffffffffffffffffffffffffffff1673ffffffffffffffffffffffffffffffffffffffff168152602001908152602001600020905080600201546005541115156110f557600080fd5b600260009054906101000a900473ffffffffffffffffffffffffffffffffffffffff1673ffffffffffffffffffffffffffffffffffffffff1663a9059cbb3383600001546040518363ffffffff167c0100000000000000000000000000000000000000000000000000000000028152600401808373ffffffffffffffffffffffffffffffffffffffff1673ffffffffffffffffffffffffffffffffffffffff16815260200182815260200192505050602060405180830381600087803b1580156111be57600080fd5b505af11580156111d2573d6000803e3d6000fd5b505050506040513d60208110156111e857600080fd5b8101908080519060200190929190505050506000816000018190555050565b6000600660008473ffffffffffffffffffffffffffffffffffffffff1673ffffffffffffffffffffffffffffffffffffffff168152602001908152602001600020600401600083815260200190815260200160002060009054906101000a900460ff16905092915050565b60005481565b600080600080611286610f96565b600660003373ffffffffffffffffffffffffffffffffffffffff1673ffffffffffffffffffffffffffffffffffffffff168152602001908152602001600020935083600201546005541015156112db57600080fd5b600085111561132557600554851115156112f457600080fd5b83600201548511151561130657600080fd5b60015460055401851115151561131b57600080fd5b8484600201819055505b600554846002015403925061135b6113548560000154600460008781526020019081526020016000205461165f565b60646116ab565b9150818460030160006001600554018152602001908152602001600020819055506007600060016005540181526020019081526020016000206001015490506113a481836116c6565b905080600760006001600554018152602001908152602001600020600101819055505050505050565b60076020528060005260406000206000915090508060000154908060010154908060020154908060030160009054906101000a900460ff16908060040154908060050154905086565b6000611420610f96565b60008211151561142f57600080fd5b600360009054906101000a900473ffffffffffffffffffffffffffffffffffffffff1673ffffffffffffffffffffffffffffffffffffffff166323b872dd3330856040518463ffffffff167c0100000000000000000000000000000000000000000000000000000000028152600401808473ffffffffffffffffffffffffffffffffffffffff1673ffffffffffffffffffffffffffffffffffffffff1681526020018373ffffffffffffffffffffffffffffffffffffffff1673ffffffffffffffffffffffffffffffffffffffff1681526020018281526020019350505050602060405180830381600087803b15801561152857600080fd5b505af115801561153c573d6000803e3d6000fd5b505050506040513d602081101561155257600080fd5b8101908080519060200190929190505050151561156e57600080fd5b600360009054906101000a900473ffffffffffffffffffffffffffffffffffffffff1673ffffffffffffffffffffffffffffffffffffffff166342966c68836040518263ffffffff167c010000000000000000000000000000000000000000000000000000000002815260040180828152602001915050600060405180830381600087803b1580156115ff57600080fd5b505af1158015611613573d6000803e3d6000fd5b5050505060076000600554815260200190815260200160002060000154905061163c82826116c6565b905080600760006005548152602001908152602001600020600001819055505050565b60008082840290506000841480611680575082848281151561167d57fe5b04145b151561168857fe5b8091505092915050565b60008282111515156116a057fe5b818303905092915050565b60008082848115156116b957fe5b0490508091505092915050565b60008082840190508381101515156116da57fe5b8091505092915050565b60c060405190810160405280600081526020016000815260200160008152602001600015158152602001600081526020016000815250905600a165627a7a72305820641137d57ac2f210d9de2f59e874343f5212af8dd486d62d80d173ae0955c702002960806040526000600360146101000a81548160ff02191690831515021790555033600360006101000a81548173ffffffffffffffffffffffffffffffffffffffff021916908373ffffffffffffffffffffffffffffffffffffffff1602179055506118608061006f6000396000f3006080604052600436106100d0576000357c0100000000000000000000000000000000000000000000000000000000900463ffffffff16806305d2035b146100d5578063095ea7b31461010457806318160ddd1461016957806323b872dd1461019457806340c10f191461021957806342966c681461027e57806366188463146102ab57806370a08231146103105780637d64bcb4146103675780638da5cb5b14610396578063a9059cbb146103ed578063d73dd62314610452578063dd62ed3e146104b7578063f2fde38b1461052e575b600080fd5b3480156100e157600080fd5b506100ea610571565b604051808215151515815260200191505060405180910390f35b34801561011057600080fd5b5061014f600480360381019080803573ffffffffffffffffffffffffffffffffffffffff16906020019092919080359060200190929190505050610584565b604051808215151515815260200191505060405180910390f35b34801561017557600080fd5b5061017e610676565b6040518082815260200191505060405180910390f35b3480156101a057600080fd5b506101ff600480360381019080803573ffffffffffffffffffffffffffffffffffffffff169060200190929190803573ffffffffffffffffffffffffffffffffffffffff16906020019092919080359060200190929190505050610680565b604051808215151515815260200191505060405180910390f35b34801561022557600080fd5b50610264600480360381019080803573ffffffffffffffffffffffffffffffffffffffff16906020019092919080359060200190929190505050610a3a565b604051808215151515815260200191505060405180910390f35b34801561028a57600080fd5b506102a960048036038101908080359060200190929190505050610c20565b005b3480156102b757600080fd5b506102f6600480360381019080803573ffffffffffffffffffffffffffffffffffffffff16906020019092919080359060200190929190505050610c89565b604051808215151515815260200191505060405180910390f35b34801561031c57600080fd5b50610351600480360381019080803573ffffffffffffffffffffffffffffffffffffffff169060200190929190505050610f1a565b6040518082815260200191505060405180910390f35b34801561037357600080fd5b5061037c610f62565b604051808215151515815260200191505060405180910390f35b3480156103a257600080fd5b506103ab61102a565b604051808273ffffffffffffffffffffffffffffffffffffffff1673ffffffffffffffffffffffffffffffffffffffff16815260200191505060405180910390f35b3480156103f957600080fd5b50610438600480360381019080803573ffffffffffffffffffffffffffffffffffffffff16906020019092919080359060200190929190505050611050565b604051808215151515815260200191505060405180910390f35b34801561045e57600080fd5b5061049d600480360381019080803573ffffffffffffffffffffffffffffffffffffffff1690602001909291908035906020019092919050505061126f565b604051808215151515815260200191505060405180910390f35b3480156104c357600080fd5b50610518600480360381019080803573ffffffffffffffffffffffffffffffffffffffff169060200190929190803573ffffffffffffffffffffffffffffffffffffffff16906020019092919050505061146b565b6040518082815260200191505060405180910390f35b34801561053a57600080fd5b5061056f600480360381019080803573ffffffffffffffffffffffffffffffffffffffff1690602001909291905050506114f2565b005b600360149054906101000a900460ff1681565b600081600260003373ffffffffffffffffffffffffffffffffffffffff1673ffffffffffffffffffffffffffffffffffffffff16815260200190815260200160002060008573ffffffffffffffffffffffffffffffffffffffff1673ffffffffffffffffffffffffffffffffffffffff168152602001908152602001600020819055508273ffffffffffffffffffffffffffffffffffffffff163373ffffffffffffffffffffffffffffffffffffffff167f8c5be1e5ebec7d5bd14f71427d1e84f3dd0314c0f7b2291e5b200ac8c7c3b925846040518082815260200191505060405180910390a36001905092915050565b6000600154905090565b60008073ffffffffffffffffffffffffffffffffffffffff168373ffffffffffffffffffffffffffffffffffffffff16141515156106bd57600080fd5b6000808573ffffffffffffffffffffffffffffffffffffffff1673ffffffffffffffffffffffffffffffffffffffff16815260200190815260200160002054821115151561070a57600080fd5b600260008573ffffffffffffffffffffffffffffffffffffffff1673ffffffffffffffffffffffffffffffffffffffff16815260200190815260200160002060003373ffffffffffffffffffffffffffffffffffffffff1673ffffffffffffffffffffffffffffffffffffffff16815260200190815260200160002054821115151561079557600080fd5b6107e6826000808773ffffffffffffffffffffffffffffffffffffffff1673ffffffffffffffffffffffffffffffffffffffff1681526020019081526020016000205461164a90919063ffffffff16565b6000808673ffffffffffffffffffffffffffffffffffffffff1673ffffffffffffffffffffffffffffffffffffffff16815260200190815260200160002081905550610879826000808673ffffffffffffffffffffffffffffffffffffffff1673ffffffffffffffffffffffffffffffffffffffff1681526020019081526020016000205461166390919063ffffffff16565b6000808573ffffffffffffffffffffffffffffffffffffffff1673ffffffffffffffffffffffffffffffffffffffff1681526020019081526020016000208190555061094a82600260008773ffffffffffffffffffffffffffffffffffffffff1673ffffffffffffffffffffffffffffffffffffffff16815260200190815260200160002060003373ffffffffffffffffffffffffffffffffffffffff1673ffffffffffffffffffffffffffffffffffffffff1681526020019081526020016000205461164a90919063ffffffff16565b600260008673ffffffffffffffffffffffffffffffffffffffff1673ffffffffffffffffffffffffffffffffffffffff16815260200190815260200160002060003373ffffffffffffffffffffffffffffffffffffffff1673ffffffffffffffffffffffffffffffffffffffff168152602001908152602001600020819055508273ffffffffffffffffffffffffffffffffffffffff168473ffffffffffffffffffffffffffffffffffffffff167fddf252ad1be2c89b69c2b068fc378daa952ba7f163c4a11628f55a4df523b3ef846040518082815260200191505060405180910390a3600190509392505050565b6000600360009054906101000a900473ffffffffffffffffffffffffffffffffffffffff1673ffffffffffffffffffffffffffffffffffffffff163373ffffffffffffffffffffffffffffffffffffffff16141515610a9857600080fd5b600360149054906101000a900460ff16151515610ab457600080fd5b610ac98260015461166390919063ffffffff16565b600181905550610b20826000808673ffffffffffffffffffffffffffffffffffffffff1673ffffffffffffffffffffffffffffffffffffffff1681526020019081526020016000205461166390919063ffffffff16565b6000808573ffffffffffffffffffffffffffffffffffffffff1673ffffffffffffffffffffffffffffffffffffffff168152602001908152602001600020819055508273ffffffffffffffffffffffffffffffffffffffff167f0f6798a560793a54c3bcfe86a93cde1e73087d944c0ea20544137d4121396885836040518082815260200191505060405180910390a28273ffffffffffffffffffffffffffffffffffffffff16600073ffffffffffffffffffffffffffffffffffffffff167fddf252ad1be2c89b69c2b068fc378daa952ba7f163c4a11628f55a4df523b3ef846040518082815260200191505060405180910390a36001905092915050565b600360009054906101000a900473ffffffffffffffffffffffffffffffffffffffff1673ffffffffffffffffffffffffffffffffffffffff163373ffffffffffffffffffffffffffffffffffffffff16141515610c7c57600080fd5b610c863382611681565b50565b600080600260003373ffffffffffffffffffffffffffffffffffffffff1673ffffffffffffffffffffffffffffffffffffffff16815260200190815260200160002060008573ffffffffffffffffffffffffffffffffffffffff1673ffffffffffffffffffffffffffffffffffffffff16815260200190815260200160002054905080831115610d9a576000600260003373ffffffffffffffffffffffffffffffffffffffff1673ffffffffffffffffffffffffffffffffffffffff16815260200190815260200160002060008673ffffffffffffffffffffffffffffffffffffffff1673ffffffffffffffffffffffffffffffffffffffff16815260200190815260200160002081905550610e2e565b610dad838261164a90919063ffffffff16565b600260003373ffffffffffffffffffffffffffffffffffffffff1673ffffffffffffffffffffffffffffffffffffffff16815260200190815260200160002060008673ffffffffffffffffffffffffffffffffffffffff1673ffffffffffffffffffffffffffffffffffffffff168152602001908152602001600020819055505b8373ffffffffffffffffffffffffffffffffffffffff163373ffffffffffffffffffffffffffffffffffffffff167f8c5be1e5ebec7d5bd14f71427d1e84f3dd0314c0f7b2291e5b200ac8c7c3b925600260003373ffffffffffffffffffffffffffffffffffffffff1673ffffffffffffffffffffffffffffffffffffffff16815260200190815260200160002060008873ffffffffffffffffffffffffffffffffffffffff1673ffffffffffffffffffffffffffffffffffffffff168152602001908152602001600020546040518082815260200191505060405180910390a3600191505092915050565b60008060008373ffffffffffffffffffffffffffffffffffffffff1673ffffffffffffffffffffffffffffffffffffffff168152602001908152602001600020549050919050565b6000600360009054906101000a900473ffffffffffffffffffffffffffffffffffffffff1673ffffffffffffffffffffffffffffffffffffffff163373ffffffffffffffffffffffffffffffffffffffff16141515610fc057600080fd5b600360149054906101000a900460ff16151515610fdc57600080fd5b6001600360146101000a81548160ff0219169083151502179055507fae5184fba832cb2b1f702aca6117b8d265eaf03ad33eb133f19dde0f5920fa0860405160405180910390a16001905090565b600360009054906101000a900473ffffffffffffffffffffffffffffffffffffffff1681565b60008073ffffffffffffffffffffffffffffffffffffffff168373ffffffffffffffffffffffffffffffffffffffff161415151561108d57600080fd5b6000803373ffffffffffffffffffffffffffffffffffffffff1673ffffffffffffffffffffffffffffffffffffffff1681526020019081526020016000205482111515156110da57600080fd5b61112b826000803373ffffffffffffffffffffffffffffffffffffffff1673ffffffffffffffffffffffffffffffffffffffff1681526020019081526020016000205461164a90919063ffffffff16565b6000803373ffffffffffffffffffffffffffffffffffffffff1673ffffffffffffffffffffffffffffffffffffffff168152602001908152602001600020819055506111be826000808673ffffffffffffffffffffffffffffffffffffffff1673ffffffffffffffffffffffffffffffffffffffff1681526020019081526020016000205461166390919063ffffffff16565b6000808573ffffffffffffffffffffffffffffffffffffffff1673ffffffffffffffffffffffffffffffffffffffff168152602001908152602001600020819055508273ffffffffffffffffffffffffffffffffffffffff163373ffffffffffffffffffffffffffffffffffffffff167fddf252ad1be2c89b69c2b068fc378daa952ba7f163c4a11628f55a4df523b3ef846040518082815260200191505060405180910390a36001905092915050565b600061130082600260003373ffffffffffffffffffffffffffffffffffffffff1673ffffffffffffffffffffffffffffffffffffffff16815260200190815260200160002060008673ffffffffffffffffffffffffffffffffffffffff1673ffffffffffffffffffffffffffffffffffffffff1681526020019081526020016000205461166390919063ffffffff16565b600260003373ffffffffffffffffffffffffffffffffffffffff1673ffffffffffffffffffffffffffffffffffffffff16815260200190815260200160002060008573ffffffffffffffffffffffffffffffffffffffff1673ffffffffffffffffffffffffffffffffffffffff168152602001908152602001600020819055508273ffffffffffffffffffffffffffffffffffffffff163373ffffffffffffffffffffffffffffffffffffffff167f8c5be1e5ebec7d5bd14f71427d1e84f3dd0314c0f7b2291e5b200ac8c7c3b925600260003373ffffffffffffffffffffffffffffffffffffffff1673ffffffffffffffffffffffffffffffffffffffff16815260200190815260200160002060008773ffffffffffffffffffffffffffffffffffffffff1673ffffffffffffffffffffffffffffffffffffffff168152602001908152602001600020546040518082815260200191505060405180910390a36001905092915050565b6000600260008473ffffffffffffffffffffffffffffffffffffffff1673ffffffffffffffffffffffffffffffffffffffff16815260200190815260200160002060008373ffffffffffffffffffffffffffffffffffffffff1673ffffffffffffffffffffffffffffffffffffffff16815260200190815260200160002054905092915050565b600360009054906101000a900473ffffffffffffffffffffffffffffffffffffffff1673ffffffffffffffffffffffffffffffffffffffff163373ffffffffffffffffffffffffffffffffffffffff1614151561154e57600080fd5b600073ffffffffffffffffffffffffffffffffffffffff168173ffffffffffffffffffffffffffffffffffffffff161415151561158a57600080fd5b8073ffffffffffffffffffffffffffffffffffffffff16600360009054906101000a900473ffffffffffffffffffffffffffffffffffffffff1673ffffffffffffffffffffffffffffffffffffffff167f8be0079c531659141344cd1fd0a4f28419497f9722a3daafe3b4186f6b6457e060405160405180910390a380600360006101000a81548173ffffffffffffffffffffffffffffffffffffffff021916908373ffffffffffffffffffffffffffffffffffffffff16021790555050565b600082821115151561165857fe5b818303905092915050565b600080828401905083811015151561167757fe5b8091505092915050565b6000808373ffffffffffffffffffffffffffffffffffffffff1673ffffffffffffffffffffffffffffffffffffffff1681526020019081526020016000205481111515156116ce57600080fd5b61171f816000808573ffffffffffffffffffffffffffffffffffffffff1673ffffffffffffffffffffffffffffffffffffffff1681526020019081526020016000205461164a90919063ffffffff16565b6000808473ffffffffffffffffffffffffffffffffffffffff1673ffffffffffffffffffffffffffffffffffffffff168152602001908152602001600020819055506117768160015461164a90919063ffffffff16565b6001819055508173ffffffffffffffffffffffffffffffffffffffff167fcc16f5dbb4873280815c1ee09dbd06736cffcc184412cf7a71a0fdb75d397ca5826040518082815260200191505060405180910390a2600073ffffffffffffffffffffffffffffffffffffffff168273ffffffffffffffffffffffffffffffffffffffff167fddf252ad1be2c89b69c2b068fc378daa952ba7f163c4a11628f55a4df523b3ef836040518082815260200191505060405180910390a350505600a165627a7a7230582091ead8f46c90ce7f4fdafa5dc11fcc5ecc3a11090b2c8b68b7e7ca32b33d93240029",
  "source": "pragma solidity 0.4.23;\nimport {SafeMath} from \"./SafeMath.sol\";\nimport {HumanStandardToken} from \"./HumanStandardToken.sol\";\nimport {MintableToken} from \"./MintableToken.sol\";\n\ncontract SpankBank {\n\n  /***********************************\n  VARIABLES SET AT CONTRACT DEPLOYMENT\n  ************************************/\n  // GLOBAL CONSTANT VARIABLES\n  uint256 public periodLength; // time length of each period in seconds\n  uint256 public maxPeriods;\n\n  // ERC-20 BASED TOKEN WITH SOME ADDED PROPERTIES FOR HUMAN READABILITY\n  // https://github.com/ConsenSys/Tokens/blob/master/contracts/HumanStandardToken.sol\n  HumanStandardToken public spankToken;\n  MintableToken public bootyToken;\n\n  // LOOKUP TABLE FOR SPANKPOINTS BY PERIOD\n  // 1 -> 45%\n  // 2 -> 50%\n  // ...\n  // 12 -> 100%\n  mapping(uint256 => uint256) pointsTable;\n\n  /*************************************\n  INTERAL ACCOUNTING\n  **************************************/\n  uint256 public currentPeriod = 0;\n\n  struct Staker {\n    uint256 spankStaked; // the amount of spank staked\n    uint256 startingPeriod; // the period this staker started staking\n    uint256 endingPeriod; // the period after which this stake expires\n    mapping(uint256 => uint256) spankPoints; // the spankPoints per period\n    mapping(uint256 => bool) didClaimBooty; // true if staker claimed BOOTY for that period\n  }\n\n  mapping(address => Staker) public stakers;\n\n  struct Period {\n    uint256 bootyFees; // the amount of BOOTY collected in fees\n    uint256 totalSpankPoints; // the total spankPoints of all stakers\n    uint256 bootyMinted; // the amount of BOOTY minted\n    bool mintingComplete; // true if BOOTY has already been minted for this period\n    uint256 startTime; // the starting unix timestamp in seconds\n    uint256 endTime; // the ending unix timestamp in seconds\n  }\n\n  mapping(uint256 => Period) public periods;\n\n  function SpankBank (\n    uint256 _periodLength,\n    uint256 _maxPeriods,\n    address spankAddress,\n    uint256 initialBootySupply\n  )  public {\n    periodLength = _periodLength;\n    maxPeriods = _maxPeriods;\n    spankToken = HumanStandardToken(spankAddress);\n    bootyToken = new MintableToken();\n    bootyToken.mint(this, initialBootySupply);\n\n    uint256 startTime = now;\n\n    periods[currentPeriod].startTime = startTime;\n    periods[currentPeriod].endTime = SafeMath.add(startTime, periodLength);\n\n    bootyToken.transfer(msg.sender, initialBootySupply);\n\n    // initialize points table\n    pointsTable[1] = 45;\n    pointsTable[2] = 50;\n    pointsTable[3] = 55;\n    pointsTable[4] = 60;\n    pointsTable[5] = 65;\n    pointsTable[6] = 70;\n    pointsTable[7] = 75;\n    pointsTable[8] = 80;\n    pointsTable[9] = 85;\n    pointsTable[10] = 90;\n    pointsTable[11] = 95;\n    pointsTable[12] = 100;\n  }\n\n  // Used to create a new staking position - verifies that the caller is not staking\n  function stake(uint256 spankAmount, uint256 stakePeriods) public {\n    updatePeriod();\n\n    require(stakePeriods > 0 && stakePeriods <= maxPeriods); // stake 1-12 (max) periods\n    require(spankAmount > 0); // stake must be greater than 0\n\n    // the msg.sender must not have an active staking position\n    // TODO checking that endingPeriod == 0 should cover all periods\n    require(stakers[msg.sender].startingPeriod == 0 && stakers[msg.sender].endingPeriod == 0);\n\n    // transfer SPANK to this contract - assumes sender has already \"allowed\" the spankAmount\n    require(spankToken.transferFrom(msg.sender, this, spankAmount));\n\n    // The spankAmount of spankPoints the user will have during the next staking period\n    // TODO the division is unnecessary - we're only dividing by the total\n    uint256 nextSpankPoints = SafeMath.div( SafeMath.mul(spankAmount, pointsTable[stakePeriods]), 100 );\n\n    stakers[msg.sender] = Staker(spankAmount, currentPeriod + 1, currentPeriod + stakePeriods);\n\n    stakers[msg.sender].spankPoints[currentPeriod + 1] = nextSpankPoints;\n\n    uint256 nextTotalSpankPoints = periods[currentPeriod + 1].totalSpankPoints;\n    nextTotalSpankPoints = SafeMath.add(nextTotalSpankPoints, nextSpankPoints);\n    periods[currentPeriod + 1].totalSpankPoints = nextTotalSpankPoints;\n  }\n\n  function getSpankPoints(address stakerAddress, uint256 period) public returns (uint256)  {\n    return stakers[stakerAddress].spankPoints[period];\n  }\n\n  function getDidClaimBooty(address stakerAddress, uint256 period) public returns (bool)  {\n    return stakers[stakerAddress].didClaimBooty[period];\n  }\n\n  // user will be able to add more SPANK to their stake and / or extend it\n  // function updateStake(uint256 amount, uint256 periods) {}\n\n  // 1. Anyone calls the mint function, which generates all the new booty for that period\n  //  - what if no one calls mint? the booty supply will be lower for the next round\n  //  - more booty will be created later to compensate (not really a bid deal)\n  // 2. Stakers can withdraw their minted BOOTY\n\n  // Do the fees get calculated for the current period or the next one? Current\n  // Does the minting depends on current stake or next?\n  // If I start staking at 10.5, my stake will only matter for 11, and the BOOTY generated after 11 will be based on the fees paid during 11, and can only be collected after 11 is done\n\n  function sendFees(uint256 bootyAmount) public {\n    updatePeriod();\n\n    require(bootyAmount > 0); // fees must be greater than 0\n    require(bootyToken.transferFrom(msg.sender, this, bootyAmount));\n\n    bootyToken.burn(bootyAmount);\n\n    uint256 currentBootyFees = periods[currentPeriod].bootyFees;\n    currentBootyFees = SafeMath.add(bootyAmount, currentBootyFees);\n    periods[currentPeriod].bootyFees = currentBootyFees;\n  }\n\n  function mintBooty() public {\n    updatePeriod();\n\n    Period storage period = periods[currentPeriod - 1];\n    require(!period.mintingComplete); // cant mint BOOTY twice\n\n    period.mintingComplete = true;\n\n    uint256 targetBootySupply = SafeMath.mul(period.bootyFees, 20);\n    uint256 totalBootySupply = bootyToken.totalSupply();\n\n    if (targetBootySupply > totalBootySupply) {\n      uint256 bootyMinted = targetBootySupply - totalBootySupply;\n      bootyToken.mint(this, bootyMinted);\n      period.bootyMinted = bootyMinted;\n    }\n  }\n\n  // This will check the current time and update the current period accordingly\n  // - called from all write functions to ensure the period is always up to date before any writes\n  // - can also be called externally, but there isn't a good reason for why you would want to\n  // - the while loop protects against the edge case where we miss a period\n\n  function updatePeriod() public {\n    while (now >= periods[currentPeriod].endTime) {\n      Period memory prevPeriod = periods[currentPeriod];\n      currentPeriod += 1;\n      periods[currentPeriod].startTime = prevPeriod.endTime;\n      periods[currentPeriod].endTime = SafeMath.add(prevPeriod.endTime, periodLength);\n    }\n  }\n\n  // In order to receive Booty, each staker will have to check-in every period.\n  // This check-in will compute the spankPoints locally and globally for each staker.\n  function checkIn(uint256 updatedEndingPeriod)  public {\n    updatePeriod();\n\n    Staker storage staker = stakers[msg.sender];\n\n    require(currentPeriod < staker.endingPeriod);\n\n    if (updatedEndingPeriod > 0) {\n      // TODO I'm not sure we can rely on the staker.endingPeriod to be greater than the\n      // currentPeriod - what if the staker expires but never withdraws their stake?\n      require(updatedEndingPeriod > currentPeriod);\n      require(updatedEndingPeriod > staker.endingPeriod);\n      require(updatedEndingPeriod <= currentPeriod + maxPeriods);\n\n      staker.endingPeriod = updatedEndingPeriod;\n    }\n\n    uint256 stakePeriods = staker.endingPeriod - currentPeriod;\n\n    // TODO combine this and the code from stake into their own function to reduce dup\n\n    // The spankAmount of spankPoints the user will have during the next staking period\n    uint256 nextSpankPoints = SafeMath.div(SafeMath.mul(staker.spankStaked, pointsTable[stakePeriods]), 100);\n\n    staker.spankPoints[currentPeriod + 1] = nextSpankPoints;\n\n    uint256 nextTotalSpankPoints = periods[currentPeriod + 1].totalSpankPoints;\n    nextTotalSpankPoints = SafeMath.add(nextTotalSpankPoints, nextSpankPoints);\n    periods[currentPeriod + 1].totalSpankPoints = nextTotalSpankPoints;\n  }\n\n  function claimBooty(uint256 _period) public {\n    updatePeriod();\n\n    require(_period < currentPeriod); // can only claim booty for previous periods\n\n    Staker storage staker = stakers[msg.sender];\n\n    require(!staker.didClaimBooty[_period]); // can only claim booty once\n\n    staker.didClaimBooty[_period] = true;\n\n    Period memory period = periods[_period];\n    uint256 bootyMinted = period.bootyMinted;\n    uint256 totalSpankPoints = period.totalSpankPoints;\n\n    if (totalSpankPoints > 0) {\n      uint256 stakerSpankPoints = staker.spankPoints[_period];\n      uint256 bootyOwed = SafeMath.div(SafeMath.mul(stakerSpankPoints, bootyMinted), totalSpankPoints);\n\n      require(bootyToken.transfer(msg.sender, bootyOwed));\n    }\n  }\n\n  function withdrawStake() public {\n    updatePeriod();\n\n    Staker storage staker = stakers[msg.sender];\n\n    require(currentPeriod > staker.endingPeriod);\n\n    spankToken.transfer(msg.sender, staker.spankStaked);\n\n    staker.spankStaked = 0;\n  }\n\n  function splitStake(address newAddress, uint256 spankAmount) public {\n    updatePeriod();\n\n    require(newAddress != address(0));\n    require(spankAmount > 0);\n\n    Staker storage staker = stakers[msg.sender];\n    require(currentPeriod < staker.endingPeriod);\n    require(spankAmount <= staker.spankStaked);\n    staker.spankStaked = SafeMath.sub(staker.spankStaked, spankAmount);\n\n    stakers[newAddress] = Staker(spankAmount, staker.startingPeriod, staker.endingPeriod);\n  }\n\n  // TODO as-is, the contract doesnt allow for dynamic stake allocation - you can only extend\n  // the entire stake, or withdraw the entire stake. Even if you could withdraw partial stake,\n  // you would still be making the decision to extend the entire stake, or not.\n  // - allow staker to split stake (or move some fraction under a new address)\n  // - accept that you have to extend the entire stake, and plan ahead accordingly\n  //   - split the stake up into several portions, and decide to extend / not each portion\n}\n",
  "sourcePath": "/app/contracts/SpankBank.sol",
  "compiler": {
    "name": "solc",
    "version": "0.4.23+commit.124ca40d.Emscripten.clang"
  },
  "schemaVersion": "2.0.0",
  "updatedAt": "2018-06-01T01:08:39.916Z"
}